{
  "_format": "hh-sol-artifact-1",
  "contractName": "Governance",
  "sourceName": "contracts/Gov.sol",
  "abi": [
    {
      "inputs": [
        {
          "internalType": "address",
          "name": "_mailbox",
          "type": "address"
        },
        {
          "internalType": "address",
          "name": "_governanceToken",
          "type": "address"
        },
        {
          "internalType": "address",
          "name": "_insurancePool",
          "type": "address"
        },
        {
          "internalType": "uint256",
          "name": "_votingDuration",
          "type": "uint256"
        },
        {
          "internalType": "address",
          "name": "_initialOwner",
          "type": "address"
        },
        {
          "internalType": "uint32",
          "name": "_destinationDomain",
          "type": "uint32"
        }
      ],
      "stateMutability": "nonpayable",
      "type": "constructor"
    },
    {
      "inputs": [
        {
          "internalType": "address",
          "name": "owner",
          "type": "address"
        }
      ],
      "name": "OwnableInvalidOwner",
      "type": "error"
    },
    {
      "inputs": [
        {
          "internalType": "address",
          "name": "account",
          "type": "address"
        }
      ],
      "name": "OwnableUnauthorizedAccount",
      "type": "error"
    },
    {
      "inputs": [],
      "name": "ReentrancyGuardReentrantCall",
      "type": "error"
    },
    {
      "inputs": [],
      "name": "VotingTimeElapsed",
      "type": "error"
    },
    {
      "anonymous": false,
      "inputs": [
        {
          "indexed": true,
          "internalType": "address",
          "name": "previousOwner",
          "type": "address"
        },
        {
          "indexed": true,
          "internalType": "address",
          "name": "newOwner",
          "type": "address"
        }
      ],
      "name": "OwnershipTransferred",
      "type": "event"
    },
    {
      "anonymous": false,
      "inputs": [
        {
          "indexed": true,
          "internalType": "uint256",
          "name": "proposalId",
          "type": "uint256"
        },
        {
          "indexed": true,
          "internalType": "address",
          "name": "creator",
          "type": "address"
        },
        {
          "indexed": false,
          "internalType": "string",
          "name": "description",
          "type": "string"
        },
        {
          "indexed": false,
          "internalType": "enum CoverLib.RiskType",
          "name": "riskType",
          "type": "uint8"
        },
        {
          "indexed": false,
          "internalType": "uint256",
          "name": "claimAmount",
          "type": "uint256"
        },
        {
          "indexed": false,
          "internalType": "enum CoverLib.ProposalStaus",
          "name": "status",
          "type": "uint8"
        }
      ],
      "name": "ProposalCreated",
      "type": "event"
    },
    {
      "anonymous": false,
      "inputs": [
        {
          "indexed": true,
          "internalType": "uint256",
          "name": "proposalId",
          "type": "uint256"
        },
        {
          "indexed": false,
          "internalType": "bool",
          "name": "approved",
          "type": "bool"
        }
      ],
      "name": "ProposalExecuted",
      "type": "event"
    },
    {
      "anonymous": false,
      "inputs": [
        {
          "indexed": true,
          "internalType": "uint32",
          "name": "origin",
          "type": "uint32"
        },
        {
          "indexed": true,
          "internalType": "bytes32",
          "name": "sender",
          "type": "bytes32"
        },
        {
          "indexed": false,
          "internalType": "string",
          "name": "message",
          "type": "string"
        }
      ],
      "name": "ReceivedMessage",
      "type": "event"
    },
    {
      "anonymous": false,
      "inputs": [
        {
          "indexed": true,
          "internalType": "address",
          "name": "voter",
          "type": "address"
        },
        {
          "indexed": true,
          "internalType": "uint256",
          "name": "proposalId",
          "type": "uint256"
        },
        {
          "indexed": false,
          "internalType": "bool",
          "name": "vote",
          "type": "bool"
        },
        {
          "indexed": false,
          "internalType": "uint256",
          "name": "weight",
          "type": "uint256"
        }
      ],
      "name": "VoteCast",
      "type": "event"
    },
    {
      "inputs": [],
      "name": "coverContract",
      "outputs": [
        {
          "internalType": "address",
          "name": "",
          "type": "address"
        }
      ],
      "stateMutability": "view",
      "type": "function"
    },
    {
      "inputs": [
        {
          "components": [
            {
              "internalType": "address",
              "name": "user",
              "type": "address"
            },
            {
              "internalType": "enum CoverLib.RiskType",
              "name": "riskType",
              "type": "uint8"
            },
            {
              "internalType": "uint256",
              "name": "coverId",
              "type": "uint256"
            },
            {
              "internalType": "string",
              "name": "txHash",
              "type": "string"
            },
            {
              "internalType": "string",
              "name": "description",
              "type": "string"
            },
            {
              "internalType": "uint256",
              "name": "poolId",
              "type": "uint256"
            },
            {
              "internalType": "uint256",
              "name": "claimAmount",
              "type": "uint256"
            }
          ],
          "internalType": "struct CoverLib.ProposalParams",
          "name": "params",
          "type": "tuple"
        }
      ],
      "name": "createProposal",
      "outputs": [],
      "stateMutability": "nonpayable",
      "type": "function"
    },
    {
      "inputs": [],
      "name": "destinationDomain",
      "outputs": [
        {
          "internalType": "uint32",
          "name": "",
          "type": "uint32"
        }
      ],
      "stateMutability": "view",
      "type": "function"
    },
    {
      "inputs": [
        {
          "internalType": "uint256",
          "name": "_proposalId",
          "type": "uint256"
        }
      ],
      "name": "executeProposal",
      "outputs": [],
      "stateMutability": "payable",
      "type": "function"
    },
    {
      "inputs": [],
      "name": "getActiveProposals",
      "outputs": [
        {
          "components": [
            {
              "internalType": "uint256",
              "name": "id",
              "type": "uint256"
            },
            {
              "internalType": "uint256",
              "name": "votesFor",
              "type": "uint256"
            },
            {
              "internalType": "uint256",
              "name": "votesAgainst",
              "type": "uint256"
            },
            {
              "internalType": "uint256",
              "name": "createdAt",
              "type": "uint256"
            },
            {
              "internalType": "uint256",
              "name": "deadline",
              "type": "uint256"
            },
            {
              "internalType": "uint256",
              "name": "timeleft",
              "type": "uint256"
            },
            {
              "internalType": "enum CoverLib.ProposalStaus",
              "name": "status",
              "type": "uint8"
            },
            {
              "internalType": "bool",
              "name": "executed",
              "type": "bool"
            },
            {
              "components": [
                {
                  "internalType": "address",
                  "name": "user",
                  "type": "address"
                },
                {
                  "internalType": "enum CoverLib.RiskType",
                  "name": "riskType",
                  "type": "uint8"
                },
                {
                  "internalType": "uint256",
                  "name": "coverId",
                  "type": "uint256"
                },
                {
                  "internalType": "string",
                  "name": "txHash",
                  "type": "string"
                },
                {
                  "internalType": "string",
                  "name": "description",
                  "type": "string"
                },
                {
                  "internalType": "uint256",
                  "name": "poolId",
                  "type": "uint256"
                },
                {
                  "internalType": "uint256",
                  "name": "claimAmount",
                  "type": "uint256"
                }
              ],
              "internalType": "struct CoverLib.ProposalParams",
              "name": "proposalParam",
              "type": "tuple"
            }
          ],
          "internalType": "struct CoverLib.Proposal[]",
          "name": "",
          "type": "tuple[]"
        }
      ],
      "stateMutability": "view",
      "type": "function"
    },
    {
      "inputs": [],
      "name": "getAllProposals",
      "outputs": [
        {
          "components": [
            {
              "internalType": "uint256",
              "name": "id",
              "type": "uint256"
            },
            {
              "internalType": "uint256",
              "name": "votesFor",
              "type": "uint256"
            },
            {
              "internalType": "uint256",
              "name": "votesAgainst",
              "type": "uint256"
            },
            {
              "internalType": "uint256",
              "name": "createdAt",
              "type": "uint256"
            },
            {
              "internalType": "uint256",
              "name": "deadline",
              "type": "uint256"
            },
            {
              "internalType": "uint256",
              "name": "timeleft",
              "type": "uint256"
            },
            {
              "internalType": "enum CoverLib.ProposalStaus",
              "name": "status",
              "type": "uint8"
            },
            {
              "internalType": "bool",
              "name": "executed",
              "type": "bool"
            },
            {
              "components": [
                {
                  "internalType": "address",
                  "name": "user",
                  "type": "address"
                },
                {
                  "internalType": "enum CoverLib.RiskType",
                  "name": "riskType",
                  "type": "uint8"
                },
                {
                  "internalType": "uint256",
                  "name": "coverId",
                  "type": "uint256"
                },
                {
                  "internalType": "string",
                  "name": "txHash",
                  "type": "string"
                },
                {
                  "internalType": "string",
                  "name": "description",
                  "type": "string"
                },
                {
                  "internalType": "uint256",
                  "name": "poolId",
                  "type": "uint256"
                },
                {
                  "internalType": "uint256",
                  "name": "claimAmount",
                  "type": "uint256"
                }
              ],
              "internalType": "struct CoverLib.ProposalParams",
              "name": "proposalParam",
              "type": "tuple"
            }
          ],
          "internalType": "struct CoverLib.Proposal[]",
          "name": "",
          "type": "tuple[]"
        }
      ],
      "stateMutability": "view",
      "type": "function"
    },
    {
      "inputs": [],
      "name": "getPastProposals",
      "outputs": [
        {
          "components": [
            {
              "internalType": "uint256",
              "name": "id",
              "type": "uint256"
            },
            {
              "internalType": "uint256",
              "name": "votesFor",
              "type": "uint256"
            },
            {
              "internalType": "uint256",
              "name": "votesAgainst",
              "type": "uint256"
            },
            {
              "internalType": "uint256",
              "name": "createdAt",
              "type": "uint256"
            },
            {
              "internalType": "uint256",
              "name": "deadline",
              "type": "uint256"
            },
            {
              "internalType": "uint256",
              "name": "timeleft",
              "type": "uint256"
            },
            {
              "internalType": "enum CoverLib.ProposalStaus",
              "name": "status",
              "type": "uint8"
            },
            {
              "internalType": "bool",
              "name": "executed",
              "type": "bool"
            },
            {
              "components": [
                {
                  "internalType": "address",
                  "name": "user",
                  "type": "address"
                },
                {
                  "internalType": "enum CoverLib.RiskType",
                  "name": "riskType",
                  "type": "uint8"
                },
                {
                  "internalType": "uint256",
                  "name": "coverId",
                  "type": "uint256"
                },
                {
                  "internalType": "string",
                  "name": "txHash",
                  "type": "string"
                },
                {
                  "internalType": "string",
                  "name": "description",
                  "type": "string"
                },
                {
                  "internalType": "uint256",
                  "name": "poolId",
                  "type": "uint256"
                },
                {
                  "internalType": "uint256",
                  "name": "claimAmount",
                  "type": "uint256"
                }
              ],
              "internalType": "struct CoverLib.ProposalParams",
              "name": "proposalParam",
              "type": "tuple"
            }
          ],
          "internalType": "struct CoverLib.Proposal[]",
          "name": "",
          "type": "tuple[]"
        }
      ],
      "stateMutability": "view",
      "type": "function"
    },
    {
      "inputs": [],
      "name": "getProposalCount",
      "outputs": [
        {
          "internalType": "uint256",
          "name": "",
          "type": "uint256"
        }
      ],
      "stateMutability": "view",
      "type": "function"
    },
    {
      "inputs": [
        {
          "internalType": "uint256",
          "name": "_proposalId",
          "type": "uint256"
        }
      ],
      "name": "getProposalDetails",
      "outputs": [
        {
          "components": [
            {
              "internalType": "uint256",
              "name": "id",
              "type": "uint256"
            },
            {
              "internalType": "uint256",
              "name": "votesFor",
              "type": "uint256"
            },
            {
              "internalType": "uint256",
              "name": "votesAgainst",
              "type": "uint256"
            },
            {
              "internalType": "uint256",
              "name": "createdAt",
              "type": "uint256"
            },
            {
              "internalType": "uint256",
              "name": "deadline",
              "type": "uint256"
            },
            {
              "internalType": "uint256",
              "name": "timeleft",
              "type": "uint256"
            },
            {
              "internalType": "enum CoverLib.ProposalStaus",
              "name": "status",
              "type": "uint8"
            },
            {
              "internalType": "bool",
              "name": "executed",
              "type": "bool"
            },
            {
              "components": [
                {
                  "internalType": "address",
                  "name": "user",
                  "type": "address"
                },
                {
                  "internalType": "enum CoverLib.RiskType",
                  "name": "riskType",
                  "type": "uint8"
                },
                {
                  "internalType": "uint256",
                  "name": "coverId",
                  "type": "uint256"
                },
                {
                  "internalType": "string",
                  "name": "txHash",
                  "type": "string"
                },
                {
                  "internalType": "string",
                  "name": "description",
                  "type": "string"
                },
                {
                  "internalType": "uint256",
                  "name": "poolId",
                  "type": "uint256"
                },
                {
                  "internalType": "uint256",
                  "name": "claimAmount",
                  "type": "uint256"
                }
              ],
              "internalType": "struct CoverLib.ProposalParams",
              "name": "proposalParam",
              "type": "tuple"
            }
          ],
          "internalType": "struct CoverLib.Proposal",
          "name": "",
          "type": "tuple"
        }
      ],
      "stateMutability": "nonpayable",
      "type": "function"
    },
    {
      "inputs": [],
      "name": "governanceToken",
      "outputs": [
        {
          "internalType": "contract IERC20",
          "name": "",
          "type": "address"
        }
      ],
      "stateMutability": "view",
      "type": "function"
    },
    {
      "inputs": [
        {
          "internalType": "uint32",
          "name": "_origin",
          "type": "uint32"
        },
        {
          "internalType": "bytes32",
          "name": "_sender",
          "type": "bytes32"
        },
        {
          "internalType": "bytes",
          "name": "_message",
          "type": "bytes"
        }
      ],
      "name": "handle",
      "outputs": [],
      "stateMutability": "payable",
      "type": "function"
    },
    {
      "inputs": [],
      "name": "interchainSecurityModule",
      "outputs": [
        {
          "internalType": "contract IInterchainSecurityModule",
          "name": "",
          "type": "address"
        }
      ],
      "stateMutability": "view",
      "type": "function"
    },
    {
      "inputs": [],
      "name": "mailbox",
      "outputs": [
        {
          "internalType": "contract IMailbox",
          "name": "",
          "type": "address"
        }
      ],
      "stateMutability": "view",
      "type": "function"
    },
    {
      "inputs": [],
      "name": "mailboxAddress",
      "outputs": [
        {
          "internalType": "address",
          "name": "",
          "type": "address"
        }
      ],
      "stateMutability": "view",
      "type": "function"
    },
    {
      "inputs": [],
      "name": "owner",
      "outputs": [
        {
          "internalType": "address",
          "name": "",
          "type": "address"
        }
      ],
      "stateMutability": "view",
      "type": "function"
    },
    {
      "inputs": [
        {
          "internalType": "uint256",
          "name": "poolId",
          "type": "uint256"
        }
      ],
      "name": "poolActive",
      "outputs": [
        {
          "internalType": "bool",
          "name": "",
          "type": "bool"
        }
      ],
      "stateMutability": "view",
      "type": "function"
    },
    {
      "inputs": [],
      "name": "poolContract",
      "outputs": [
        {
          "internalType": "address",
          "name": "",
          "type": "address"
        }
      ],
      "stateMutability": "view",
      "type": "function"
    },
    {
      "inputs": [],
      "name": "proposalCounter",
      "outputs": [
        {
          "internalType": "uint256",
          "name": "",
          "type": "uint256"
        }
      ],
      "stateMutability": "view",
      "type": "function"
    },
    {
      "inputs": [
        {
          "internalType": "uint256",
          "name": "",
          "type": "uint256"
        }
      ],
      "name": "proposalIds",
      "outputs": [
        {
          "internalType": "uint256",
          "name": "",
          "type": "uint256"
        }
      ],
      "stateMutability": "view",
      "type": "function"
    },
    {
      "inputs": [
        {
          "internalType": "uint256",
          "name": "",
          "type": "uint256"
        }
      ],
      "name": "proposals",
      "outputs": [
        {
          "internalType": "uint256",
          "name": "id",
          "type": "uint256"
        },
        {
          "internalType": "uint256",
          "name": "votesFor",
          "type": "uint256"
        },
        {
          "internalType": "uint256",
          "name": "votesAgainst",
          "type": "uint256"
        },
        {
          "internalType": "uint256",
          "name": "createdAt",
          "type": "uint256"
        },
        {
          "internalType": "uint256",
          "name": "deadline",
          "type": "uint256"
        },
        {
          "internalType": "uint256",
          "name": "timeleft",
          "type": "uint256"
        },
        {
          "internalType": "enum CoverLib.ProposalStaus",
          "name": "status",
          "type": "uint8"
        },
        {
          "internalType": "bool",
          "name": "executed",
          "type": "bool"
        },
        {
          "components": [
            {
              "internalType": "address",
              "name": "user",
              "type": "address"
            },
            {
              "internalType": "enum CoverLib.RiskType",
              "name": "riskType",
              "type": "uint8"
            },
            {
              "internalType": "uint256",
              "name": "coverId",
              "type": "uint256"
            },
            {
              "internalType": "string",
              "name": "txHash",
              "type": "string"
            },
            {
              "internalType": "string",
              "name": "description",
              "type": "string"
            },
            {
              "internalType": "uint256",
              "name": "poolId",
              "type": "uint256"
            },
            {
              "internalType": "uint256",
              "name": "claimAmount",
              "type": "uint256"
            }
          ],
          "internalType": "struct CoverLib.ProposalParams",
          "name": "proposalParam",
          "type": "tuple"
        }
      ],
      "stateMutability": "view",
      "type": "function"
    },
    {
      "inputs": [],
      "name": "renounceOwnership",
      "outputs": [],
      "stateMutability": "nonpayable",
      "type": "function"
    },
    {
      "inputs": [
        {
          "internalType": "address",
          "name": "_coverContract",
          "type": "address"
        }
      ],
      "name": "setCoverContract",
      "outputs": [],
      "stateMutability": "nonpayable",
      "type": "function"
    },
    {
      "inputs": [
        {
          "internalType": "uint32",
          "name": "_destinationDomain",
          "type": "uint32"
        }
      ],
      "name": "setDestinationDomain",
      "outputs": [],
      "stateMutability": "nonpayable",
      "type": "function"
    },
    {
      "inputs": [
        {
          "internalType": "address",
          "name": "_ism",
          "type": "address"
        }
      ],
      "name": "setInterchainSecurityModule",
      "outputs": [],
      "stateMutability": "nonpayable",
      "type": "function"
    },
    {
      "inputs": [
        {
          "internalType": "uint256",
          "name": "_newDuration",
          "type": "uint256"
        }
      ],
      "name": "setVotingDuration",
      "outputs": [],
      "stateMutability": "nonpayable",
      "type": "function"
    },
    {
      "inputs": [
        {
          "internalType": "address",
          "name": "newOwner",
          "type": "address"
        }
      ],
      "name": "transferOwnership",
      "outputs": [],
      "stateMutability": "nonpayable",
      "type": "function"
    },
    {
      "inputs": [
        {
          "internalType": "uint256",
          "name": "proposalId",
          "type": "uint256"
        }
      ],
      "name": "updateProposalStatusToClaimed",
      "outputs": [],
      "stateMutability": "nonpayable",
      "type": "function"
    },
    {
      "inputs": [
        {
          "internalType": "address",
          "name": "",
          "type": "address"
        },
        {
          "internalType": "uint256",
          "name": "",
          "type": "uint256"
        }
      ],
      "name": "userCovers",
      "outputs": [
        {
          "internalType": "address",
          "name": "user",
          "type": "address"
        },
        {
          "internalType": "uint256",
          "name": "coverId",
          "type": "uint256"
        },
        {
          "internalType": "enum CoverLib.RiskType",
          "name": "riskType",
          "type": "uint8"
        },
        {
          "internalType": "string",
          "name": "coverName",
          "type": "string"
        },
        {
          "internalType": "uint256",
          "name": "coverValue",
          "type": "uint256"
        },
        {
          "internalType": "uint256",
          "name": "claimPaid",
          "type": "uint256"
        },
        {
          "internalType": "uint256",
          "name": "coverPeriod",
          "type": "uint256"
        },
        {
          "internalType": "uint256",
          "name": "endDay",
          "type": "uint256"
        },
        {
          "internalType": "bool",
          "name": "isActive",
          "type": "bool"
        }
      ],
      "stateMutability": "view",
      "type": "function"
    },
    {
      "inputs": [
        {
          "internalType": "uint256",
          "name": "_proposalId",
          "type": "uint256"
        },
        {
          "internalType": "bool",
          "name": "_vote",
          "type": "bool"
        }
      ],
      "name": "vote",
      "outputs": [],
      "stateMutability": "nonpayable",
      "type": "function"
    },
    {
      "inputs": [
        {
          "internalType": "uint256",
          "name": "",
          "type": "uint256"
        },
        {
          "internalType": "address",
          "name": "",
          "type": "address"
        }
      ],
      "name": "voters",
      "outputs": [
        {
          "internalType": "bool",
          "name": "voted",
          "type": "bool"
        },
        {
          "internalType": "bool",
          "name": "vote",
          "type": "bool"
        },
        {
          "internalType": "uint256",
          "name": "weight",
          "type": "uint256"
        }
      ],
      "stateMutability": "view",
      "type": "function"
    },
    {
      "inputs": [],
      "name": "votingDuration",
      "outputs": [
        {
          "internalType": "uint256",
          "name": "",
          "type": "uint256"
        }
      ],
      "stateMutability": "view",
      "type": "function"
    },
    {
      "stateMutability": "payable",
      "type": "receive"
    }
  ],
  "bytecode": "0x608060405234801561001057600080fd5b506040516163a03803806163a08339818101604052810190610032919061039b565b816001600081905550600073ffffffffffffffffffffffffffffffffffffffff168173ffffffffffffffffffffffffffffffffffffffff16036100ad5760006040517f1e4fbdf70000000000000000000000000000000000000000000000000000000081526004016100a49190610437565b60405180910390fd5b6100bc8161020060201b60201c565b5085600b60006101000a81548173ffffffffffffffffffffffffffffffffffffffff021916908373ffffffffffffffffffffffffffffffffffffffff16021790555085600e60006101000a81548173ffffffffffffffffffffffffffffffffffffffff021916908373ffffffffffffffffffffffffffffffffffffffff16021790555084600a60006101000a81548173ffffffffffffffffffffffffffffffffffffffff021916908373ffffffffffffffffffffffffffffffffffffffff16021790555083600d60006101000a81548173ffffffffffffffffffffffffffffffffffffffff021916908373ffffffffffffffffffffffffffffffffffffffff160217905550603c836101ce9190610481565b60038190555080600460006101000a81548163ffffffff021916908363ffffffff1602179055505050505050506104c3565b6000600160009054906101000a900473ffffffffffffffffffffffffffffffffffffffff16905081600160006101000a81548173ffffffffffffffffffffffffffffffffffffffff021916908373ffffffffffffffffffffffffffffffffffffffff1602179055508173ffffffffffffffffffffffffffffffffffffffff168173ffffffffffffffffffffffffffffffffffffffff167f8be0079c531659141344cd1fd0a4f28419497f9722a3daafe3b4186f6b6457e060405160405180910390a35050565b600080fd5b600073ffffffffffffffffffffffffffffffffffffffff82169050919050565b60006102f6826102cb565b9050919050565b610306816102eb565b811461031157600080fd5b50565b600081519050610323816102fd565b92915050565b6000819050919050565b61033c81610329565b811461034757600080fd5b50565b60008151905061035981610333565b92915050565b600063ffffffff82169050919050565b6103788161035f565b811461038357600080fd5b50565b6000815190506103958161036f565b92915050565b60008060008060008060c087890312156103b8576103b76102c6565b5b60006103c689828a01610314565b96505060206103d789828a01610314565b95505060406103e889828a01610314565b94505060606103f989828a0161034a565b935050608061040a89828a01610314565b92505060a061041b89828a01610386565b9150509295509295509295565b610431816102eb565b82525050565b600060208201905061044c6000830184610428565b92915050565b7f4e487b7100000000000000000000000000000000000000000000000000000000600052601160045260246000fd5b600061048c82610329565b915061049783610329565b92508282026104a581610329565b915082820484148315176104bc576104bb610452565b5b5092915050565b615ece806104d26000396000f3fe6080604052600436106101dc5760003560e01c80639b644a2311610102578063d4bdf02311610095578063ee5424ab11610064578063ee5424ab146106b3578063f1b4bf9d146106dc578063f2fde38b14610705578063f96dae0a1461072e576101e3565b8063d4bdf02314610607578063d5438eae14610632578063d8f62f871461065d578063de523cf314610688576101e3565b8063c08cc02d116100d1578063c08cc02d1461055f578063c9d27afe1461058a578063cbef6b2e146105b3578063cceb68f5146105dc576101e3565b80639b644a23146104755780639e319063146104b25780639e7b399e146104f1578063ae63df8914610536576101e3565b80632858c55a1161017a5780635bcfadb5116101495780635bcfadb5146103df578063715018a61461040857806388d52ef71461041f5780638da5cb5b1461044a576101e3565b80632858c55a146103305780633b4d01a71461035b5780635584c4f91461039857806356d5d475146103c3576101e3565b80630e72cc06116101b65780630e72cc0614610274578063132002fc1461029d578063248a75b7146102c857806325f11e8d146102f3576101e3565b8063013cf08b146101e85780630c0512e91461022d5780630d61b51914610258576101e3565b366101e357005b600080fd5b3480156101f457600080fd5b5061020f600480360381019061020a9190613cbd565b610759565b60405161022499989796959493929190613f56565b60405180910390f35b34801561023957600080fd5b5061024261099e565b60405161024f9190613fea565b60405180910390f35b610272600480360381019061026d9190613cbd565b6109a4565b005b34801561028057600080fd5b5061029b60048036038101906102969190614031565b6112d8565b005b3480156102a957600080fd5b506102b2611323565b6040516102bf9190613fea565b60405180910390f35b3480156102d457600080fd5b506102dd611329565b6040516102ea919061406d565b60405180910390f35b3480156102ff57600080fd5b5061031a60048036038101906103159190613cbd565b61134f565b6040516103279190614088565b60405180910390f35b34801561033c57600080fd5b50610345611379565b60405161035291906140c2565b60405180910390f35b34801561036757600080fd5b50610382600480360381019061037d9190613cbd565b61138f565b60405161038f9190614263565b60405180910390f35b3480156103a457600080fd5b506103ad6116bd565b6040516103ba919061440c565b60405180910390f35b6103dd60048036038101906103d891906145c5565b611c61565b005b3480156103eb57600080fd5b5061040660048036038101906104019190613cbd565b612111565b005b34801561041457600080fd5b5061041d612166565b005b34801561042b57600080fd5b5061043461217a565b604051610441919061406d565b60405180910390f35b34801561045657600080fd5b5061045f6121a0565b60405161046c919061406d565b60405180910390f35b34801561048157600080fd5b5061049c60048036038101906104979190613cbd565b6121ca565b6040516104a99190613fea565b60405180910390f35b3480156104be57600080fd5b506104d960048036038101906104d49190614634565b6121ee565b6040516104e893929190614674565b60405180910390f35b3480156104fd57600080fd5b50610518600480360381019061051391906146ab565b61223f565b60405161052d99989796959493929190614744565b60405180910390f35b34801561054257600080fd5b5061055d600480360381019061055891906147d8565b61235c565b005b34801561056b57600080fd5b50610574612388565b6040516105819190613fea565b60405180910390f35b34801561059657600080fd5b506105b160048036038101906105ac9190614831565b612392565b005b3480156105bf57600080fd5b506105da60048036038101906105d59190614a2d565b6127df565b005b3480156105e857600080fd5b506105f1612d29565b6040516105fe919061440c565b60405180910390f35b34801561061357600080fd5b5061061c61312a565b604051610629919061440c565b60405180910390f35b34801561063e57600080fd5b5061064761363e565b6040516106549190614ad5565b60405180910390f35b34801561066957600080fd5b50610672613664565b60405161067f919061406d565b60405180910390f35b34801561069457600080fd5b5061069d61368a565b6040516106aa9190614b11565b60405180910390f35b3480156106bf57600080fd5b506106da60048036038101906106d59190614031565b6136ae565b005b3480156106e857600080fd5b5061070360048036038101906106fe9190613cbd565b6137fa565b005b34801561071157600080fd5b5061072c60048036038101906107279190614031565b613934565b005b34801561073a57600080fd5b506107436139ba565b6040516107509190614b4d565b60405180910390f35b60056020528060005260406000206000915090508060000154908060010154908060020154908060030154908060040154908060050154908060060160009054906101000a900460ff16908060060160019054906101000a900460ff1690806007016040518060e00160405290816000820160009054906101000a900473ffffffffffffffffffffffffffffffffffffffff1673ffffffffffffffffffffffffffffffffffffffff1673ffffffffffffffffffffffffffffffffffffffff1681526020016000820160149054906101000a900460ff16600381111561084157610840613cf9565b5b600381111561085357610852613cf9565b5b81526020016001820154815260200160028201805461087190614b97565b80601f016020809104026020016040519081016040528092919081815260200182805461089d90614b97565b80156108ea5780601f106108bf576101008083540402835291602001916108ea565b820191906000526020600020905b8154815290600101906020018083116108cd57829003601f168201915b5050505050815260200160038201805461090390614b97565b80601f016020809104026020016040519081016040528092919081815260200182805461092f90614b97565b801561097c5780601f106109515761010080835404028352916020019161097c565b820191906000526020600020905b81548152906001019060200180831161095f57829003601f168201915b5050505050815260200160048201548152602001600582015481525050905089565b60025481565b6109ac6139e0565b6109b4613a67565b6000600560008381526020019081526020016000209050600160048111156109df576109de613cf9565b5b8160060160009054906101000a900460ff166004811115610a0357610a02613cf9565b5b14610a43576040517f08c379a0000000000000000000000000000000000000000000000000000000008152600401610a3a90614c14565b60405180910390fd5b80600401544211610a89576040517f08c379a0000000000000000000000000000000000000000000000000000000008152600401610a8090614c80565b60405180910390fd5b8060060160019054906101000a900460ff1615610adb576040517f08c379a0000000000000000000000000000000000000000000000000000000008152600401610ad290614cec565b60405180910390fd5b60018160060160016101000a81548160ff0219169083151502179055508060020154816001015411156112535760026005600084815260200190815260200160002060060160006101000a81548160ff02191690836004811115610b4257610b41613cf9565b5b021790555060008160070160000160009054906101000a900473ffffffffffffffffffffffffffffffffffffffff1682600701600101548360070160050154604051602001610b9393929190614d0c565b604051602081830303815290604052604051602001610bb29190614de4565b60405160208183030381529060405290506000600b60009054906101000a900473ffffffffffffffffffffffffffffffffffffffff1673ffffffffffffffffffffffffffffffffffffffff16639c42bd18600460009054906101000a900463ffffffff16610c41600c60009054906101000a900473ffffffffffffffffffffffffffffffffffffffff16613aad565b856040518463ffffffff1660e01b8152600401610c6093929190614e28565b602060405180830381865afa158015610c7d573d6000803e3d6000fd5b505050506040513d601f19601f82011682018060405250810190610ca19190614e7b565b9050600b60009054906101000a900473ffffffffffffffffffffffffffffffffffffffff1673ffffffffffffffffffffffffffffffffffffffff1663fa31de0182600460009054906101000a900463ffffffff16610d20600c60009054906101000a900473ffffffffffffffffffffffffffffffffffffffff16613aad565b866040518563ffffffff1660e01b8152600401610d3f93929190614e28565b60206040518083038185885af1158015610d5d573d6000803e3d6000fd5b50505050506040513d601f19601f82011682018060405250810190610d829190614ebd565b50600083604051806101200160405290816000820154815260200160018201548152602001600282015481526020016003820154815260200160048201548152602001600582015481526020016006820160009054906101000a900460ff166004811115610df357610df2613cf9565b5b6004811115610e0557610e04613cf9565b5b81526020016006820160019054906101000a900460ff16151515158152602001600782016040518060e00160405290816000820160009054906101000a900473ffffffffffffffffffffffffffffffffffffffff1673ffffffffffffffffffffffffffffffffffffffff1673ffffffffffffffffffffffffffffffffffffffff1681526020016000820160149054906101000a900460ff166003811115610eaf57610eae613cf9565b5b6003811115610ec157610ec0613cf9565b5b815260200160018201548152602001600282018054610edf90614b97565b80601f0160208091040260200160405190810160405280929190818152602001828054610f0b90614b97565b8015610f585780601f10610f2d57610100808354040283529160200191610f58565b820191906000526020600020905b815481529060010190602001808311610f3b57829003601f168201915b50505050508152602001600382018054610f7190614b97565b80601f0160208091040260200160405190810160405280929190818152602001828054610f9d90614b97565b8015610fea5780601f10610fbf57610100808354040283529160200191610fea565b820191906000526020600020905b815481529060010190602001808311610fcd57829003601f168201915b50505050508152602001600482015481526020016005820154815250508152505090506000816040516020016110209190614263565b60405160208183030381529060405260405160200161103f9190614f36565b60405160208183030381529060405290506000600b60009054906101000a900473ffffffffffffffffffffffffffffffffffffffff1673ffffffffffffffffffffffffffffffffffffffff16639c42bd18600460009054906101000a900463ffffffff166110ce600d60009054906101000a900473ffffffffffffffffffffffffffffffffffffffff16613aad565b856040518463ffffffff1660e01b81526004016110ed93929190614e28565b602060405180830381865afa15801561110a573d6000803e3d6000fd5b505050506040513d601f19601f8201168201806040525081019061112e9190614e7b565b9050600b60009054906101000a900473ffffffffffffffffffffffffffffffffffffffff1673ffffffffffffffffffffffffffffffffffffffff1663fa31de0182600460009054906101000a900463ffffffff166111ad600d60009054906101000a900473ffffffffffffffffffffffffffffffffffffffff16613aad565b866040518563ffffffff1660e01b81526004016111cc93929190614e28565b60206040518083038185885af11580156111ea573d6000803e3d6000fd5b50505050506040513d601f19601f8201168201806040525081019061120f9190614ebd565b50867f948f4a9cd986f1118c3fbd459f7a22b23c0693e1ca3ef06a6a8be5aa7d39cc0360016040516112419190614088565b60405180910390a250505050506112cc565b60046005600084815260200190815260200160002060060160006101000a81548160ff0219169083600481111561128d5761128c613cf9565b5b0217905550817f948f4a9cd986f1118c3fbd459f7a22b23c0693e1ca3ef06a6a8be5aa7d39cc0360006040516112c39190614088565b60405180910390a25b506112d5613ad0565b50565b6112e06139e0565b806004806101000a81548173ffffffffffffffffffffffffffffffffffffffff021916908373ffffffffffffffffffffffffffffffffffffffff16021790555050565b60035481565b600c60009054906101000a900473ffffffffffffffffffffffffffffffffffffffff1681565b60006009600083815260200190815260200160002060009054906101000a900460ff169050919050565b600460009054906101000a900463ffffffff1681565b611397613ba8565b600560008381526020019081526020016000206004015442106113d5576000600560008481526020019081526020016000206005018190555061141e565b603c4260056000858152602001908152602001600020600401546113f99190614f9a565b6114039190614ffd565b60056000848152602001908152602001600020600501819055505b60056000838152602001908152602001600020604051806101200160405290816000820154815260200160018201548152602001600282015481526020016003820154815260200160048201548152602001600582015481526020016006820160009054906101000a900460ff16600481111561149e5761149d613cf9565b5b60048111156114b0576114af613cf9565b5b81526020016006820160019054906101000a900460ff16151515158152602001600782016040518060e00160405290816000820160009054906101000a900473ffffffffffffffffffffffffffffffffffffffff1673ffffffffffffffffffffffffffffffffffffffff1673ffffffffffffffffffffffffffffffffffffffff1681526020016000820160149054906101000a900460ff16600381111561155a57611559613cf9565b5b600381111561156c5761156b613cf9565b5b81526020016001820154815260200160028201805461158a90614b97565b80601f01602080910402602001604051908101604052809291908181526020018280546115b690614b97565b80156116035780601f106115d857610100808354040283529160200191611603565b820191906000526020600020905b8154815290600101906020018083116115e657829003601f168201915b5050505050815260200160038201805461161c90614b97565b80601f016020809104026020016040519081016040528092919081815260200182805461164890614b97565b80156116955780601f1061166a57610100808354040283529160200191611695565b820191906000526020600020905b81548152906001019060200180831161167857829003601f168201915b5050505050815260200160048201548152602001600582015481525050815250509050919050565b60606000805b60088054905081101561176757600060056000600884815481106116ea576116e961502e565b5b9060005260206000200154815260200190815260200160002060040154148061174657504260056000600884815481106117275761172661502e565b5b9060005260206000200154815260200190815260200160002060040154115b1561175a5781806117569061505d565b9250505b80806001019150506116c3565b5060008167ffffffffffffffff8111156117845761178361449a565b5b6040519080825280602002602001820160405280156117bd57816020015b6117aa613ba8565b8152602001906001900390816117a25790505b5090506000805b600880549050811015611c5757600060056000600884815481106117eb576117ea61502e565b5b9060005260206000200154815260200190815260200160002060040154148061184857504260056000600884815481106118285761182761502e565b5b906000526020600020015481526020019081526020016000206004015410155b15611c4a5760056000600883815481106118655761186461502e565b5b90600052602060002001548152602001908152602001600020604051806101200160405290816000820154815260200160018201548152602001600282015481526020016003820154815260200160048201548152602001600582015481526020016006820160009054906101000a900460ff1660048111156118eb576118ea613cf9565b5b60048111156118fd576118fc613cf9565b5b81526020016006820160019054906101000a900460ff16151515158152602001600782016040518060e00160405290816000820160009054906101000a900473ffffffffffffffffffffffffffffffffffffffff1673ffffffffffffffffffffffffffffffffffffffff1673ffffffffffffffffffffffffffffffffffffffff1681526020016000820160149054906101000a900460ff1660038111156119a7576119a6613cf9565b5b60038111156119b9576119b8613cf9565b5b8152602001600182015481526020016002820180546119d790614b97565b80601f0160208091040260200160405190810160405280929190818152602001828054611a0390614b97565b8015611a505780601f10611a2557610100808354040283529160200191611a50565b820191906000526020600020905b815481529060010190602001808311611a3357829003601f168201915b50505050508152602001600382018054611a6990614b97565b80601f0160208091040260200160405190810160405280929190818152602001828054611a9590614b97565b8015611ae25780601f10611ab757610100808354040283529160200191611ae2565b820191906000526020600020905b815481529060010190602001808311611ac557829003601f168201915b505050505081526020016004820154815260200160058201548152505081525050838381518110611b1657611b1561502e565b5b6020026020010181905250828281518110611b3457611b3361502e565b5b602002602001015160800151421480611bb2575060006004811115611b5c57611b5b613cf9565b5b6005600060088481548110611b7457611b7361502e565b5b9060005260206000200154815260200190815260200160002060060160009054906101000a900460ff166004811115611bb057611baf613cf9565b5b145b15611be1576000838381518110611bcc57611bcb61502e565b5b602002602001015160a0018181525050611c3b565b603c42848481518110611bf757611bf661502e565b5b602002602001015160800151611c0d9190614f9a565b611c179190614ffd565b838381518110611c2a57611c2961502e565b5b602002602001015160a00181815250505b8180611c469061505d565b9250505b80806001019150506117c4565b5081935050505090565b600b60009054906101000a900473ffffffffffffffffffffffffffffffffffffffff1673ffffffffffffffffffffffffffffffffffffffff163373ffffffffffffffffffffffffffffffffffffffff1614611cf1576040517f08c379a0000000000000000000000000000000000000000000000000000000008152600401611ce8906150f1565b60405180910390fd5b60008082806020019051810190611d0891906151f1565b91509150604051602001611d1b906152c0565b6040516020818303038152906040528051906020012082604051602001611d429190615306565b6040516020818303038152906040528051906020012003611d8157600081806020019051810190611d739190614e7b565b9050611d7e8161138f565b50505b604051602001611d9090615369565b6040516020818303038152906040528051906020012082604051602001611db79190615306565b6040516020818303038152906040528051906020012003611df557600081806020019051810190611de89190614e7b565b9050611df3816137fa565b505b604051602001611e04906153ca565b6040516020818303038152906040528051906020012082604051602001611e2b9190615306565b6040516020818303038152906040528051906020012003611e8c57600081806020019051810190611e5c9190614e7b565b905060016009600083815260200190815260200160002060006101000a81548160ff021916908315150217905550505b604051602001611e9b9061542b565b6040516020818303038152906040528051906020012082604051602001611ec29190615306565b6040516020818303038152906040528051906020012003611f2357600081806020019051810190611ef39190614e7b565b905060006009600083815260200190815260200160002060006101000a81548160ff021916908315150217905550505b604051602001611f329061548c565b6040516020818303038152906040528051906020012082604051602001611f599190615306565b60405160208183030381529060405280519060200120036120cb57600080600083806020019051810190611f8d919061561a565b92509250925080600660008573ffffffffffffffffffffffffffffffffffffffff1673ffffffffffffffffffffffffffffffffffffffff168152602001908152602001600020600084815260200190815260200160002060008201518160000160006101000a81548173ffffffffffffffffffffffffffffffffffffffff021916908373ffffffffffffffffffffffffffffffffffffffff1602179055506020820151816001015560408201518160020160006101000a81548160ff021916908360038111156120605761205f613cf9565b5b0217905550606082015181600301908161207a919061582b565b506080820151816004015560a0820151816005015560c0820151816006015560e082015181600701556101008201518160080160006101000a81548160ff0219169083151502179055509050505050505b838563ffffffff167fba67744c899113a84f615d51af5d82f5fedcf26c9a474d9363c3ad9b0bd501ac8560405161210291906158fd565b60405180910390a35050505050565b6121196139e0565b6000811161215c576040517f08c379a000000000000000000000000000000000000000000000000000000000815260040161215390615991565b60405180910390fd5b8060038190555050565b61216e6139e0565b6121786000613ada565b565b600d60009054906101000a900473ffffffffffffffffffffffffffffffffffffffff1681565b6000600160009054906101000a900473ffffffffffffffffffffffffffffffffffffffff16905090565b600881815481106121da57600080fd5b906000526020600020016000915090505481565b6007602052816000526040600020602052806000526040600020600091509150508060000160009054906101000a900460ff16908060000160019054906101000a900460ff16908060010154905083565b6006602052816000526040600020602052806000526040600020600091509150508060000160009054906101000a900473ffffffffffffffffffffffffffffffffffffffff16908060010154908060020160009054906101000a900460ff16908060030180546122ae90614b97565b80601f01602080910402602001604051908101604052809291908181526020018280546122da90614b97565b80156123275780601f106122fc57610100808354040283529160200191612327565b820191906000526020600020905b81548152906001019060200180831161230a57829003601f168201915b5050505050908060040154908060050154908060060154908060070154908060080160009054906101000a900460ff16905089565b6123646139e0565b80600460006101000a81548163ffffffff021916908363ffffffff16021790555050565b6000600254905090565b6007600083815260200190815260200160002060003373ffffffffffffffffffffffffffffffffffffffff1673ffffffffffffffffffffffffffffffffffffffff16815260200190815260200160002060000160009054906101000a900460ff1615612433576040517f08c379a000000000000000000000000000000000000000000000000000000000815260040161242a906159fd565b60405180910390fd5b60006005600084815260200190815260200160002090506000816003015403612491576040517f08c379a000000000000000000000000000000000000000000000000000000000815260040161248890615a69565b60405180910390fd5b600060048111156124a5576124a4613cf9565b5b8160060160009054906101000a900460ff1660048111156124c9576124c8613cf9565b5b0361253a5760018160060160006101000a81548160ff021916908360048111156124f6576124f5613cf9565b5b0217905550600354426125099190615a89565b8160040181905550603c4282600401546125239190614f9a565b61252d9190614ffd565b8160050181905550612582565b8060040154421061258157600081600501819055506040517f16440a5100000000000000000000000000000000000000000000000000000000815260040160405180910390fd5b5b603c4282600401546125949190614f9a565b61259e9190614ffd565b81600501819055506000600a60009054906101000a900473ffffffffffffffffffffffffffffffffffffffff1673ffffffffffffffffffffffffffffffffffffffff166370a08231336040518263ffffffff1660e01b8152600401612603919061406d565b602060405180830381865afa158015612620573d6000803e3d6000fd5b505050506040513d601f19601f820116820180604052508101906126449190614e7b565b905060008111612689576040517f08c379a000000000000000000000000000000000000000000000000000000000815260040161268090615b09565b60405180910390fd5b60405180606001604052806001151581526020018415158152602001828152506007600086815260200190815260200160002060003373ffffffffffffffffffffffffffffffffffffffff1673ffffffffffffffffffffffffffffffffffffffff16815260200190815260200160002060008201518160000160006101000a81548160ff02191690831515021790555060208201518160000160016101000a81548160ff02191690831515021790555060408201518160010155905050821561276c57808260010160008282546127609190615a89565b92505081905550612788565b808260020160008282546127809190615a89565b925050819055505b833373ffffffffffffffffffffffffffffffffffffffff167f877856338e13f63d0c36822ff0ef736b80934cd90574a3a5bc9262c39d217c4685846040516127d1929190615b29565b60405180910390a350505050565b600060066000836000015173ffffffffffffffffffffffffffffffffffffffff1673ffffffffffffffffffffffffffffffffffffffff168152602001908152602001600020600083604001518152602001908152602001600020604051806101200160405290816000820160009054906101000a900473ffffffffffffffffffffffffffffffffffffffff1673ffffffffffffffffffffffffffffffffffffffff1673ffffffffffffffffffffffffffffffffffffffff168152602001600182015481526020016002820160009054906101000a900460ff1660038111156128ca576128c9613cf9565b5b60038111156128dc576128db613cf9565b5b81526020016003820180546128f090614b97565b80601f016020809104026020016040519081016040528092919081815260200182805461291c90614b97565b80156129695780601f1061293e57610100808354040283529160200191612969565b820191906000526020600020905b81548152906001019060200180831161294c57829003601f168201915b50505050508152602001600482015481526020016005820154815260200160068201548152602001600782015481526020016008820160009054906101000a900460ff161515151581525050905080608001518260c001511115612a02576040517f08c379a00000000000000000000000000000000000000000000000000000000081526004016129f990615bc4565b60405180910390fd5b600960008360a00151815260200190815260200160002060009054906101000a900460ff16612a66576040517f08c379a0000000000000000000000000000000000000000000000000000000008152600401612a5d90615c30565b60405180910390fd5b60008260c0015111612aad576040517f08c379a0000000000000000000000000000000000000000000000000000000008152600401612aa490615cc2565b60405180910390fd5b60026000815480929190612ac09061505d565b919050555060405180610120016040528060025481526020016000815260200160008152602001428152602001600081526020016000815260200160006004811115612b0f57612b0e613cf9565b5b815260200160001515815260200183815250600560006002548152602001908152602001600020600082015181600001556020820151816001015560408201518160020155606082015181600301556080820151816004015560a0820151816005015560c08201518160060160006101000a81548160ff02191690836004811115612b9d57612b9c613cf9565b5b021790555060e08201518160060160016101000a81548160ff0219169083151502179055506101008201518160070160008201518160000160006101000a81548173ffffffffffffffffffffffffffffffffffffffff021916908373ffffffffffffffffffffffffffffffffffffffff16021790555060208201518160000160146101000a81548160ff02191690836003811115612c3e57612c3d613cf9565b5b0217905550604082015181600101556060820151816002019081612c62919061582b565b506080820151816003019081612c78919061582b565b5060a0820151816004015560c08201518160050155505090505060086002549080600181540180825580915050600190039060005260206000200160009091909190915055816000015173ffffffffffffffffffffffffffffffffffffffff166002547f46b0c19f3bb130a0d6b56daca2a88a6b26094fb630786130084dc69e99692295846080015185602001518660c001516000604051612d1d9493929190615ce2565b60405180910390a35050565b6060600060088054905067ffffffffffffffff811115612d4c57612d4b61449a565b5b604051908082528060200260200182016040528015612d8557816020015b612d72613ba8565b815260200190600190039081612d6a5790505b50905060005b600880549050811015613122576005600060088381548110612db057612daf61502e565b5b90600052602060002001548152602001908152602001600020604051806101200160405290816000820154815260200160018201548152602001600282015481526020016003820154815260200160048201548152602001600582015481526020016006820160009054906101000a900460ff166004811115612e3657612e35613cf9565b5b6004811115612e4857612e47613cf9565b5b81526020016006820160019054906101000a900460ff16151515158152602001600782016040518060e00160405290816000820160009054906101000a900473ffffffffffffffffffffffffffffffffffffffff1673ffffffffffffffffffffffffffffffffffffffff1673ffffffffffffffffffffffffffffffffffffffff1681526020016000820160149054906101000a900460ff166003811115612ef257612ef1613cf9565b5b6003811115612f0457612f03613cf9565b5b815260200160018201548152602001600282018054612f2290614b97565b80601f0160208091040260200160405190810160405280929190818152602001828054612f4e90614b97565b8015612f9b5780601f10612f7057610100808354040283529160200191612f9b565b820191906000526020600020905b815481529060010190602001808311612f7e57829003601f168201915b50505050508152602001600382018054612fb490614b97565b80601f0160208091040260200160405190810160405280929190818152602001828054612fe090614b97565b801561302d5780601f106130025761010080835404028352916020019161302d565b820191906000526020600020905b81548152906001019060200180831161301057829003601f168201915b5050505050815260200160048201548152602001600582015481525050815250508282815181106130615761306061502e565b5b602002602001018190525081818151811061307f5761307e61502e565b5b60200260200101516080015142106130bb5760008282815181106130a6576130a561502e565b5b602002602001015160a0018181525050613115565b603c428383815181106130d1576130d061502e565b5b6020026020010151608001516130e79190614f9a565b6130f19190614ffd565b8282815181106131045761310361502e565b5b602002602001015160a00181815250505b8080600101915050612d8b565b508091505090565b60606000805b600880549050811015613207576000600481111561315157613150613cf9565b5b60056000600884815481106131695761316861502e565b5b9060005260206000200154815260200190815260200160002060060160009054906101000a900460ff1660048111156131a5576131a4613cf9565b5b141580156131e657504260056000600884815481106131c7576131c661502e565b5b9060005260206000200154815260200190815260200160002060040154105b156131fa5781806131f69061505d565b9250505b8080600101915050613130565b5060008167ffffffffffffffff8111156132245761322361449a565b5b60405190808252806020026020018201604052801561325d57816020015b61324a613ba8565b8152602001906001900390816132425790505b5090506000805b600880549050811015613634576000600481111561328557613284613cf9565b5b600560006008848154811061329d5761329c61502e565b5b9060005260206000200154815260200190815260200160002060060160009054906101000a900460ff1660048111156132d9576132d8613cf9565b5b1415801561331a57504260056000600884815481106132fb576132fa61502e565b5b9060005260206000200154815260200190815260200160002060040154105b156136275760056000600883815481106133375761333661502e565b5b90600052602060002001548152602001908152602001600020604051806101200160405290816000820154815260200160018201548152602001600282015481526020016003820154815260200160048201548152602001600582015481526020016006820160009054906101000a900460ff1660048111156133bd576133bc613cf9565b5b60048111156133cf576133ce613cf9565b5b81526020016006820160019054906101000a900460ff16151515158152602001600782016040518060e00160405290816000820160009054906101000a900473ffffffffffffffffffffffffffffffffffffffff1673ffffffffffffffffffffffffffffffffffffffff1673ffffffffffffffffffffffffffffffffffffffff1681526020016000820160149054906101000a900460ff16600381111561347957613478613cf9565b5b600381111561348b5761348a613cf9565b5b8152602001600182015481526020016002820180546134a990614b97565b80601f01602080910402602001604051908101604052809291908181526020018280546134d590614b97565b80156135225780601f106134f757610100808354040283529160200191613522565b820191906000526020600020905b81548152906001019060200180831161350557829003601f168201915b5050505050815260200160038201805461353b90614b97565b80601f016020809104026020016040519081016040528092919081815260200182805461356790614b97565b80156135b45780601f10613589576101008083540402835291602001916135b4565b820191906000526020600020905b81548152906001019060200180831161359757829003601f168201915b5050505050815260200160048201548152602001600582015481525050815250508383815181106135e8576135e761502e565b5b602002602001018190525060008383815181106136085761360761502e565b5b602002602001015160a001818152505081806136239061505d565b9250505b8080600101915050613264565b5081935050505090565b600b60009054906101000a900473ffffffffffffffffffffffffffffffffffffffff1681565b600e60009054906101000a900473ffffffffffffffffffffffffffffffffffffffff1681565b60048054906101000a900473ffffffffffffffffffffffffffffffffffffffff1681565b6136b66139e0565b600073ffffffffffffffffffffffffffffffffffffffff16600c60009054906101000a900473ffffffffffffffffffffffffffffffffffffffff1673ffffffffffffffffffffffffffffffffffffffff1614613747576040517f08c379a000000000000000000000000000000000000000000000000000000000815260040161373e90615d7a565b60405180910390fd5b600073ffffffffffffffffffffffffffffffffffffffff168173ffffffffffffffffffffffffffffffffffffffff16036137b6576040517f08c379a00000000000000000000000000000000000000000000000000000000081526004016137ad90615e0c565b60405180910390fd5b80600c60006101000a81548173ffffffffffffffffffffffffffffffffffffffff021916908373ffffffffffffffffffffffffffffffffffffffff16021790555050565b600e60009054906101000a900473ffffffffffffffffffffffffffffffffffffffff1673ffffffffffffffffffffffffffffffffffffffff163373ffffffffffffffffffffffffffffffffffffffff1614806138a35750600c60009054906101000a900473ffffffffffffffffffffffffffffffffffffffff1673ffffffffffffffffffffffffffffffffffffffff163373ffffffffffffffffffffffffffffffffffffffff16145b6138e2576040517f08c379a00000000000000000000000000000000000000000000000000000000081526004016138d990615e78565b60405180910390fd5b6138ea613a67565b60036005600083815260200190815260200160002060060160006101000a81548160ff0219169083600481111561392457613923613cf9565b5b0217905550613931613ad0565b50565b61393c6139e0565b600073ffffffffffffffffffffffffffffffffffffffff168173ffffffffffffffffffffffffffffffffffffffff16036139ae5760006040517f1e4fbdf70000000000000000000000000000000000000000000000000000000081526004016139a5919061406d565b60405180910390fd5b6139b781613ada565b50565b600a60009054906101000a900473ffffffffffffffffffffffffffffffffffffffff1681565b6139e8613ba0565b73ffffffffffffffffffffffffffffffffffffffff16613a066121a0565b73ffffffffffffffffffffffffffffffffffffffff1614613a6557613a29613ba0565b6040517f118cdaa7000000000000000000000000000000000000000000000000000000008152600401613a5c919061406d565b60405180910390fd5b565b600260005403613aa3576040517f3ee5aeb500000000000000000000000000000000000000000000000000000000815260040160405180910390fd5b6002600081905550565b60008173ffffffffffffffffffffffffffffffffffffffff1660001b9050919050565b6001600081905550565b6000600160009054906101000a900473ffffffffffffffffffffffffffffffffffffffff16905081600160006101000a81548173ffffffffffffffffffffffffffffffffffffffff021916908373ffffffffffffffffffffffffffffffffffffffff1602179055508173ffffffffffffffffffffffffffffffffffffffff168173ffffffffffffffffffffffffffffffffffffffff167f8be0079c531659141344cd1fd0a4f28419497f9722a3daafe3b4186f6b6457e060405160405180910390a35050565b600033905090565b60405180610120016040528060008152602001600081526020016000815260200160008152602001600081526020016000815260200160006004811115613bf257613bf1613cf9565b5b8152602001600015158152602001613c08613c0e565b81525090565b6040518060e00160405280600073ffffffffffffffffffffffffffffffffffffffff16815260200160006003811115613c4a57613c49613cf9565b5b815260200160008152602001606081526020016060815260200160008152602001600081525090565b6000604051905090565b600080fd5b600080fd5b6000819050919050565b613c9a81613c87565b8114613ca557600080fd5b50565b600081359050613cb781613c91565b92915050565b600060208284031215613cd357613cd2613c7d565b5b6000613ce184828501613ca8565b91505092915050565b613cf381613c87565b82525050565b7f4e487b7100000000000000000000000000000000000000000000000000000000600052602160045260246000fd5b60058110613d3957613d38613cf9565b5b50565b6000819050613d4a82613d28565b919050565b6000613d5a82613d3c565b9050919050565b613d6a81613d4f565b82525050565b60008115159050919050565b613d8581613d70565b82525050565b600073ffffffffffffffffffffffffffffffffffffffff82169050919050565b6000613db682613d8b565b9050919050565b613dc681613dab565b82525050565b60048110613ddd57613ddc613cf9565b5b50565b6000819050613dee82613dcc565b919050565b6000613dfe82613de0565b9050919050565b613e0e81613df3565b82525050565b613e1d81613c87565b82525050565b600081519050919050565b600082825260208201905092915050565b60005b83811015613e5d578082015181840152602081019050613e42565b60008484015250505050565b6000601f19601f8301169050919050565b6000613e8582613e23565b613e8f8185613e2e565b9350613e9f818560208601613e3f565b613ea881613e69565b840191505092915050565b600060e083016000830151613ecb6000860182613dbd565b506020830151613ede6020860182613e05565b506040830151613ef16040860182613e14565b5060608301518482036060860152613f098282613e7a565b91505060808301518482036080860152613f238282613e7a565b91505060a0830151613f3860a0860182613e14565b5060c0830151613f4b60c0860182613e14565b508091505092915050565b600061012082019050613f6c600083018c613cea565b613f79602083018b613cea565b613f86604083018a613cea565b613f936060830189613cea565b613fa06080830188613cea565b613fad60a0830187613cea565b613fba60c0830186613d61565b613fc760e0830185613d7c565b818103610100830152613fda8184613eb3565b90509a9950505050505050505050565b6000602082019050613fff6000830184613cea565b92915050565b61400e81613dab565b811461401957600080fd5b50565b60008135905061402b81614005565b92915050565b60006020828403121561404757614046613c7d565b5b60006140558482850161401c565b91505092915050565b61406781613dab565b82525050565b6000602082019050614082600083018461405e565b92915050565b600060208201905061409d6000830184613d7c565b92915050565b600063ffffffff82169050919050565b6140bc816140a3565b82525050565b60006020820190506140d760008301846140b3565b92915050565b6140e681613d4f565b82525050565b6140f581613d70565b82525050565b600060e0830160008301516141136000860182613dbd565b5060208301516141266020860182613e05565b5060408301516141396040860182613e14565b50606083015184820360608601526141518282613e7a565b9150506080830151848203608086015261416b8282613e7a565b91505060a083015161418060a0860182613e14565b5060c083015161419360c0860182613e14565b508091505092915050565b6000610120830160008301516141b76000860182613e14565b5060208301516141ca6020860182613e14565b5060408301516141dd6040860182613e14565b5060608301516141f06060860182613e14565b5060808301516142036080860182613e14565b5060a083015161421660a0860182613e14565b5060c083015161422960c08601826140dd565b5060e083015161423c60e08601826140ec565b5061010083015184820361010086015261425682826140fb565b9150508091505092915050565b6000602082019050818103600083015261427d818461419e565b905092915050565b600081519050919050565b600082825260208201905092915050565b6000819050602082019050919050565b6000610120830160008301516142ca6000860182613e14565b5060208301516142dd6020860182613e14565b5060408301516142f06040860182613e14565b5060608301516143036060860182613e14565b5060808301516143166080860182613e14565b5060a083015161432960a0860182613e14565b5060c083015161433c60c08601826140dd565b5060e083015161434f60e08601826140ec565b5061010083015184820361010086015261436982826140fb565b9150508091505092915050565b600061438283836142b1565b905092915050565b6000602082019050919050565b60006143a282614285565b6143ac8185614290565b9350836020820285016143be856142a1565b8060005b858110156143fa57848403895281516143db8582614376565b94506143e68361438a565b925060208a019950506001810190506143c2565b50829750879550505050505092915050565b600060208201905081810360008301526144268184614397565b905092915050565b614437816140a3565b811461444257600080fd5b50565b6000813590506144548161442e565b92915050565b6000819050919050565b61446d8161445a565b811461447857600080fd5b50565b60008135905061448a81614464565b92915050565b600080fd5b600080fd5b7f4e487b7100000000000000000000000000000000000000000000000000000000600052604160045260246000fd5b6144d282613e69565b810181811067ffffffffffffffff821117156144f1576144f061449a565b5b80604052505050565b6000614504613c73565b905061451082826144c9565b919050565b600067ffffffffffffffff8211156145305761452f61449a565b5b61453982613e69565b9050602081019050919050565b82818337600083830152505050565b600061456861456384614515565b6144fa565b90508281526020810184848401111561458457614583614495565b5b61458f848285614546565b509392505050565b600082601f8301126145ac576145ab614490565b5b81356145bc848260208601614555565b91505092915050565b6000806000606084860312156145de576145dd613c7d565b5b60006145ec86828701614445565b93505060206145fd8682870161447b565b925050604084013567ffffffffffffffff81111561461e5761461d613c82565b5b61462a86828701614597565b9150509250925092565b6000806040838503121561464b5761464a613c7d565b5b600061465985828601613ca8565b925050602061466a8582860161401c565b9150509250929050565b60006060820190506146896000830186613d7c565b6146966020830185613d7c565b6146a36040830184613cea565b949350505050565b600080604083850312156146c2576146c1613c7d565b5b60006146d08582860161401c565b92505060206146e185828601613ca8565b9150509250929050565b6146f481613df3565b82525050565b600082825260208201905092915050565b600061471682613e23565b61472081856146fa565b9350614730818560208601613e3f565b61473981613e69565b840191505092915050565b60006101208201905061475a600083018c61405e565b614767602083018b613cea565b614774604083018a6146eb565b8181036060830152614786818961470b565b90506147956080830188613cea565b6147a260a0830187613cea565b6147af60c0830186613cea565b6147bc60e0830185613cea565b6147ca610100830184613d7c565b9a9950505050505050505050565b6000602082840312156147ee576147ed613c7d565b5b60006147fc84828501614445565b91505092915050565b61480e81613d70565b811461481957600080fd5b50565b60008135905061482b81614805565b92915050565b6000806040838503121561484857614847613c7d565b5b600061485685828601613ca8565b92505060206148678582860161481c565b9150509250929050565b600080fd5b600080fd5b6004811061488857600080fd5b50565b60008135905061489a8161487b565b92915050565b600067ffffffffffffffff8211156148bb576148ba61449a565b5b6148c482613e69565b9050602081019050919050565b60006148e46148df846148a0565b6144fa565b905082815260208101848484011115614900576148ff614495565b5b61490b848285614546565b509392505050565b600082601f83011261492857614927614490565b5b81356149388482602086016148d1565b91505092915050565b600060e0828403121561495757614956614871565b5b61496160e06144fa565b905060006149718482850161401c565b60008301525060206149858482850161488b565b602083015250604061499984828501613ca8565b604083015250606082013567ffffffffffffffff8111156149bd576149bc614876565b5b6149c984828501614913565b606083015250608082013567ffffffffffffffff8111156149ed576149ec614876565b5b6149f984828501614913565b60808301525060a0614a0d84828501613ca8565b60a08301525060c0614a2184828501613ca8565b60c08301525092915050565b600060208284031215614a4357614a42613c7d565b5b600082013567ffffffffffffffff811115614a6157614a60613c82565b5b614a6d84828501614941565b91505092915050565b6000819050919050565b6000614a9b614a96614a9184613d8b565b614a76565b613d8b565b9050919050565b6000614aad82614a80565b9050919050565b6000614abf82614aa2565b9050919050565b614acf81614ab4565b82525050565b6000602082019050614aea6000830184614ac6565b92915050565b6000614afb82614aa2565b9050919050565b614b0b81614af0565b82525050565b6000602082019050614b266000830184614b02565b92915050565b6000614b3782614aa2565b9050919050565b614b4781614b2c565b82525050565b6000602082019050614b626000830184614b3e565b92915050565b7f4e487b7100000000000000000000000000000000000000000000000000000000600052602260045260246000fd5b60006002820490506001821680614baf57607f821691505b602082108103614bc257614bc1614b68565b5b50919050565b7f50726f706f73616c206e6f742070656e64696e67000000000000000000000000600082015250565b6000614bfe6014836146fa565b9150614c0982614bc8565b602082019050919050565b60006020820190508181036000830152614c2d81614bf1565b9050919050565b7f566f74696e6720706572696f64206973207374696c6c20616374697665000000600082015250565b6000614c6a601d836146fa565b9150614c7582614c34565b602082019050919050565b60006020820190508181036000830152614c9981614c5d565b9050919050565b7f50726f706f73616c20616c726561647920657865637574656400000000000000600082015250565b6000614cd66019836146fa565b9150614ce182614ca0565b602082019050919050565b60006020820190508181036000830152614d0581614cc9565b9050919050565b6000606082019050614d21600083018661405e565b614d2e6020830185613cea565b614d3b6040830184613cea565b949350505050565b7f75706461746555736572436f76657256616c7565000000000000000000000000600082015250565b6000614d796014836146fa565b9150614d8482614d43565b602082019050919050565b600081519050919050565b600082825260208201905092915050565b6000614db682614d8f565b614dc08185614d9a565b9350614dd0818560208601613e3f565b614dd981613e69565b840191505092915050565b60006040820190508181036000830152614dfd81614d6c565b90508181036020830152614e118184614dab565b905092915050565b614e228161445a565b82525050565b6000606082019050614e3d60008301866140b3565b614e4a6020830185614e19565b8181036040830152614e5c8184614dab565b9050949350505050565b600081519050614e7581613c91565b92915050565b600060208284031215614e9157614e90613c7d565b5b6000614e9f84828501614e66565b91505092915050565b600081519050614eb781614464565b92915050565b600060208284031215614ed357614ed2613c7d565b5b6000614ee184828501614ea8565b91505092915050565b7f617070726f76656450726f706f73616c73000000000000000000000000000000600082015250565b6000614f206011836146fa565b9150614f2b82614eea565b602082019050919050565b60006040820190508181036000830152614f4f81614f13565b90508181036020830152614f638184614dab565b905092915050565b7f4e487b7100000000000000000000000000000000000000000000000000000000600052601160045260246000fd5b6000614fa582613c87565b9150614fb083613c87565b9250828203905081811115614fc857614fc7614f6b565b5b92915050565b7f4e487b7100000000000000000000000000000000000000000000000000000000600052601260045260246000fd5b600061500882613c87565b915061501383613c87565b92508261502357615022614fce565b5b828204905092915050565b7f4e487b7100000000000000000000000000000000000000000000000000000000600052603260045260246000fd5b600061506882613c87565b91507fffffffffffffffffffffffffffffffffffffffffffffffffffffffffffffffff820361509a57615099614f6b565b5b600182019050919050565b7f53656e646572206d757374206265206d61696c626f7800000000000000000000600082015250565b60006150db6016836146fa565b91506150e6826150a5565b602082019050919050565b6000602082019050818103600083015261510a816150ce565b9050919050565b600061512461511f846148a0565b6144fa565b9050828152602081018484840111156151405761513f614495565b5b61514b848285613e3f565b509392505050565b600082601f83011261516857615167614490565b5b8151615178848260208601615111565b91505092915050565b600061519461518f84614515565b6144fa565b9050828152602081018484840111156151b0576151af614495565b5b6151bb848285613e3f565b509392505050565b600082601f8301126151d8576151d7614490565b5b81516151e8848260208601615181565b91505092915050565b6000806040838503121561520857615207613c7d565b5b600083015167ffffffffffffffff81111561522657615225613c82565b5b61523285828601615153565b925050602083015167ffffffffffffffff81111561525357615252613c82565b5b61525f858286016151c3565b9150509250929050565b600081905092915050565b7f67657450726f706f73616c44657461696c730000000000000000000000000000600082015250565b60006152aa601283615269565b91506152b582615274565b601282019050919050565b60006152cb8261529d565b9150819050919050565b60006152e082613e23565b6152ea8185615269565b93506152fa818560208601613e3f565b80840191505092915050565b600061531282846152d5565b915081905092915050565b7f75706461746550726f706f73616c537461747573546f436c61696d6564000000600082015250565b6000615353601d83615269565b915061535e8261531d565b601d82019050919050565b600061537482615346565b9150819050919050565b7f506f6f6c41637469766500000000000000000000000000000000000000000000600082015250565b60006153b4600a83615269565b91506153bf8261537e565b600a82019050919050565b60006153d5826153a7565b9150819050919050565b7f506f6f6c44656163746976617465640000000000000000000000000000000000600082015250565b6000615415600f83615269565b9150615420826153df565b600f82019050919050565b600061543682615408565b9150819050919050565b7f55736572436f7665720000000000000000000000000000000000000000000000600082015250565b6000615476600983615269565b915061548182615440565b600982019050919050565b600061549782615469565b9150819050919050565b60006154ac82613d8b565b9050919050565b6154bc816154a1565b81146154c757600080fd5b50565b6000815190506154d9816154b3565b92915050565b6000815190506154ee81614005565b92915050565b6000815190506155038161487b565b92915050565b60008151905061551881614805565b92915050565b6000610120828403121561553557615534614871565b5b6155406101206144fa565b90506000615550848285016154df565b600083015250602061556484828501614e66565b6020830152506040615578848285016154f4565b604083015250606082015167ffffffffffffffff81111561559c5761559b614876565b5b6155a884828501615153565b60608301525060806155bc84828501614e66565b60808301525060a06155d084828501614e66565b60a08301525060c06155e484828501614e66565b60c08301525060e06155f884828501614e66565b60e08301525061010061560d84828501615509565b6101008301525092915050565b60008060006060848603121561563357615632613c7d565b5b6000615641868287016154ca565b935050602061565286828701614e66565b925050604084015167ffffffffffffffff81111561567357615672613c82565b5b61567f8682870161551e565b9150509250925092565b60008190508160005260206000209050919050565b60006020601f8301049050919050565b600082821b905092915050565b6000600883026156eb7fffffffffffffffffffffffffffffffffffffffffffffffffffffffffffffffff826156ae565b6156f586836156ae565b95508019841693508086168417925050509392505050565b600061572861572361571e84613c87565b614a76565b613c87565b9050919050565b6000819050919050565b6157428361570d565b61575661574e8261572f565b8484546156bb565b825550505050565b600090565b61576b61575e565b615776818484615739565b505050565b5b8181101561579a5761578f600082615763565b60018101905061577c565b5050565b601f8211156157df576157b081615689565b6157b98461569e565b810160208510156157c8578190505b6157dc6157d48561569e565b83018261577b565b50505b505050565b600082821c905092915050565b6000615802600019846008026157e4565b1980831691505092915050565b600061581b83836157f1565b9150826002028217905092915050565b61583482613e23565b67ffffffffffffffff81111561584d5761584c61449a565b5b6158578254614b97565b61586282828561579e565b600060209050601f8311600181146158955760008415615883578287015190505b61588d858261580f565b8655506158f5565b601f1984166158a386615689565b60005b828110156158cb578489015182556001820191506020850194506020810190506158a6565b868310156158e857848901516158e4601f8916826157f1565b8355505b6001600288020188555050505b505050505050565b60006020820190508181036000830152615917818461470b565b905092915050565b7f566f74696e67206475726174696f6e206d75737420626520677265617465722060008201527f7468616e20300000000000000000000000000000000000000000000000000000602082015250565b600061597b6026836146fa565b91506159868261591f565b604082019050919050565b600060208201905081810360008301526159aa8161596e565b9050919050565b7f416c726561647920766f74656400000000000000000000000000000000000000600082015250565b60006159e7600d836146fa565b91506159f2826159b1565b602082019050919050565b60006020820190508181036000830152615a16816159da565b9050919050565b7f50726f706f73616c20646f6573206e6f74206578697374000000000000000000600082015250565b6000615a536017836146fa565b9150615a5e82615a1d565b602082019050919050565b60006020820190508181036000830152615a8281615a46565b9050919050565b6000615a9482613c87565b9150615a9f83613c87565b9250828201905080821115615ab757615ab6614f6b565b5b92915050565b7f4e6f20766f74696e672077656967687400000000000000000000000000000000600082015250565b6000615af36010836146fa565b9150615afe82615abd565b602082019050919050565b60006020820190508181036000830152615b2281615ae6565b9050919050565b6000604082019050615b3e6000830185613d7c565b615b4b6020830184613cea565b9392505050565b7f4e6f742073756666696369656e7420636f7665722076616c756520666f72206360008201527f6c61696d00000000000000000000000000000000000000000000000000000000602082015250565b6000615bae6024836146fa565b9150615bb982615b52565b604082019050919050565b60006020820190508181036000830152615bdd81615ba1565b9050919050565b7f506f6f6c20646f6573206e6f7420657869737400000000000000000000000000600082015250565b6000615c1a6013836146fa565b9150615c2582615be4565b602082019050919050565b60006020820190508181036000830152615c4981615c0d565b9050919050565b7f436c61696d20616d6f756e74206d75737420626520677265617465722074686160008201527f6e20300000000000000000000000000000000000000000000000000000000000602082015250565b6000615cac6023836146fa565b9150615cb782615c50565b604082019050919050565b60006020820190508181036000830152615cdb81615c9f565b9050919050565b60006080820190508181036000830152615cfc818761470b565b9050615d0b60208301866146eb565b615d186040830185613cea565b615d256060830184613d61565b95945050505050565b7f476f7665726e616e636520616c72656164792073657400000000000000000000600082015250565b6000615d646016836146fa565b9150615d6f82615d2e565b602082019050919050565b60006020820190508181036000830152615d9381615d57565b9050919050565b7f476f7665726e616e636520616464726573732063616e6e6f74206265207a657260008201527f6f00000000000000000000000000000000000000000000000000000000000000602082015250565b6000615df66021836146fa565b9150615e0182615d9a565b604082019050919050565b60006020820190508181036000830152615e2581615de9565b9050919050565b7f4e6f7420617574686f72697a6564000000000000000000000000000000000000600082015250565b6000615e62600e836146fa565b9150615e6d82615e2c565b602082019050919050565b60006020820190508181036000830152615e9181615e55565b905091905056fea2646970667358221220e23fd4ac0819a268b068c6d5605669948ae7fb3b1bb2d1c5092320a7334293d564736f6c634300081b0033",
  "linkReferences": {},
  "deployedLinkReferences": {}
}