{
  "_format": "hh-sol-artifact-1",
  "contractName": "Governance",
  "sourceName": "contracts/Gov.sol",
  "abi": [
    {
      "inputs": [
        {
          "internalType": "address",
          "name": "_mailbox",
          "type": "address"
        },
        {
          "internalType": "address",
          "name": "_governanceToken",
          "type": "address"
        },
        {
          "internalType": "address",
          "name": "_insurancePool",
          "type": "address"
        },
        {
          "internalType": "uint256",
          "name": "_votingDuration",
          "type": "uint256"
        },
        {
          "internalType": "address",
          "name": "_initialOwner",
          "type": "address"
        },
        {
          "internalType": "uint256",
          "name": "_destinationDomain",
          "type": "uint256"
        }
      ],
      "stateMutability": "nonpayable",
      "type": "constructor"
    },
    {
      "inputs": [
        {
          "internalType": "address",
          "name": "owner",
          "type": "address"
        }
      ],
      "name": "OwnableInvalidOwner",
      "type": "error"
    },
    {
      "inputs": [
        {
          "internalType": "address",
          "name": "account",
          "type": "address"
        }
      ],
      "name": "OwnableUnauthorizedAccount",
      "type": "error"
    },
    {
      "inputs": [],
      "name": "ReentrancyGuardReentrantCall",
      "type": "error"
    },
    {
      "inputs": [],
      "name": "VotingTimeElapsed",
      "type": "error"
    },
    {
      "anonymous": false,
      "inputs": [
        {
          "indexed": true,
          "internalType": "address",
          "name": "previousOwner",
          "type": "address"
        },
        {
          "indexed": true,
          "internalType": "address",
          "name": "newOwner",
          "type": "address"
        }
      ],
      "name": "OwnershipTransferred",
      "type": "event"
    },
    {
      "anonymous": false,
      "inputs": [
        {
          "indexed": true,
          "internalType": "uint256",
          "name": "proposalId",
          "type": "uint256"
        },
        {
          "indexed": true,
          "internalType": "address",
          "name": "creator",
          "type": "address"
        },
        {
          "indexed": false,
          "internalType": "string",
          "name": "description",
          "type": "string"
        },
        {
          "indexed": false,
          "internalType": "enum CoverLib.RiskType",
          "name": "riskType",
          "type": "uint8"
        },
        {
          "indexed": false,
          "internalType": "uint256",
          "name": "claimAmount",
          "type": "uint256"
        },
        {
          "indexed": false,
          "internalType": "enum CoverLib.ProposalStaus",
          "name": "status",
          "type": "uint8"
        }
      ],
      "name": "ProposalCreated",
      "type": "event"
    },
    {
      "anonymous": false,
      "inputs": [
        {
          "indexed": true,
          "internalType": "uint256",
          "name": "proposalId",
          "type": "uint256"
        },
        {
          "indexed": false,
          "internalType": "bool",
          "name": "approved",
          "type": "bool"
        }
      ],
      "name": "ProposalExecuted",
      "type": "event"
    },
    {
      "anonymous": false,
      "inputs": [
        {
          "indexed": true,
          "internalType": "uint32",
          "name": "origin",
          "type": "uint32"
        },
        {
          "indexed": true,
          "internalType": "bytes32",
          "name": "sender",
          "type": "bytes32"
        },
        {
          "indexed": false,
          "internalType": "string",
          "name": "message",
          "type": "string"
        }
      ],
      "name": "ReceivedMessage",
      "type": "event"
    },
    {
      "anonymous": false,
      "inputs": [
        {
          "indexed": true,
          "internalType": "address",
          "name": "voter",
          "type": "address"
        },
        {
          "indexed": true,
          "internalType": "uint256",
          "name": "proposalId",
          "type": "uint256"
        },
        {
          "indexed": false,
          "internalType": "bool",
          "name": "vote",
          "type": "bool"
        },
        {
          "indexed": false,
          "internalType": "uint256",
          "name": "weight",
          "type": "uint256"
        }
      ],
      "name": "VoteCast",
      "type": "event"
    },
    {
      "inputs": [],
      "name": "coverContract",
      "outputs": [
        {
          "internalType": "address",
          "name": "",
          "type": "address"
        }
      ],
      "stateMutability": "view",
      "type": "function"
    },
    {
      "inputs": [
        {
          "components": [
            {
              "internalType": "address",
              "name": "user",
              "type": "address"
            },
            {
              "internalType": "enum CoverLib.RiskType",
              "name": "riskType",
              "type": "uint8"
            },
            {
              "internalType": "uint256",
              "name": "coverId",
              "type": "uint256"
            },
            {
              "internalType": "string",
              "name": "txHash",
              "type": "string"
            },
            {
              "internalType": "string",
              "name": "description",
              "type": "string"
            },
            {
              "internalType": "uint256",
              "name": "poolId",
              "type": "uint256"
            },
            {
              "internalType": "uint256",
              "name": "claimAmount",
              "type": "uint256"
            }
          ],
          "internalType": "struct CoverLib.ProposalParams",
          "name": "params",
          "type": "tuple"
        }
      ],
      "name": "createProposal",
      "outputs": [],
      "stateMutability": "nonpayable",
      "type": "function"
    },
    {
      "inputs": [],
      "name": "destinationDomain",
      "outputs": [
        {
          "internalType": "uint32",
          "name": "",
          "type": "uint32"
        }
      ],
      "stateMutability": "view",
      "type": "function"
    },
    {
      "inputs": [
        {
          "internalType": "uint256",
          "name": "_proposalId",
          "type": "uint256"
        }
      ],
      "name": "executeProposal",
      "outputs": [],
      "stateMutability": "nonpayable",
      "type": "function"
    },
    {
      "inputs": [],
      "name": "getActiveProposals",
      "outputs": [
        {
          "components": [
            {
              "internalType": "uint256",
              "name": "id",
              "type": "uint256"
            },
            {
              "internalType": "uint256",
              "name": "votesFor",
              "type": "uint256"
            },
            {
              "internalType": "uint256",
              "name": "votesAgainst",
              "type": "uint256"
            },
            {
              "internalType": "uint256",
              "name": "createdAt",
              "type": "uint256"
            },
            {
              "internalType": "uint256",
              "name": "deadline",
              "type": "uint256"
            },
            {
              "internalType": "uint256",
              "name": "timeleft",
              "type": "uint256"
            },
            {
              "internalType": "enum CoverLib.ProposalStaus",
              "name": "status",
              "type": "uint8"
            },
            {
              "internalType": "bool",
              "name": "executed",
              "type": "bool"
            },
            {
              "components": [
                {
                  "internalType": "address",
                  "name": "user",
                  "type": "address"
                },
                {
                  "internalType": "enum CoverLib.RiskType",
                  "name": "riskType",
                  "type": "uint8"
                },
                {
                  "internalType": "uint256",
                  "name": "coverId",
                  "type": "uint256"
                },
                {
                  "internalType": "string",
                  "name": "txHash",
                  "type": "string"
                },
                {
                  "internalType": "string",
                  "name": "description",
                  "type": "string"
                },
                {
                  "internalType": "uint256",
                  "name": "poolId",
                  "type": "uint256"
                },
                {
                  "internalType": "uint256",
                  "name": "claimAmount",
                  "type": "uint256"
                }
              ],
              "internalType": "struct CoverLib.ProposalParams",
              "name": "proposalParam",
              "type": "tuple"
            }
          ],
          "internalType": "struct CoverLib.Proposal[]",
          "name": "",
          "type": "tuple[]"
        }
      ],
      "stateMutability": "view",
      "type": "function"
    },
    {
      "inputs": [],
      "name": "getAllProposals",
      "outputs": [
        {
          "components": [
            {
              "internalType": "uint256",
              "name": "id",
              "type": "uint256"
            },
            {
              "internalType": "uint256",
              "name": "votesFor",
              "type": "uint256"
            },
            {
              "internalType": "uint256",
              "name": "votesAgainst",
              "type": "uint256"
            },
            {
              "internalType": "uint256",
              "name": "createdAt",
              "type": "uint256"
            },
            {
              "internalType": "uint256",
              "name": "deadline",
              "type": "uint256"
            },
            {
              "internalType": "uint256",
              "name": "timeleft",
              "type": "uint256"
            },
            {
              "internalType": "enum CoverLib.ProposalStaus",
              "name": "status",
              "type": "uint8"
            },
            {
              "internalType": "bool",
              "name": "executed",
              "type": "bool"
            },
            {
              "components": [
                {
                  "internalType": "address",
                  "name": "user",
                  "type": "address"
                },
                {
                  "internalType": "enum CoverLib.RiskType",
                  "name": "riskType",
                  "type": "uint8"
                },
                {
                  "internalType": "uint256",
                  "name": "coverId",
                  "type": "uint256"
                },
                {
                  "internalType": "string",
                  "name": "txHash",
                  "type": "string"
                },
                {
                  "internalType": "string",
                  "name": "description",
                  "type": "string"
                },
                {
                  "internalType": "uint256",
                  "name": "poolId",
                  "type": "uint256"
                },
                {
                  "internalType": "uint256",
                  "name": "claimAmount",
                  "type": "uint256"
                }
              ],
              "internalType": "struct CoverLib.ProposalParams",
              "name": "proposalParam",
              "type": "tuple"
            }
          ],
          "internalType": "struct CoverLib.Proposal[]",
          "name": "",
          "type": "tuple[]"
        }
      ],
      "stateMutability": "view",
      "type": "function"
    },
    {
      "inputs": [],
      "name": "getPastProposals",
      "outputs": [
        {
          "components": [
            {
              "internalType": "uint256",
              "name": "id",
              "type": "uint256"
            },
            {
              "internalType": "uint256",
              "name": "votesFor",
              "type": "uint256"
            },
            {
              "internalType": "uint256",
              "name": "votesAgainst",
              "type": "uint256"
            },
            {
              "internalType": "uint256",
              "name": "createdAt",
              "type": "uint256"
            },
            {
              "internalType": "uint256",
              "name": "deadline",
              "type": "uint256"
            },
            {
              "internalType": "uint256",
              "name": "timeleft",
              "type": "uint256"
            },
            {
              "internalType": "enum CoverLib.ProposalStaus",
              "name": "status",
              "type": "uint8"
            },
            {
              "internalType": "bool",
              "name": "executed",
              "type": "bool"
            },
            {
              "components": [
                {
                  "internalType": "address",
                  "name": "user",
                  "type": "address"
                },
                {
                  "internalType": "enum CoverLib.RiskType",
                  "name": "riskType",
                  "type": "uint8"
                },
                {
                  "internalType": "uint256",
                  "name": "coverId",
                  "type": "uint256"
                },
                {
                  "internalType": "string",
                  "name": "txHash",
                  "type": "string"
                },
                {
                  "internalType": "string",
                  "name": "description",
                  "type": "string"
                },
                {
                  "internalType": "uint256",
                  "name": "poolId",
                  "type": "uint256"
                },
                {
                  "internalType": "uint256",
                  "name": "claimAmount",
                  "type": "uint256"
                }
              ],
              "internalType": "struct CoverLib.ProposalParams",
              "name": "proposalParam",
              "type": "tuple"
            }
          ],
          "internalType": "struct CoverLib.Proposal[]",
          "name": "",
          "type": "tuple[]"
        }
      ],
      "stateMutability": "view",
      "type": "function"
    },
    {
      "inputs": [],
      "name": "getProposalCount",
      "outputs": [
        {
          "internalType": "uint256",
          "name": "",
          "type": "uint256"
        }
      ],
      "stateMutability": "view",
      "type": "function"
    },
    {
      "inputs": [
        {
          "internalType": "uint256",
          "name": "_proposalId",
          "type": "uint256"
        }
      ],
      "name": "getProposalDetails",
      "outputs": [
        {
          "components": [
            {
              "internalType": "uint256",
              "name": "id",
              "type": "uint256"
            },
            {
              "internalType": "uint256",
              "name": "votesFor",
              "type": "uint256"
            },
            {
              "internalType": "uint256",
              "name": "votesAgainst",
              "type": "uint256"
            },
            {
              "internalType": "uint256",
              "name": "createdAt",
              "type": "uint256"
            },
            {
              "internalType": "uint256",
              "name": "deadline",
              "type": "uint256"
            },
            {
              "internalType": "uint256",
              "name": "timeleft",
              "type": "uint256"
            },
            {
              "internalType": "enum CoverLib.ProposalStaus",
              "name": "status",
              "type": "uint8"
            },
            {
              "internalType": "bool",
              "name": "executed",
              "type": "bool"
            },
            {
              "components": [
                {
                  "internalType": "address",
                  "name": "user",
                  "type": "address"
                },
                {
                  "internalType": "enum CoverLib.RiskType",
                  "name": "riskType",
                  "type": "uint8"
                },
                {
                  "internalType": "uint256",
                  "name": "coverId",
                  "type": "uint256"
                },
                {
                  "internalType": "string",
                  "name": "txHash",
                  "type": "string"
                },
                {
                  "internalType": "string",
                  "name": "description",
                  "type": "string"
                },
                {
                  "internalType": "uint256",
                  "name": "poolId",
                  "type": "uint256"
                },
                {
                  "internalType": "uint256",
                  "name": "claimAmount",
                  "type": "uint256"
                }
              ],
              "internalType": "struct CoverLib.ProposalParams",
              "name": "proposalParam",
              "type": "tuple"
            }
          ],
          "internalType": "struct CoverLib.Proposal",
          "name": "",
          "type": "tuple"
        }
      ],
      "stateMutability": "nonpayable",
      "type": "function"
    },
    {
      "inputs": [],
      "name": "governanceToken",
      "outputs": [
        {
          "internalType": "contract IERC20",
          "name": "",
          "type": "address"
        }
      ],
      "stateMutability": "view",
      "type": "function"
    },
    {
      "inputs": [
        {
          "internalType": "uint32",
          "name": "_origin",
          "type": "uint32"
        },
        {
          "internalType": "bytes32",
          "name": "_sender",
          "type": "bytes32"
        },
        {
          "internalType": "bytes",
          "name": "_message",
          "type": "bytes"
        }
      ],
      "name": "handle",
      "outputs": [],
      "stateMutability": "payable",
      "type": "function"
    },
    {
      "inputs": [],
      "name": "interchainSecurityModule",
      "outputs": [
        {
          "internalType": "contract IInterchainSecurityModule",
          "name": "",
          "type": "address"
        }
      ],
      "stateMutability": "view",
      "type": "function"
    },
    {
      "inputs": [],
      "name": "mailbox",
      "outputs": [
        {
          "internalType": "contract IMailbox",
          "name": "",
          "type": "address"
        }
      ],
      "stateMutability": "view",
      "type": "function"
    },
    {
      "inputs": [],
      "name": "mailboxAddress",
      "outputs": [
        {
          "internalType": "address",
          "name": "",
          "type": "address"
        }
      ],
      "stateMutability": "view",
      "type": "function"
    },
    {
      "inputs": [],
      "name": "owner",
      "outputs": [
        {
          "internalType": "address",
          "name": "",
          "type": "address"
        }
      ],
      "stateMutability": "view",
      "type": "function"
    },
    {
      "inputs": [
        {
          "internalType": "uint256",
          "name": "poolId",
          "type": "uint256"
        }
      ],
      "name": "poolActive",
      "outputs": [
        {
          "internalType": "bool",
          "name": "",
          "type": "bool"
        }
      ],
      "stateMutability": "view",
      "type": "function"
    },
    {
      "inputs": [],
      "name": "poolContract",
      "outputs": [
        {
          "internalType": "address",
          "name": "",
          "type": "address"
        }
      ],
      "stateMutability": "view",
      "type": "function"
    },
    {
      "inputs": [],
      "name": "proposalCounter",
      "outputs": [
        {
          "internalType": "uint256",
          "name": "",
          "type": "uint256"
        }
      ],
      "stateMutability": "view",
      "type": "function"
    },
    {
      "inputs": [
        {
          "internalType": "uint256",
          "name": "",
          "type": "uint256"
        }
      ],
      "name": "proposalIds",
      "outputs": [
        {
          "internalType": "uint256",
          "name": "",
          "type": "uint256"
        }
      ],
      "stateMutability": "view",
      "type": "function"
    },
    {
      "inputs": [
        {
          "internalType": "uint256",
          "name": "",
          "type": "uint256"
        }
      ],
      "name": "proposals",
      "outputs": [
        {
          "internalType": "uint256",
          "name": "id",
          "type": "uint256"
        },
        {
          "internalType": "uint256",
          "name": "votesFor",
          "type": "uint256"
        },
        {
          "internalType": "uint256",
          "name": "votesAgainst",
          "type": "uint256"
        },
        {
          "internalType": "uint256",
          "name": "createdAt",
          "type": "uint256"
        },
        {
          "internalType": "uint256",
          "name": "deadline",
          "type": "uint256"
        },
        {
          "internalType": "uint256",
          "name": "timeleft",
          "type": "uint256"
        },
        {
          "internalType": "enum CoverLib.ProposalStaus",
          "name": "status",
          "type": "uint8"
        },
        {
          "internalType": "bool",
          "name": "executed",
          "type": "bool"
        },
        {
          "components": [
            {
              "internalType": "address",
              "name": "user",
              "type": "address"
            },
            {
              "internalType": "enum CoverLib.RiskType",
              "name": "riskType",
              "type": "uint8"
            },
            {
              "internalType": "uint256",
              "name": "coverId",
              "type": "uint256"
            },
            {
              "internalType": "string",
              "name": "txHash",
              "type": "string"
            },
            {
              "internalType": "string",
              "name": "description",
              "type": "string"
            },
            {
              "internalType": "uint256",
              "name": "poolId",
              "type": "uint256"
            },
            {
              "internalType": "uint256",
              "name": "claimAmount",
              "type": "uint256"
            }
          ],
          "internalType": "struct CoverLib.ProposalParams",
          "name": "proposalParam",
          "type": "tuple"
        }
      ],
      "stateMutability": "view",
      "type": "function"
    },
    {
      "inputs": [],
      "name": "renounceOwnership",
      "outputs": [],
      "stateMutability": "nonpayable",
      "type": "function"
    },
    {
      "inputs": [
        {
          "internalType": "address",
          "name": "_coverContract",
          "type": "address"
        }
      ],
      "name": "setCoverContract",
      "outputs": [],
      "stateMutability": "nonpayable",
      "type": "function"
    },
    {
      "inputs": [
        {
          "internalType": "uint32",
          "name": "_destinationDomain",
          "type": "uint32"
        }
      ],
      "name": "setDestinationDomain",
      "outputs": [],
      "stateMutability": "nonpayable",
      "type": "function"
    },
    {
      "inputs": [
        {
          "internalType": "address",
          "name": "_ism",
          "type": "address"
        }
      ],
      "name": "setInterchainSecurityModule",
      "outputs": [],
      "stateMutability": "nonpayable",
      "type": "function"
    },
    {
      "inputs": [
        {
          "internalType": "uint256",
          "name": "_newDuration",
          "type": "uint256"
        }
      ],
      "name": "setVotingDuration",
      "outputs": [],
      "stateMutability": "nonpayable",
      "type": "function"
    },
    {
      "inputs": [
        {
          "internalType": "address",
          "name": "newOwner",
          "type": "address"
        }
      ],
      "name": "transferOwnership",
      "outputs": [],
      "stateMutability": "nonpayable",
      "type": "function"
    },
    {
      "inputs": [
        {
          "internalType": "uint256",
          "name": "proposalId",
          "type": "uint256"
        }
      ],
      "name": "updateProposalStatusToClaimed",
      "outputs": [],
      "stateMutability": "nonpayable",
      "type": "function"
    },
    {
      "inputs": [
        {
          "internalType": "address",
          "name": "",
          "type": "address"
        },
        {
          "internalType": "uint256",
          "name": "",
          "type": "uint256"
        }
      ],
      "name": "userCovers",
      "outputs": [
        {
          "internalType": "address",
          "name": "user",
          "type": "address"
        },
        {
          "internalType": "uint256",
          "name": "coverId",
          "type": "uint256"
        },
        {
          "internalType": "enum CoverLib.RiskType",
          "name": "riskType",
          "type": "uint8"
        },
        {
          "internalType": "string",
          "name": "coverName",
          "type": "string"
        },
        {
          "internalType": "uint256",
          "name": "coverValue",
          "type": "uint256"
        },
        {
          "internalType": "uint256",
          "name": "claimPaid",
          "type": "uint256"
        },
        {
          "internalType": "uint256",
          "name": "coverPeriod",
          "type": "uint256"
        },
        {
          "internalType": "uint256",
          "name": "endDay",
          "type": "uint256"
        },
        {
          "internalType": "bool",
          "name": "isActive",
          "type": "bool"
        }
      ],
      "stateMutability": "view",
      "type": "function"
    },
    {
      "inputs": [
        {
          "internalType": "uint256",
          "name": "_proposalId",
          "type": "uint256"
        },
        {
          "internalType": "bool",
          "name": "_vote",
          "type": "bool"
        }
      ],
      "name": "vote",
      "outputs": [],
      "stateMutability": "nonpayable",
      "type": "function"
    },
    {
      "inputs": [
        {
          "internalType": "uint256",
          "name": "",
          "type": "uint256"
        },
        {
          "internalType": "address",
          "name": "",
          "type": "address"
        }
      ],
      "name": "voters",
      "outputs": [
        {
          "internalType": "bool",
          "name": "voted",
          "type": "bool"
        },
        {
          "internalType": "bool",
          "name": "vote",
          "type": "bool"
        },
        {
          "internalType": "uint256",
          "name": "weight",
          "type": "uint256"
        }
      ],
      "stateMutability": "view",
      "type": "function"
    },
    {
      "inputs": [],
      "name": "votingDuration",
      "outputs": [
        {
          "internalType": "uint256",
          "name": "",
          "type": "uint256"
        }
      ],
      "stateMutability": "view",
      "type": "function"
    },
    {
      "stateMutability": "payable",
      "type": "receive"
    }
  ],
  "bytecode": "0x608060405234801561001057600080fd5b506040516161a13803806161a18339818101604052810190610032919061035f565b816001600081905550600073ffffffffffffffffffffffffffffffffffffffff168173ffffffffffffffffffffffffffffffffffffffff16036100ad5760006040517f1e4fbdf70000000000000000000000000000000000000000000000000000000081526004016100a491906103fb565b60405180910390fd5b6100bc8161020060201b60201c565b5085600b60006101000a81548173ffffffffffffffffffffffffffffffffffffffff021916908373ffffffffffffffffffffffffffffffffffffffff16021790555085600e60006101000a81548173ffffffffffffffffffffffffffffffffffffffff021916908373ffffffffffffffffffffffffffffffffffffffff16021790555084600a60006101000a81548173ffffffffffffffffffffffffffffffffffffffff021916908373ffffffffffffffffffffffffffffffffffffffff16021790555083600d60006101000a81548173ffffffffffffffffffffffffffffffffffffffff021916908373ffffffffffffffffffffffffffffffffffffffff160217905550603c836101ce9190610445565b60038190555080600460006101000a81548163ffffffff021916908363ffffffff160217905550505050505050610487565b6000600160009054906101000a900473ffffffffffffffffffffffffffffffffffffffff16905081600160006101000a81548173ffffffffffffffffffffffffffffffffffffffff021916908373ffffffffffffffffffffffffffffffffffffffff1602179055508173ffffffffffffffffffffffffffffffffffffffff168173ffffffffffffffffffffffffffffffffffffffff167f8be0079c531659141344cd1fd0a4f28419497f9722a3daafe3b4186f6b6457e060405160405180910390a35050565b600080fd5b600073ffffffffffffffffffffffffffffffffffffffff82169050919050565b60006102f6826102cb565b9050919050565b610306816102eb565b811461031157600080fd5b50565b600081519050610323816102fd565b92915050565b6000819050919050565b61033c81610329565b811461034757600080fd5b50565b60008151905061035981610333565b92915050565b60008060008060008060c0878903121561037c5761037b6102c6565b5b600061038a89828a01610314565b965050602061039b89828a01610314565b95505060406103ac89828a01610314565b94505060606103bd89828a0161034a565b93505060806103ce89828a01610314565b92505060a06103df89828a0161034a565b9150509295509295509295565b6103f5816102eb565b82525050565b600060208201905061041060008301846103ec565b92915050565b7f4e487b7100000000000000000000000000000000000000000000000000000000600052601160045260246000fd5b600061045082610329565b915061045b83610329565b925082820261046981610329565b915082820484148315176104805761047f610416565b5b5092915050565b615d0b806104966000396000f3fe6080604052600436106101dc5760003560e01c80639b644a2311610102578063d4bdf02311610095578063ee5424ab11610064578063ee5424ab146106c0578063f1b4bf9d146106e9578063f2fde38b14610712578063f96dae0a1461073b576101e3565b8063d4bdf02314610614578063d5438eae1461063f578063d8f62f871461066a578063de523cf314610695576101e3565b8063c08cc02d116100d1578063c08cc02d1461056c578063c9d27afe14610597578063cbef6b2e146105c0578063cceb68f5146105e9576101e3565b80639b644a23146104825780639e319063146104bf5780639e7b399e146104fe578063ae63df8914610543576101e3565b80632858c55a1161017a5780635bcfadb5116101495780635bcfadb5146103ec578063715018a61461041557806388d52ef71461042c5780638da5cb5b14610457576101e3565b80632858c55a1461033d5780633b4d01a7146103685780635584c4f9146103a557806356d5d475146103d0576101e3565b80630e72cc06116101b65780630e72cc0614610281578063132002fc146102aa578063248a75b7146102d557806325f11e8d14610300576101e3565b8063013cf08b146101e85780630c0512e91461022d5780630d61b51914610258576101e3565b366101e357005b600080fd5b3480156101f457600080fd5b5061020f600480360381019061020a9190613afa565b610766565b60405161022499989796959493929190613d93565b60405180910390f35b34801561023957600080fd5b506102426109ab565b60405161024f9190613e27565b60405180910390f35b34801561026457600080fd5b5061027f600480360381019061027a9190613afa565b6109b1565b005b34801561028d57600080fd5b506102a860048036038101906102a39190613e6e565b611115565b005b3480156102b657600080fd5b506102bf611160565b6040516102cc9190613e27565b60405180910390f35b3480156102e157600080fd5b506102ea611166565b6040516102f79190613eaa565b60405180910390f35b34801561030c57600080fd5b5061032760048036038101906103229190613afa565b61118c565b6040516103349190613ec5565b60405180910390f35b34801561034957600080fd5b506103526111b6565b60405161035f9190613eff565b60405180910390f35b34801561037457600080fd5b5061038f600480360381019061038a9190613afa565b6111cc565b60405161039c91906140a0565b60405180910390f35b3480156103b157600080fd5b506103ba6114fa565b6040516103c79190614249565b60405180910390f35b6103ea60048036038101906103e59190614402565b611a9e565b005b3480156103f857600080fd5b50610413600480360381019061040e9190613afa565b611f4e565b005b34801561042157600080fd5b5061042a611fa3565b005b34801561043857600080fd5b50610441611fb7565b60405161044e9190613eaa565b60405180910390f35b34801561046357600080fd5b5061046c611fdd565b6040516104799190613eaa565b60405180910390f35b34801561048e57600080fd5b506104a960048036038101906104a49190613afa565b612007565b6040516104b69190613e27565b60405180910390f35b3480156104cb57600080fd5b506104e660048036038101906104e19190614471565b61202b565b6040516104f5939291906144b1565b60405180910390f35b34801561050a57600080fd5b50610525600480360381019061052091906144e8565b61207c565b60405161053a99989796959493929190614581565b60405180910390f35b34801561054f57600080fd5b5061056a60048036038101906105659190614615565b612199565b005b34801561057857600080fd5b506105816121c5565b60405161058e9190613e27565b60405180910390f35b3480156105a357600080fd5b506105be60048036038101906105b9919061466e565b6121cf565b005b3480156105cc57600080fd5b506105e760048036038101906105e2919061486a565b61261c565b005b3480156105f557600080fd5b506105fe612b66565b60405161060b9190614249565b60405180910390f35b34801561062057600080fd5b50610629612f67565b6040516106369190614249565b60405180910390f35b34801561064b57600080fd5b5061065461347b565b6040516106619190614912565b60405180910390f35b34801561067657600080fd5b5061067f6134a1565b60405161068c9190613eaa565b60405180910390f35b3480156106a157600080fd5b506106aa6134c7565b6040516106b7919061494e565b60405180910390f35b3480156106cc57600080fd5b506106e760048036038101906106e29190613e6e565b6134eb565b005b3480156106f557600080fd5b50610710600480360381019061070b9190613afa565b613637565b005b34801561071e57600080fd5b5061073960048036038101906107349190613e6e565b613771565b005b34801561074757600080fd5b506107506137f7565b60405161075d919061498a565b60405180910390f35b60056020528060005260406000206000915090508060000154908060010154908060020154908060030154908060040154908060050154908060060160009054906101000a900460ff16908060060160019054906101000a900460ff1690806007016040518060e00160405290816000820160009054906101000a900473ffffffffffffffffffffffffffffffffffffffff1673ffffffffffffffffffffffffffffffffffffffff1673ffffffffffffffffffffffffffffffffffffffff1681526020016000820160149054906101000a900460ff16600381111561084e5761084d613b36565b5b60038111156108605761085f613b36565b5b81526020016001820154815260200160028201805461087e906149d4565b80601f01602080910402602001604051908101604052809291908181526020018280546108aa906149d4565b80156108f75780601f106108cc576101008083540402835291602001916108f7565b820191906000526020600020905b8154815290600101906020018083116108da57829003601f168201915b50505050508152602001600382018054610910906149d4565b80601f016020809104026020016040519081016040528092919081815260200182805461093c906149d4565b80156109895780601f1061095e57610100808354040283529160200191610989565b820191906000526020600020905b81548152906001019060200180831161096c57829003601f168201915b5050505050815260200160048201548152602001600582015481525050905089565b60025481565b6109b961381d565b6109c16138a4565b6000600560008381526020019081526020016000209050600160048111156109ec576109eb613b36565b5b8160060160009054906101000a900460ff166004811115610a1057610a0f613b36565b5b14610a50576040517f08c379a0000000000000000000000000000000000000000000000000000000008152600401610a4790614a51565b60405180910390fd5b80600401544211610a96576040517f08c379a0000000000000000000000000000000000000000000000000000000008152600401610a8d90614abd565b60405180910390fd5b8060060160019054906101000a900460ff1615610ae8576040517f08c379a0000000000000000000000000000000000000000000000000000000008152600401610adf90614b29565b60405180910390fd5b60018160060160016101000a81548160ff0219169083151502179055508060020154816001015411156110905760026005600084815260200190815260200160002060060160006101000a81548160ff02191690836004811115610b4f57610b4e613b36565b5b0217905550600b60009054906101000a900473ffffffffffffffffffffffffffffffffffffffff1673ffffffffffffffffffffffffffffffffffffffff1663fa31de01600460009054906101000a900463ffffffff16610bd0600c60009054906101000a900473ffffffffffffffffffffffffffffffffffffffff166138ea565b8460070160000160009054906101000a900473ffffffffffffffffffffffffffffffffffffffff1685600701600101548660070160050154604051602001610c1a93929190614b49565b604051602081830303815290604052604051602001610c399190614c21565b6040516020818303038152906040526040518463ffffffff1660e01b8152600401610c6693929190614c65565b6020604051808303816000875af1158015610c85573d6000803e3d6000fd5b505050506040513d601f19601f82011682018060405250810190610ca99190614cb8565b50600081604051806101200160405290816000820154815260200160018201548152602001600282015481526020016003820154815260200160048201548152602001600582015481526020016006820160009054906101000a900460ff166004811115610d1a57610d19613b36565b5b6004811115610d2c57610d2b613b36565b5b81526020016006820160019054906101000a900460ff16151515158152602001600782016040518060e00160405290816000820160009054906101000a900473ffffffffffffffffffffffffffffffffffffffff1673ffffffffffffffffffffffffffffffffffffffff1673ffffffffffffffffffffffffffffffffffffffff1681526020016000820160149054906101000a900460ff166003811115610dd657610dd5613b36565b5b6003811115610de857610de7613b36565b5b815260200160018201548152602001600282018054610e06906149d4565b80601f0160208091040260200160405190810160405280929190818152602001828054610e32906149d4565b8015610e7f5780601f10610e5457610100808354040283529160200191610e7f565b820191906000526020600020905b815481529060010190602001808311610e6257829003601f168201915b50505050508152602001600382018054610e98906149d4565b80601f0160208091040260200160405190810160405280929190818152602001828054610ec4906149d4565b8015610f115780601f10610ee657610100808354040283529160200191610f11565b820191906000526020600020905b815481529060010190602001808311610ef457829003601f168201915b5050505050815260200160048201548152602001600582015481525050815250509050600b60009054906101000a900473ffffffffffffffffffffffffffffffffffffffff1673ffffffffffffffffffffffffffffffffffffffff1663fa31de01600460009054906101000a900463ffffffff16610fb0600d60009054906101000a900473ffffffffffffffffffffffffffffffffffffffff166138ea565b84604051602001610fc191906140a0565b604051602081830303815290604052604051602001610fe09190614d31565b6040516020818303038152906040526040518463ffffffff1660e01b815260040161100d93929190614c65565b6020604051808303816000875af115801561102c573d6000803e3d6000fd5b505050506040513d601f19601f820116820180604052508101906110509190614cb8565b50827f948f4a9cd986f1118c3fbd459f7a22b23c0693e1ca3ef06a6a8be5aa7d39cc0360016040516110829190613ec5565b60405180910390a250611109565b60046005600084815260200190815260200160002060060160006101000a81548160ff021916908360048111156110ca576110c9613b36565b5b0217905550817f948f4a9cd986f1118c3fbd459f7a22b23c0693e1ca3ef06a6a8be5aa7d39cc0360006040516111009190613ec5565b60405180910390a25b5061111261390d565b50565b61111d61381d565b806004806101000a81548173ffffffffffffffffffffffffffffffffffffffff021916908373ffffffffffffffffffffffffffffffffffffffff16021790555050565b60035481565b600c60009054906101000a900473ffffffffffffffffffffffffffffffffffffffff1681565b60006009600083815260200190815260200160002060009054906101000a900460ff169050919050565b600460009054906101000a900463ffffffff1681565b6111d46139e5565b60056000838152602001908152602001600020600401544210611212576000600560008481526020019081526020016000206005018190555061125b565b603c4260056000858152602001908152602001600020600401546112369190614d95565b6112409190614df8565b60056000848152602001908152602001600020600501819055505b60056000838152602001908152602001600020604051806101200160405290816000820154815260200160018201548152602001600282015481526020016003820154815260200160048201548152602001600582015481526020016006820160009054906101000a900460ff1660048111156112db576112da613b36565b5b60048111156112ed576112ec613b36565b5b81526020016006820160019054906101000a900460ff16151515158152602001600782016040518060e00160405290816000820160009054906101000a900473ffffffffffffffffffffffffffffffffffffffff1673ffffffffffffffffffffffffffffffffffffffff1673ffffffffffffffffffffffffffffffffffffffff1681526020016000820160149054906101000a900460ff16600381111561139757611396613b36565b5b60038111156113a9576113a8613b36565b5b8152602001600182015481526020016002820180546113c7906149d4565b80601f01602080910402602001604051908101604052809291908181526020018280546113f3906149d4565b80156114405780601f1061141557610100808354040283529160200191611440565b820191906000526020600020905b81548152906001019060200180831161142357829003601f168201915b50505050508152602001600382018054611459906149d4565b80601f0160208091040260200160405190810160405280929190818152602001828054611485906149d4565b80156114d25780601f106114a7576101008083540402835291602001916114d2565b820191906000526020600020905b8154815290600101906020018083116114b557829003601f168201915b5050505050815260200160048201548152602001600582015481525050815250509050919050565b60606000805b6008805490508110156115a4576000600560006008848154811061152757611526614e29565b5b90600052602060002001548152602001908152602001600020600401541480611583575042600560006008848154811061156457611563614e29565b5b9060005260206000200154815260200190815260200160002060040154115b1561159757818061159390614e58565b9250505b8080600101915050611500565b5060008167ffffffffffffffff8111156115c1576115c06142d7565b5b6040519080825280602002602001820160405280156115fa57816020015b6115e76139e5565b8152602001906001900390816115df5790505b5090506000805b600880549050811015611a94576000600560006008848154811061162857611627614e29565b5b90600052602060002001548152602001908152602001600020600401541480611685575042600560006008848154811061166557611664614e29565b5b906000526020600020015481526020019081526020016000206004015410155b15611a875760056000600883815481106116a2576116a1614e29565b5b90600052602060002001548152602001908152602001600020604051806101200160405290816000820154815260200160018201548152602001600282015481526020016003820154815260200160048201548152602001600582015481526020016006820160009054906101000a900460ff16600481111561172857611727613b36565b5b600481111561173a57611739613b36565b5b81526020016006820160019054906101000a900460ff16151515158152602001600782016040518060e00160405290816000820160009054906101000a900473ffffffffffffffffffffffffffffffffffffffff1673ffffffffffffffffffffffffffffffffffffffff1673ffffffffffffffffffffffffffffffffffffffff1681526020016000820160149054906101000a900460ff1660038111156117e4576117e3613b36565b5b60038111156117f6576117f5613b36565b5b815260200160018201548152602001600282018054611814906149d4565b80601f0160208091040260200160405190810160405280929190818152602001828054611840906149d4565b801561188d5780601f106118625761010080835404028352916020019161188d565b820191906000526020600020905b81548152906001019060200180831161187057829003601f168201915b505050505081526020016003820180546118a6906149d4565b80601f01602080910402602001604051908101604052809291908181526020018280546118d2906149d4565b801561191f5780601f106118f45761010080835404028352916020019161191f565b820191906000526020600020905b81548152906001019060200180831161190257829003601f168201915b50505050508152602001600482015481526020016005820154815250508152505083838151811061195357611952614e29565b5b602002602001018190525082828151811061197157611970614e29565b5b6020026020010151608001514214806119ef57506000600481111561199957611998613b36565b5b60056000600884815481106119b1576119b0614e29565b5b9060005260206000200154815260200190815260200160002060060160009054906101000a900460ff1660048111156119ed576119ec613b36565b5b145b15611a1e576000838381518110611a0957611a08614e29565b5b602002602001015160a0018181525050611a78565b603c42848481518110611a3457611a33614e29565b5b602002602001015160800151611a4a9190614d95565b611a549190614df8565b838381518110611a6757611a66614e29565b5b602002602001015160a00181815250505b8180611a8390614e58565b9250505b8080600101915050611601565b5081935050505090565b600b60009054906101000a900473ffffffffffffffffffffffffffffffffffffffff1673ffffffffffffffffffffffffffffffffffffffff163373ffffffffffffffffffffffffffffffffffffffff1614611b2e576040517f08c379a0000000000000000000000000000000000000000000000000000000008152600401611b2590614eec565b60405180910390fd5b60008082806020019051810190611b459190614fec565b91509150604051602001611b58906150bb565b6040516020818303038152906040528051906020012082604051602001611b7f9190615101565b6040516020818303038152906040528051906020012003611bbe57600081806020019051810190611bb0919061512d565b9050611bbb816111cc565b50505b604051602001611bcd906151a6565b6040516020818303038152906040528051906020012082604051602001611bf49190615101565b6040516020818303038152906040528051906020012003611c3257600081806020019051810190611c25919061512d565b9050611c3081613637565b505b604051602001611c4190615207565b6040516020818303038152906040528051906020012082604051602001611c689190615101565b6040516020818303038152906040528051906020012003611cc957600081806020019051810190611c99919061512d565b905060016009600083815260200190815260200160002060006101000a81548160ff021916908315150217905550505b604051602001611cd890615268565b6040516020818303038152906040528051906020012082604051602001611cff9190615101565b6040516020818303038152906040528051906020012003611d6057600081806020019051810190611d30919061512d565b905060006009600083815260200190815260200160002060006101000a81548160ff021916908315150217905550505b604051602001611d6f906152c9565b6040516020818303038152906040528051906020012082604051602001611d969190615101565b6040516020818303038152906040528051906020012003611f0857600080600083806020019051810190611dca9190615457565b92509250925080600660008573ffffffffffffffffffffffffffffffffffffffff1673ffffffffffffffffffffffffffffffffffffffff168152602001908152602001600020600084815260200190815260200160002060008201518160000160006101000a81548173ffffffffffffffffffffffffffffffffffffffff021916908373ffffffffffffffffffffffffffffffffffffffff1602179055506020820151816001015560408201518160020160006101000a81548160ff02191690836003811115611e9d57611e9c613b36565b5b02179055506060820151816003019081611eb79190615668565b506080820151816004015560a0820151816005015560c0820151816006015560e082015181600701556101008201518160080160006101000a81548160ff0219169083151502179055509050505050505b838563ffffffff167fba67744c899113a84f615d51af5d82f5fedcf26c9a474d9363c3ad9b0bd501ac85604051611f3f919061573a565b60405180910390a35050505050565b611f5661381d565b60008111611f99576040517f08c379a0000000000000000000000000000000000000000000000000000000008152600401611f90906157ce565b60405180910390fd5b8060038190555050565b611fab61381d565b611fb56000613917565b565b600d60009054906101000a900473ffffffffffffffffffffffffffffffffffffffff1681565b6000600160009054906101000a900473ffffffffffffffffffffffffffffffffffffffff16905090565b6008818154811061201757600080fd5b906000526020600020016000915090505481565b6007602052816000526040600020602052806000526040600020600091509150508060000160009054906101000a900460ff16908060000160019054906101000a900460ff16908060010154905083565b6006602052816000526040600020602052806000526040600020600091509150508060000160009054906101000a900473ffffffffffffffffffffffffffffffffffffffff16908060010154908060020160009054906101000a900460ff16908060030180546120eb906149d4565b80601f0160208091040260200160405190810160405280929190818152602001828054612117906149d4565b80156121645780601f1061213957610100808354040283529160200191612164565b820191906000526020600020905b81548152906001019060200180831161214757829003601f168201915b5050505050908060040154908060050154908060060154908060070154908060080160009054906101000a900460ff16905089565b6121a161381d565b80600460006101000a81548163ffffffff021916908363ffffffff16021790555050565b6000600254905090565b6007600083815260200190815260200160002060003373ffffffffffffffffffffffffffffffffffffffff1673ffffffffffffffffffffffffffffffffffffffff16815260200190815260200160002060000160009054906101000a900460ff1615612270576040517f08c379a00000000000000000000000000000000000000000000000000000000081526004016122679061583a565b60405180910390fd5b600060056000848152602001908152602001600020905060008160030154036122ce576040517f08c379a00000000000000000000000000000000000000000000000000000000081526004016122c5906158a6565b60405180910390fd5b600060048111156122e2576122e1613b36565b5b8160060160009054906101000a900460ff16600481111561230657612305613b36565b5b036123775760018160060160006101000a81548160ff0219169083600481111561233357612332613b36565b5b02179055506003544261234691906158c6565b8160040181905550603c4282600401546123609190614d95565b61236a9190614df8565b81600501819055506123bf565b806004015442106123be57600081600501819055506040517f16440a5100000000000000000000000000000000000000000000000000000000815260040160405180910390fd5b5b603c4282600401546123d19190614d95565b6123db9190614df8565b81600501819055506000600a60009054906101000a900473ffffffffffffffffffffffffffffffffffffffff1673ffffffffffffffffffffffffffffffffffffffff166370a08231336040518263ffffffff1660e01b81526004016124409190613eaa565b602060405180830381865afa15801561245d573d6000803e3d6000fd5b505050506040513d601f19601f82011682018060405250810190612481919061512d565b9050600081116124c6576040517f08c379a00000000000000000000000000000000000000000000000000000000081526004016124bd90615946565b60405180910390fd5b60405180606001604052806001151581526020018415158152602001828152506007600086815260200190815260200160002060003373ffffffffffffffffffffffffffffffffffffffff1673ffffffffffffffffffffffffffffffffffffffff16815260200190815260200160002060008201518160000160006101000a81548160ff02191690831515021790555060208201518160000160016101000a81548160ff0219169083151502179055506040820151816001015590505082156125a9578082600101600082825461259d91906158c6565b925050819055506125c5565b808260020160008282546125bd91906158c6565b925050819055505b833373ffffffffffffffffffffffffffffffffffffffff167f877856338e13f63d0c36822ff0ef736b80934cd90574a3a5bc9262c39d217c46858460405161260e929190615966565b60405180910390a350505050565b600060066000836000015173ffffffffffffffffffffffffffffffffffffffff1673ffffffffffffffffffffffffffffffffffffffff168152602001908152602001600020600083604001518152602001908152602001600020604051806101200160405290816000820160009054906101000a900473ffffffffffffffffffffffffffffffffffffffff1673ffffffffffffffffffffffffffffffffffffffff1673ffffffffffffffffffffffffffffffffffffffff168152602001600182015481526020016002820160009054906101000a900460ff16600381111561270757612706613b36565b5b600381111561271957612718613b36565b5b815260200160038201805461272d906149d4565b80601f0160208091040260200160405190810160405280929190818152602001828054612759906149d4565b80156127a65780601f1061277b576101008083540402835291602001916127a6565b820191906000526020600020905b81548152906001019060200180831161278957829003601f168201915b50505050508152602001600482015481526020016005820154815260200160068201548152602001600782015481526020016008820160009054906101000a900460ff161515151581525050905080608001518260c00151111561283f576040517f08c379a000000000000000000000000000000000000000000000000000000000815260040161283690615a01565b60405180910390fd5b600960008360a00151815260200190815260200160002060009054906101000a900460ff166128a3576040517f08c379a000000000000000000000000000000000000000000000000000000000815260040161289a90615a6d565b60405180910390fd5b60008260c00151116128ea576040517f08c379a00000000000000000000000000000000000000000000000000000000081526004016128e190615aff565b60405180910390fd5b600260008154809291906128fd90614e58565b91905055506040518061012001604052806002548152602001600081526020016000815260200142815260200160008152602001600081526020016000600481111561294c5761294b613b36565b5b815260200160001515815260200183815250600560006002548152602001908152602001600020600082015181600001556020820151816001015560408201518160020155606082015181600301556080820151816004015560a0820151816005015560c08201518160060160006101000a81548160ff021916908360048111156129da576129d9613b36565b5b021790555060e08201518160060160016101000a81548160ff0219169083151502179055506101008201518160070160008201518160000160006101000a81548173ffffffffffffffffffffffffffffffffffffffff021916908373ffffffffffffffffffffffffffffffffffffffff16021790555060208201518160000160146101000a81548160ff02191690836003811115612a7b57612a7a613b36565b5b0217905550604082015181600101556060820151816002019081612a9f9190615668565b506080820151816003019081612ab59190615668565b5060a0820151816004015560c08201518160050155505090505060086002549080600181540180825580915050600190039060005260206000200160009091909190915055816000015173ffffffffffffffffffffffffffffffffffffffff166002547f46b0c19f3bb130a0d6b56daca2a88a6b26094fb630786130084dc69e99692295846080015185602001518660c001516000604051612b5a9493929190615b1f565b60405180910390a35050565b6060600060088054905067ffffffffffffffff811115612b8957612b886142d7565b5b604051908082528060200260200182016040528015612bc257816020015b612baf6139e5565b815260200190600190039081612ba75790505b50905060005b600880549050811015612f5f576005600060088381548110612bed57612bec614e29565b5b90600052602060002001548152602001908152602001600020604051806101200160405290816000820154815260200160018201548152602001600282015481526020016003820154815260200160048201548152602001600582015481526020016006820160009054906101000a900460ff166004811115612c7357612c72613b36565b5b6004811115612c8557612c84613b36565b5b81526020016006820160019054906101000a900460ff16151515158152602001600782016040518060e00160405290816000820160009054906101000a900473ffffffffffffffffffffffffffffffffffffffff1673ffffffffffffffffffffffffffffffffffffffff1673ffffffffffffffffffffffffffffffffffffffff1681526020016000820160149054906101000a900460ff166003811115612d2f57612d2e613b36565b5b6003811115612d4157612d40613b36565b5b815260200160018201548152602001600282018054612d5f906149d4565b80601f0160208091040260200160405190810160405280929190818152602001828054612d8b906149d4565b8015612dd85780601f10612dad57610100808354040283529160200191612dd8565b820191906000526020600020905b815481529060010190602001808311612dbb57829003601f168201915b50505050508152602001600382018054612df1906149d4565b80601f0160208091040260200160405190810160405280929190818152602001828054612e1d906149d4565b8015612e6a5780601f10612e3f57610100808354040283529160200191612e6a565b820191906000526020600020905b815481529060010190602001808311612e4d57829003601f168201915b505050505081526020016004820154815260200160058201548152505081525050828281518110612e9e57612e9d614e29565b5b6020026020010181905250818181518110612ebc57612ebb614e29565b5b6020026020010151608001514210612ef8576000828281518110612ee357612ee2614e29565b5b602002602001015160a0018181525050612f52565b603c42838381518110612f0e57612f0d614e29565b5b602002602001015160800151612f249190614d95565b612f2e9190614df8565b828281518110612f4157612f40614e29565b5b602002602001015160a00181815250505b8080600101915050612bc8565b508091505090565b60606000805b6008805490508110156130445760006004811115612f8e57612f8d613b36565b5b6005600060088481548110612fa657612fa5614e29565b5b9060005260206000200154815260200190815260200160002060060160009054906101000a900460ff166004811115612fe257612fe1613b36565b5b14158015613023575042600560006008848154811061300457613003614e29565b5b9060005260206000200154815260200190815260200160002060040154105b1561303757818061303390614e58565b9250505b8080600101915050612f6d565b5060008167ffffffffffffffff811115613061576130606142d7565b5b60405190808252806020026020018201604052801561309a57816020015b6130876139e5565b81526020019060019003908161307f5790505b5090506000805b60088054905081101561347157600060048111156130c2576130c1613b36565b5b60056000600884815481106130da576130d9614e29565b5b9060005260206000200154815260200190815260200160002060060160009054906101000a900460ff16600481111561311657613115613b36565b5b14158015613157575042600560006008848154811061313857613137614e29565b5b9060005260206000200154815260200190815260200160002060040154105b1561346457600560006008838154811061317457613173614e29565b5b90600052602060002001548152602001908152602001600020604051806101200160405290816000820154815260200160018201548152602001600282015481526020016003820154815260200160048201548152602001600582015481526020016006820160009054906101000a900460ff1660048111156131fa576131f9613b36565b5b600481111561320c5761320b613b36565b5b81526020016006820160019054906101000a900460ff16151515158152602001600782016040518060e00160405290816000820160009054906101000a900473ffffffffffffffffffffffffffffffffffffffff1673ffffffffffffffffffffffffffffffffffffffff1673ffffffffffffffffffffffffffffffffffffffff1681526020016000820160149054906101000a900460ff1660038111156132b6576132b5613b36565b5b60038111156132c8576132c7613b36565b5b8152602001600182015481526020016002820180546132e6906149d4565b80601f0160208091040260200160405190810160405280929190818152602001828054613312906149d4565b801561335f5780601f106133345761010080835404028352916020019161335f565b820191906000526020600020905b81548152906001019060200180831161334257829003601f168201915b50505050508152602001600382018054613378906149d4565b80601f01602080910402602001604051908101604052809291908181526020018280546133a4906149d4565b80156133f15780601f106133c6576101008083540402835291602001916133f1565b820191906000526020600020905b8154815290600101906020018083116133d457829003601f168201915b50505050508152602001600482015481526020016005820154815250508152505083838151811061342557613424614e29565b5b6020026020010181905250600083838151811061344557613444614e29565b5b602002602001015160a0018181525050818061346090614e58565b9250505b80806001019150506130a1565b5081935050505090565b600b60009054906101000a900473ffffffffffffffffffffffffffffffffffffffff1681565b600e60009054906101000a900473ffffffffffffffffffffffffffffffffffffffff1681565b60048054906101000a900473ffffffffffffffffffffffffffffffffffffffff1681565b6134f361381d565b600073ffffffffffffffffffffffffffffffffffffffff16600c60009054906101000a900473ffffffffffffffffffffffffffffffffffffffff1673ffffffffffffffffffffffffffffffffffffffff1614613584576040517f08c379a000000000000000000000000000000000000000000000000000000000815260040161357b90615bb7565b60405180910390fd5b600073ffffffffffffffffffffffffffffffffffffffff168173ffffffffffffffffffffffffffffffffffffffff16036135f3576040517f08c379a00000000000000000000000000000000000000000000000000000000081526004016135ea90615c49565b60405180910390fd5b80600c60006101000a81548173ffffffffffffffffffffffffffffffffffffffff021916908373ffffffffffffffffffffffffffffffffffffffff16021790555050565b600e60009054906101000a900473ffffffffffffffffffffffffffffffffffffffff1673ffffffffffffffffffffffffffffffffffffffff163373ffffffffffffffffffffffffffffffffffffffff1614806136e05750600c60009054906101000a900473ffffffffffffffffffffffffffffffffffffffff1673ffffffffffffffffffffffffffffffffffffffff163373ffffffffffffffffffffffffffffffffffffffff16145b61371f576040517f08c379a000000000000000000000000000000000000000000000000000000000815260040161371690615cb5565b60405180910390fd5b6137276138a4565b60036005600083815260200190815260200160002060060160006101000a81548160ff0219169083600481111561376157613760613b36565b5b021790555061376e61390d565b50565b61377961381d565b600073ffffffffffffffffffffffffffffffffffffffff168173ffffffffffffffffffffffffffffffffffffffff16036137eb5760006040517f1e4fbdf70000000000000000000000000000000000000000000000000000000081526004016137e29190613eaa565b60405180910390fd5b6137f481613917565b50565b600a60009054906101000a900473ffffffffffffffffffffffffffffffffffffffff1681565b6138256139dd565b73ffffffffffffffffffffffffffffffffffffffff16613843611fdd565b73ffffffffffffffffffffffffffffffffffffffff16146138a2576138666139dd565b6040517f118cdaa70000000000000000000000000000000000000000000000000000000081526004016138999190613eaa565b60405180910390fd5b565b6002600054036138e0576040517f3ee5aeb500000000000000000000000000000000000000000000000000000000815260040160405180910390fd5b6002600081905550565b60008173ffffffffffffffffffffffffffffffffffffffff1660001b9050919050565b6001600081905550565b6000600160009054906101000a900473ffffffffffffffffffffffffffffffffffffffff16905081600160006101000a81548173ffffffffffffffffffffffffffffffffffffffff021916908373ffffffffffffffffffffffffffffffffffffffff1602179055508173ffffffffffffffffffffffffffffffffffffffff168173ffffffffffffffffffffffffffffffffffffffff167f8be0079c531659141344cd1fd0a4f28419497f9722a3daafe3b4186f6b6457e060405160405180910390a35050565b600033905090565b60405180610120016040528060008152602001600081526020016000815260200160008152602001600081526020016000815260200160006004811115613a2f57613a2e613b36565b5b8152602001600015158152602001613a45613a4b565b81525090565b6040518060e00160405280600073ffffffffffffffffffffffffffffffffffffffff16815260200160006003811115613a8757613a86613b36565b5b815260200160008152602001606081526020016060815260200160008152602001600081525090565b6000604051905090565b600080fd5b600080fd5b6000819050919050565b613ad781613ac4565b8114613ae257600080fd5b50565b600081359050613af481613ace565b92915050565b600060208284031215613b1057613b0f613aba565b5b6000613b1e84828501613ae5565b91505092915050565b613b3081613ac4565b82525050565b7f4e487b7100000000000000000000000000000000000000000000000000000000600052602160045260246000fd5b60058110613b7657613b75613b36565b5b50565b6000819050613b8782613b65565b919050565b6000613b9782613b79565b9050919050565b613ba781613b8c565b82525050565b60008115159050919050565b613bc281613bad565b82525050565b600073ffffffffffffffffffffffffffffffffffffffff82169050919050565b6000613bf382613bc8565b9050919050565b613c0381613be8565b82525050565b60048110613c1a57613c19613b36565b5b50565b6000819050613c2b82613c09565b919050565b6000613c3b82613c1d565b9050919050565b613c4b81613c30565b82525050565b613c5a81613ac4565b82525050565b600081519050919050565b600082825260208201905092915050565b60005b83811015613c9a578082015181840152602081019050613c7f565b60008484015250505050565b6000601f19601f8301169050919050565b6000613cc282613c60565b613ccc8185613c6b565b9350613cdc818560208601613c7c565b613ce581613ca6565b840191505092915050565b600060e083016000830151613d086000860182613bfa565b506020830151613d1b6020860182613c42565b506040830151613d2e6040860182613c51565b5060608301518482036060860152613d468282613cb7565b91505060808301518482036080860152613d608282613cb7565b91505060a0830151613d7560a0860182613c51565b5060c0830151613d8860c0860182613c51565b508091505092915050565b600061012082019050613da9600083018c613b27565b613db6602083018b613b27565b613dc3604083018a613b27565b613dd06060830189613b27565b613ddd6080830188613b27565b613dea60a0830187613b27565b613df760c0830186613b9e565b613e0460e0830185613bb9565b818103610100830152613e178184613cf0565b90509a9950505050505050505050565b6000602082019050613e3c6000830184613b27565b92915050565b613e4b81613be8565b8114613e5657600080fd5b50565b600081359050613e6881613e42565b92915050565b600060208284031215613e8457613e83613aba565b5b6000613e9284828501613e59565b91505092915050565b613ea481613be8565b82525050565b6000602082019050613ebf6000830184613e9b565b92915050565b6000602082019050613eda6000830184613bb9565b92915050565b600063ffffffff82169050919050565b613ef981613ee0565b82525050565b6000602082019050613f146000830184613ef0565b92915050565b613f2381613b8c565b82525050565b613f3281613bad565b82525050565b600060e083016000830151613f506000860182613bfa565b506020830151613f636020860182613c42565b506040830151613f766040860182613c51565b5060608301518482036060860152613f8e8282613cb7565b91505060808301518482036080860152613fa88282613cb7565b91505060a0830151613fbd60a0860182613c51565b5060c0830151613fd060c0860182613c51565b508091505092915050565b600061012083016000830151613ff46000860182613c51565b5060208301516140076020860182613c51565b50604083015161401a6040860182613c51565b50606083015161402d6060860182613c51565b5060808301516140406080860182613c51565b5060a083015161405360a0860182613c51565b5060c083015161406660c0860182613f1a565b5060e083015161407960e0860182613f29565b506101008301518482036101008601526140938282613f38565b9150508091505092915050565b600060208201905081810360008301526140ba8184613fdb565b905092915050565b600081519050919050565b600082825260208201905092915050565b6000819050602082019050919050565b6000610120830160008301516141076000860182613c51565b50602083015161411a6020860182613c51565b50604083015161412d6040860182613c51565b5060608301516141406060860182613c51565b5060808301516141536080860182613c51565b5060a083015161416660a0860182613c51565b5060c083015161417960c0860182613f1a565b5060e083015161418c60e0860182613f29565b506101008301518482036101008601526141a68282613f38565b9150508091505092915050565b60006141bf83836140ee565b905092915050565b6000602082019050919050565b60006141df826140c2565b6141e981856140cd565b9350836020820285016141fb856140de565b8060005b85811015614237578484038952815161421885826141b3565b9450614223836141c7565b925060208a019950506001810190506141ff565b50829750879550505050505092915050565b6000602082019050818103600083015261426381846141d4565b905092915050565b61427481613ee0565b811461427f57600080fd5b50565b6000813590506142918161426b565b92915050565b6000819050919050565b6142aa81614297565b81146142b557600080fd5b50565b6000813590506142c7816142a1565b92915050565b600080fd5b600080fd5b7f4e487b7100000000000000000000000000000000000000000000000000000000600052604160045260246000fd5b61430f82613ca6565b810181811067ffffffffffffffff8211171561432e5761432d6142d7565b5b80604052505050565b6000614341613ab0565b905061434d8282614306565b919050565b600067ffffffffffffffff82111561436d5761436c6142d7565b5b61437682613ca6565b9050602081019050919050565b82818337600083830152505050565b60006143a56143a084614352565b614337565b9050828152602081018484840111156143c1576143c06142d2565b5b6143cc848285614383565b509392505050565b600082601f8301126143e9576143e86142cd565b5b81356143f9848260208601614392565b91505092915050565b60008060006060848603121561441b5761441a613aba565b5b600061442986828701614282565b935050602061443a868287016142b8565b925050604084013567ffffffffffffffff81111561445b5761445a613abf565b5b614467868287016143d4565b9150509250925092565b6000806040838503121561448857614487613aba565b5b600061449685828601613ae5565b92505060206144a785828601613e59565b9150509250929050565b60006060820190506144c66000830186613bb9565b6144d36020830185613bb9565b6144e06040830184613b27565b949350505050565b600080604083850312156144ff576144fe613aba565b5b600061450d85828601613e59565b925050602061451e85828601613ae5565b9150509250929050565b61453181613c30565b82525050565b600082825260208201905092915050565b600061455382613c60565b61455d8185614537565b935061456d818560208601613c7c565b61457681613ca6565b840191505092915050565b600061012082019050614597600083018c613e9b565b6145a4602083018b613b27565b6145b1604083018a614528565b81810360608301526145c38189614548565b90506145d26080830188613b27565b6145df60a0830187613b27565b6145ec60c0830186613b27565b6145f960e0830185613b27565b614607610100830184613bb9565b9a9950505050505050505050565b60006020828403121561462b5761462a613aba565b5b600061463984828501614282565b91505092915050565b61464b81613bad565b811461465657600080fd5b50565b60008135905061466881614642565b92915050565b6000806040838503121561468557614684613aba565b5b600061469385828601613ae5565b92505060206146a485828601614659565b9150509250929050565b600080fd5b600080fd5b600481106146c557600080fd5b50565b6000813590506146d7816146b8565b92915050565b600067ffffffffffffffff8211156146f8576146f76142d7565b5b61470182613ca6565b9050602081019050919050565b600061472161471c846146dd565b614337565b90508281526020810184848401111561473d5761473c6142d2565b5b614748848285614383565b509392505050565b600082601f830112614765576147646142cd565b5b813561477584826020860161470e565b91505092915050565b600060e08284031215614794576147936146ae565b5b61479e60e0614337565b905060006147ae84828501613e59565b60008301525060206147c2848285016146c8565b60208301525060406147d684828501613ae5565b604083015250606082013567ffffffffffffffff8111156147fa576147f96146b3565b5b61480684828501614750565b606083015250608082013567ffffffffffffffff81111561482a576148296146b3565b5b61483684828501614750565b60808301525060a061484a84828501613ae5565b60a08301525060c061485e84828501613ae5565b60c08301525092915050565b6000602082840312156148805761487f613aba565b5b600082013567ffffffffffffffff81111561489e5761489d613abf565b5b6148aa8482850161477e565b91505092915050565b6000819050919050565b60006148d86148d36148ce84613bc8565b6148b3565b613bc8565b9050919050565b60006148ea826148bd565b9050919050565b60006148fc826148df565b9050919050565b61490c816148f1565b82525050565b60006020820190506149276000830184614903565b92915050565b6000614938826148df565b9050919050565b6149488161492d565b82525050565b6000602082019050614963600083018461493f565b92915050565b6000614974826148df565b9050919050565b61498481614969565b82525050565b600060208201905061499f600083018461497b565b92915050565b7f4e487b7100000000000000000000000000000000000000000000000000000000600052602260045260246000fd5b600060028204905060018216806149ec57607f821691505b6020821081036149ff576149fe6149a5565b5b50919050565b7f50726f706f73616c206e6f742070656e64696e67000000000000000000000000600082015250565b6000614a3b601483614537565b9150614a4682614a05565b602082019050919050565b60006020820190508181036000830152614a6a81614a2e565b9050919050565b7f566f74696e6720706572696f64206973207374696c6c20616374697665000000600082015250565b6000614aa7601d83614537565b9150614ab282614a71565b602082019050919050565b60006020820190508181036000830152614ad681614a9a565b9050919050565b7f50726f706f73616c20616c726561647920657865637574656400000000000000600082015250565b6000614b13601983614537565b9150614b1e82614add565b602082019050919050565b60006020820190508181036000830152614b4281614b06565b9050919050565b6000606082019050614b5e6000830186613e9b565b614b6b6020830185613b27565b614b786040830184613b27565b949350505050565b7f75706461746555736572436f76657256616c7565000000000000000000000000600082015250565b6000614bb6601483614537565b9150614bc182614b80565b602082019050919050565b600081519050919050565b600082825260208201905092915050565b6000614bf382614bcc565b614bfd8185614bd7565b9350614c0d818560208601613c7c565b614c1681613ca6565b840191505092915050565b60006040820190508181036000830152614c3a81614ba9565b90508181036020830152614c4e8184614be8565b905092915050565b614c5f81614297565b82525050565b6000606082019050614c7a6000830186613ef0565b614c876020830185614c56565b8181036040830152614c998184614be8565b9050949350505050565b600081519050614cb2816142a1565b92915050565b600060208284031215614cce57614ccd613aba565b5b6000614cdc84828501614ca3565b91505092915050565b7f617070726f76656450726f706f73616c73000000000000000000000000000000600082015250565b6000614d1b601183614537565b9150614d2682614ce5565b602082019050919050565b60006040820190508181036000830152614d4a81614d0e565b90508181036020830152614d5e8184614be8565b905092915050565b7f4e487b7100000000000000000000000000000000000000000000000000000000600052601160045260246000fd5b6000614da082613ac4565b9150614dab83613ac4565b9250828203905081811115614dc357614dc2614d66565b5b92915050565b7f4e487b7100000000000000000000000000000000000000000000000000000000600052601260045260246000fd5b6000614e0382613ac4565b9150614e0e83613ac4565b925082614e1e57614e1d614dc9565b5b828204905092915050565b7f4e487b7100000000000000000000000000000000000000000000000000000000600052603260045260246000fd5b6000614e6382613ac4565b91507fffffffffffffffffffffffffffffffffffffffffffffffffffffffffffffffff8203614e9557614e94614d66565b5b600182019050919050565b7f53656e646572206d757374206265206d61696c626f7800000000000000000000600082015250565b6000614ed6601683614537565b9150614ee182614ea0565b602082019050919050565b60006020820190508181036000830152614f0581614ec9565b9050919050565b6000614f1f614f1a846146dd565b614337565b905082815260208101848484011115614f3b57614f3a6142d2565b5b614f46848285613c7c565b509392505050565b600082601f830112614f6357614f626142cd565b5b8151614f73848260208601614f0c565b91505092915050565b6000614f8f614f8a84614352565b614337565b905082815260208101848484011115614fab57614faa6142d2565b5b614fb6848285613c7c565b509392505050565b600082601f830112614fd357614fd26142cd565b5b8151614fe3848260208601614f7c565b91505092915050565b6000806040838503121561500357615002613aba565b5b600083015167ffffffffffffffff81111561502157615020613abf565b5b61502d85828601614f4e565b925050602083015167ffffffffffffffff81111561504e5761504d613abf565b5b61505a85828601614fbe565b9150509250929050565b600081905092915050565b7f67657450726f706f73616c44657461696c730000000000000000000000000000600082015250565b60006150a5601283615064565b91506150b08261506f565b601282019050919050565b60006150c682615098565b9150819050919050565b60006150db82613c60565b6150e58185615064565b93506150f5818560208601613c7c565b80840191505092915050565b600061510d82846150d0565b915081905092915050565b60008151905061512781613ace565b92915050565b60006020828403121561514357615142613aba565b5b600061515184828501615118565b91505092915050565b7f75706461746550726f706f73616c537461747573546f436c61696d6564000000600082015250565b6000615190601d83615064565b915061519b8261515a565b601d82019050919050565b60006151b182615183565b9150819050919050565b7f506f6f6c41637469766500000000000000000000000000000000000000000000600082015250565b60006151f1600a83615064565b91506151fc826151bb565b600a82019050919050565b6000615212826151e4565b9150819050919050565b7f506f6f6c44656163746976617465640000000000000000000000000000000000600082015250565b6000615252600f83615064565b915061525d8261521c565b600f82019050919050565b600061527382615245565b9150819050919050565b7f55736572436f7665720000000000000000000000000000000000000000000000600082015250565b60006152b3600983615064565b91506152be8261527d565b600982019050919050565b60006152d4826152a6565b9150819050919050565b60006152e982613bc8565b9050919050565b6152f9816152de565b811461530457600080fd5b50565b600081519050615316816152f0565b92915050565b60008151905061532b81613e42565b92915050565b600081519050615340816146b8565b92915050565b60008151905061535581614642565b92915050565b60006101208284031215615372576153716146ae565b5b61537d610120614337565b9050600061538d8482850161531c565b60008301525060206153a184828501615118565b60208301525060406153b584828501615331565b604083015250606082015167ffffffffffffffff8111156153d9576153d86146b3565b5b6153e584828501614f4e565b60608301525060806153f984828501615118565b60808301525060a061540d84828501615118565b60a08301525060c061542184828501615118565b60c08301525060e061543584828501615118565b60e08301525061010061544a84828501615346565b6101008301525092915050565b6000806000606084860312156154705761546f613aba565b5b600061547e86828701615307565b935050602061548f86828701615118565b925050604084015167ffffffffffffffff8111156154b0576154af613abf565b5b6154bc8682870161535b565b9150509250925092565b60008190508160005260206000209050919050565b60006020601f8301049050919050565b600082821b905092915050565b6000600883026155287fffffffffffffffffffffffffffffffffffffffffffffffffffffffffffffffff826154eb565b61553286836154eb565b95508019841693508086168417925050509392505050565b600061556561556061555b84613ac4565b6148b3565b613ac4565b9050919050565b6000819050919050565b61557f8361554a565b61559361558b8261556c565b8484546154f8565b825550505050565b600090565b6155a861559b565b6155b3818484615576565b505050565b5b818110156155d7576155cc6000826155a0565b6001810190506155b9565b5050565b601f82111561561c576155ed816154c6565b6155f6846154db565b81016020851015615605578190505b615619615611856154db565b8301826155b8565b50505b505050565b600082821c905092915050565b600061563f60001984600802615621565b1980831691505092915050565b6000615658838361562e565b9150826002028217905092915050565b61567182613c60565b67ffffffffffffffff81111561568a576156896142d7565b5b61569482546149d4565b61569f8282856155db565b600060209050601f8311600181146156d257600084156156c0578287015190505b6156ca858261564c565b865550615732565b601f1984166156e0866154c6565b60005b82811015615708578489015182556001820191506020850194506020810190506156e3565b868310156157255784890151615721601f89168261562e565b8355505b6001600288020188555050505b505050505050565b600060208201905081810360008301526157548184614548565b905092915050565b7f566f74696e67206475726174696f6e206d75737420626520677265617465722060008201527f7468616e20300000000000000000000000000000000000000000000000000000602082015250565b60006157b8602683614537565b91506157c38261575c565b604082019050919050565b600060208201905081810360008301526157e7816157ab565b9050919050565b7f416c726561647920766f74656400000000000000000000000000000000000000600082015250565b6000615824600d83614537565b915061582f826157ee565b602082019050919050565b6000602082019050818103600083015261585381615817565b9050919050565b7f50726f706f73616c20646f6573206e6f74206578697374000000000000000000600082015250565b6000615890601783614537565b915061589b8261585a565b602082019050919050565b600060208201905081810360008301526158bf81615883565b9050919050565b60006158d182613ac4565b91506158dc83613ac4565b92508282019050808211156158f4576158f3614d66565b5b92915050565b7f4e6f20766f74696e672077656967687400000000000000000000000000000000600082015250565b6000615930601083614537565b915061593b826158fa565b602082019050919050565b6000602082019050818103600083015261595f81615923565b9050919050565b600060408201905061597b6000830185613bb9565b6159886020830184613b27565b9392505050565b7f4e6f742073756666696369656e7420636f7665722076616c756520666f72206360008201527f6c61696d00000000000000000000000000000000000000000000000000000000602082015250565b60006159eb602483614537565b91506159f68261598f565b604082019050919050565b60006020820190508181036000830152615a1a816159de565b9050919050565b7f506f6f6c20646f6573206e6f7420657869737400000000000000000000000000600082015250565b6000615a57601383614537565b9150615a6282615a21565b602082019050919050565b60006020820190508181036000830152615a8681615a4a565b9050919050565b7f436c61696d20616d6f756e74206d75737420626520677265617465722074686160008201527f6e20300000000000000000000000000000000000000000000000000000000000602082015250565b6000615ae9602383614537565b9150615af482615a8d565b604082019050919050565b60006020820190508181036000830152615b1881615adc565b9050919050565b60006080820190508181036000830152615b398187614548565b9050615b486020830186614528565b615b556040830185613b27565b615b626060830184613b9e565b95945050505050565b7f476f7665726e616e636520616c72656164792073657400000000000000000000600082015250565b6000615ba1601683614537565b9150615bac82615b6b565b602082019050919050565b60006020820190508181036000830152615bd081615b94565b9050919050565b7f476f7665726e616e636520616464726573732063616e6e6f74206265207a657260008201527f6f00000000000000000000000000000000000000000000000000000000000000602082015250565b6000615c33602183614537565b9150615c3e82615bd7565b604082019050919050565b60006020820190508181036000830152615c6281615c26565b9050919050565b7f4e6f7420617574686f72697a6564000000000000000000000000000000000000600082015250565b6000615c9f600e83614537565b9150615caa82615c69565b602082019050919050565b60006020820190508181036000830152615cce81615c92565b905091905056fea26469706673582212204163ebb68f930fae7ced9e29ac146634c57156727d4fb9e0c33e0d2d621654cf64736f6c634300081b0033",
  "linkReferences": {},
  "deployedLinkReferences": {}
}