{
  "_format": "hh-sol-artifact-1",
  "contractName": "Governance",
  "sourceName": "contracts/Gov.sol",
  "abi": [
    {
      "inputs": [
        {
          "internalType": "address",
          "name": "_mailbox",
          "type": "address"
        },
        {
          "internalType": "address",
          "name": "_governanceToken",
          "type": "address"
        },
        {
          "internalType": "address",
          "name": "_insurancePool",
          "type": "address"
        },
        {
          "internalType": "uint256",
          "name": "_votingDuration",
          "type": "uint256"
        },
        {
          "internalType": "address",
          "name": "_initialOwner",
          "type": "address"
        },
        {
          "internalType": "uint256",
          "name": "_destinationDomain",
          "type": "uint256"
        }
      ],
      "stateMutability": "nonpayable",
      "type": "constructor"
    },
    {
      "inputs": [
        {
          "internalType": "address",
          "name": "owner",
          "type": "address"
        }
      ],
      "name": "OwnableInvalidOwner",
      "type": "error"
    },
    {
      "inputs": [
        {
          "internalType": "address",
          "name": "account",
          "type": "address"
        }
      ],
      "name": "OwnableUnauthorizedAccount",
      "type": "error"
    },
    {
      "inputs": [],
      "name": "ReentrancyGuardReentrantCall",
      "type": "error"
    },
    {
      "inputs": [],
      "name": "VotingTimeElapsed",
      "type": "error"
    },
    {
      "anonymous": false,
      "inputs": [
        {
          "indexed": true,
          "internalType": "address",
          "name": "previousOwner",
          "type": "address"
        },
        {
          "indexed": true,
          "internalType": "address",
          "name": "newOwner",
          "type": "address"
        }
      ],
      "name": "OwnershipTransferred",
      "type": "event"
    },
    {
      "anonymous": false,
      "inputs": [
        {
          "indexed": true,
          "internalType": "uint256",
          "name": "proposalId",
          "type": "uint256"
        },
        {
          "indexed": true,
          "internalType": "address",
          "name": "creator",
          "type": "address"
        },
        {
          "indexed": false,
          "internalType": "string",
          "name": "description",
          "type": "string"
        },
        {
          "indexed": false,
          "internalType": "enum CoverLib.RiskType",
          "name": "riskType",
          "type": "uint8"
        },
        {
          "indexed": false,
          "internalType": "uint256",
          "name": "claimAmount",
          "type": "uint256"
        },
        {
          "indexed": false,
          "internalType": "enum CoverLib.ProposalStaus",
          "name": "status",
          "type": "uint8"
        }
      ],
      "name": "ProposalCreated",
      "type": "event"
    },
    {
      "anonymous": false,
      "inputs": [
        {
          "indexed": true,
          "internalType": "uint256",
          "name": "proposalId",
          "type": "uint256"
        },
        {
          "indexed": false,
          "internalType": "bool",
          "name": "approved",
          "type": "bool"
        }
      ],
      "name": "ProposalExecuted",
      "type": "event"
    },
    {
      "anonymous": false,
      "inputs": [
        {
          "indexed": true,
          "internalType": "uint32",
          "name": "origin",
          "type": "uint32"
        },
        {
          "indexed": true,
          "internalType": "bytes32",
          "name": "sender",
          "type": "bytes32"
        },
        {
          "indexed": false,
          "internalType": "string",
          "name": "message",
          "type": "string"
        }
      ],
      "name": "ReceivedMessage",
      "type": "event"
    },
    {
      "anonymous": false,
      "inputs": [
        {
          "indexed": true,
          "internalType": "address",
          "name": "voter",
          "type": "address"
        },
        {
          "indexed": true,
          "internalType": "uint256",
          "name": "proposalId",
          "type": "uint256"
        },
        {
          "indexed": false,
          "internalType": "bool",
          "name": "vote",
          "type": "bool"
        },
        {
          "indexed": false,
          "internalType": "uint256",
          "name": "weight",
          "type": "uint256"
        }
      ],
      "name": "VoteCast",
      "type": "event"
    },
    {
      "inputs": [],
      "name": "coverContract",
      "outputs": [
        {
          "internalType": "address",
          "name": "",
          "type": "address"
        }
      ],
      "stateMutability": "view",
      "type": "function"
    },
    {
      "inputs": [
        {
          "components": [
            {
              "internalType": "address",
              "name": "user",
              "type": "address"
            },
            {
              "internalType": "enum CoverLib.RiskType",
              "name": "riskType",
              "type": "uint8"
            },
            {
              "internalType": "uint256",
              "name": "coverId",
              "type": "uint256"
            },
            {
              "internalType": "string",
              "name": "txHash",
              "type": "string"
            },
            {
              "internalType": "string",
              "name": "description",
              "type": "string"
            },
            {
              "internalType": "uint256",
              "name": "poolId",
              "type": "uint256"
            },
            {
              "internalType": "uint256",
              "name": "claimAmount",
              "type": "uint256"
            }
          ],
          "internalType": "struct CoverLib.ProposalParams",
          "name": "params",
          "type": "tuple"
        }
      ],
      "name": "createProposal",
      "outputs": [],
      "stateMutability": "nonpayable",
      "type": "function"
    },
    {
      "inputs": [],
      "name": "destinationDomain",
      "outputs": [
        {
          "internalType": "uint32",
          "name": "",
          "type": "uint32"
        }
      ],
      "stateMutability": "view",
      "type": "function"
    },
    {
      "inputs": [
        {
          "internalType": "uint256",
          "name": "_proposalId",
          "type": "uint256"
        }
      ],
      "name": "executeProposal",
      "outputs": [],
      "stateMutability": "nonpayable",
      "type": "function"
    },
    {
      "inputs": [],
      "name": "getActiveProposals",
      "outputs": [
        {
          "components": [
            {
              "internalType": "uint256",
              "name": "id",
              "type": "uint256"
            },
            {
              "internalType": "uint256",
              "name": "votesFor",
              "type": "uint256"
            },
            {
              "internalType": "uint256",
              "name": "votesAgainst",
              "type": "uint256"
            },
            {
              "internalType": "uint256",
              "name": "createdAt",
              "type": "uint256"
            },
            {
              "internalType": "uint256",
              "name": "deadline",
              "type": "uint256"
            },
            {
              "internalType": "uint256",
              "name": "timeleft",
              "type": "uint256"
            },
            {
              "internalType": "enum CoverLib.ProposalStaus",
              "name": "status",
              "type": "uint8"
            },
            {
              "internalType": "bool",
              "name": "executed",
              "type": "bool"
            },
            {
              "components": [
                {
                  "internalType": "address",
                  "name": "user",
                  "type": "address"
                },
                {
                  "internalType": "enum CoverLib.RiskType",
                  "name": "riskType",
                  "type": "uint8"
                },
                {
                  "internalType": "uint256",
                  "name": "coverId",
                  "type": "uint256"
                },
                {
                  "internalType": "string",
                  "name": "txHash",
                  "type": "string"
                },
                {
                  "internalType": "string",
                  "name": "description",
                  "type": "string"
                },
                {
                  "internalType": "uint256",
                  "name": "poolId",
                  "type": "uint256"
                },
                {
                  "internalType": "uint256",
                  "name": "claimAmount",
                  "type": "uint256"
                }
              ],
              "internalType": "struct CoverLib.ProposalParams",
              "name": "proposalParam",
              "type": "tuple"
            }
          ],
          "internalType": "struct CoverLib.Proposal[]",
          "name": "",
          "type": "tuple[]"
        }
      ],
      "stateMutability": "view",
      "type": "function"
    },
    {
      "inputs": [],
      "name": "getAllProposals",
      "outputs": [
        {
          "components": [
            {
              "internalType": "uint256",
              "name": "id",
              "type": "uint256"
            },
            {
              "internalType": "uint256",
              "name": "votesFor",
              "type": "uint256"
            },
            {
              "internalType": "uint256",
              "name": "votesAgainst",
              "type": "uint256"
            },
            {
              "internalType": "uint256",
              "name": "createdAt",
              "type": "uint256"
            },
            {
              "internalType": "uint256",
              "name": "deadline",
              "type": "uint256"
            },
            {
              "internalType": "uint256",
              "name": "timeleft",
              "type": "uint256"
            },
            {
              "internalType": "enum CoverLib.ProposalStaus",
              "name": "status",
              "type": "uint8"
            },
            {
              "internalType": "bool",
              "name": "executed",
              "type": "bool"
            },
            {
              "components": [
                {
                  "internalType": "address",
                  "name": "user",
                  "type": "address"
                },
                {
                  "internalType": "enum CoverLib.RiskType",
                  "name": "riskType",
                  "type": "uint8"
                },
                {
                  "internalType": "uint256",
                  "name": "coverId",
                  "type": "uint256"
                },
                {
                  "internalType": "string",
                  "name": "txHash",
                  "type": "string"
                },
                {
                  "internalType": "string",
                  "name": "description",
                  "type": "string"
                },
                {
                  "internalType": "uint256",
                  "name": "poolId",
                  "type": "uint256"
                },
                {
                  "internalType": "uint256",
                  "name": "claimAmount",
                  "type": "uint256"
                }
              ],
              "internalType": "struct CoverLib.ProposalParams",
              "name": "proposalParam",
              "type": "tuple"
            }
          ],
          "internalType": "struct CoverLib.Proposal[]",
          "name": "",
          "type": "tuple[]"
        }
      ],
      "stateMutability": "view",
      "type": "function"
    },
    {
      "inputs": [],
      "name": "getPastProposals",
      "outputs": [
        {
          "components": [
            {
              "internalType": "uint256",
              "name": "id",
              "type": "uint256"
            },
            {
              "internalType": "uint256",
              "name": "votesFor",
              "type": "uint256"
            },
            {
              "internalType": "uint256",
              "name": "votesAgainst",
              "type": "uint256"
            },
            {
              "internalType": "uint256",
              "name": "createdAt",
              "type": "uint256"
            },
            {
              "internalType": "uint256",
              "name": "deadline",
              "type": "uint256"
            },
            {
              "internalType": "uint256",
              "name": "timeleft",
              "type": "uint256"
            },
            {
              "internalType": "enum CoverLib.ProposalStaus",
              "name": "status",
              "type": "uint8"
            },
            {
              "internalType": "bool",
              "name": "executed",
              "type": "bool"
            },
            {
              "components": [
                {
                  "internalType": "address",
                  "name": "user",
                  "type": "address"
                },
                {
                  "internalType": "enum CoverLib.RiskType",
                  "name": "riskType",
                  "type": "uint8"
                },
                {
                  "internalType": "uint256",
                  "name": "coverId",
                  "type": "uint256"
                },
                {
                  "internalType": "string",
                  "name": "txHash",
                  "type": "string"
                },
                {
                  "internalType": "string",
                  "name": "description",
                  "type": "string"
                },
                {
                  "internalType": "uint256",
                  "name": "poolId",
                  "type": "uint256"
                },
                {
                  "internalType": "uint256",
                  "name": "claimAmount",
                  "type": "uint256"
                }
              ],
              "internalType": "struct CoverLib.ProposalParams",
              "name": "proposalParam",
              "type": "tuple"
            }
          ],
          "internalType": "struct CoverLib.Proposal[]",
          "name": "",
          "type": "tuple[]"
        }
      ],
      "stateMutability": "view",
      "type": "function"
    },
    {
      "inputs": [],
      "name": "getProposalCount",
      "outputs": [
        {
          "internalType": "uint256",
          "name": "",
          "type": "uint256"
        }
      ],
      "stateMutability": "view",
      "type": "function"
    },
    {
      "inputs": [
        {
          "internalType": "uint256",
          "name": "_proposalId",
          "type": "uint256"
        }
      ],
      "name": "getProposalDetails",
      "outputs": [
        {
          "components": [
            {
              "internalType": "uint256",
              "name": "id",
              "type": "uint256"
            },
            {
              "internalType": "uint256",
              "name": "votesFor",
              "type": "uint256"
            },
            {
              "internalType": "uint256",
              "name": "votesAgainst",
              "type": "uint256"
            },
            {
              "internalType": "uint256",
              "name": "createdAt",
              "type": "uint256"
            },
            {
              "internalType": "uint256",
              "name": "deadline",
              "type": "uint256"
            },
            {
              "internalType": "uint256",
              "name": "timeleft",
              "type": "uint256"
            },
            {
              "internalType": "enum CoverLib.ProposalStaus",
              "name": "status",
              "type": "uint8"
            },
            {
              "internalType": "bool",
              "name": "executed",
              "type": "bool"
            },
            {
              "components": [
                {
                  "internalType": "address",
                  "name": "user",
                  "type": "address"
                },
                {
                  "internalType": "enum CoverLib.RiskType",
                  "name": "riskType",
                  "type": "uint8"
                },
                {
                  "internalType": "uint256",
                  "name": "coverId",
                  "type": "uint256"
                },
                {
                  "internalType": "string",
                  "name": "txHash",
                  "type": "string"
                },
                {
                  "internalType": "string",
                  "name": "description",
                  "type": "string"
                },
                {
                  "internalType": "uint256",
                  "name": "poolId",
                  "type": "uint256"
                },
                {
                  "internalType": "uint256",
                  "name": "claimAmount",
                  "type": "uint256"
                }
              ],
              "internalType": "struct CoverLib.ProposalParams",
              "name": "proposalParam",
              "type": "tuple"
            }
          ],
          "internalType": "struct CoverLib.Proposal",
          "name": "",
          "type": "tuple"
        }
      ],
      "stateMutability": "nonpayable",
      "type": "function"
    },
    {
      "inputs": [],
      "name": "governanceToken",
      "outputs": [
        {
          "internalType": "contract IERC20",
          "name": "",
          "type": "address"
        }
      ],
      "stateMutability": "view",
      "type": "function"
    },
    {
      "inputs": [
        {
          "internalType": "uint32",
          "name": "_origin",
          "type": "uint32"
        },
        {
          "internalType": "bytes32",
          "name": "_sender",
          "type": "bytes32"
        },
        {
          "internalType": "bytes",
          "name": "_message",
          "type": "bytes"
        }
      ],
      "name": "handle",
      "outputs": [],
      "stateMutability": "payable",
      "type": "function"
    },
    {
      "inputs": [],
      "name": "interchainSecurityModule",
      "outputs": [
        {
          "internalType": "contract IInterchainSecurityModule",
          "name": "",
          "type": "address"
        }
      ],
      "stateMutability": "view",
      "type": "function"
    },
    {
      "inputs": [],
      "name": "mailbox",
      "outputs": [
        {
          "internalType": "contract IMailbox",
          "name": "",
          "type": "address"
        }
      ],
      "stateMutability": "view",
      "type": "function"
    },
    {
      "inputs": [],
      "name": "mailboxAddress",
      "outputs": [
        {
          "internalType": "address",
          "name": "",
          "type": "address"
        }
      ],
      "stateMutability": "view",
      "type": "function"
    },
    {
      "inputs": [],
      "name": "owner",
      "outputs": [
        {
          "internalType": "address",
          "name": "",
          "type": "address"
        }
      ],
      "stateMutability": "view",
      "type": "function"
    },
    {
      "inputs": [],
      "name": "poolContract",
      "outputs": [
        {
          "internalType": "address",
          "name": "",
          "type": "address"
        }
      ],
      "stateMutability": "view",
      "type": "function"
    },
    {
      "inputs": [],
      "name": "proposalCounter",
      "outputs": [
        {
          "internalType": "uint256",
          "name": "",
          "type": "uint256"
        }
      ],
      "stateMutability": "view",
      "type": "function"
    },
    {
      "inputs": [
        {
          "internalType": "uint256",
          "name": "",
          "type": "uint256"
        }
      ],
      "name": "proposalIds",
      "outputs": [
        {
          "internalType": "uint256",
          "name": "",
          "type": "uint256"
        }
      ],
      "stateMutability": "view",
      "type": "function"
    },
    {
      "inputs": [
        {
          "internalType": "uint256",
          "name": "",
          "type": "uint256"
        }
      ],
      "name": "proposals",
      "outputs": [
        {
          "internalType": "uint256",
          "name": "id",
          "type": "uint256"
        },
        {
          "internalType": "uint256",
          "name": "votesFor",
          "type": "uint256"
        },
        {
          "internalType": "uint256",
          "name": "votesAgainst",
          "type": "uint256"
        },
        {
          "internalType": "uint256",
          "name": "createdAt",
          "type": "uint256"
        },
        {
          "internalType": "uint256",
          "name": "deadline",
          "type": "uint256"
        },
        {
          "internalType": "uint256",
          "name": "timeleft",
          "type": "uint256"
        },
        {
          "internalType": "enum CoverLib.ProposalStaus",
          "name": "status",
          "type": "uint8"
        },
        {
          "internalType": "bool",
          "name": "executed",
          "type": "bool"
        },
        {
          "components": [
            {
              "internalType": "address",
              "name": "user",
              "type": "address"
            },
            {
              "internalType": "enum CoverLib.RiskType",
              "name": "riskType",
              "type": "uint8"
            },
            {
              "internalType": "uint256",
              "name": "coverId",
              "type": "uint256"
            },
            {
              "internalType": "string",
              "name": "txHash",
              "type": "string"
            },
            {
              "internalType": "string",
              "name": "description",
              "type": "string"
            },
            {
              "internalType": "uint256",
              "name": "poolId",
              "type": "uint256"
            },
            {
              "internalType": "uint256",
              "name": "claimAmount",
              "type": "uint256"
            }
          ],
          "internalType": "struct CoverLib.ProposalParams",
          "name": "proposalParam",
          "type": "tuple"
        }
      ],
      "stateMutability": "view",
      "type": "function"
    },
    {
      "inputs": [],
      "name": "renounceOwnership",
      "outputs": [],
      "stateMutability": "nonpayable",
      "type": "function"
    },
    {
      "inputs": [
        {
          "internalType": "address",
          "name": "_coverContract",
          "type": "address"
        }
      ],
      "name": "setCoverContract",
      "outputs": [],
      "stateMutability": "nonpayable",
      "type": "function"
    },
    {
      "inputs": [
        {
          "internalType": "uint32",
          "name": "_destinationDomain",
          "type": "uint32"
        }
      ],
      "name": "setDestinationDomain",
      "outputs": [],
      "stateMutability": "nonpayable",
      "type": "function"
    },
    {
      "inputs": [
        {
          "internalType": "address",
          "name": "_ism",
          "type": "address"
        }
      ],
      "name": "setInterchainSecurityModule",
      "outputs": [],
      "stateMutability": "nonpayable",
      "type": "function"
    },
    {
      "inputs": [
        {
          "internalType": "uint256",
          "name": "_newDuration",
          "type": "uint256"
        }
      ],
      "name": "setVotingDuration",
      "outputs": [],
      "stateMutability": "nonpayable",
      "type": "function"
    },
    {
      "inputs": [
        {
          "internalType": "address",
          "name": "newOwner",
          "type": "address"
        }
      ],
      "name": "transferOwnership",
      "outputs": [],
      "stateMutability": "nonpayable",
      "type": "function"
    },
    {
      "inputs": [
        {
          "internalType": "uint256",
          "name": "proposalId",
          "type": "uint256"
        }
      ],
      "name": "updateProposalStatusToClaimed",
      "outputs": [],
      "stateMutability": "nonpayable",
      "type": "function"
    },
    {
      "inputs": [
        {
          "internalType": "address",
          "name": "",
          "type": "address"
        },
        {
          "internalType": "uint256",
          "name": "",
          "type": "uint256"
        }
      ],
      "name": "userCovers",
      "outputs": [
        {
          "internalType": "address",
          "name": "user",
          "type": "address"
        },
        {
          "internalType": "uint256",
          "name": "coverId",
          "type": "uint256"
        },
        {
          "internalType": "enum CoverLib.RiskType",
          "name": "riskType",
          "type": "uint8"
        },
        {
          "internalType": "string",
          "name": "coverName",
          "type": "string"
        },
        {
          "internalType": "uint256",
          "name": "coverValue",
          "type": "uint256"
        },
        {
          "internalType": "uint256",
          "name": "claimPaid",
          "type": "uint256"
        },
        {
          "internalType": "uint256",
          "name": "coverPeriod",
          "type": "uint256"
        },
        {
          "internalType": "uint256",
          "name": "endDay",
          "type": "uint256"
        },
        {
          "internalType": "bool",
          "name": "isActive",
          "type": "bool"
        }
      ],
      "stateMutability": "view",
      "type": "function"
    },
    {
      "inputs": [
        {
          "internalType": "uint256",
          "name": "_proposalId",
          "type": "uint256"
        },
        {
          "internalType": "bool",
          "name": "_vote",
          "type": "bool"
        }
      ],
      "name": "vote",
      "outputs": [],
      "stateMutability": "nonpayable",
      "type": "function"
    },
    {
      "inputs": [
        {
          "internalType": "uint256",
          "name": "",
          "type": "uint256"
        },
        {
          "internalType": "address",
          "name": "",
          "type": "address"
        }
      ],
      "name": "voters",
      "outputs": [
        {
          "internalType": "bool",
          "name": "voted",
          "type": "bool"
        },
        {
          "internalType": "bool",
          "name": "vote",
          "type": "bool"
        },
        {
          "internalType": "uint256",
          "name": "weight",
          "type": "uint256"
        }
      ],
      "stateMutability": "view",
      "type": "function"
    },
    {
      "inputs": [],
      "name": "votingDuration",
      "outputs": [
        {
          "internalType": "uint256",
          "name": "",
          "type": "uint256"
        }
      ],
      "stateMutability": "view",
      "type": "function"
    },
    {
      "stateMutability": "payable",
      "type": "receive"
    }
  ],
  "bytecode": "0x608060405234801561001057600080fd5b5060405161612f38038061612f8339818101604052810190610032919061035f565b816001600081905550600073ffffffffffffffffffffffffffffffffffffffff168173ffffffffffffffffffffffffffffffffffffffff16036100ad5760006040517f1e4fbdf70000000000000000000000000000000000000000000000000000000081526004016100a491906103fb565b60405180910390fd5b6100bc8161020060201b60201c565b5085600b60006101000a81548173ffffffffffffffffffffffffffffffffffffffff021916908373ffffffffffffffffffffffffffffffffffffffff16021790555085600e60006101000a81548173ffffffffffffffffffffffffffffffffffffffff021916908373ffffffffffffffffffffffffffffffffffffffff16021790555084600a60006101000a81548173ffffffffffffffffffffffffffffffffffffffff021916908373ffffffffffffffffffffffffffffffffffffffff16021790555083600d60006101000a81548173ffffffffffffffffffffffffffffffffffffffff021916908373ffffffffffffffffffffffffffffffffffffffff160217905550603c836101ce9190610445565b60038190555080600460006101000a81548163ffffffff021916908363ffffffff160217905550505050505050610487565b6000600160009054906101000a900473ffffffffffffffffffffffffffffffffffffffff16905081600160006101000a81548173ffffffffffffffffffffffffffffffffffffffff021916908373ffffffffffffffffffffffffffffffffffffffff1602179055508173ffffffffffffffffffffffffffffffffffffffff168173ffffffffffffffffffffffffffffffffffffffff167f8be0079c531659141344cd1fd0a4f28419497f9722a3daafe3b4186f6b6457e060405160405180910390a35050565b600080fd5b600073ffffffffffffffffffffffffffffffffffffffff82169050919050565b60006102f6826102cb565b9050919050565b610306816102eb565b811461031157600080fd5b50565b600081519050610323816102fd565b92915050565b6000819050919050565b61033c81610329565b811461034757600080fd5b50565b60008151905061035981610333565b92915050565b60008060008060008060c0878903121561037c5761037b6102c6565b5b600061038a89828a01610314565b965050602061039b89828a01610314565b95505060406103ac89828a01610314565b94505060606103bd89828a0161034a565b93505060806103ce89828a01610314565b92505060a06103df89828a0161034a565b9150509295509295509295565b6103f5816102eb565b82525050565b600060208201905061041060008301846103ec565b92915050565b7f4e487b7100000000000000000000000000000000000000000000000000000000600052601160045260246000fd5b600061045082610329565b915061045b83610329565b925082820261046981610329565b915082820484148315176104805761047f610416565b5b5092915050565b615c99806104966000396000f3fe6080604052600436106101d15760003560e01c80639e319063116100f7578063d4bdf02311610095578063ee5424ab11610064578063ee5424ab14610678578063f1b4bf9d146106a1578063f2fde38b146106ca578063f96dae0a146106f3576101d8565b8063d4bdf023146105cc578063d5438eae146105f7578063d8f62f8714610622578063de523cf31461064d576101d8565b8063c08cc02d116100d1578063c08cc02d14610524578063c9d27afe1461054f578063cbef6b2e14610578578063cceb68f5146105a1576101d8565b80639e319063146104775780639e7b399e146104b6578063ae63df89146104fb576101d8565b80633b4d01a71161016f578063715018a61161013e578063715018a6146103cd57806388d52ef7146103e45780638da5cb5b1461040f5780639b644a231461043a576101d8565b80633b4d01a7146103205780635584c4f91461035d57806356d5d475146103885780635bcfadb5146103a4576101d8565b80630e72cc06116101ab5780630e72cc0614610276578063132002fc1461029f578063248a75b7146102ca5780632858c55a146102f5576101d8565b8063013cf08b146101dd5780630c0512e9146102225780630d61b5191461024d576101d8565b366101d857005b600080fd5b3480156101e957600080fd5b5061020460048036038101906101ff9190613a88565b61071e565b60405161021999989796959493929190613d21565b60405180910390f35b34801561022e57600080fd5b50610237610963565b6040516102449190613db5565b60405180910390f35b34801561025957600080fd5b50610274600480360381019061026f9190613a88565b610969565b005b34801561028257600080fd5b5061029d60048036038101906102989190613dfc565b6110cd565b005b3480156102ab57600080fd5b506102b4611118565b6040516102c19190613db5565b60405180910390f35b3480156102d657600080fd5b506102df61111e565b6040516102ec9190613e38565b60405180910390f35b34801561030157600080fd5b5061030a611144565b6040516103179190613e72565b60405180910390f35b34801561032c57600080fd5b5061034760048036038101906103429190613a88565b61115a565b6040516103549190614013565b60405180910390f35b34801561036957600080fd5b50610372611488565b60405161037f91906141bc565b60405180910390f35b6103a2600480360381019061039d9190614375565b611a2c565b005b3480156103b057600080fd5b506103cb60048036038101906103c69190613a88565b611edc565b005b3480156103d957600080fd5b506103e2611f31565b005b3480156103f057600080fd5b506103f9611f45565b6040516104069190613e38565b60405180910390f35b34801561041b57600080fd5b50610424611f6b565b6040516104319190613e38565b60405180910390f35b34801561044657600080fd5b50610461600480360381019061045c9190613a88565b611f95565b60405161046e9190613db5565b60405180910390f35b34801561048357600080fd5b5061049e600480360381019061049991906143e4565b611fb9565b6040516104ad93929190614424565b60405180910390f35b3480156104c257600080fd5b506104dd60048036038101906104d8919061445b565b61200a565b6040516104f2999897969594939291906144f4565b60405180910390f35b34801561050757600080fd5b50610522600480360381019061051d9190614588565b612127565b005b34801561053057600080fd5b50610539612153565b6040516105469190613db5565b60405180910390f35b34801561055b57600080fd5b50610576600480360381019061057191906145e1565b61215d565b005b34801561058457600080fd5b5061059f600480360381019061059a91906147dd565b6125aa565b005b3480156105ad57600080fd5b506105b6612af4565b6040516105c391906141bc565b60405180910390f35b3480156105d857600080fd5b506105e1612ef5565b6040516105ee91906141bc565b60405180910390f35b34801561060357600080fd5b5061060c613409565b6040516106199190614885565b60405180910390f35b34801561062e57600080fd5b5061063761342f565b6040516106449190613e38565b60405180910390f35b34801561065957600080fd5b50610662613455565b60405161066f91906148c1565b60405180910390f35b34801561068457600080fd5b5061069f600480360381019061069a9190613dfc565b613479565b005b3480156106ad57600080fd5b506106c860048036038101906106c39190613a88565b6135c5565b005b3480156106d657600080fd5b506106f160048036038101906106ec9190613dfc565b6136ff565b005b3480156106ff57600080fd5b50610708613785565b60405161071591906148fd565b60405180910390f35b60056020528060005260406000206000915090508060000154908060010154908060020154908060030154908060040154908060050154908060060160009054906101000a900460ff16908060060160019054906101000a900460ff1690806007016040518060e00160405290816000820160009054906101000a900473ffffffffffffffffffffffffffffffffffffffff1673ffffffffffffffffffffffffffffffffffffffff1673ffffffffffffffffffffffffffffffffffffffff1681526020016000820160149054906101000a900460ff16600381111561080657610805613ac4565b5b600381111561081857610817613ac4565b5b81526020016001820154815260200160028201805461083690614947565b80601f016020809104026020016040519081016040528092919081815260200182805461086290614947565b80156108af5780601f10610884576101008083540402835291602001916108af565b820191906000526020600020905b81548152906001019060200180831161089257829003601f168201915b505050505081526020016003820180546108c890614947565b80601f01602080910402602001604051908101604052809291908181526020018280546108f490614947565b80156109415780601f1061091657610100808354040283529160200191610941565b820191906000526020600020905b81548152906001019060200180831161092457829003601f168201915b5050505050815260200160048201548152602001600582015481525050905089565b60025481565b6109716137ab565b610979613832565b6000600560008381526020019081526020016000209050600160048111156109a4576109a3613ac4565b5b8160060160009054906101000a900460ff1660048111156109c8576109c7613ac4565b5b14610a08576040517f08c379a00000000000000000000000000000000000000000000000000000000081526004016109ff906149c4565b60405180910390fd5b80600401544211610a4e576040517f08c379a0000000000000000000000000000000000000000000000000000000008152600401610a4590614a30565b60405180910390fd5b8060060160019054906101000a900460ff1615610aa0576040517f08c379a0000000000000000000000000000000000000000000000000000000008152600401610a9790614a9c565b60405180910390fd5b60018160060160016101000a81548160ff0219169083151502179055508060020154816001015411156110485760026005600084815260200190815260200160002060060160006101000a81548160ff02191690836004811115610b0757610b06613ac4565b5b0217905550600b60009054906101000a900473ffffffffffffffffffffffffffffffffffffffff1673ffffffffffffffffffffffffffffffffffffffff1663fa31de01600460009054906101000a900463ffffffff16610b88600c60009054906101000a900473ffffffffffffffffffffffffffffffffffffffff16613878565b8460070160000160009054906101000a900473ffffffffffffffffffffffffffffffffffffffff1685600701600101548660070160050154604051602001610bd293929190614abc565b604051602081830303815290604052604051602001610bf19190614b94565b6040516020818303038152906040526040518463ffffffff1660e01b8152600401610c1e93929190614bd8565b6020604051808303816000875af1158015610c3d573d6000803e3d6000fd5b505050506040513d601f19601f82011682018060405250810190610c619190614c2b565b50600081604051806101200160405290816000820154815260200160018201548152602001600282015481526020016003820154815260200160048201548152602001600582015481526020016006820160009054906101000a900460ff166004811115610cd257610cd1613ac4565b5b6004811115610ce457610ce3613ac4565b5b81526020016006820160019054906101000a900460ff16151515158152602001600782016040518060e00160405290816000820160009054906101000a900473ffffffffffffffffffffffffffffffffffffffff1673ffffffffffffffffffffffffffffffffffffffff1673ffffffffffffffffffffffffffffffffffffffff1681526020016000820160149054906101000a900460ff166003811115610d8e57610d8d613ac4565b5b6003811115610da057610d9f613ac4565b5b815260200160018201548152602001600282018054610dbe90614947565b80601f0160208091040260200160405190810160405280929190818152602001828054610dea90614947565b8015610e375780601f10610e0c57610100808354040283529160200191610e37565b820191906000526020600020905b815481529060010190602001808311610e1a57829003601f168201915b50505050508152602001600382018054610e5090614947565b80601f0160208091040260200160405190810160405280929190818152602001828054610e7c90614947565b8015610ec95780601f10610e9e57610100808354040283529160200191610ec9565b820191906000526020600020905b815481529060010190602001808311610eac57829003601f168201915b5050505050815260200160048201548152602001600582015481525050815250509050600b60009054906101000a900473ffffffffffffffffffffffffffffffffffffffff1673ffffffffffffffffffffffffffffffffffffffff1663fa31de01600460009054906101000a900463ffffffff16610f68600d60009054906101000a900473ffffffffffffffffffffffffffffffffffffffff16613878565b84604051602001610f799190614013565b604051602081830303815290604052604051602001610f989190614ca4565b6040516020818303038152906040526040518463ffffffff1660e01b8152600401610fc593929190614bd8565b6020604051808303816000875af1158015610fe4573d6000803e3d6000fd5b505050506040513d601f19601f820116820180604052508101906110089190614c2b565b50827f948f4a9cd986f1118c3fbd459f7a22b23c0693e1ca3ef06a6a8be5aa7d39cc03600160405161103a9190614cd9565b60405180910390a2506110c1565b60046005600084815260200190815260200160002060060160006101000a81548160ff0219169083600481111561108257611081613ac4565b5b0217905550817f948f4a9cd986f1118c3fbd459f7a22b23c0693e1ca3ef06a6a8be5aa7d39cc0360006040516110b89190614cd9565b60405180910390a25b506110ca61389b565b50565b6110d56137ab565b806004806101000a81548173ffffffffffffffffffffffffffffffffffffffff021916908373ffffffffffffffffffffffffffffffffffffffff16021790555050565b60035481565b600c60009054906101000a900473ffffffffffffffffffffffffffffffffffffffff1681565b600460009054906101000a900463ffffffff1681565b611162613973565b600560008381526020019081526020016000206004015442106111a057600060056000848152602001908152602001600020600501819055506111e9565b603c4260056000858152602001908152602001600020600401546111c49190614d23565b6111ce9190614d86565b60056000848152602001908152602001600020600501819055505b60056000838152602001908152602001600020604051806101200160405290816000820154815260200160018201548152602001600282015481526020016003820154815260200160048201548152602001600582015481526020016006820160009054906101000a900460ff16600481111561126957611268613ac4565b5b600481111561127b5761127a613ac4565b5b81526020016006820160019054906101000a900460ff16151515158152602001600782016040518060e00160405290816000820160009054906101000a900473ffffffffffffffffffffffffffffffffffffffff1673ffffffffffffffffffffffffffffffffffffffff1673ffffffffffffffffffffffffffffffffffffffff1681526020016000820160149054906101000a900460ff16600381111561132557611324613ac4565b5b600381111561133757611336613ac4565b5b81526020016001820154815260200160028201805461135590614947565b80601f016020809104026020016040519081016040528092919081815260200182805461138190614947565b80156113ce5780601f106113a3576101008083540402835291602001916113ce565b820191906000526020600020905b8154815290600101906020018083116113b157829003601f168201915b505050505081526020016003820180546113e790614947565b80601f016020809104026020016040519081016040528092919081815260200182805461141390614947565b80156114605780601f1061143557610100808354040283529160200191611460565b820191906000526020600020905b81548152906001019060200180831161144357829003601f168201915b5050505050815260200160048201548152602001600582015481525050815250509050919050565b60606000805b60088054905081101561153257600060056000600884815481106114b5576114b4614db7565b5b9060005260206000200154815260200190815260200160002060040154148061151157504260056000600884815481106114f2576114f1614db7565b5b9060005260206000200154815260200190815260200160002060040154115b1561152557818061152190614de6565b9250505b808060010191505061148e565b5060008167ffffffffffffffff81111561154f5761154e61424a565b5b60405190808252806020026020018201604052801561158857816020015b611575613973565b81526020019060019003908161156d5790505b5090506000805b600880549050811015611a2257600060056000600884815481106115b6576115b5614db7565b5b9060005260206000200154815260200190815260200160002060040154148061161357504260056000600884815481106115f3576115f2614db7565b5b906000526020600020015481526020019081526020016000206004015410155b15611a155760056000600883815481106116305761162f614db7565b5b90600052602060002001548152602001908152602001600020604051806101200160405290816000820154815260200160018201548152602001600282015481526020016003820154815260200160048201548152602001600582015481526020016006820160009054906101000a900460ff1660048111156116b6576116b5613ac4565b5b60048111156116c8576116c7613ac4565b5b81526020016006820160019054906101000a900460ff16151515158152602001600782016040518060e00160405290816000820160009054906101000a900473ffffffffffffffffffffffffffffffffffffffff1673ffffffffffffffffffffffffffffffffffffffff1673ffffffffffffffffffffffffffffffffffffffff1681526020016000820160149054906101000a900460ff16600381111561177257611771613ac4565b5b600381111561178457611783613ac4565b5b8152602001600182015481526020016002820180546117a290614947565b80601f01602080910402602001604051908101604052809291908181526020018280546117ce90614947565b801561181b5780601f106117f05761010080835404028352916020019161181b565b820191906000526020600020905b8154815290600101906020018083116117fe57829003601f168201915b5050505050815260200160038201805461183490614947565b80601f016020809104026020016040519081016040528092919081815260200182805461186090614947565b80156118ad5780601f10611882576101008083540402835291602001916118ad565b820191906000526020600020905b81548152906001019060200180831161189057829003601f168201915b5050505050815260200160048201548152602001600582015481525050815250508383815181106118e1576118e0614db7565b5b60200260200101819052508282815181106118ff576118fe614db7565b5b60200260200101516080015142148061197d57506000600481111561192757611926613ac4565b5b600560006008848154811061193f5761193e614db7565b5b9060005260206000200154815260200190815260200160002060060160009054906101000a900460ff16600481111561197b5761197a613ac4565b5b145b156119ac57600083838151811061199757611996614db7565b5b602002602001015160a0018181525050611a06565b603c428484815181106119c2576119c1614db7565b5b6020026020010151608001516119d89190614d23565b6119e29190614d86565b8383815181106119f5576119f4614db7565b5b602002602001015160a00181815250505b8180611a1190614de6565b9250505b808060010191505061158f565b5081935050505090565b600b60009054906101000a900473ffffffffffffffffffffffffffffffffffffffff1673ffffffffffffffffffffffffffffffffffffffff163373ffffffffffffffffffffffffffffffffffffffff1614611abc576040517f08c379a0000000000000000000000000000000000000000000000000000000008152600401611ab390614e7a565b60405180910390fd5b60008082806020019051810190611ad39190614f7a565b91509150604051602001611ae690615049565b6040516020818303038152906040528051906020012082604051602001611b0d919061508f565b6040516020818303038152906040528051906020012003611b4c57600081806020019051810190611b3e91906150bb565b9050611b498161115a565b50505b604051602001611b5b90615134565b6040516020818303038152906040528051906020012082604051602001611b82919061508f565b6040516020818303038152906040528051906020012003611bc057600081806020019051810190611bb391906150bb565b9050611bbe816135c5565b505b604051602001611bcf90615195565b6040516020818303038152906040528051906020012082604051602001611bf6919061508f565b6040516020818303038152906040528051906020012003611c5757600081806020019051810190611c2791906150bb565b905060016009600083815260200190815260200160002060006101000a81548160ff021916908315150217905550505b604051602001611c66906151f6565b6040516020818303038152906040528051906020012082604051602001611c8d919061508f565b6040516020818303038152906040528051906020012003611cee57600081806020019051810190611cbe91906150bb565b905060006009600083815260200190815260200160002060006101000a81548160ff021916908315150217905550505b604051602001611cfd90615257565b6040516020818303038152906040528051906020012082604051602001611d24919061508f565b6040516020818303038152906040528051906020012003611e9657600080600083806020019051810190611d5891906153e5565b92509250925080600660008573ffffffffffffffffffffffffffffffffffffffff1673ffffffffffffffffffffffffffffffffffffffff168152602001908152602001600020600084815260200190815260200160002060008201518160000160006101000a81548173ffffffffffffffffffffffffffffffffffffffff021916908373ffffffffffffffffffffffffffffffffffffffff1602179055506020820151816001015560408201518160020160006101000a81548160ff02191690836003811115611e2b57611e2a613ac4565b5b02179055506060820151816003019081611e4591906155f6565b506080820151816004015560a0820151816005015560c0820151816006015560e082015181600701556101008201518160080160006101000a81548160ff0219169083151502179055509050505050505b838563ffffffff167fba67744c899113a84f615d51af5d82f5fedcf26c9a474d9363c3ad9b0bd501ac85604051611ecd91906156c8565b60405180910390a35050505050565b611ee46137ab565b60008111611f27576040517f08c379a0000000000000000000000000000000000000000000000000000000008152600401611f1e9061575c565b60405180910390fd5b8060038190555050565b611f396137ab565b611f4360006138a5565b565b600d60009054906101000a900473ffffffffffffffffffffffffffffffffffffffff1681565b6000600160009054906101000a900473ffffffffffffffffffffffffffffffffffffffff16905090565b60088181548110611fa557600080fd5b906000526020600020016000915090505481565b6007602052816000526040600020602052806000526040600020600091509150508060000160009054906101000a900460ff16908060000160019054906101000a900460ff16908060010154905083565b6006602052816000526040600020602052806000526040600020600091509150508060000160009054906101000a900473ffffffffffffffffffffffffffffffffffffffff16908060010154908060020160009054906101000a900460ff169080600301805461207990614947565b80601f01602080910402602001604051908101604052809291908181526020018280546120a590614947565b80156120f25780601f106120c7576101008083540402835291602001916120f2565b820191906000526020600020905b8154815290600101906020018083116120d557829003601f168201915b5050505050908060040154908060050154908060060154908060070154908060080160009054906101000a900460ff16905089565b61212f6137ab565b80600460006101000a81548163ffffffff021916908363ffffffff16021790555050565b6000600254905090565b6007600083815260200190815260200160002060003373ffffffffffffffffffffffffffffffffffffffff1673ffffffffffffffffffffffffffffffffffffffff16815260200190815260200160002060000160009054906101000a900460ff16156121fe576040517f08c379a00000000000000000000000000000000000000000000000000000000081526004016121f5906157c8565b60405180910390fd5b6000600560008481526020019081526020016000209050600081600301540361225c576040517f08c379a000000000000000000000000000000000000000000000000000000000815260040161225390615834565b60405180910390fd5b600060048111156122705761226f613ac4565b5b8160060160009054906101000a900460ff16600481111561229457612293613ac4565b5b036123055760018160060160006101000a81548160ff021916908360048111156122c1576122c0613ac4565b5b0217905550600354426122d49190615854565b8160040181905550603c4282600401546122ee9190614d23565b6122f89190614d86565b816005018190555061234d565b8060040154421061234c57600081600501819055506040517f16440a5100000000000000000000000000000000000000000000000000000000815260040160405180910390fd5b5b603c42826004015461235f9190614d23565b6123699190614d86565b81600501819055506000600a60009054906101000a900473ffffffffffffffffffffffffffffffffffffffff1673ffffffffffffffffffffffffffffffffffffffff166370a08231336040518263ffffffff1660e01b81526004016123ce9190613e38565b602060405180830381865afa1580156123eb573d6000803e3d6000fd5b505050506040513d601f19601f8201168201806040525081019061240f91906150bb565b905060008111612454576040517f08c379a000000000000000000000000000000000000000000000000000000000815260040161244b906158d4565b60405180910390fd5b60405180606001604052806001151581526020018415158152602001828152506007600086815260200190815260200160002060003373ffffffffffffffffffffffffffffffffffffffff1673ffffffffffffffffffffffffffffffffffffffff16815260200190815260200160002060008201518160000160006101000a81548160ff02191690831515021790555060208201518160000160016101000a81548160ff021916908315150217905550604082015181600101559050508215612537578082600101600082825461252b9190615854565b92505081905550612553565b8082600201600082825461254b9190615854565b925050819055505b833373ffffffffffffffffffffffffffffffffffffffff167f877856338e13f63d0c36822ff0ef736b80934cd90574a3a5bc9262c39d217c46858460405161259c9291906158f4565b60405180910390a350505050565b600060066000836000015173ffffffffffffffffffffffffffffffffffffffff1673ffffffffffffffffffffffffffffffffffffffff168152602001908152602001600020600083604001518152602001908152602001600020604051806101200160405290816000820160009054906101000a900473ffffffffffffffffffffffffffffffffffffffff1673ffffffffffffffffffffffffffffffffffffffff1673ffffffffffffffffffffffffffffffffffffffff168152602001600182015481526020016002820160009054906101000a900460ff16600381111561269557612694613ac4565b5b60038111156126a7576126a6613ac4565b5b81526020016003820180546126bb90614947565b80601f01602080910402602001604051908101604052809291908181526020018280546126e790614947565b80156127345780601f1061270957610100808354040283529160200191612734565b820191906000526020600020905b81548152906001019060200180831161271757829003601f168201915b50505050508152602001600482015481526020016005820154815260200160068201548152602001600782015481526020016008820160009054906101000a900460ff161515151581525050905080608001518260c0015111156127cd576040517f08c379a00000000000000000000000000000000000000000000000000000000081526004016127c49061598f565b60405180910390fd5b600960008360a00151815260200190815260200160002060009054906101000a900460ff16612831576040517f08c379a0000000000000000000000000000000000000000000000000000000008152600401612828906159fb565b60405180910390fd5b60008260c0015111612878576040517f08c379a000000000000000000000000000000000000000000000000000000000815260040161286f90615a8d565b60405180910390fd5b6002600081548092919061288b90614de6565b9190505550604051806101200160405280600254815260200160008152602001600081526020014281526020016000815260200160008152602001600060048111156128da576128d9613ac4565b5b815260200160001515815260200183815250600560006002548152602001908152602001600020600082015181600001556020820151816001015560408201518160020155606082015181600301556080820151816004015560a0820151816005015560c08201518160060160006101000a81548160ff0219169083600481111561296857612967613ac4565b5b021790555060e08201518160060160016101000a81548160ff0219169083151502179055506101008201518160070160008201518160000160006101000a81548173ffffffffffffffffffffffffffffffffffffffff021916908373ffffffffffffffffffffffffffffffffffffffff16021790555060208201518160000160146101000a81548160ff02191690836003811115612a0957612a08613ac4565b5b0217905550604082015181600101556060820151816002019081612a2d91906155f6565b506080820151816003019081612a4391906155f6565b5060a0820151816004015560c08201518160050155505090505060086002549080600181540180825580915050600190039060005260206000200160009091909190915055816000015173ffffffffffffffffffffffffffffffffffffffff166002547f46b0c19f3bb130a0d6b56daca2a88a6b26094fb630786130084dc69e99692295846080015185602001518660c001516000604051612ae89493929190615aad565b60405180910390a35050565b6060600060088054905067ffffffffffffffff811115612b1757612b1661424a565b5b604051908082528060200260200182016040528015612b5057816020015b612b3d613973565b815260200190600190039081612b355790505b50905060005b600880549050811015612eed576005600060088381548110612b7b57612b7a614db7565b5b90600052602060002001548152602001908152602001600020604051806101200160405290816000820154815260200160018201548152602001600282015481526020016003820154815260200160048201548152602001600582015481526020016006820160009054906101000a900460ff166004811115612c0157612c00613ac4565b5b6004811115612c1357612c12613ac4565b5b81526020016006820160019054906101000a900460ff16151515158152602001600782016040518060e00160405290816000820160009054906101000a900473ffffffffffffffffffffffffffffffffffffffff1673ffffffffffffffffffffffffffffffffffffffff1673ffffffffffffffffffffffffffffffffffffffff1681526020016000820160149054906101000a900460ff166003811115612cbd57612cbc613ac4565b5b6003811115612ccf57612cce613ac4565b5b815260200160018201548152602001600282018054612ced90614947565b80601f0160208091040260200160405190810160405280929190818152602001828054612d1990614947565b8015612d665780601f10612d3b57610100808354040283529160200191612d66565b820191906000526020600020905b815481529060010190602001808311612d4957829003601f168201915b50505050508152602001600382018054612d7f90614947565b80601f0160208091040260200160405190810160405280929190818152602001828054612dab90614947565b8015612df85780601f10612dcd57610100808354040283529160200191612df8565b820191906000526020600020905b815481529060010190602001808311612ddb57829003601f168201915b505050505081526020016004820154815260200160058201548152505081525050828281518110612e2c57612e2b614db7565b5b6020026020010181905250818181518110612e4a57612e49614db7565b5b6020026020010151608001514210612e86576000828281518110612e7157612e70614db7565b5b602002602001015160a0018181525050612ee0565b603c42838381518110612e9c57612e9b614db7565b5b602002602001015160800151612eb29190614d23565b612ebc9190614d86565b828281518110612ecf57612ece614db7565b5b602002602001015160a00181815250505b8080600101915050612b56565b508091505090565b60606000805b600880549050811015612fd25760006004811115612f1c57612f1b613ac4565b5b6005600060088481548110612f3457612f33614db7565b5b9060005260206000200154815260200190815260200160002060060160009054906101000a900460ff166004811115612f7057612f6f613ac4565b5b14158015612fb15750426005600060088481548110612f9257612f91614db7565b5b9060005260206000200154815260200190815260200160002060040154105b15612fc5578180612fc190614de6565b9250505b8080600101915050612efb565b5060008167ffffffffffffffff811115612fef57612fee61424a565b5b60405190808252806020026020018201604052801561302857816020015b613015613973565b81526020019060019003908161300d5790505b5090506000805b6008805490508110156133ff57600060048111156130505761304f613ac4565b5b600560006008848154811061306857613067614db7565b5b9060005260206000200154815260200190815260200160002060060160009054906101000a900460ff1660048111156130a4576130a3613ac4565b5b141580156130e557504260056000600884815481106130c6576130c5614db7565b5b9060005260206000200154815260200190815260200160002060040154105b156133f257600560006008838154811061310257613101614db7565b5b90600052602060002001548152602001908152602001600020604051806101200160405290816000820154815260200160018201548152602001600282015481526020016003820154815260200160048201548152602001600582015481526020016006820160009054906101000a900460ff16600481111561318857613187613ac4565b5b600481111561319a57613199613ac4565b5b81526020016006820160019054906101000a900460ff16151515158152602001600782016040518060e00160405290816000820160009054906101000a900473ffffffffffffffffffffffffffffffffffffffff1673ffffffffffffffffffffffffffffffffffffffff1673ffffffffffffffffffffffffffffffffffffffff1681526020016000820160149054906101000a900460ff16600381111561324457613243613ac4565b5b600381111561325657613255613ac4565b5b81526020016001820154815260200160028201805461327490614947565b80601f01602080910402602001604051908101604052809291908181526020018280546132a090614947565b80156132ed5780601f106132c2576101008083540402835291602001916132ed565b820191906000526020600020905b8154815290600101906020018083116132d057829003601f168201915b5050505050815260200160038201805461330690614947565b80601f016020809104026020016040519081016040528092919081815260200182805461333290614947565b801561337f5780601f106133545761010080835404028352916020019161337f565b820191906000526020600020905b81548152906001019060200180831161336257829003601f168201915b5050505050815260200160048201548152602001600582015481525050815250508383815181106133b3576133b2614db7565b5b602002602001018190525060008383815181106133d3576133d2614db7565b5b602002602001015160a001818152505081806133ee90614de6565b9250505b808060010191505061302f565b5081935050505090565b600b60009054906101000a900473ffffffffffffffffffffffffffffffffffffffff1681565b600e60009054906101000a900473ffffffffffffffffffffffffffffffffffffffff1681565b60048054906101000a900473ffffffffffffffffffffffffffffffffffffffff1681565b6134816137ab565b600073ffffffffffffffffffffffffffffffffffffffff16600c60009054906101000a900473ffffffffffffffffffffffffffffffffffffffff1673ffffffffffffffffffffffffffffffffffffffff1614613512576040517f08c379a000000000000000000000000000000000000000000000000000000000815260040161350990615b45565b60405180910390fd5b600073ffffffffffffffffffffffffffffffffffffffff168173ffffffffffffffffffffffffffffffffffffffff1603613581576040517f08c379a000000000000000000000000000000000000000000000000000000000815260040161357890615bd7565b60405180910390fd5b80600c60006101000a81548173ffffffffffffffffffffffffffffffffffffffff021916908373ffffffffffffffffffffffffffffffffffffffff16021790555050565b600e60009054906101000a900473ffffffffffffffffffffffffffffffffffffffff1673ffffffffffffffffffffffffffffffffffffffff163373ffffffffffffffffffffffffffffffffffffffff16148061366e5750600c60009054906101000a900473ffffffffffffffffffffffffffffffffffffffff1673ffffffffffffffffffffffffffffffffffffffff163373ffffffffffffffffffffffffffffffffffffffff16145b6136ad576040517f08c379a00000000000000000000000000000000000000000000000000000000081526004016136a490615c43565b60405180910390fd5b6136b5613832565b60036005600083815260200190815260200160002060060160006101000a81548160ff021916908360048111156136ef576136ee613ac4565b5b02179055506136fc61389b565b50565b6137076137ab565b600073ffffffffffffffffffffffffffffffffffffffff168173ffffffffffffffffffffffffffffffffffffffff16036137795760006040517f1e4fbdf70000000000000000000000000000000000000000000000000000000081526004016137709190613e38565b60405180910390fd5b613782816138a5565b50565b600a60009054906101000a900473ffffffffffffffffffffffffffffffffffffffff1681565b6137b361396b565b73ffffffffffffffffffffffffffffffffffffffff166137d1611f6b565b73ffffffffffffffffffffffffffffffffffffffff1614613830576137f461396b565b6040517f118cdaa70000000000000000000000000000000000000000000000000000000081526004016138279190613e38565b60405180910390fd5b565b60026000540361386e576040517f3ee5aeb500000000000000000000000000000000000000000000000000000000815260040160405180910390fd5b6002600081905550565b60008173ffffffffffffffffffffffffffffffffffffffff1660001b9050919050565b6001600081905550565b6000600160009054906101000a900473ffffffffffffffffffffffffffffffffffffffff16905081600160006101000a81548173ffffffffffffffffffffffffffffffffffffffff021916908373ffffffffffffffffffffffffffffffffffffffff1602179055508173ffffffffffffffffffffffffffffffffffffffff168173ffffffffffffffffffffffffffffffffffffffff167f8be0079c531659141344cd1fd0a4f28419497f9722a3daafe3b4186f6b6457e060405160405180910390a35050565b600033905090565b604051806101200160405280600081526020016000815260200160008152602001600081526020016000815260200160008152602001600060048111156139bd576139bc613ac4565b5b81526020016000151581526020016139d36139d9565b81525090565b6040518060e00160405280600073ffffffffffffffffffffffffffffffffffffffff16815260200160006003811115613a1557613a14613ac4565b5b815260200160008152602001606081526020016060815260200160008152602001600081525090565b6000604051905090565b600080fd5b600080fd5b6000819050919050565b613a6581613a52565b8114613a7057600080fd5b50565b600081359050613a8281613a5c565b92915050565b600060208284031215613a9e57613a9d613a48565b5b6000613aac84828501613a73565b91505092915050565b613abe81613a52565b82525050565b7f4e487b7100000000000000000000000000000000000000000000000000000000600052602160045260246000fd5b60058110613b0457613b03613ac4565b5b50565b6000819050613b1582613af3565b919050565b6000613b2582613b07565b9050919050565b613b3581613b1a565b82525050565b60008115159050919050565b613b5081613b3b565b82525050565b600073ffffffffffffffffffffffffffffffffffffffff82169050919050565b6000613b8182613b56565b9050919050565b613b9181613b76565b82525050565b60048110613ba857613ba7613ac4565b5b50565b6000819050613bb982613b97565b919050565b6000613bc982613bab565b9050919050565b613bd981613bbe565b82525050565b613be881613a52565b82525050565b600081519050919050565b600082825260208201905092915050565b60005b83811015613c28578082015181840152602081019050613c0d565b60008484015250505050565b6000601f19601f8301169050919050565b6000613c5082613bee565b613c5a8185613bf9565b9350613c6a818560208601613c0a565b613c7381613c34565b840191505092915050565b600060e083016000830151613c966000860182613b88565b506020830151613ca96020860182613bd0565b506040830151613cbc6040860182613bdf565b5060608301518482036060860152613cd48282613c45565b91505060808301518482036080860152613cee8282613c45565b91505060a0830151613d0360a0860182613bdf565b5060c0830151613d1660c0860182613bdf565b508091505092915050565b600061012082019050613d37600083018c613ab5565b613d44602083018b613ab5565b613d51604083018a613ab5565b613d5e6060830189613ab5565b613d6b6080830188613ab5565b613d7860a0830187613ab5565b613d8560c0830186613b2c565b613d9260e0830185613b47565b818103610100830152613da58184613c7e565b90509a9950505050505050505050565b6000602082019050613dca6000830184613ab5565b92915050565b613dd981613b76565b8114613de457600080fd5b50565b600081359050613df681613dd0565b92915050565b600060208284031215613e1257613e11613a48565b5b6000613e2084828501613de7565b91505092915050565b613e3281613b76565b82525050565b6000602082019050613e4d6000830184613e29565b92915050565b600063ffffffff82169050919050565b613e6c81613e53565b82525050565b6000602082019050613e876000830184613e63565b92915050565b613e9681613b1a565b82525050565b613ea581613b3b565b82525050565b600060e083016000830151613ec36000860182613b88565b506020830151613ed66020860182613bd0565b506040830151613ee96040860182613bdf565b5060608301518482036060860152613f018282613c45565b91505060808301518482036080860152613f1b8282613c45565b91505060a0830151613f3060a0860182613bdf565b5060c0830151613f4360c0860182613bdf565b508091505092915050565b600061012083016000830151613f676000860182613bdf565b506020830151613f7a6020860182613bdf565b506040830151613f8d6040860182613bdf565b506060830151613fa06060860182613bdf565b506080830151613fb36080860182613bdf565b5060a0830151613fc660a0860182613bdf565b5060c0830151613fd960c0860182613e8d565b5060e0830151613fec60e0860182613e9c565b506101008301518482036101008601526140068282613eab565b9150508091505092915050565b6000602082019050818103600083015261402d8184613f4e565b905092915050565b600081519050919050565b600082825260208201905092915050565b6000819050602082019050919050565b60006101208301600083015161407a6000860182613bdf565b50602083015161408d6020860182613bdf565b5060408301516140a06040860182613bdf565b5060608301516140b36060860182613bdf565b5060808301516140c66080860182613bdf565b5060a08301516140d960a0860182613bdf565b5060c08301516140ec60c0860182613e8d565b5060e08301516140ff60e0860182613e9c565b506101008301518482036101008601526141198282613eab565b9150508091505092915050565b60006141328383614061565b905092915050565b6000602082019050919050565b600061415282614035565b61415c8185614040565b93508360208202850161416e85614051565b8060005b858110156141aa578484038952815161418b8582614126565b94506141968361413a565b925060208a01995050600181019050614172565b50829750879550505050505092915050565b600060208201905081810360008301526141d68184614147565b905092915050565b6141e781613e53565b81146141f257600080fd5b50565b600081359050614204816141de565b92915050565b6000819050919050565b61421d8161420a565b811461422857600080fd5b50565b60008135905061423a81614214565b92915050565b600080fd5b600080fd5b7f4e487b7100000000000000000000000000000000000000000000000000000000600052604160045260246000fd5b61428282613c34565b810181811067ffffffffffffffff821117156142a1576142a061424a565b5b80604052505050565b60006142b4613a3e565b90506142c08282614279565b919050565b600067ffffffffffffffff8211156142e0576142df61424a565b5b6142e982613c34565b9050602081019050919050565b82818337600083830152505050565b6000614318614313846142c5565b6142aa565b90508281526020810184848401111561433457614333614245565b5b61433f8482856142f6565b509392505050565b600082601f83011261435c5761435b614240565b5b813561436c848260208601614305565b91505092915050565b60008060006060848603121561438e5761438d613a48565b5b600061439c868287016141f5565b93505060206143ad8682870161422b565b925050604084013567ffffffffffffffff8111156143ce576143cd613a4d565b5b6143da86828701614347565b9150509250925092565b600080604083850312156143fb576143fa613a48565b5b600061440985828601613a73565b925050602061441a85828601613de7565b9150509250929050565b60006060820190506144396000830186613b47565b6144466020830185613b47565b6144536040830184613ab5565b949350505050565b6000806040838503121561447257614471613a48565b5b600061448085828601613de7565b925050602061449185828601613a73565b9150509250929050565b6144a481613bbe565b82525050565b600082825260208201905092915050565b60006144c682613bee565b6144d081856144aa565b93506144e0818560208601613c0a565b6144e981613c34565b840191505092915050565b60006101208201905061450a600083018c613e29565b614517602083018b613ab5565b614524604083018a61449b565b818103606083015261453681896144bb565b90506145456080830188613ab5565b61455260a0830187613ab5565b61455f60c0830186613ab5565b61456c60e0830185613ab5565b61457a610100830184613b47565b9a9950505050505050505050565b60006020828403121561459e5761459d613a48565b5b60006145ac848285016141f5565b91505092915050565b6145be81613b3b565b81146145c957600080fd5b50565b6000813590506145db816145b5565b92915050565b600080604083850312156145f8576145f7613a48565b5b600061460685828601613a73565b9250506020614617858286016145cc565b9150509250929050565b600080fd5b600080fd5b6004811061463857600080fd5b50565b60008135905061464a8161462b565b92915050565b600067ffffffffffffffff82111561466b5761466a61424a565b5b61467482613c34565b9050602081019050919050565b600061469461468f84614650565b6142aa565b9050828152602081018484840111156146b0576146af614245565b5b6146bb8482856142f6565b509392505050565b600082601f8301126146d8576146d7614240565b5b81356146e8848260208601614681565b91505092915050565b600060e0828403121561470757614706614621565b5b61471160e06142aa565b9050600061472184828501613de7565b60008301525060206147358482850161463b565b602083015250604061474984828501613a73565b604083015250606082013567ffffffffffffffff81111561476d5761476c614626565b5b614779848285016146c3565b606083015250608082013567ffffffffffffffff81111561479d5761479c614626565b5b6147a9848285016146c3565b60808301525060a06147bd84828501613a73565b60a08301525060c06147d184828501613a73565b60c08301525092915050565b6000602082840312156147f3576147f2613a48565b5b600082013567ffffffffffffffff81111561481157614810613a4d565b5b61481d848285016146f1565b91505092915050565b6000819050919050565b600061484b61484661484184613b56565b614826565b613b56565b9050919050565b600061485d82614830565b9050919050565b600061486f82614852565b9050919050565b61487f81614864565b82525050565b600060208201905061489a6000830184614876565b92915050565b60006148ab82614852565b9050919050565b6148bb816148a0565b82525050565b60006020820190506148d660008301846148b2565b92915050565b60006148e782614852565b9050919050565b6148f7816148dc565b82525050565b600060208201905061491260008301846148ee565b92915050565b7f4e487b7100000000000000000000000000000000000000000000000000000000600052602260045260246000fd5b6000600282049050600182168061495f57607f821691505b60208210810361497257614971614918565b5b50919050565b7f50726f706f73616c206e6f742070656e64696e67000000000000000000000000600082015250565b60006149ae6014836144aa565b91506149b982614978565b602082019050919050565b600060208201905081810360008301526149dd816149a1565b9050919050565b7f566f74696e6720706572696f64206973207374696c6c20616374697665000000600082015250565b6000614a1a601d836144aa565b9150614a25826149e4565b602082019050919050565b60006020820190508181036000830152614a4981614a0d565b9050919050565b7f50726f706f73616c20616c726561647920657865637574656400000000000000600082015250565b6000614a866019836144aa565b9150614a9182614a50565b602082019050919050565b60006020820190508181036000830152614ab581614a79565b9050919050565b6000606082019050614ad16000830186613e29565b614ade6020830185613ab5565b614aeb6040830184613ab5565b949350505050565b7f75706461746555736572436f76657256616c7565000000000000000000000000600082015250565b6000614b296014836144aa565b9150614b3482614af3565b602082019050919050565b600081519050919050565b600082825260208201905092915050565b6000614b6682614b3f565b614b708185614b4a565b9350614b80818560208601613c0a565b614b8981613c34565b840191505092915050565b60006040820190508181036000830152614bad81614b1c565b90508181036020830152614bc18184614b5b565b905092915050565b614bd28161420a565b82525050565b6000606082019050614bed6000830186613e63565b614bfa6020830185614bc9565b8181036040830152614c0c8184614b5b565b9050949350505050565b600081519050614c2581614214565b92915050565b600060208284031215614c4157614c40613a48565b5b6000614c4f84828501614c16565b91505092915050565b7f617070726f76656450726f706f73616c73000000000000000000000000000000600082015250565b6000614c8e6011836144aa565b9150614c9982614c58565b602082019050919050565b60006040820190508181036000830152614cbd81614c81565b90508181036020830152614cd18184614b5b565b905092915050565b6000602082019050614cee6000830184613b47565b92915050565b7f4e487b7100000000000000000000000000000000000000000000000000000000600052601160045260246000fd5b6000614d2e82613a52565b9150614d3983613a52565b9250828203905081811115614d5157614d50614cf4565b5b92915050565b7f4e487b7100000000000000000000000000000000000000000000000000000000600052601260045260246000fd5b6000614d9182613a52565b9150614d9c83613a52565b925082614dac57614dab614d57565b5b828204905092915050565b7f4e487b7100000000000000000000000000000000000000000000000000000000600052603260045260246000fd5b6000614df182613a52565b91507fffffffffffffffffffffffffffffffffffffffffffffffffffffffffffffffff8203614e2357614e22614cf4565b5b600182019050919050565b7f53656e646572206d757374206265206d61696c626f7800000000000000000000600082015250565b6000614e646016836144aa565b9150614e6f82614e2e565b602082019050919050565b60006020820190508181036000830152614e9381614e57565b9050919050565b6000614ead614ea884614650565b6142aa565b905082815260208101848484011115614ec957614ec8614245565b5b614ed4848285613c0a565b509392505050565b600082601f830112614ef157614ef0614240565b5b8151614f01848260208601614e9a565b91505092915050565b6000614f1d614f18846142c5565b6142aa565b905082815260208101848484011115614f3957614f38614245565b5b614f44848285613c0a565b509392505050565b600082601f830112614f6157614f60614240565b5b8151614f71848260208601614f0a565b91505092915050565b60008060408385031215614f9157614f90613a48565b5b600083015167ffffffffffffffff811115614faf57614fae613a4d565b5b614fbb85828601614edc565b925050602083015167ffffffffffffffff811115614fdc57614fdb613a4d565b5b614fe885828601614f4c565b9150509250929050565b600081905092915050565b7f67657450726f706f73616c44657461696c730000000000000000000000000000600082015250565b6000615033601283614ff2565b915061503e82614ffd565b601282019050919050565b600061505482615026565b9150819050919050565b600061506982613bee565b6150738185614ff2565b9350615083818560208601613c0a565b80840191505092915050565b600061509b828461505e565b915081905092915050565b6000815190506150b581613a5c565b92915050565b6000602082840312156150d1576150d0613a48565b5b60006150df848285016150a6565b91505092915050565b7f75706461746550726f706f73616c537461747573546f436c61696d6564000000600082015250565b600061511e601d83614ff2565b9150615129826150e8565b601d82019050919050565b600061513f82615111565b9150819050919050565b7f506f6f6c41637469766500000000000000000000000000000000000000000000600082015250565b600061517f600a83614ff2565b915061518a82615149565b600a82019050919050565b60006151a082615172565b9150819050919050565b7f506f6f6c44656163746976617465640000000000000000000000000000000000600082015250565b60006151e0600f83614ff2565b91506151eb826151aa565b600f82019050919050565b6000615201826151d3565b9150819050919050565b7f55736572436f7665720000000000000000000000000000000000000000000000600082015250565b6000615241600983614ff2565b915061524c8261520b565b600982019050919050565b600061526282615234565b9150819050919050565b600061527782613b56565b9050919050565b6152878161526c565b811461529257600080fd5b50565b6000815190506152a48161527e565b92915050565b6000815190506152b981613dd0565b92915050565b6000815190506152ce8161462b565b92915050565b6000815190506152e3816145b5565b92915050565b60006101208284031215615300576152ff614621565b5b61530b6101206142aa565b9050600061531b848285016152aa565b600083015250602061532f848285016150a6565b6020830152506040615343848285016152bf565b604083015250606082015167ffffffffffffffff81111561536757615366614626565b5b61537384828501614edc565b6060830152506080615387848285016150a6565b60808301525060a061539b848285016150a6565b60a08301525060c06153af848285016150a6565b60c08301525060e06153c3848285016150a6565b60e0830152506101006153d8848285016152d4565b6101008301525092915050565b6000806000606084860312156153fe576153fd613a48565b5b600061540c86828701615295565b935050602061541d868287016150a6565b925050604084015167ffffffffffffffff81111561543e5761543d613a4d565b5b61544a868287016152e9565b9150509250925092565b60008190508160005260206000209050919050565b60006020601f8301049050919050565b600082821b905092915050565b6000600883026154b67fffffffffffffffffffffffffffffffffffffffffffffffffffffffffffffffff82615479565b6154c08683615479565b95508019841693508086168417925050509392505050565b60006154f36154ee6154e984613a52565b614826565b613a52565b9050919050565b6000819050919050565b61550d836154d8565b615521615519826154fa565b848454615486565b825550505050565b600090565b615536615529565b615541818484615504565b505050565b5b818110156155655761555a60008261552e565b600181019050615547565b5050565b601f8211156155aa5761557b81615454565b61558484615469565b81016020851015615593578190505b6155a761559f85615469565b830182615546565b50505b505050565b600082821c905092915050565b60006155cd600019846008026155af565b1980831691505092915050565b60006155e683836155bc565b9150826002028217905092915050565b6155ff82613bee565b67ffffffffffffffff8111156156185761561761424a565b5b6156228254614947565b61562d828285615569565b600060209050601f831160018114615660576000841561564e578287015190505b61565885826155da565b8655506156c0565b601f19841661566e86615454565b60005b8281101561569657848901518255600182019150602085019450602081019050615671565b868310156156b357848901516156af601f8916826155bc565b8355505b6001600288020188555050505b505050505050565b600060208201905081810360008301526156e281846144bb565b905092915050565b7f566f74696e67206475726174696f6e206d75737420626520677265617465722060008201527f7468616e20300000000000000000000000000000000000000000000000000000602082015250565b60006157466026836144aa565b9150615751826156ea565b604082019050919050565b6000602082019050818103600083015261577581615739565b9050919050565b7f416c726561647920766f74656400000000000000000000000000000000000000600082015250565b60006157b2600d836144aa565b91506157bd8261577c565b602082019050919050565b600060208201905081810360008301526157e1816157a5565b9050919050565b7f50726f706f73616c20646f6573206e6f74206578697374000000000000000000600082015250565b600061581e6017836144aa565b9150615829826157e8565b602082019050919050565b6000602082019050818103600083015261584d81615811565b9050919050565b600061585f82613a52565b915061586a83613a52565b925082820190508082111561588257615881614cf4565b5b92915050565b7f4e6f20766f74696e672077656967687400000000000000000000000000000000600082015250565b60006158be6010836144aa565b91506158c982615888565b602082019050919050565b600060208201905081810360008301526158ed816158b1565b9050919050565b60006040820190506159096000830185613b47565b6159166020830184613ab5565b9392505050565b7f4e6f742073756666696369656e7420636f7665722076616c756520666f72206360008201527f6c61696d00000000000000000000000000000000000000000000000000000000602082015250565b60006159796024836144aa565b91506159848261591d565b604082019050919050565b600060208201905081810360008301526159a88161596c565b9050919050565b7f506f6f6c20646f6573206e6f7420657869737400000000000000000000000000600082015250565b60006159e56013836144aa565b91506159f0826159af565b602082019050919050565b60006020820190508181036000830152615a14816159d8565b9050919050565b7f436c61696d20616d6f756e74206d75737420626520677265617465722074686160008201527f6e20300000000000000000000000000000000000000000000000000000000000602082015250565b6000615a776023836144aa565b9150615a8282615a1b565b604082019050919050565b60006020820190508181036000830152615aa681615a6a565b9050919050565b60006080820190508181036000830152615ac781876144bb565b9050615ad6602083018661449b565b615ae36040830185613ab5565b615af06060830184613b2c565b95945050505050565b7f476f7665726e616e636520616c72656164792073657400000000000000000000600082015250565b6000615b2f6016836144aa565b9150615b3a82615af9565b602082019050919050565b60006020820190508181036000830152615b5e81615b22565b9050919050565b7f476f7665726e616e636520616464726573732063616e6e6f74206265207a657260008201527f6f00000000000000000000000000000000000000000000000000000000000000602082015250565b6000615bc16021836144aa565b9150615bcc82615b65565b604082019050919050565b60006020820190508181036000830152615bf081615bb4565b9050919050565b7f4e6f7420617574686f72697a6564000000000000000000000000000000000000600082015250565b6000615c2d600e836144aa565b9150615c3882615bf7565b602082019050919050565b60006020820190508181036000830152615c5c81615c20565b905091905056fea26469706673582212203732992c7a035c3cb46d6f0464f8fbfe846f5101c137fad82964e30c5896ce7f64736f6c634300081b0033",
  "linkReferences": {},
  "deployedLinkReferences": {}
}