{
  "_format": "hh-sol-artifact-1",
  "contractName": "InsuranceCover",
  "sourceName": "contracts/InsuranceCover.sol",
  "abi": [
    {
      "inputs": [
        {
          "internalType": "address",
          "name": "_mailbox",
          "type": "address"
        },
        {
          "internalType": "address",
          "name": "_lpContract",
          "type": "address"
        },
        {
          "internalType": "address",
          "name": "_initialOwner",
          "type": "address"
        },
        {
          "internalType": "uint32",
          "name": "_destinationDomain",
          "type": "uint32"
        }
      ],
      "stateMutability": "nonpayable",
      "type": "constructor"
    },
    {
      "inputs": [],
      "name": "CoverNotAvailable",
      "type": "error"
    },
    {
      "inputs": [],
      "name": "InsufficientPoolBalance",
      "type": "error"
    },
    {
      "inputs": [],
      "name": "InvalidAmount",
      "type": "error"
    },
    {
      "inputs": [],
      "name": "InvalidCoverDuration",
      "type": "error"
    },
    {
      "inputs": [],
      "name": "LpNotActive",
      "type": "error"
    },
    {
      "inputs": [],
      "name": "NameAlreadyExists",
      "type": "error"
    },
    {
      "inputs": [],
      "name": "NoClaimableReward",
      "type": "error"
    },
    {
      "inputs": [
        {
          "internalType": "address",
          "name": "owner",
          "type": "address"
        }
      ],
      "name": "OwnableInvalidOwner",
      "type": "error"
    },
    {
      "inputs": [
        {
          "internalType": "address",
          "name": "account",
          "type": "address"
        }
      ],
      "name": "OwnableUnauthorizedAccount",
      "type": "error"
    },
    {
      "inputs": [],
      "name": "ReentrancyGuardReentrantCall",
      "type": "error"
    },
    {
      "inputs": [],
      "name": "UnsupportedCoverType",
      "type": "error"
    },
    {
      "inputs": [],
      "name": "WrongPool",
      "type": "error"
    },
    {
      "anonymous": false,
      "inputs": [
        {
          "indexed": false,
          "internalType": "string",
          "name": "name",
          "type": "string"
        },
        {
          "indexed": false,
          "internalType": "enum CoverLib.RiskType",
          "name": "riskType",
          "type": "uint8"
        }
      ],
      "name": "CoverCreated",
      "type": "event"
    },
    {
      "anonymous": false,
      "inputs": [
        {
          "indexed": true,
          "internalType": "address",
          "name": "user",
          "type": "address"
        },
        {
          "indexed": false,
          "internalType": "uint256",
          "name": "coverValue",
          "type": "uint256"
        },
        {
          "indexed": false,
          "internalType": "uint256",
          "name": "coverFee",
          "type": "uint256"
        },
        {
          "indexed": false,
          "internalType": "enum CoverLib.RiskType",
          "name": "riskType",
          "type": "uint8"
        }
      ],
      "name": "CoverPurchased",
      "type": "event"
    },
    {
      "anonymous": false,
      "inputs": [
        {
          "indexed": true,
          "internalType": "uint256",
          "name": "coverId",
          "type": "uint256"
        },
        {
          "indexed": false,
          "internalType": "string",
          "name": "coverName",
          "type": "string"
        },
        {
          "indexed": false,
          "internalType": "enum CoverLib.RiskType",
          "name": "riskType",
          "type": "uint8"
        }
      ],
      "name": "CoverUpdated",
      "type": "event"
    },
    {
      "anonymous": false,
      "inputs": [
        {
          "indexed": true,
          "internalType": "address",
          "name": "previousOwner",
          "type": "address"
        },
        {
          "indexed": true,
          "internalType": "address",
          "name": "newOwner",
          "type": "address"
        }
      ],
      "name": "OwnershipTransferred",
      "type": "event"
    },
    {
      "anonymous": false,
      "inputs": [
        {
          "indexed": true,
          "internalType": "address",
          "name": "user",
          "type": "address"
        },
        {
          "indexed": true,
          "internalType": "uint256",
          "name": "poolId",
          "type": "uint256"
        },
        {
          "indexed": false,
          "internalType": "uint256",
          "name": "amount",
          "type": "uint256"
        }
      ],
      "name": "PayoutClaimed",
      "type": "event"
    },
    {
      "anonymous": false,
      "inputs": [
        {
          "indexed": true,
          "internalType": "uint32",
          "name": "origin",
          "type": "uint32"
        },
        {
          "indexed": true,
          "internalType": "bytes32",
          "name": "sender",
          "type": "bytes32"
        },
        {
          "indexed": false,
          "internalType": "string",
          "name": "message",
          "type": "string"
        }
      ],
      "name": "ReceivedMessage",
      "type": "event"
    },
    {
      "inputs": [
        {
          "internalType": "address",
          "name": "",
          "type": "address"
        },
        {
          "internalType": "uint256",
          "name": "",
          "type": "uint256"
        }
      ],
      "name": "NextLpClaimTime",
      "outputs": [
        {
          "internalType": "uint256",
          "name": "",
          "type": "uint256"
        }
      ],
      "stateMutability": "view",
      "type": "function"
    },
    {
      "inputs": [
        {
          "internalType": "uint256",
          "name": "_poolId",
          "type": "uint256"
        }
      ],
      "name": "claimPayoutForLP",
      "outputs": [],
      "stateMutability": "nonpayable",
      "type": "function"
    },
    {
      "inputs": [],
      "name": "coverCount",
      "outputs": [
        {
          "internalType": "uint256",
          "name": "",
          "type": "uint256"
        }
      ],
      "stateMutability": "view",
      "type": "function"
    },
    {
      "inputs": [
        {
          "internalType": "uint256",
          "name": "",
          "type": "uint256"
        }
      ],
      "name": "coverExists",
      "outputs": [
        {
          "internalType": "bool",
          "name": "",
          "type": "bool"
        }
      ],
      "stateMutability": "view",
      "type": "function"
    },
    {
      "inputs": [],
      "name": "coverFeeBalance",
      "outputs": [
        {
          "internalType": "uint256",
          "name": "",
          "type": "uint256"
        }
      ],
      "stateMutability": "view",
      "type": "function"
    },
    {
      "inputs": [
        {
          "internalType": "uint256",
          "name": "",
          "type": "uint256"
        }
      ],
      "name": "covers",
      "outputs": [
        {
          "internalType": "uint256",
          "name": "id",
          "type": "uint256"
        },
        {
          "internalType": "string",
          "name": "coverName",
          "type": "string"
        },
        {
          "internalType": "enum CoverLib.RiskType",
          "name": "riskType",
          "type": "uint8"
        },
        {
          "internalType": "string",
          "name": "chains",
          "type": "string"
        },
        {
          "internalType": "uint256",
          "name": "capacity",
          "type": "uint256"
        },
        {
          "internalType": "uint256",
          "name": "cost",
          "type": "uint256"
        },
        {
          "internalType": "uint256",
          "name": "capacityAmount",
          "type": "uint256"
        },
        {
          "internalType": "uint256",
          "name": "coverValues",
          "type": "uint256"
        },
        {
          "internalType": "uint256",
          "name": "maxAmount",
          "type": "uint256"
        },
        {
          "internalType": "uint256",
          "name": "poolId",
          "type": "uint256"
        },
        {
          "internalType": "string",
          "name": "CID",
          "type": "string"
        }
      ],
      "stateMutability": "view",
      "type": "function"
    },
    {
      "inputs": [
        {
          "internalType": "string",
          "name": "_cid",
          "type": "string"
        },
        {
          "internalType": "enum CoverLib.RiskType",
          "name": "_riskType",
          "type": "uint8"
        },
        {
          "internalType": "string",
          "name": "_coverName",
          "type": "string"
        },
        {
          "internalType": "string",
          "name": "_chains",
          "type": "string"
        },
        {
          "internalType": "uint256",
          "name": "_capacity",
          "type": "uint256"
        },
        {
          "internalType": "uint256",
          "name": "_cost",
          "type": "uint256"
        },
        {
          "internalType": "uint256",
          "name": "_poolId",
          "type": "uint256"
        }
      ],
      "name": "createCover",
      "outputs": [],
      "stateMutability": "nonpayable",
      "type": "function"
    },
    {
      "inputs": [
        {
          "internalType": "address",
          "name": "_user",
          "type": "address"
        }
      ],
      "name": "deleteExpiredUserCovers",
      "outputs": [],
      "stateMutability": "nonpayable",
      "type": "function"
    },
    {
      "inputs": [],
      "name": "destinationDomain",
      "outputs": [
        {
          "internalType": "uint32",
          "name": "",
          "type": "uint32"
        }
      ],
      "stateMutability": "view",
      "type": "function"
    },
    {
      "inputs": [],
      "name": "getAllAvailableCovers",
      "outputs": [
        {
          "components": [
            {
              "internalType": "uint256",
              "name": "id",
              "type": "uint256"
            },
            {
              "internalType": "string",
              "name": "coverName",
              "type": "string"
            },
            {
              "internalType": "enum CoverLib.RiskType",
              "name": "riskType",
              "type": "uint8"
            },
            {
              "internalType": "string",
              "name": "chains",
              "type": "string"
            },
            {
              "internalType": "uint256",
              "name": "capacity",
              "type": "uint256"
            },
            {
              "internalType": "uint256",
              "name": "cost",
              "type": "uint256"
            },
            {
              "internalType": "uint256",
              "name": "capacityAmount",
              "type": "uint256"
            },
            {
              "internalType": "uint256",
              "name": "coverValues",
              "type": "uint256"
            },
            {
              "internalType": "uint256",
              "name": "maxAmount",
              "type": "uint256"
            },
            {
              "internalType": "uint256",
              "name": "poolId",
              "type": "uint256"
            },
            {
              "internalType": "string",
              "name": "CID",
              "type": "string"
            }
          ],
          "internalType": "struct CoverLib.Cover[]",
          "name": "",
          "type": "tuple[]"
        }
      ],
      "stateMutability": "view",
      "type": "function"
    },
    {
      "inputs": [
        {
          "internalType": "address",
          "name": "user",
          "type": "address"
        }
      ],
      "name": "getAllUserCovers",
      "outputs": [
        {
          "components": [
            {
              "internalType": "address",
              "name": "user",
              "type": "address"
            },
            {
              "internalType": "uint256",
              "name": "coverId",
              "type": "uint256"
            },
            {
              "internalType": "enum CoverLib.RiskType",
              "name": "riskType",
              "type": "uint8"
            },
            {
              "internalType": "string",
              "name": "coverName",
              "type": "string"
            },
            {
              "internalType": "uint256",
              "name": "coverValue",
              "type": "uint256"
            },
            {
              "internalType": "uint256",
              "name": "claimPaid",
              "type": "uint256"
            },
            {
              "internalType": "uint256",
              "name": "coverPeriod",
              "type": "uint256"
            },
            {
              "internalType": "uint256",
              "name": "endDay",
              "type": "uint256"
            },
            {
              "internalType": "bool",
              "name": "isActive",
              "type": "bool"
            }
          ],
          "internalType": "struct CoverLib.GenericCoverInfo[]",
          "name": "",
          "type": "tuple[]"
        }
      ],
      "stateMutability": "view",
      "type": "function"
    },
    {
      "inputs": [],
      "name": "getCoverFeeBalance",
      "outputs": [
        {
          "internalType": "uint256",
          "name": "",
          "type": "uint256"
        }
      ],
      "stateMutability": "view",
      "type": "function"
    },
    {
      "inputs": [
        {
          "internalType": "uint256",
          "name": "_coverId",
          "type": "uint256"
        }
      ],
      "name": "getCoverInfo",
      "outputs": [
        {
          "components": [
            {
              "internalType": "uint256",
              "name": "id",
              "type": "uint256"
            },
            {
              "internalType": "string",
              "name": "coverName",
              "type": "string"
            },
            {
              "internalType": "enum CoverLib.RiskType",
              "name": "riskType",
              "type": "uint8"
            },
            {
              "internalType": "string",
              "name": "chains",
              "type": "string"
            },
            {
              "internalType": "uint256",
              "name": "capacity",
              "type": "uint256"
            },
            {
              "internalType": "uint256",
              "name": "cost",
              "type": "uint256"
            },
            {
              "internalType": "uint256",
              "name": "capacityAmount",
              "type": "uint256"
            },
            {
              "internalType": "uint256",
              "name": "coverValues",
              "type": "uint256"
            },
            {
              "internalType": "uint256",
              "name": "maxAmount",
              "type": "uint256"
            },
            {
              "internalType": "uint256",
              "name": "poolId",
              "type": "uint256"
            },
            {
              "internalType": "string",
              "name": "CID",
              "type": "string"
            }
          ],
          "internalType": "struct CoverLib.Cover",
          "name": "",
          "type": "tuple"
        }
      ],
      "stateMutability": "view",
      "type": "function"
    },
    {
      "inputs": [
        {
          "internalType": "address",
          "name": "user",
          "type": "address"
        },
        {
          "internalType": "uint256",
          "name": "_poolId",
          "type": "uint256"
        }
      ],
      "name": "getDepositClaimableDays",
      "outputs": [
        {
          "internalType": "uint256",
          "name": "",
          "type": "uint256"
        }
      ],
      "stateMutability": "view",
      "type": "function"
    },
    {
      "inputs": [
        {
          "internalType": "address",
          "name": "user",
          "type": "address"
        },
        {
          "internalType": "uint256",
          "name": "_poolId",
          "type": "uint256"
        }
      ],
      "name": "getLastClaimTime",
      "outputs": [
        {
          "internalType": "uint256",
          "name": "",
          "type": "uint256"
        }
      ],
      "stateMutability": "view",
      "type": "function"
    },
    {
      "inputs": [
        {
          "internalType": "address",
          "name": "user",
          "type": "address"
        },
        {
          "internalType": "uint256",
          "name": "_coverId",
          "type": "uint256"
        }
      ],
      "name": "getUserCoverInfo",
      "outputs": [
        {
          "components": [
            {
              "internalType": "address",
              "name": "user",
              "type": "address"
            },
            {
              "internalType": "uint256",
              "name": "coverId",
              "type": "uint256"
            },
            {
              "internalType": "enum CoverLib.RiskType",
              "name": "riskType",
              "type": "uint8"
            },
            {
              "internalType": "string",
              "name": "coverName",
              "type": "string"
            },
            {
              "internalType": "uint256",
              "name": "coverValue",
              "type": "uint256"
            },
            {
              "internalType": "uint256",
              "name": "claimPaid",
              "type": "uint256"
            },
            {
              "internalType": "uint256",
              "name": "coverPeriod",
              "type": "uint256"
            },
            {
              "internalType": "uint256",
              "name": "endDay",
              "type": "uint256"
            },
            {
              "internalType": "bool",
              "name": "isActive",
              "type": "bool"
            }
          ],
          "internalType": "struct CoverLib.GenericCoverInfo",
          "name": "",
          "type": "tuple"
        }
      ],
      "stateMutability": "view",
      "type": "function"
    },
    {
      "inputs": [],
      "name": "governance",
      "outputs": [
        {
          "internalType": "address",
          "name": "",
          "type": "address"
        }
      ],
      "stateMutability": "view",
      "type": "function"
    },
    {
      "inputs": [
        {
          "internalType": "uint32",
          "name": "_origin",
          "type": "uint32"
        },
        {
          "internalType": "bytes32",
          "name": "_sender",
          "type": "bytes32"
        },
        {
          "internalType": "bytes",
          "name": "_message",
          "type": "bytes"
        }
      ],
      "name": "handle",
      "outputs": [],
      "stateMutability": "payable",
      "type": "function"
    },
    {
      "inputs": [],
      "name": "increaseCoverFeeBalance",
      "outputs": [],
      "stateMutability": "payable",
      "type": "function"
    },
    {
      "inputs": [],
      "name": "interchainSecurityModule",
      "outputs": [
        {
          "internalType": "contract IInterchainSecurityModule",
          "name": "",
          "type": "address"
        }
      ],
      "stateMutability": "view",
      "type": "function"
    },
    {
      "inputs": [],
      "name": "lpAddress",
      "outputs": [
        {
          "internalType": "address",
          "name": "",
          "type": "address"
        }
      ],
      "stateMutability": "view",
      "type": "function"
    },
    {
      "inputs": [],
      "name": "lpContract",
      "outputs": [
        {
          "internalType": "contract ILP",
          "name": "",
          "type": "address"
        }
      ],
      "stateMutability": "view",
      "type": "function"
    },
    {
      "inputs": [],
      "name": "mailbox",
      "outputs": [
        {
          "internalType": "contract IMailbox",
          "name": "",
          "type": "address"
        }
      ],
      "stateMutability": "view",
      "type": "function"
    },
    {
      "inputs": [],
      "name": "mailboxAddress",
      "outputs": [
        {
          "internalType": "address",
          "name": "",
          "type": "address"
        }
      ],
      "stateMutability": "view",
      "type": "function"
    },
    {
      "inputs": [],
      "name": "owner",
      "outputs": [
        {
          "internalType": "address",
          "name": "",
          "type": "address"
        }
      ],
      "stateMutability": "view",
      "type": "function"
    },
    {
      "inputs": [
        {
          "internalType": "uint256",
          "name": "_coverId",
          "type": "uint256"
        },
        {
          "internalType": "uint256",
          "name": "_coverValue",
          "type": "uint256"
        },
        {
          "internalType": "uint256",
          "name": "_coverPeriod",
          "type": "uint256"
        }
      ],
      "name": "purchaseCover",
      "outputs": [],
      "stateMutability": "payable",
      "type": "function"
    },
    {
      "inputs": [],
      "name": "renounceOwnership",
      "outputs": [],
      "stateMutability": "nonpayable",
      "type": "function"
    },
    {
      "inputs": [
        {
          "internalType": "uint32",
          "name": "_destinationDomain",
          "type": "uint32"
        }
      ],
      "name": "setDestinationDomain",
      "outputs": [],
      "stateMutability": "nonpayable",
      "type": "function"
    },
    {
      "inputs": [
        {
          "internalType": "address",
          "name": "_governance",
          "type": "address"
        }
      ],
      "name": "setGovernance",
      "outputs": [],
      "stateMutability": "nonpayable",
      "type": "function"
    },
    {
      "inputs": [
        {
          "internalType": "address",
          "name": "_ism",
          "type": "address"
        }
      ],
      "name": "setInterchainSecurityModule",
      "outputs": [],
      "stateMutability": "nonpayable",
      "type": "function"
    },
    {
      "inputs": [
        {
          "internalType": "address",
          "name": "newOwner",
          "type": "address"
        }
      ],
      "name": "transferOwnership",
      "outputs": [],
      "stateMutability": "nonpayable",
      "type": "function"
    },
    {
      "inputs": [
        {
          "internalType": "uint256",
          "name": "_coverId",
          "type": "uint256"
        },
        {
          "internalType": "string",
          "name": "_coverName",
          "type": "string"
        },
        {
          "internalType": "enum CoverLib.RiskType",
          "name": "_riskType",
          "type": "uint8"
        },
        {
          "internalType": "string",
          "name": "_cid",
          "type": "string"
        },
        {
          "internalType": "string",
          "name": "_chains",
          "type": "string"
        },
        {
          "internalType": "uint256",
          "name": "_capacity",
          "type": "uint256"
        },
        {
          "internalType": "uint256",
          "name": "_cost",
          "type": "uint256"
        },
        {
          "internalType": "uint256",
          "name": "_poolId",
          "type": "uint256"
        }
      ],
      "name": "updateCover",
      "outputs": [],
      "stateMutability": "nonpayable",
      "type": "function"
    },
    {
      "inputs": [
        {
          "internalType": "uint256",
          "name": "_coverId",
          "type": "uint256"
        }
      ],
      "name": "updateMaxAmount",
      "outputs": [],
      "stateMutability": "nonpayable",
      "type": "function"
    },
    {
      "inputs": [
        {
          "internalType": "address",
          "name": "user",
          "type": "address"
        },
        {
          "internalType": "uint256",
          "name": "_coverId",
          "type": "uint256"
        },
        {
          "internalType": "uint256",
          "name": "_claimPaid",
          "type": "uint256"
        }
      ],
      "name": "updateUserCoverValue",
      "outputs": [],
      "stateMutability": "nonpayable",
      "type": "function"
    },
    {
      "inputs": [
        {
          "internalType": "address",
          "name": "",
          "type": "address"
        },
        {
          "internalType": "uint256",
          "name": "",
          "type": "uint256"
        }
      ],
      "name": "userCovers",
      "outputs": [
        {
          "internalType": "address",
          "name": "user",
          "type": "address"
        },
        {
          "internalType": "uint256",
          "name": "coverId",
          "type": "uint256"
        },
        {
          "internalType": "enum CoverLib.RiskType",
          "name": "riskType",
          "type": "uint8"
        },
        {
          "internalType": "string",
          "name": "coverName",
          "type": "string"
        },
        {
          "internalType": "uint256",
          "name": "coverValue",
          "type": "uint256"
        },
        {
          "internalType": "uint256",
          "name": "claimPaid",
          "type": "uint256"
        },
        {
          "internalType": "uint256",
          "name": "coverPeriod",
          "type": "uint256"
        },
        {
          "internalType": "uint256",
          "name": "endDay",
          "type": "uint256"
        },
        {
          "internalType": "bool",
          "name": "isActive",
          "type": "bool"
        }
      ],
      "stateMutability": "view",
      "type": "function"
    },
    {
      "stateMutability": "payable",
      "type": "receive"
    }
  ],
  "bytecode": "0x608060405234801561001057600080fd5b50604051616dad380380616dad83398181016040528101906100329190610350565b816001600081905550600073ffffffffffffffffffffffffffffffffffffffff168173ffffffffffffffffffffffffffffffffffffffff16036100ad5760006040517f1e4fbdf70000000000000000000000000000000000000000000000000000000081526004016100a491906103c6565b60405180910390fd5b6100bc816101eb60201b60201c565b5083600460006101000a81548173ffffffffffffffffffffffffffffffffffffffff021916908373ffffffffffffffffffffffffffffffffffffffff16021790555083600560006101000a81548173ffffffffffffffffffffffffffffffffffffffff021916908373ffffffffffffffffffffffffffffffffffffffff16021790555082600360006101000a81548173ffffffffffffffffffffffffffffffffffffffff021916908373ffffffffffffffffffffffffffffffffffffffff16021790555082600660006101000a81548173ffffffffffffffffffffffffffffffffffffffff021916908373ffffffffffffffffffffffffffffffffffffffff16021790555080600760146101000a81548163ffffffff021916908363ffffffff160217905550505050506103e1565b6000600160009054906101000a900473ffffffffffffffffffffffffffffffffffffffff16905081600160006101000a81548173ffffffffffffffffffffffffffffffffffffffff021916908373ffffffffffffffffffffffffffffffffffffffff1602179055508173ffffffffffffffffffffffffffffffffffffffff168173ffffffffffffffffffffffffffffffffffffffff167f8be0079c531659141344cd1fd0a4f28419497f9722a3daafe3b4186f6b6457e060405160405180910390a35050565b600080fd5b600073ffffffffffffffffffffffffffffffffffffffff82169050919050565b60006102e1826102b6565b9050919050565b6102f1816102d6565b81146102fc57600080fd5b50565b60008151905061030e816102e8565b92915050565b600063ffffffff82169050919050565b61032d81610314565b811461033857600080fd5b50565b60008151905061034a81610324565b92915050565b6000806000806080858703121561036a576103696102b1565b5b6000610378878288016102ff565b9450506020610389878288016102ff565b935050604061039a878288016102ff565b92505060606103ab8782880161033b565b91505092959194509250565b6103c0816102d6565b82525050565b60006020820190506103db60008301846103b7565b92915050565b6169bd806103f06000396000f3fe6080604052600436106102085760003560e01c80637ceb4a6911610118578063ae63df89116100a0578063d5438eae1161006f578063d5438eae1461076d578063d8f62f8714610798578063de523cf3146107c3578063f2fde38b146107ee578063feb0b8f5146108175761020f565b8063ae63df89146106b5578063be45dbb6146106de578063bfc664f314610707578063cadcb471146107305761020f565b806393b1ad38116100e757806393b1ad38146105e75780639b4dc8cc146106125780639e7b399e1461063d5780639fb16e4c14610682578063ab033ea91461068c5761020f565b80637ceb4a691461053f5780638acee3cf146105685780638da5cb5b146105935780638de4d101146105be5761020f565b80635aa6e6751161019b578063649718b21161016a578063649718b214610434578063715018a61461047157806373cce3ee14610488578063782ea619146104c55780637a728e7f146105025761020f565b80635aa6e6751461035a578063609c76041461038557806362858bfa146103b05780636299df6c146103ed5761020f565b80632858c55a116101d75780632858c55a146102bf5780632d8a340c146102ea578063357917b71461031357806356d5d4751461033e5761020f565b8063051b1b86146102145780630e72cc06146102305780631052581414610259578063106b5da1146102965761020f565b3661020f57005b600080fd5b61022e60048036038101906102299190614071565b610842565b005b34801561023c57600080fd5b5061025760048036038101906102529190614122565b610f4e565b005b34801561026557600080fd5b50610280600480360381019061027b919061414f565b610f9a565b60405161028d919061419e565b60405180910390f35b3480156102a257600080fd5b506102bd60048036038101906102b891906141b9565b610ff5565b005b3480156102cb57600080fd5b506102d461129e565b6040516102e19190614205565b60405180910390f35b3480156102f657600080fd5b50610311600480360381019061030c91906141b9565b6112b4565b005b34801561031f57600080fd5b506103286116b4565b604051610335919061419e565b60405180910390f35b610358600480360381019061035391906143c8565b6116ba565b005b34801561036657600080fd5b5061036f61182a565b60405161037c9190614446565b60405180910390f35b34801561039157600080fd5b5061039a611850565b6040516103a7919061419e565b60405180910390f35b3480156103bc57600080fd5b506103d760048036038101906103d291906141b9565b61185a565b6040516103e49190614663565b60405180910390f35b3480156103f957600080fd5b50610414600480360381019061040f91906141b9565b611abf565b60405161042b9b9a999897969594939291906146de565b60405180910390f35b34801561044057600080fd5b5061045b60048036038101906104569190614122565b611cbe565b604051610468919061494f565b60405180910390f35b34801561047d57600080fd5b50610486611fa1565b005b34801561049457600080fd5b506104af60048036038101906104aa919061414f565b611fb5565b6040516104bc919061419e565b60405180910390f35b3480156104d157600080fd5b506104ec60048036038101906104e791906141b9565b612155565b6040516104f99190614980565b60405180910390f35b34801561050e57600080fd5b506105296004803603810190610524919061414f565b612175565b604051610536919061419e565b60405180910390f35b34801561054b57600080fd5b506105666004803603810190610561919061499b565b61219a565b005b34801561057457600080fd5b5061057d6124db565b60405161058a9190614a4d565b60405180910390f35b34801561059f57600080fd5b506105a8612501565b6040516105b59190614446565b60405180910390f35b3480156105ca57600080fd5b506105e560048036038101906105e09190614b2e565b61252b565b005b3480156105f357600080fd5b506105fc612b1c565b6040516106099190614df7565b60405180910390f35b34801561061e57600080fd5b50610627612e51565b6040516106349190614446565b60405180910390f35b34801561064957600080fd5b50610664600480360381019061065f919061414f565b612e77565b60405161067999989796959493929190614e19565b60405180910390f35b61068a612f94565b005b34801561069857600080fd5b506106b360048036038101906106ae9190614122565b61300a565b005b3480156106c157600080fd5b506106dc60048036038101906106d79190614ead565b613156565b005b3480156106ea57600080fd5b5061070560048036038101906107009190614eda565b613182565b005b34801561071357600080fd5b5061072e60048036038101906107299190614122565b61372c565b005b34801561073c57600080fd5b506107576004803603810190610752919061414f565b613a46565b6040516107649190615095565b60405180910390f35b34801561077957600080fd5b50610782613c22565b60405161078f91906150d8565b60405180910390f35b3480156107a457600080fd5b506107ad613c48565b6040516107ba9190614446565b60405180910390f35b3480156107cf57600080fd5b506107d8613c6e565b6040516107e59190615114565b60405180910390f35b3480156107fa57600080fd5b5061081560048036038101906108109190614122565b613c94565b005b34801561082357600080fd5b5061082c613d1a565b604051610839919061419e565b60405180910390f35b61084a613d20565b60003411610884576040517f2c5211c600000000000000000000000000000000000000000000000000000000815260040160405180910390fd5b601b81111580610896575061016e8110155b156108cd576040517f3f132b1200000000000000000000000000000000000000000000000000000000815260040160405180910390fd5b6009600084815260200190815260200160002060009054906101000a900460ff16610924576040517fbccd404300000000000000000000000000000000000000000000000000000000815260040160405180910390fd5b6000600c600085815260200190815260200160002090508060080154831115610979576040517fbc6072f100000000000000000000000000000000000000000000000000000000815260040160405180910390fd5b600083826007015461098b919061515e565b905081600601548111156109cb576040517fbc6072f100000000000000000000000000000000000000000000000000000000815260040160405180910390fd5b8082600701819055508082600601546109e49190615192565b826008018190555081600701548260060154610a009190615192565b82600801819055506000600b60003373ffffffffffffffffffffffffffffffffffffffff1673ffffffffffffffffffffffffffffffffffffffff168152602001908152602001600020600087815260200190815260200160002090506000816004015403610cc2576040518061012001604052803373ffffffffffffffffffffffffffffffffffffffff1681526020018781526020018460020160009054906101000a900460ff166003811115610aba57610ab96144ef565b5b8152602001846001018054610ace906151f5565b80601f0160208091040260200160405190810160405280929190818152602001828054610afa906151f5565b8015610b475780601f10610b1c57610100808354040283529160200191610b47565b820191906000526020600020905b815481529060010190602001808311610b2a57829003601f168201915b50505050508152602001868152602001600081526020018581526020016201518086610b739190615226565b42610b7e919061515e565b815260200160011515815250600b60003373ffffffffffffffffffffffffffffffffffffffff1673ffffffffffffffffffffffffffffffffffffffff168152602001908152602001600020600088815260200190815260200160002060008201518160000160006101000a81548173ffffffffffffffffffffffffffffffffffffffff021916908373ffffffffffffffffffffffffffffffffffffffff1602179055506020820151816001015560408201518160020160006101000a81548160ff02191690836003811115610c5657610c556144ef565b5b02179055506060820151816003019081610c70919061540a565b506080820151816004015560a0820151816005015560c0820151816006015560e082015181600701556101008201518160080160006101000a81548160ff021916908315150217905550905050610d79565b61016e848260060154610cd5919061515e565b10610d15576040517f08c379a0000000000000000000000000000000000000000000000000000000008152600401610d0c9061554e565b60405180910390fd5b84816004016000828254610d29919061515e565b9250508190555083816006016000828254610d44919061515e565b92505081905550620151808160060154610d5e9190615226565b816007016000828254610d71919061515e565b925050819055505b600460009054906101000a900473ffffffffffffffffffffffffffffffffffffffff1673ffffffffffffffffffffffffffffffffffffffff1663fa31de01600760149054906101000a900463ffffffff16610df5600760009054906101000a900473ffffffffffffffffffffffffffffffffffffffff16613d66565b8460000160009054906101000a900473ffffffffffffffffffffffffffffffffffffffff16856001015486604051602001610e32939291906157c8565b604051602081830303815290604052604051602001610e5191906158a7565b6040516020818303038152906040526040518463ffffffff1660e01b8152600401610e7e939291906158eb565b6020604051808303816000875af1158015610e9d573d6000803e3d6000fd5b505050506040513d601f19601f82011682018060405250810190610ec1919061593e565b503460026000828254610ed4919061515e565b925050819055503373ffffffffffffffffffffffffffffffffffffffff167f23b0f39e0762759ffb18632a1a2b79c9eb58571454e5f7c36e0a2f81759e0a3486348660020160009054906101000a900460ff16604051610f369392919061596b565b60405180910390a2505050610f49613d89565b505050565b610f56613d93565b80600860006101000a81548173ffffffffffffffffffffffffffffffffffffffff021916908373ffffffffffffffffffffffffffffffffffffffff16021790555050565b6000600a60008473ffffffffffffffffffffffffffffffffffffffff1673ffffffffffffffffffffffffffffffffffffffff168152602001908152602001600020600083815260200190815260200160002054905092915050565b600660009054906101000a900473ffffffffffffffffffffffffffffffffffffffff1673ffffffffffffffffffffffffffffffffffffffff163373ffffffffffffffffffffffffffffffffffffffff1614611085576040517f08c379a000000000000000000000000000000000000000000000000000000000815260040161107c906159ee565b60405180910390fd5b61108d613d20565b6000600c600083815260200190815260200160002090506000600360009054906101000a900473ffffffffffffffffffffffffffffffffffffffff1673ffffffffffffffffffffffffffffffffffffffff1663068bcd8d83600901546040518263ffffffff1660e01b8152600401611105919061419e565b600060405180830381865afa158015611122573d6000803e3d6000fd5b505050506040513d6000823e3d601f19601f8201168201806040525081019061114b9190615ad4565b505094505050505060008111611196576040517f08c379a000000000000000000000000000000000000000000000000000000000815260040161118d90615bde565b60405180910390fd5b60008260040154116111dd576040517f08c379a00000000000000000000000000000000000000000000000000000000081526004016111d490615c4a565b60405180910390fd5b6000670de0b6b3a76400006064670de0b6b3a764000085600401546112029190615226565b61120c9190615c99565b836112179190615226565b6112219190615c99565b905080600c600086815260200190815260200160002060060181905550600c600085815260200190815260200160002060070154600c6000868152602001908152602001600020600601546112769190615192565b600c60008681526020019081526020016000206008018190555050505061129b613d89565b50565b600760149054906101000a900463ffffffff1681565b6112bc613d20565b6000600360009054906101000a900473ffffffffffffffffffffffffffffffffffffffff1673ffffffffffffffffffffffffffffffffffffffff16634e05524483336040518363ffffffff1660e01b815260040161131b929190615cca565b61012060405180830381865afa158015611339573d6000803e3d6000fd5b505050506040513d601f19601f8201168201806040525081019061135d9190615e17565b905060006001811115611373576113726144ef565b5b8160800151600181111561138a576113896144ef565b5b146113c1576040517fe067835f00000000000000000000000000000000000000000000000000000000815260040160405180910390fd5b600080600a60003373ffffffffffffffffffffffffffffffffffffffff1673ffffffffffffffffffffffffffffffffffffffff16815260200190815260200160002060008581526020019081526020016000205403611426578160c00151905061147a565b600a60003373ffffffffffffffffffffffffffffffffffffffff1673ffffffffffffffffffffffffffffffffffffffff16815260200190815260200160002060008481526020019081526020016000205490505b60004290508260e00151811115611493578260e0015190505b600061012c83836114a49190615192565b6114ae9190615c99565b9050600081116114ea576040517fed700a6700000000000000000000000000000000000000000000000000000000815260040160405180910390fd5b60008185606001516114fc9190615226565b905060025481111561153a576040517fbc6072f100000000000000000000000000000000000000000000000000000000815260040160405180910390fd5b42600a60003373ffffffffffffffffffffffffffffffffffffffff1673ffffffffffffffffffffffffffffffffffffffff16815260200190815260200160002060008881526020019081526020016000208190555060003373ffffffffffffffffffffffffffffffffffffffff16826040516115b590615e76565b60006040518083038185875af1925050503d80600081146115f2576040519150601f19603f3d011682016040523d82523d6000602084013e6115f7565b606091505b505090508061163b576040517f08c379a000000000000000000000000000000000000000000000000000000000815260040161163290615ed7565b60405180910390fd5b816002600082825461164d9190615192565b92505081905550863373ffffffffffffffffffffffffffffffffffffffff167f0408e6e0b73daf4c873106e95fd067260fbff8bf9d1b499cad563d4480d45bac8460405161169b919061419e565b60405180910390a35050505050506116b1613d89565b50565b60025481565b600460009054906101000a900473ffffffffffffffffffffffffffffffffffffffff1673ffffffffffffffffffffffffffffffffffffffff163373ffffffffffffffffffffffffffffffffffffffff161461174a576040517f08c379a000000000000000000000000000000000000000000000000000000000815260040161174190615f43565b60405180910390fd5b600080828060200190518101906117619190615fd3565b91509150604051602001611774906160a2565b604051602081830303815290604052805190602001208260405160200161179b91906160e8565b60405160208183030381529060405280519060200120036117e4576000806000838060200190518101906117cf919061613d565b9250925092506117e083838361219a565b5050505b838563ffffffff167fba67744c899113a84f615d51af5d82f5fedcf26c9a474d9363c3ad9b0bd501ac8560405161181b9190616190565b60405180910390a35050505050565b600760009054906101000a900473ffffffffffffffffffffffffffffffffffffffff1681565b6000600254905090565b611862613ee8565b600c6000838152602001908152602001600020604051806101600160405290816000820154815260200160018201805461189b906151f5565b80601f01602080910402602001604051908101604052809291908181526020018280546118c7906151f5565b80156119145780601f106118e957610100808354040283529160200191611914565b820191906000526020600020905b8154815290600101906020018083116118f757829003601f168201915b505050505081526020016002820160009054906101000a900460ff166003811115611942576119416144ef565b5b6003811115611954576119536144ef565b5b8152602001600382018054611968906151f5565b80601f0160208091040260200160405190810160405280929190818152602001828054611994906151f5565b80156119e15780601f106119b6576101008083540402835291602001916119e1565b820191906000526020600020905b8154815290600101906020018083116119c457829003601f168201915b50505050508152602001600482015481526020016005820154815260200160068201548152602001600782015481526020016008820154815260200160098201548152602001600a82018054611a36906151f5565b80601f0160208091040260200160405190810160405280929190818152602001828054611a62906151f5565b8015611aaf5780601f10611a8457610100808354040283529160200191611aaf565b820191906000526020600020905b815481529060010190602001808311611a9257829003601f168201915b5050505050815250509050919050565b600c602052806000526040600020600091509050806000015490806001018054611ae8906151f5565b80601f0160208091040260200160405190810160405280929190818152602001828054611b14906151f5565b8015611b615780601f10611b3657610100808354040283529160200191611b61565b820191906000526020600020905b815481529060010190602001808311611b4457829003601f168201915b5050505050908060020160009054906101000a900460ff1690806003018054611b89906151f5565b80601f0160208091040260200160405190810160405280929190818152602001828054611bb5906151f5565b8015611c025780601f10611bd757610100808354040283529160200191611c02565b820191906000526020600020905b815481529060010190602001808311611be557829003601f168201915b50505050509080600401549080600501549080600601549080600701549080600801549080600901549080600a018054611c3b906151f5565b80601f0160208091040260200160405190810160405280929190818152602001828054611c67906151f5565b8015611cb45780601f10611c8957610100808354040283529160200191611cb4565b820191906000526020600020905b815481529060010190602001808311611c9757829003601f168201915b505050505090508b565b60606000600d5467ffffffffffffffff811115611cde57611cdd61429d565b5b604051908082528060200260200182016040528015611d1757816020015b611d04613f54565b815260200190600190039081611cfc5790505b509050600080600190505b600d548111611f93576000600b60008773ffffffffffffffffffffffffffffffffffffffff1673ffffffffffffffffffffffffffffffffffffffff1681526020019081526020016000206000838152602001908152602001600020600401541115611f8057600b60008673ffffffffffffffffffffffffffffffffffffffff1673ffffffffffffffffffffffffffffffffffffffff1681526020019081526020016000206000828152602001908152602001600020604051806101200160405290816000820160009054906101000a900473ffffffffffffffffffffffffffffffffffffffff1673ffffffffffffffffffffffffffffffffffffffff1673ffffffffffffffffffffffffffffffffffffffff168152602001600182015481526020016002820160009054906101000a900460ff166003811115611e6857611e676144ef565b5b6003811115611e7a57611e796144ef565b5b8152602001600382018054611e8e906151f5565b80601f0160208091040260200160405190810160405280929190818152602001828054611eba906151f5565b8015611f075780601f10611edc57610100808354040283529160200191611f07565b820191906000526020600020905b815481529060010190602001808311611eea57829003601f168201915b50505050508152602001600482015481526020016005820154815260200160068201548152602001600782015481526020016008820160009054906101000a900460ff161515151581525050838381518110611f6657611f656161b2565b5b60200260200101819052508180611f7c906161e1565b9250505b8080611f8b906161e1565b915050611d22565b508082528192505050919050565b611fa9613d93565b611fb36000613e1a565b565b600080600360009054906101000a900473ffffffffffffffffffffffffffffffffffffffff1673ffffffffffffffffffffffffffffffffffffffff16634e05524484866040518363ffffffff1660e01b8152600401612015929190615cca565b61012060405180830381865afa158015612033573d6000803e3d6000fd5b505050506040513d601f19601f820116820180604052508101906120579190615e17565b9050600080600a60008773ffffffffffffffffffffffffffffffffffffffff1673ffffffffffffffffffffffffffffffffffffffff168152602001908152602001600020600086815260200190815260200160002054036120be578160c001519050612112565b600a60008673ffffffffffffffffffffffffffffffffffffffff1673ffffffffffffffffffffffffffffffffffffffff16815260200190815260200160002060008581526020019081526020016000205490505b60004290508260e0015181111561212b578260e0015190505b600061012c838361213c9190615192565b6121469190615c99565b90508094505050505092915050565b60096020528060005260406000206000915054906101000a900460ff1681565b600a602052816000526040600020602052806000526040600020600091509150505481565b600560009054906101000a900473ffffffffffffffffffffffffffffffffffffffff1673ffffffffffffffffffffffffffffffffffffffff163373ffffffffffffffffffffffffffffffffffffffff1614806122435750600760009054906101000a900473ffffffffffffffffffffffffffffffffffffffff1673ffffffffffffffffffffffffffffffffffffffff163373ffffffffffffffffffffffffffffffffffffffff16145b612282576040517f08c379a0000000000000000000000000000000000000000000000000000000008152600401612279906159ee565b60405180910390fd5b61228a613d20565b80600b60008573ffffffffffffffffffffffffffffffffffffffff1673ffffffffffffffffffffffffffffffffffffffff168152602001908152602001600020600084815260200190815260200160002060040160008282546122ed9190615192565b9250508190555080600b60008573ffffffffffffffffffffffffffffffffffffffff1673ffffffffffffffffffffffffffffffffffffffff16815260200190815260200160002060008481526020019081526020016000206005016000828254612357919061515e565b92505081905550600460009054906101000a900473ffffffffffffffffffffffffffffffffffffffff1673ffffffffffffffffffffffffffffffffffffffff1663fa31de01600760149054906101000a900463ffffffff166123da600760009054906101000a900473ffffffffffffffffffffffffffffffffffffffff16613d66565b8686600b60008a73ffffffffffffffffffffffffffffffffffffffff1673ffffffffffffffffffffffffffffffffffffffff168152602001908152602001600020600089815260200190815260200160002060405160200161243e93929190616346565b60405160208183030381529060405260405160200161245d91906158a7565b6040516020818303038152906040526040518463ffffffff1660e01b815260040161248a939291906158eb565b6020604051808303816000875af11580156124a9573d6000803e3d6000fd5b505050506040513d601f19601f820116820180604052508101906124cd919061593e565b506124d6613d89565b505050565b600360009054906101000a900473ffffffffffffffffffffffffffffffffffffffff1681565b6000600160009054906101000a900473ffffffffffffffffffffffffffffffffffffffff16905090565b612533613d93565b6000806000600360009054906101000a900473ffffffffffffffffffffffffffffffffffffffff1673ffffffffffffffffffffffffffffffffffffffff1663068bcd8d856040518263ffffffff1660e01b8152600401612593919061419e565b600060405180830381865afa1580156125b0573d6000803e3d6000fd5b505050506040513d6000823e3d601f19601f820116820180604052508101906125d99190615ad4565b965050955050509350508860038111156125f6576125f56144ef565b5b836003811115612609576126086144ef565b5b14158061261557508086115b1561264c576040517fd3c913ea00000000000000000000000000000000000000000000000000000000815260040160405180910390fd5b6000600c60008d815260200190815260200160002090506000670de0b6b3a76400006064670de0b6b3a76400008a6126849190615226565b61268e9190615c99565b856126999190615226565b6126a39190615c99565b905080826007015411156126e3576040517fd3c913ea00000000000000000000000000000000000000000000000000000000815260040160405180910390fd5b6000600360009054906101000a900473ffffffffffffffffffffffffffffffffffffffff1673ffffffffffffffffffffffffffffffffffffffff16637eb111f0886040518263ffffffff1660e01b8152600401612740919061419e565b600060405180830381865afa15801561275d573d6000803e3d6000fd5b505050506040513d6000823e3d601f19601f8201168201806040525081019061278691906165ca565b905060005b815181101561286f578d6040516020016127a591906160e8565b604051602081830303815290604052805190602001208282815181106127ce576127cd6161b2565b5b6020026020010151602001516040516020016127ea91906160e8565b6040516020818303038152906040528051906020012014801561282b57508e82828151811061281c5761281b6161b2565b5b60200260200101516000015114155b15612862576040517fd202940c00000000000000000000000000000000000000000000000000000000815260040160405180910390fd5b808060010191505061278b565b506000836004015490508d84600101908161288a919061540a565b508a84600301908161289c919061540a565b508984600401819055508884600501819055508b84600a0190816128c0919061540a565b508284600601819055508784600901819055508360070154836128e39190615192565b8460080181905550898111156129985760008a826129019190615192565b9050600360009054906101000a900473ffffffffffffffffffffffffffffffffffffffff1673ffffffffffffffffffffffffffffffffffffffff16639fd36b158a836040518363ffffffff1660e01b8152600401612960929190616613565b600060405180830381600087803b15801561297a57600080fd5b505af115801561298e573d6000803e3d6000fd5b5050505050612a42565b89811015612a41576000818b6129ae9190615192565b9050600360009054906101000a900473ffffffffffffffffffffffffffffffffffffffff1673ffffffffffffffffffffffffffffffffffffffff1663a4948d858a836040518363ffffffff1660e01b8152600401612a0d929190616613565b600060405180830381600087803b158015612a2757600080fd5b505af1158015612a3b573d6000803e3d6000fd5b50505050505b5b600360009054906101000a900473ffffffffffffffffffffffffffffffffffffffff1673ffffffffffffffffffffffffffffffffffffffff1663a14764d089866040518363ffffffff1660e01b8152600401612a9f92919061678d565b600060405180830381600087803b158015612ab957600080fd5b505af1158015612acd573d6000803e3d6000fd5b505050508e7f758a67328ba53c1867c0272bbd2ca10d6fe71d37120188c523fe7ae7bdbbe4698f8f604051612b039291906167bd565b60405180910390a2505050505050505050505050505050565b60606000600d5467ffffffffffffffff811115612b3c57612b3b61429d565b5b604051908082528060200260200182016040528015612b7557816020015b612b62613ee8565b815260200190600190039081612b5a5790505b509050600080600190505b600d548111612e45576009600082815260200190815260200160002060009054906101000a900460ff1615612e3257600c60008281526020019081526020016000206040518061016001604052908160008201548152602001600182018054612be8906151f5565b80601f0160208091040260200160405190810160405280929190818152602001828054612c14906151f5565b8015612c615780601f10612c3657610100808354040283529160200191612c61565b820191906000526020600020905b815481529060010190602001808311612c4457829003601f168201915b505050505081526020016002820160009054906101000a900460ff166003811115612c8f57612c8e6144ef565b5b6003811115612ca157612ca06144ef565b5b8152602001600382018054612cb5906151f5565b80601f0160208091040260200160405190810160405280929190818152602001828054612ce1906151f5565b8015612d2e5780601f10612d0357610100808354040283529160200191612d2e565b820191906000526020600020905b815481529060010190602001808311612d1157829003601f168201915b50505050508152602001600482015481526020016005820154815260200160068201548152602001600782015481526020016008820154815260200160098201548152602001600a82018054612d83906151f5565b80601f0160208091040260200160405190810160405280929190818152602001828054612daf906151f5565b8015612dfc5780601f10612dd157610100808354040283529160200191612dfc565b820191906000526020600020905b815481529060010190602001808311612ddf57829003601f168201915b505050505081525050838381518110612e1857612e176161b2565b5b60200260200101819052508180612e2e906161e1565b9250505b8080612e3d906161e1565b915050612b80565b50808252819250505090565b600660009054906101000a900473ffffffffffffffffffffffffffffffffffffffff1681565b600b602052816000526040600020602052806000526040600020600091509150508060000160009054906101000a900473ffffffffffffffffffffffffffffffffffffffff16908060010154908060020160009054906101000a900460ff1690806003018054612ee6906151f5565b80601f0160208091040260200160405190810160405280929190818152602001828054612f12906151f5565b8015612f5f5780601f10612f3457610100808354040283529160200191612f5f565b820191906000526020600020905b815481529060010190602001808311612f4257829003601f168201915b5050505050908060040154908060050154908060060154908060070154908060080160009054906101000a900460ff16905089565b612f9c613d93565b612fa4613d20565b60003411612fe7576040517f08c379a0000000000000000000000000000000000000000000000000000000008152600401612fde90616839565b60405180910390fd5b3460026000828254612ff9919061515e565b92505081905550613008613d89565b565b613012613d93565b600073ffffffffffffffffffffffffffffffffffffffff16600760009054906101000a900473ffffffffffffffffffffffffffffffffffffffff1673ffffffffffffffffffffffffffffffffffffffff16146130a3576040517f08c379a000000000000000000000000000000000000000000000000000000000815260040161309a906168a5565b60405180910390fd5b600073ffffffffffffffffffffffffffffffffffffffff168173ffffffffffffffffffffffffffffffffffffffff1603613112576040517f08c379a000000000000000000000000000000000000000000000000000000000815260040161310990616937565b60405180910390fd5b80600760006101000a81548173ffffffffffffffffffffffffffffffffffffffff021916908373ffffffffffffffffffffffffffffffffffffffff16021790555050565b61315e613d93565b80600760146101000a81548163ffffffff021916908363ffffffff16021790555050565b61318a613d93565b6000600360009054906101000a900473ffffffffffffffffffffffffffffffffffffffff1673ffffffffffffffffffffffffffffffffffffffff16637eb111f0836040518263ffffffff1660e01b81526004016131e7919061419e565b600060405180830381865afa158015613204573d6000803e3d6000fd5b505050506040513d6000823e3d601f19601f8201168201806040525081019061322d91906165ca565b905060005b81518110156132eb578660405160200161324c91906160e8565b60405160208183030381529060405280519060200120828281518110613275576132746161b2565b5b60200260200101516020015160405160200161329191906160e8565b60405160208183030381529060405280519060200120036132de576040517fd202940c00000000000000000000000000000000000000000000000000000000815260040160405180910390fd5b8080600101915050613232565b506000806000600360009054906101000a900473ffffffffffffffffffffffffffffffffffffffff1673ffffffffffffffffffffffffffffffffffffffff1663068bcd8d866040518263ffffffff1660e01b815260040161334c919061419e565b600060405180830381865afa158015613369573d6000803e3d6000fd5b505050506040513d6000823e3d601f19601f820116820180604052508101906133929190615ad4565b965050955050509350508960038111156133af576133ae6144ef565b5b8360038111156133c2576133c16144ef565b5b1415806133ce57508087115b15613405576040517fd3c913ea00000000000000000000000000000000000000000000000000000000815260040160405180910390fd5b6000670de0b6b3a76400006064670de0b6b3a76400008a6134269190615226565b6134309190615c99565b8461343b9190615226565b6134459190615c99565b9050600360009054906101000a900473ffffffffffffffffffffffffffffffffffffffff1673ffffffffffffffffffffffffffffffffffffffff1663a4948d85878a6040518363ffffffff1660e01b81526004016134a4929190616613565b600060405180830381600087803b1580156134be57600080fd5b505af11580156134d2573d6000803e3d6000fd5b50505050600d60008154809291906134e9906161e1565b91905055506000604051806101600160405280600d5481526020018c81526020018d600381111561351d5761351c6144ef565b5b81526020018b81526020018a8152602001898152602001838152602001600081526020018381526020018881526020018e815250905080600c6000600d548152602001908152602001600020600082015181600001556020820151816001019081613588919061540a565b5060408201518160020160006101000a81548160ff021916908360038111156135b4576135b36144ef565b5b021790555060608201518160030190816135ce919061540a565b506080820151816004015560a0820151816005015560c0820151816006015560e082015181600701556101008201518160080155610120820151816009015561014082015181600a019081613623919061540a565b50905050600360009054906101000a900473ffffffffffffffffffffffffffffffffffffffff1673ffffffffffffffffffffffffffffffffffffffff1663c7aa987488836040518363ffffffff1660e01b8152600401613684929190616957565b600060405180830381600087803b15801561369e57600080fd5b505af11580156136b2573d6000803e3d6000fd5b50505050600160096000600d54815260200190815260200160002060006101000a81548160ff0219169083151502179055507f036ea185d659d311308d48f377a57d1954df7161b963d5d0c9054f87c438b0298b8d6040516137159291906167bd565b60405180910390a150505050505050505050505050565b613734613d20565b6000600190505b600d548111613a3a576000600b60008473ffffffffffffffffffffffffffffffffffffffff1673ffffffffffffffffffffffffffffffffffffffff168152602001908152602001600020600083815260200190815260200160002090508060080160009054906101000a900460ff1680156137b95750806007015442115b156138b65760008160080160006101000a81548160ff021916908315150217905550600b60008473ffffffffffffffffffffffffffffffffffffffff1673ffffffffffffffffffffffffffffffffffffffff1681526020019081526020016000206000838152602001908152602001600020600080820160006101000a81549073ffffffffffffffffffffffffffffffffffffffff021916905560018201600090556002820160006101000a81549060ff021916905560038201600061387f9190613fca565b60048201600090556005820160009055600682016000905560078201600090556008820160006101000a81549060ff021916905550505b600460009054906101000a900473ffffffffffffffffffffffffffffffffffffffff1673ffffffffffffffffffffffffffffffffffffffff1663fa31de01600760149054906101000a900463ffffffff16613932600760009054906101000a900473ffffffffffffffffffffffffffffffffffffffff16613d66565b8686600b60008a73ffffffffffffffffffffffffffffffffffffffff1673ffffffffffffffffffffffffffffffffffffffff168152602001908152602001600020600089815260200190815260200160002060405160200161399693929190616346565b6040516020818303038152906040526040516020016139b591906158a7565b6040516020818303038152906040526040518463ffffffff1660e01b81526004016139e2939291906158eb565b6020604051808303816000875af1158015613a01573d6000803e3d6000fd5b505050506040513d601f19601f82011682018060405250810190613a25919061593e565b50508080613a32906161e1565b91505061373b565b50613a43613d89565b50565b613a4e613f54565b600b60008473ffffffffffffffffffffffffffffffffffffffff1673ffffffffffffffffffffffffffffffffffffffff1681526020019081526020016000206000838152602001908152602001600020604051806101200160405290816000820160009054906101000a900473ffffffffffffffffffffffffffffffffffffffff1673ffffffffffffffffffffffffffffffffffffffff1673ffffffffffffffffffffffffffffffffffffffff168152602001600182015481526020016002820160009054906101000a900460ff166003811115613b2f57613b2e6144ef565b5b6003811115613b4157613b406144ef565b5b8152602001600382018054613b55906151f5565b80601f0160208091040260200160405190810160405280929190818152602001828054613b81906151f5565b8015613bce5780601f10613ba357610100808354040283529160200191613bce565b820191906000526020600020905b815481529060010190602001808311613bb157829003601f168201915b50505050508152602001600482015481526020016005820154815260200160068201548152602001600782015481526020016008820160009054906101000a900460ff161515151581525050905092915050565b600460009054906101000a900473ffffffffffffffffffffffffffffffffffffffff1681565b600560009054906101000a900473ffffffffffffffffffffffffffffffffffffffff1681565b600860009054906101000a900473ffffffffffffffffffffffffffffffffffffffff1681565b613c9c613d93565b600073ffffffffffffffffffffffffffffffffffffffff168173ffffffffffffffffffffffffffffffffffffffff1603613d0e5760006040517f1e4fbdf7000000000000000000000000000000000000000000000000000000008152600401613d059190614446565b60405180910390fd5b613d1781613e1a565b50565b600d5481565b600260005403613d5c576040517f3ee5aeb500000000000000000000000000000000000000000000000000000000815260040160405180910390fd5b6002600081905550565b60008173ffffffffffffffffffffffffffffffffffffffff1660001b9050919050565b6001600081905550565b613d9b613ee0565b73ffffffffffffffffffffffffffffffffffffffff16613db9612501565b73ffffffffffffffffffffffffffffffffffffffff1614613e1857613ddc613ee0565b6040517f118cdaa7000000000000000000000000000000000000000000000000000000008152600401613e0f9190614446565b60405180910390fd5b565b6000600160009054906101000a900473ffffffffffffffffffffffffffffffffffffffff16905081600160006101000a81548173ffffffffffffffffffffffffffffffffffffffff021916908373ffffffffffffffffffffffffffffffffffffffff1602179055508173ffffffffffffffffffffffffffffffffffffffff168173ffffffffffffffffffffffffffffffffffffffff167f8be0079c531659141344cd1fd0a4f28419497f9722a3daafe3b4186f6b6457e060405160405180910390a35050565b600033905090565b604051806101600160405280600081526020016060815260200160006003811115613f1657613f156144ef565b5b815260200160608152602001600081526020016000815260200160008152602001600081526020016000815260200160008152602001606081525090565b604051806101200160405280600073ffffffffffffffffffffffffffffffffffffffff1681526020016000815260200160006003811115613f9857613f976144ef565b5b815260200160608152602001600081526020016000815260200160008152602001600081526020016000151581525090565b508054613fd6906151f5565b6000825580601f10613fe85750614007565b601f016020900490600052602060002090810190614006919061400a565b5b50565b5b8082111561402357600081600090555060010161400b565b5090565b6000604051905090565b600080fd5b600080fd5b6000819050919050565b61404e8161403b565b811461405957600080fd5b50565b60008135905061406b81614045565b92915050565b60008060006060848603121561408a57614089614031565b5b60006140988682870161405c565b93505060206140a98682870161405c565b92505060406140ba8682870161405c565b9150509250925092565b600073ffffffffffffffffffffffffffffffffffffffff82169050919050565b60006140ef826140c4565b9050919050565b6140ff816140e4565b811461410a57600080fd5b50565b60008135905061411c816140f6565b92915050565b60006020828403121561413857614137614031565b5b60006141468482850161410d565b91505092915050565b6000806040838503121561416657614165614031565b5b60006141748582860161410d565b92505060206141858582860161405c565b9150509250929050565b6141988161403b565b82525050565b60006020820190506141b3600083018461418f565b92915050565b6000602082840312156141cf576141ce614031565b5b60006141dd8482850161405c565b91505092915050565b600063ffffffff82169050919050565b6141ff816141e6565b82525050565b600060208201905061421a60008301846141f6565b92915050565b614229816141e6565b811461423457600080fd5b50565b60008135905061424681614220565b92915050565b6000819050919050565b61425f8161424c565b811461426a57600080fd5b50565b60008135905061427c81614256565b92915050565b600080fd5b600080fd5b6000601f19601f8301169050919050565b7f4e487b7100000000000000000000000000000000000000000000000000000000600052604160045260246000fd5b6142d58261428c565b810181811067ffffffffffffffff821117156142f4576142f361429d565b5b80604052505050565b6000614307614027565b905061431382826142cc565b919050565b600067ffffffffffffffff8211156143335761433261429d565b5b61433c8261428c565b9050602081019050919050565b82818337600083830152505050565b600061436b61436684614318565b6142fd565b90508281526020810184848401111561438757614386614287565b5b614392848285614349565b509392505050565b600082601f8301126143af576143ae614282565b5b81356143bf848260208601614358565b91505092915050565b6000806000606084860312156143e1576143e0614031565b5b60006143ef86828701614237565b93505060206144008682870161426d565b925050604084013567ffffffffffffffff81111561442157614420614036565b5b61442d8682870161439a565b9150509250925092565b614440816140e4565b82525050565b600060208201905061445b6000830184614437565b92915050565b61446a8161403b565b82525050565b600081519050919050565b600082825260208201905092915050565b60005b838110156144aa57808201518184015260208101905061448f565b60008484015250505050565b60006144c182614470565b6144cb818561447b565b93506144db81856020860161448c565b6144e48161428c565b840191505092915050565b7f4e487b7100000000000000000000000000000000000000000000000000000000600052602160045260246000fd5b6004811061452f5761452e6144ef565b5b50565b60008190506145408261451e565b919050565b600061455082614532565b9050919050565b61456081614545565b82525050565b60006101608301600083015161457f6000860182614461565b506020830151848203602086015261459782826144b6565b91505060408301516145ac6040860182614557565b50606083015184820360608601526145c482826144b6565b91505060808301516145d96080860182614461565b5060a08301516145ec60a0860182614461565b5060c08301516145ff60c0860182614461565b5060e083015161461260e0860182614461565b50610100830151614627610100860182614461565b5061012083015161463c610120860182614461565b5061014083015184820361014086015261465682826144b6565b9150508091505092915050565b6000602082019050818103600083015261467d8184614566565b905092915050565b600082825260208201905092915050565b60006146a182614470565b6146ab8185614685565b93506146bb81856020860161448c565b6146c48161428c565b840191505092915050565b6146d881614545565b82525050565b6000610160820190506146f4600083018e61418f565b8181036020830152614706818d614696565b9050614715604083018c6146cf565b8181036060830152614727818b614696565b9050614736608083018a61418f565b61474360a083018961418f565b61475060c083018861418f565b61475d60e083018761418f565b61476b61010083018661418f565b61477961012083018561418f565b81810361014083015261478c8184614696565b90509c9b505050505050505050505050565b600081519050919050565b600082825260208201905092915050565b6000819050602082019050919050565b6147d3816140e4565b82525050565b60008115159050919050565b6147ee816147d9565b82525050565b60006101208301600083015161480d60008601826147ca565b5060208301516148206020860182614461565b5060408301516148336040860182614557565b506060830151848203606086015261484b82826144b6565b91505060808301516148606080860182614461565b5060a083015161487360a0860182614461565b5060c083015161488660c0860182614461565b5060e083015161489960e0860182614461565b506101008301516148ae6101008601826147e5565b508091505092915050565b60006148c583836147f4565b905092915050565b6000602082019050919050565b60006148e58261479e565b6148ef81856147a9565b935083602082028501614901856147ba565b8060005b8581101561493d578484038952815161491e85826148b9565b9450614929836148cd565b925060208a01995050600181019050614905565b50829750879550505050505092915050565b6000602082019050818103600083015261496981846148da565b905092915050565b61497a816147d9565b82525050565b60006020820190506149956000830184614971565b92915050565b6000806000606084860312156149b4576149b3614031565b5b60006149c28682870161410d565b93505060206149d38682870161405c565b92505060406149e48682870161405c565b9150509250925092565b6000819050919050565b6000614a13614a0e614a09846140c4565b6149ee565b6140c4565b9050919050565b6000614a25826149f8565b9050919050565b6000614a3782614a1a565b9050919050565b614a4781614a2c565b82525050565b6000602082019050614a626000830184614a3e565b92915050565b600067ffffffffffffffff821115614a8357614a8261429d565b5b614a8c8261428c565b9050602081019050919050565b6000614aac614aa784614a68565b6142fd565b905082815260208101848484011115614ac857614ac7614287565b5b614ad3848285614349565b509392505050565b600082601f830112614af057614aef614282565b5b8135614b00848260208601614a99565b91505092915050565b60048110614b1657600080fd5b50565b600081359050614b2881614b09565b92915050565b600080600080600080600080610100898b031215614b4f57614b4e614031565b5b6000614b5d8b828c0161405c565b985050602089013567ffffffffffffffff811115614b7e57614b7d614036565b5b614b8a8b828c01614adb565b9750506040614b9b8b828c01614b19565b965050606089013567ffffffffffffffff811115614bbc57614bbb614036565b5b614bc88b828c01614adb565b955050608089013567ffffffffffffffff811115614be957614be8614036565b5b614bf58b828c01614adb565b94505060a0614c068b828c0161405c565b93505060c0614c178b828c0161405c565b92505060e0614c288b828c0161405c565b9150509295985092959890939650565b600081519050919050565b600082825260208201905092915050565b6000819050602082019050919050565b600061016083016000830151614c7d6000860182614461565b5060208301518482036020860152614c9582826144b6565b9150506040830151614caa6040860182614557565b5060608301518482036060860152614cc282826144b6565b9150506080830151614cd76080860182614461565b5060a0830151614cea60a0860182614461565b5060c0830151614cfd60c0860182614461565b5060e0830151614d1060e0860182614461565b50610100830151614d25610100860182614461565b50610120830151614d3a610120860182614461565b50610140830151848203610140860152614d5482826144b6565b9150508091505092915050565b6000614d6d8383614c64565b905092915050565b6000602082019050919050565b6000614d8d82614c38565b614d978185614c43565b935083602082028501614da985614c54565b8060005b85811015614de55784840389528151614dc68582614d61565b9450614dd183614d75565b925060208a01995050600181019050614dad565b50829750879550505050505092915050565b60006020820190508181036000830152614e118184614d82565b905092915050565b600061012082019050614e2f600083018c614437565b614e3c602083018b61418f565b614e49604083018a6146cf565b8181036060830152614e5b8189614696565b9050614e6a608083018861418f565b614e7760a083018761418f565b614e8460c083018661418f565b614e9160e083018561418f565b614e9f610100830184614971565b9a9950505050505050505050565b600060208284031215614ec357614ec2614031565b5b6000614ed184828501614237565b91505092915050565b600080600080600080600060e0888a031215614ef957614ef8614031565b5b600088013567ffffffffffffffff811115614f1757614f16614036565b5b614f238a828b01614adb565b9750506020614f348a828b01614b19565b965050604088013567ffffffffffffffff811115614f5557614f54614036565b5b614f618a828b01614adb565b955050606088013567ffffffffffffffff811115614f8257614f81614036565b5b614f8e8a828b01614adb565b9450506080614f9f8a828b0161405c565b93505060a0614fb08a828b0161405c565b92505060c0614fc18a828b0161405c565b91505092959891949750929550565b600061012083016000830151614fe960008601826147ca565b506020830151614ffc6020860182614461565b50604083015161500f6040860182614557565b506060830151848203606086015261502782826144b6565b915050608083015161503c6080860182614461565b5060a083015161504f60a0860182614461565b5060c083015161506260c0860182614461565b5060e083015161507560e0860182614461565b5061010083015161508a6101008601826147e5565b508091505092915050565b600060208201905081810360008301526150af8184614fd0565b905092915050565b60006150c282614a1a565b9050919050565b6150d2816150b7565b82525050565b60006020820190506150ed60008301846150c9565b92915050565b60006150fe82614a1a565b9050919050565b61510e816150f3565b82525050565b60006020820190506151296000830184615105565b92915050565b7f4e487b7100000000000000000000000000000000000000000000000000000000600052601160045260246000fd5b60006151698261403b565b91506151748361403b565b925082820190508082111561518c5761518b61512f565b5b92915050565b600061519d8261403b565b91506151a88361403b565b92508282039050818111156151c0576151bf61512f565b5b92915050565b7f4e487b7100000000000000000000000000000000000000000000000000000000600052602260045260246000fd5b6000600282049050600182168061520d57607f821691505b6020821081036152205761521f6151c6565b5b50919050565b60006152318261403b565b915061523c8361403b565b925082820261524a8161403b565b915082820484148315176152615761526061512f565b5b5092915050565b60008190508160005260206000209050919050565b60006020601f8301049050919050565b600082821b905092915050565b6000600883026152ca7fffffffffffffffffffffffffffffffffffffffffffffffffffffffffffffffff8261528d565b6152d4868361528d565b95508019841693508086168417925050509392505050565b60006153076153026152fd8461403b565b6149ee565b61403b565b9050919050565b6000819050919050565b615321836152ec565b61533561532d8261530e565b84845461529a565b825550505050565b600090565b61534a61533d565b615355818484615318565b505050565b5b818110156153795761536e600082615342565b60018101905061535b565b5050565b601f8211156153be5761538f81615268565b6153988461527d565b810160208510156153a7578190505b6153bb6153b38561527d565b83018261535a565b50505b505050565b600082821c905092915050565b60006153e1600019846008026153c3565b1980831691505092915050565b60006153fa83836153d0565b9150826002028217905092915050565b61541382614470565b67ffffffffffffffff81111561542c5761542b61429d565b5b61543682546151f5565b61544182828561537d565b600060209050601f8311600181146154745760008415615462578287015190505b61546c85826153ee565b8655506154d4565b601f19841661548286615268565b60005b828110156154aa57848901518255600182019150602085019450602081019050615485565b868310156154c757848901516154c3601f8916826153d0565b8355505b6001600288020188555050505b505050505050565b7f546f74616c20636f76657220706572696f64206d757374206265206c6573732060008201527f7468616e20333635000000000000000000000000000000000000000000000000602082015250565b6000615538602883614685565b9150615543826154dc565b604082019050919050565b600060208201905081810360008301526155678161552b565b9050919050565b60008160001c9050919050565b600073ffffffffffffffffffffffffffffffffffffffff82169050919050565b60006155ae6155a98361556e565b61557b565b9050919050565b6000819050919050565b60006155d26155cd8361556e565b6155b5565b9050919050565b600060ff82169050919050565b60006155f96155f48361556e565b6155d9565b9050919050565b6000815461560d816151f5565b615617818661447b565b9450600182166000811461563257600181146156485761567b565b60ff19831686528115156020028601935061567b565b61565185615268565b60005b8381101561567357815481890152600182019150602081019050615654565b808801955050505b50505092915050565b600060ff82169050919050565b60006156a461569f8361556e565b615684565b9050919050565b6000610120830160008084015490506156c38161559b565b6156d060008701826147ca565b50600184015490506156e1816155bf565b6156ee6020870182614461565b50600284015490506156ff816155e6565b61570c6040870182614557565b506003840185830360608701526157238382615600565b92505060048401549050615736816155bf565b6157436080870182614461565b5060058401549050615754816155bf565b61576160a0870182614461565b5060068401549050615772816155bf565b61577f60c0870182614461565b5060078401549050615790816155bf565b61579d60e0870182614461565b50600884015490506157ae81615691565b6157bc6101008701826147e5565b50819250505092915050565b60006060820190506157dd6000830186614437565b6157ea602083018561418f565b81810360408301526157fc81846156ab565b9050949350505050565b7f55736572436f7665720000000000000000000000000000000000000000000000600082015250565b600061583c600983614685565b915061584782615806565b602082019050919050565b600081519050919050565b600082825260208201905092915050565b600061587982615852565b615883818561585d565b935061589381856020860161448c565b61589c8161428c565b840191505092915050565b600060408201905081810360008301526158c08161582f565b905081810360208301526158d4818461586e565b905092915050565b6158e58161424c565b82525050565b600060608201905061590060008301866141f6565b61590d60208301856158dc565b818103604083015261591f818461586e565b9050949350505050565b60008151905061593881614256565b92915050565b60006020828403121561595457615953614031565b5b600061596284828501615929565b91505092915050565b6000606082019050615980600083018661418f565b61598d602083018561418f565b61599a60408301846146cf565b949350505050565b7f4e6f7420617574686f72697a6564000000000000000000000000000000000000600082015250565b60006159d8600e83614685565b91506159e3826159a2565b602082019050919050565b60006020820190508181036000830152615a07816159cb565b9050919050565b6000615a21615a1c84614a68565b6142fd565b905082815260208101848484011115615a3d57615a3c614287565b5b615a4884828561448c565b509392505050565b600082601f830112615a6557615a64614282565b5b8151615a75848260208601615a0e565b91505092915050565b600081519050615a8d81614b09565b92915050565b600081519050615aa281614045565b92915050565b615ab1816147d9565b8114615abc57600080fd5b50565b600081519050615ace81615aa8565b92915050565b600080600080600080600060e0888a031215615af357615af2614031565b5b600088015167ffffffffffffffff811115615b1157615b10614036565b5b615b1d8a828b01615a50565b9750506020615b2e8a828b01615a7e565b9650506040615b3f8a828b01615a93565b9550506060615b508a828b01615a93565b9450506080615b618a828b01615a93565b93505060a0615b728a828b01615abf565b92505060c0615b838a828b01615a93565b91505092959891949750929550565b7f54564c206973207a65726f000000000000000000000000000000000000000000600082015250565b6000615bc8600b83614685565b9150615bd382615b92565b602082019050919050565b60006020820190508181036000830152615bf781615bbb565b9050919050565b7f496e76616c696420636f76657220636170616369747900000000000000000000600082015250565b6000615c34601683614685565b9150615c3f82615bfe565b602082019050919050565b60006020820190508181036000830152615c6381615c27565b9050919050565b7f4e487b7100000000000000000000000000000000000000000000000000000000600052601260045260246000fd5b6000615ca48261403b565b9150615caf8361403b565b925082615cbf57615cbe615c6a565b5b828204905092915050565b6000604082019050615cdf600083018561418f565b615cec6020830184614437565b9392505050565b600080fd5b600080fd5b600081519050615d0c816140f6565b92915050565b60028110615d1f57600080fd5b50565b600081519050615d3181615d12565b92915050565b60006101208284031215615d4e57615d4d615cf3565b5b615d596101206142fd565b90506000615d6984828501615cfd565b6000830152506020615d7d84828501615a93565b6020830152506040615d9184828501615a93565b6040830152506060615da584828501615a93565b6060830152506080615db984828501615d22565b60808301525060a0615dcd84828501615a93565b60a08301525060c0615de184828501615a93565b60c08301525060e0615df584828501615a93565b60e083015250610100615e0a84828501615a93565b6101008301525092915050565b60006101208284031215615e2e57615e2d614031565b5b6000615e3c84828501615d37565b91505092915050565b600081905092915050565b50565b6000615e60600083615e45565b9150615e6b82615e50565b600082019050919050565b6000615e8182615e53565b9150819050919050565b7f5472616e73666572206661696c65640000000000000000000000000000000000600082015250565b6000615ec1600f83614685565b9150615ecc82615e8b565b602082019050919050565b60006020820190508181036000830152615ef081615eb4565b9050919050565b7f53656e646572206d757374206265206d61696c626f7800000000000000000000600082015250565b6000615f2d601683614685565b9150615f3882615ef7565b602082019050919050565b60006020820190508181036000830152615f5c81615f20565b9050919050565b6000615f76615f7184614318565b6142fd565b905082815260208101848484011115615f9257615f91614287565b5b615f9d84828561448c565b509392505050565b600082601f830112615fba57615fb9614282565b5b8151615fca848260208601615f63565b91505092915050565b60008060408385031215615fea57615fe9614031565b5b600083015167ffffffffffffffff81111561600857616007614036565b5b61601485828601615a50565b925050602083015167ffffffffffffffff81111561603557616034614036565b5b61604185828601615fa5565b9150509250929050565b600081905092915050565b7f75706461746555736572436f76657256616c7565000000000000000000000000600082015250565b600061608c60148361604b565b915061609782616056565b601482019050919050565b60006160ad8261607f565b9150819050919050565b60006160c282614470565b6160cc818561604b565b93506160dc81856020860161448c565b80840191505092915050565b60006160f482846160b7565b915081905092915050565b600061610a826140c4565b9050919050565b61611a816160ff565b811461612557600080fd5b50565b60008151905061613781616111565b92915050565b60008060006060848603121561615657616155614031565b5b600061616486828701616128565b935050602061617586828701615a93565b925050604061618686828701615a93565b9150509250925092565b600060208201905081810360008301526161aa8184614696565b905092915050565b7f4e487b7100000000000000000000000000000000000000000000000000000000600052603260045260246000fd5b60006161ec8261403b565b91507fffffffffffffffffffffffffffffffffffffffffffffffffffffffffffffffff820361621e5761621d61512f565b5b600182019050919050565b6000610120830160008084015490506162418161559b565b61624e60008701826147ca565b506001840154905061625f816155bf565b61626c6020870182614461565b506002840154905061627d816155e6565b61628a6040870182614557565b506003840185830360608701526162a18382615600565b925050600484015490506162b4816155bf565b6162c16080870182614461565b50600584015490506162d2816155bf565b6162df60a0870182614461565b50600684015490506162f0816155bf565b6162fd60c0870182614461565b506007840154905061630e816155bf565b61631b60e0870182614461565b506008840154905061632c81615691565b61633a6101008701826147e5565b50819250505092915050565b600060608201905061635b6000830186614437565b616368602083018561418f565b818103604083015261637a8184616229565b9050949350505050565b600067ffffffffffffffff82111561639f5761639e61429d565b5b602082029050602081019050919050565b600080fd5b600061016082840312156163cc576163cb615cf3565b5b6163d76101606142fd565b905060006163e784828501615a93565b600083015250602082015167ffffffffffffffff81111561640b5761640a615cf8565b5b61641784828501615a50565b602083015250604061642b84828501615a7e565b604083015250606082015167ffffffffffffffff81111561644f5761644e615cf8565b5b61645b84828501615a50565b606083015250608061646f84828501615a93565b60808301525060a061648384828501615a93565b60a08301525060c061649784828501615a93565b60c08301525060e06164ab84828501615a93565b60e0830152506101006164c084828501615a93565b610100830152506101206164d684828501615a93565b6101208301525061014082015167ffffffffffffffff8111156164fc576164fb615cf8565b5b61650884828501615a50565b6101408301525092915050565b600061652861652384616384565b6142fd565b9050808382526020820190506020840283018581111561654b5761654a6163b0565b5b835b8181101561659257805167ffffffffffffffff8111156165705761656f614282565b5b80860161657d89826163b5565b8552602085019450505060208101905061654d565b5050509392505050565b600082601f8301126165b1576165b0614282565b5b81516165c1848260208601616515565b91505092915050565b6000602082840312156165e0576165df614031565b5b600082015167ffffffffffffffff8111156165fe576165fd614036565b5b61660a8482850161659c565b91505092915050565b6000604082019050616628600083018561418f565b616635602083018461418f565b9392505050565b600061016083016000808401549050616654816155bf565b6166616000870182614461565b506001840185830360208701526166788382615600565b9250506002840154905061668b816155e6565b6166986040870182614557565b506003840185830360608701526166af8382615600565b925050600484015490506166c2816155bf565b6166cf6080870182614461565b50600584015490506166e0816155bf565b6166ed60a0870182614461565b50600684015490506166fe816155bf565b61670b60c0870182614461565b506007840154905061671c816155bf565b61672960e0870182614461565b506008840154905061673a816155bf565b616748610100870182614461565b5060098401549050616759816155bf565b616767610120870182614461565b50600a840185830361014087015261677f8382615600565b925050819250505092915050565b60006040820190506167a2600083018561418f565b81810360208301526167b4818461663c565b90509392505050565b600060408201905081810360008301526167d78185614696565b90506167e660208301846146cf565b9392505050565b7f56616c7565206d7573742062652067726561746572207468616e203000000000600082015250565b6000616823601c83614685565b915061682e826167ed565b602082019050919050565b6000602082019050818103600083015261685281616816565b9050919050565b7f476f7665726e616e636520616c72656164792073657400000000000000000000600082015250565b600061688f601683614685565b915061689a82616859565b602082019050919050565b600060208201905081810360008301526168be81616882565b9050919050565b7f476f7665726e616e636520616464726573732063616e6e6f74206265207a657260008201527f6f00000000000000000000000000000000000000000000000000000000000000602082015250565b6000616921602183614685565b915061692c826168c5565b604082019050919050565b6000602082019050818103600083015261695081616914565b9050919050565b600060408201905061696c600083018561418f565b818103602083015261697e8184614566565b9050939250505056fea26469706673582212209c7a1eee961b05cad33e89bc659bc78e13421ae4655a64d1326025adc63a679764736f6c634300081b0033",
  "linkReferences": {},
  "deployedLinkReferences": {}
}