{
  "_format": "hh-sol-artifact-1",
  "contractName": "InsuranceCover",
  "sourceName": "contracts/InsuranceCover.sol",
  "abi": [
    {
      "inputs": [
        {
          "internalType": "address",
          "name": "_mailbox",
          "type": "address"
        },
        {
          "internalType": "address",
          "name": "_lpContract",
          "type": "address"
        },
        {
          "internalType": "address",
          "name": "_initialOwner",
          "type": "address"
        },
        {
          "internalType": "address",
          "name": "_ism",
          "type": "address"
        },
        {
          "internalType": "uint32",
          "name": "_destinationDomain",
          "type": "uint32"
        }
      ],
      "stateMutability": "nonpayable",
      "type": "constructor"
    },
    {
      "inputs": [],
      "name": "CoverNotAvailable",
      "type": "error"
    },
    {
      "inputs": [],
      "name": "InsufficientPoolBalance",
      "type": "error"
    },
    {
      "inputs": [],
      "name": "InvalidAmount",
      "type": "error"
    },
    {
      "inputs": [],
      "name": "InvalidCoverDuration",
      "type": "error"
    },
    {
      "inputs": [],
      "name": "LpNotActive",
      "type": "error"
    },
    {
      "inputs": [],
      "name": "NameAlreadyExists",
      "type": "error"
    },
    {
      "inputs": [],
      "name": "NoClaimableReward",
      "type": "error"
    },
    {
      "inputs": [
        {
          "internalType": "address",
          "name": "owner",
          "type": "address"
        }
      ],
      "name": "OwnableInvalidOwner",
      "type": "error"
    },
    {
      "inputs": [
        {
          "internalType": "address",
          "name": "account",
          "type": "address"
        }
      ],
      "name": "OwnableUnauthorizedAccount",
      "type": "error"
    },
    {
      "inputs": [],
      "name": "ReentrancyGuardReentrantCall",
      "type": "error"
    },
    {
      "inputs": [],
      "name": "UnsupportedCoverType",
      "type": "error"
    },
    {
      "inputs": [],
      "name": "WrongPool",
      "type": "error"
    },
    {
      "anonymous": false,
      "inputs": [
        {
          "indexed": false,
          "internalType": "string",
          "name": "name",
          "type": "string"
        },
        {
          "indexed": false,
          "internalType": "enum CoverLib.RiskType",
          "name": "riskType",
          "type": "uint8"
        }
      ],
      "name": "CoverCreated",
      "type": "event"
    },
    {
      "anonymous": false,
      "inputs": [
        {
          "indexed": true,
          "internalType": "address",
          "name": "user",
          "type": "address"
        },
        {
          "indexed": false,
          "internalType": "uint256",
          "name": "coverValue",
          "type": "uint256"
        },
        {
          "indexed": false,
          "internalType": "uint256",
          "name": "coverFee",
          "type": "uint256"
        },
        {
          "indexed": false,
          "internalType": "enum CoverLib.RiskType",
          "name": "riskType",
          "type": "uint8"
        }
      ],
      "name": "CoverPurchased",
      "type": "event"
    },
    {
      "anonymous": false,
      "inputs": [
        {
          "indexed": true,
          "internalType": "uint256",
          "name": "coverId",
          "type": "uint256"
        },
        {
          "indexed": false,
          "internalType": "string",
          "name": "coverName",
          "type": "string"
        },
        {
          "indexed": false,
          "internalType": "enum CoverLib.RiskType",
          "name": "riskType",
          "type": "uint8"
        }
      ],
      "name": "CoverUpdated",
      "type": "event"
    },
    {
      "anonymous": false,
      "inputs": [
        {
          "indexed": true,
          "internalType": "address",
          "name": "previousOwner",
          "type": "address"
        },
        {
          "indexed": true,
          "internalType": "address",
          "name": "newOwner",
          "type": "address"
        }
      ],
      "name": "OwnershipTransferred",
      "type": "event"
    },
    {
      "anonymous": false,
      "inputs": [
        {
          "indexed": true,
          "internalType": "address",
          "name": "user",
          "type": "address"
        },
        {
          "indexed": true,
          "internalType": "uint256",
          "name": "poolId",
          "type": "uint256"
        },
        {
          "indexed": false,
          "internalType": "uint256",
          "name": "amount",
          "type": "uint256"
        }
      ],
      "name": "PayoutClaimed",
      "type": "event"
    },
    {
      "anonymous": false,
      "inputs": [
        {
          "indexed": true,
          "internalType": "uint32",
          "name": "origin",
          "type": "uint32"
        },
        {
          "indexed": true,
          "internalType": "bytes32",
          "name": "sender",
          "type": "bytes32"
        },
        {
          "indexed": false,
          "internalType": "string",
          "name": "message",
          "type": "string"
        }
      ],
      "name": "ReceivedMessage",
      "type": "event"
    },
    {
      "inputs": [
        {
          "internalType": "address",
          "name": "",
          "type": "address"
        },
        {
          "internalType": "uint256",
          "name": "",
          "type": "uint256"
        }
      ],
      "name": "NextLpClaimTime",
      "outputs": [
        {
          "internalType": "uint256",
          "name": "",
          "type": "uint256"
        }
      ],
      "stateMutability": "view",
      "type": "function"
    },
    {
      "inputs": [
        {
          "internalType": "uint256",
          "name": "_poolId",
          "type": "uint256"
        }
      ],
      "name": "claimPayoutForLP",
      "outputs": [],
      "stateMutability": "nonpayable",
      "type": "function"
    },
    {
      "inputs": [],
      "name": "coverCount",
      "outputs": [
        {
          "internalType": "uint256",
          "name": "",
          "type": "uint256"
        }
      ],
      "stateMutability": "view",
      "type": "function"
    },
    {
      "inputs": [
        {
          "internalType": "uint256",
          "name": "",
          "type": "uint256"
        }
      ],
      "name": "coverExists",
      "outputs": [
        {
          "internalType": "bool",
          "name": "",
          "type": "bool"
        }
      ],
      "stateMutability": "view",
      "type": "function"
    },
    {
      "inputs": [],
      "name": "coverFeeBalance",
      "outputs": [
        {
          "internalType": "uint256",
          "name": "",
          "type": "uint256"
        }
      ],
      "stateMutability": "view",
      "type": "function"
    },
    {
      "inputs": [
        {
          "internalType": "uint256",
          "name": "",
          "type": "uint256"
        }
      ],
      "name": "covers",
      "outputs": [
        {
          "internalType": "uint256",
          "name": "id",
          "type": "uint256"
        },
        {
          "internalType": "string",
          "name": "coverName",
          "type": "string"
        },
        {
          "internalType": "enum CoverLib.RiskType",
          "name": "riskType",
          "type": "uint8"
        },
        {
          "internalType": "string",
          "name": "chains",
          "type": "string"
        },
        {
          "internalType": "uint256",
          "name": "capacity",
          "type": "uint256"
        },
        {
          "internalType": "uint256",
          "name": "cost",
          "type": "uint256"
        },
        {
          "internalType": "uint256",
          "name": "capacityAmount",
          "type": "uint256"
        },
        {
          "internalType": "uint256",
          "name": "coverValues",
          "type": "uint256"
        },
        {
          "internalType": "uint256",
          "name": "maxAmount",
          "type": "uint256"
        },
        {
          "internalType": "uint256",
          "name": "poolId",
          "type": "uint256"
        },
        {
          "internalType": "string",
          "name": "CID",
          "type": "string"
        }
      ],
      "stateMutability": "view",
      "type": "function"
    },
    {
      "inputs": [
        {
          "internalType": "string",
          "name": "_cid",
          "type": "string"
        },
        {
          "internalType": "enum CoverLib.RiskType",
          "name": "_riskType",
          "type": "uint8"
        },
        {
          "internalType": "string",
          "name": "_coverName",
          "type": "string"
        },
        {
          "internalType": "string",
          "name": "_chains",
          "type": "string"
        },
        {
          "internalType": "uint256",
          "name": "_capacity",
          "type": "uint256"
        },
        {
          "internalType": "uint256",
          "name": "_cost",
          "type": "uint256"
        },
        {
          "internalType": "uint256",
          "name": "_poolId",
          "type": "uint256"
        }
      ],
      "name": "createCover",
      "outputs": [],
      "stateMutability": "nonpayable",
      "type": "function"
    },
    {
      "inputs": [
        {
          "internalType": "address",
          "name": "_user",
          "type": "address"
        }
      ],
      "name": "deleteExpiredUserCovers",
      "outputs": [],
      "stateMutability": "payable",
      "type": "function"
    },
    {
      "inputs": [],
      "name": "destinationDomain",
      "outputs": [
        {
          "internalType": "uint32",
          "name": "",
          "type": "uint32"
        }
      ],
      "stateMutability": "view",
      "type": "function"
    },
    {
      "inputs": [],
      "name": "getAllAvailableCovers",
      "outputs": [
        {
          "components": [
            {
              "internalType": "uint256",
              "name": "id",
              "type": "uint256"
            },
            {
              "internalType": "string",
              "name": "coverName",
              "type": "string"
            },
            {
              "internalType": "enum CoverLib.RiskType",
              "name": "riskType",
              "type": "uint8"
            },
            {
              "internalType": "string",
              "name": "chains",
              "type": "string"
            },
            {
              "internalType": "uint256",
              "name": "capacity",
              "type": "uint256"
            },
            {
              "internalType": "uint256",
              "name": "cost",
              "type": "uint256"
            },
            {
              "internalType": "uint256",
              "name": "capacityAmount",
              "type": "uint256"
            },
            {
              "internalType": "uint256",
              "name": "coverValues",
              "type": "uint256"
            },
            {
              "internalType": "uint256",
              "name": "maxAmount",
              "type": "uint256"
            },
            {
              "internalType": "uint256",
              "name": "poolId",
              "type": "uint256"
            },
            {
              "internalType": "string",
              "name": "CID",
              "type": "string"
            }
          ],
          "internalType": "struct CoverLib.Cover[]",
          "name": "",
          "type": "tuple[]"
        }
      ],
      "stateMutability": "view",
      "type": "function"
    },
    {
      "inputs": [
        {
          "internalType": "address",
          "name": "user",
          "type": "address"
        }
      ],
      "name": "getAllUserCovers",
      "outputs": [
        {
          "components": [
            {
              "internalType": "address",
              "name": "user",
              "type": "address"
            },
            {
              "internalType": "uint256",
              "name": "coverId",
              "type": "uint256"
            },
            {
              "internalType": "enum CoverLib.RiskType",
              "name": "riskType",
              "type": "uint8"
            },
            {
              "internalType": "string",
              "name": "coverName",
              "type": "string"
            },
            {
              "internalType": "uint256",
              "name": "coverValue",
              "type": "uint256"
            },
            {
              "internalType": "uint256",
              "name": "claimPaid",
              "type": "uint256"
            },
            {
              "internalType": "uint256",
              "name": "coverPeriod",
              "type": "uint256"
            },
            {
              "internalType": "uint256",
              "name": "endDay",
              "type": "uint256"
            },
            {
              "internalType": "bool",
              "name": "isActive",
              "type": "bool"
            }
          ],
          "internalType": "struct CoverLib.GenericCoverInfo[]",
          "name": "",
          "type": "tuple[]"
        }
      ],
      "stateMutability": "view",
      "type": "function"
    },
    {
      "inputs": [],
      "name": "getCoverFeeBalance",
      "outputs": [
        {
          "internalType": "uint256",
          "name": "",
          "type": "uint256"
        }
      ],
      "stateMutability": "view",
      "type": "function"
    },
    {
      "inputs": [
        {
          "internalType": "uint256",
          "name": "_coverId",
          "type": "uint256"
        }
      ],
      "name": "getCoverInfo",
      "outputs": [
        {
          "components": [
            {
              "internalType": "uint256",
              "name": "id",
              "type": "uint256"
            },
            {
              "internalType": "string",
              "name": "coverName",
              "type": "string"
            },
            {
              "internalType": "enum CoverLib.RiskType",
              "name": "riskType",
              "type": "uint8"
            },
            {
              "internalType": "string",
              "name": "chains",
              "type": "string"
            },
            {
              "internalType": "uint256",
              "name": "capacity",
              "type": "uint256"
            },
            {
              "internalType": "uint256",
              "name": "cost",
              "type": "uint256"
            },
            {
              "internalType": "uint256",
              "name": "capacityAmount",
              "type": "uint256"
            },
            {
              "internalType": "uint256",
              "name": "coverValues",
              "type": "uint256"
            },
            {
              "internalType": "uint256",
              "name": "maxAmount",
              "type": "uint256"
            },
            {
              "internalType": "uint256",
              "name": "poolId",
              "type": "uint256"
            },
            {
              "internalType": "string",
              "name": "CID",
              "type": "string"
            }
          ],
          "internalType": "struct CoverLib.Cover",
          "name": "",
          "type": "tuple"
        }
      ],
      "stateMutability": "view",
      "type": "function"
    },
    {
      "inputs": [
        {
          "internalType": "address",
          "name": "user",
          "type": "address"
        },
        {
          "internalType": "uint256",
          "name": "_poolId",
          "type": "uint256"
        }
      ],
      "name": "getDepositClaimableDays",
      "outputs": [
        {
          "internalType": "uint256",
          "name": "",
          "type": "uint256"
        }
      ],
      "stateMutability": "view",
      "type": "function"
    },
    {
      "inputs": [
        {
          "internalType": "address",
          "name": "user",
          "type": "address"
        },
        {
          "internalType": "uint256",
          "name": "_poolId",
          "type": "uint256"
        }
      ],
      "name": "getLastClaimTime",
      "outputs": [
        {
          "internalType": "uint256",
          "name": "",
          "type": "uint256"
        }
      ],
      "stateMutability": "view",
      "type": "function"
    },
    {
      "inputs": [
        {
          "internalType": "address",
          "name": "user",
          "type": "address"
        },
        {
          "internalType": "uint256",
          "name": "_coverId",
          "type": "uint256"
        }
      ],
      "name": "getUserCoverInfo",
      "outputs": [
        {
          "components": [
            {
              "internalType": "address",
              "name": "user",
              "type": "address"
            },
            {
              "internalType": "uint256",
              "name": "coverId",
              "type": "uint256"
            },
            {
              "internalType": "enum CoverLib.RiskType",
              "name": "riskType",
              "type": "uint8"
            },
            {
              "internalType": "string",
              "name": "coverName",
              "type": "string"
            },
            {
              "internalType": "uint256",
              "name": "coverValue",
              "type": "uint256"
            },
            {
              "internalType": "uint256",
              "name": "claimPaid",
              "type": "uint256"
            },
            {
              "internalType": "uint256",
              "name": "coverPeriod",
              "type": "uint256"
            },
            {
              "internalType": "uint256",
              "name": "endDay",
              "type": "uint256"
            },
            {
              "internalType": "bool",
              "name": "isActive",
              "type": "bool"
            }
          ],
          "internalType": "struct CoverLib.GenericCoverInfo",
          "name": "",
          "type": "tuple"
        }
      ],
      "stateMutability": "view",
      "type": "function"
    },
    {
      "inputs": [],
      "name": "governance",
      "outputs": [
        {
          "internalType": "address",
          "name": "",
          "type": "address"
        }
      ],
      "stateMutability": "view",
      "type": "function"
    },
    {
      "inputs": [
        {
          "internalType": "uint32",
          "name": "_origin",
          "type": "uint32"
        },
        {
          "internalType": "bytes32",
          "name": "_sender",
          "type": "bytes32"
        },
        {
          "internalType": "bytes",
          "name": "_message",
          "type": "bytes"
        }
      ],
      "name": "handle",
      "outputs": [],
      "stateMutability": "payable",
      "type": "function"
    },
    {
      "inputs": [],
      "name": "increaseCoverFeeBalance",
      "outputs": [],
      "stateMutability": "payable",
      "type": "function"
    },
    {
      "inputs": [],
      "name": "interchainSecurityModule",
      "outputs": [
        {
          "internalType": "contract IInterchainSecurityModule",
          "name": "",
          "type": "address"
        }
      ],
      "stateMutability": "view",
      "type": "function"
    },
    {
      "inputs": [],
      "name": "lpAddress",
      "outputs": [
        {
          "internalType": "address",
          "name": "",
          "type": "address"
        }
      ],
      "stateMutability": "view",
      "type": "function"
    },
    {
      "inputs": [],
      "name": "lpContract",
      "outputs": [
        {
          "internalType": "contract ILP",
          "name": "",
          "type": "address"
        }
      ],
      "stateMutability": "view",
      "type": "function"
    },
    {
      "inputs": [],
      "name": "mailbox",
      "outputs": [
        {
          "internalType": "contract IMailbox",
          "name": "",
          "type": "address"
        }
      ],
      "stateMutability": "view",
      "type": "function"
    },
    {
      "inputs": [],
      "name": "mailboxAddress",
      "outputs": [
        {
          "internalType": "address",
          "name": "",
          "type": "address"
        }
      ],
      "stateMutability": "view",
      "type": "function"
    },
    {
      "inputs": [],
      "name": "owner",
      "outputs": [
        {
          "internalType": "address",
          "name": "",
          "type": "address"
        }
      ],
      "stateMutability": "view",
      "type": "function"
    },
    {
      "inputs": [
        {
          "internalType": "uint256",
          "name": "_coverId",
          "type": "uint256"
        },
        {
          "internalType": "uint256",
          "name": "_coverValue",
          "type": "uint256"
        },
        {
          "internalType": "uint256",
          "name": "_coverPeriod",
          "type": "uint256"
        }
      ],
      "name": "purchaseCover",
      "outputs": [],
      "stateMutability": "payable",
      "type": "function"
    },
    {
      "inputs": [],
      "name": "renounceOwnership",
      "outputs": [],
      "stateMutability": "nonpayable",
      "type": "function"
    },
    {
      "inputs": [
        {
          "internalType": "uint32",
          "name": "_destinationDomain",
          "type": "uint32"
        }
      ],
      "name": "setDestinationDomain",
      "outputs": [],
      "stateMutability": "nonpayable",
      "type": "function"
    },
    {
      "inputs": [
        {
          "internalType": "address",
          "name": "_governance",
          "type": "address"
        }
      ],
      "name": "setGovernance",
      "outputs": [],
      "stateMutability": "nonpayable",
      "type": "function"
    },
    {
      "inputs": [
        {
          "internalType": "address",
          "name": "newOwner",
          "type": "address"
        }
      ],
      "name": "transferOwnership",
      "outputs": [],
      "stateMutability": "nonpayable",
      "type": "function"
    },
    {
      "inputs": [
        {
          "internalType": "uint256",
          "name": "_coverId",
          "type": "uint256"
        },
        {
          "internalType": "string",
          "name": "_coverName",
          "type": "string"
        },
        {
          "internalType": "enum CoverLib.RiskType",
          "name": "_riskType",
          "type": "uint8"
        },
        {
          "internalType": "string",
          "name": "_cid",
          "type": "string"
        },
        {
          "internalType": "string",
          "name": "_chains",
          "type": "string"
        },
        {
          "internalType": "uint256",
          "name": "_capacity",
          "type": "uint256"
        },
        {
          "internalType": "uint256",
          "name": "_cost",
          "type": "uint256"
        },
        {
          "internalType": "uint256",
          "name": "_poolId",
          "type": "uint256"
        }
      ],
      "name": "updateCover",
      "outputs": [],
      "stateMutability": "nonpayable",
      "type": "function"
    },
    {
      "inputs": [
        {
          "internalType": "uint256",
          "name": "_coverId",
          "type": "uint256"
        }
      ],
      "name": "updateMaxAmount",
      "outputs": [],
      "stateMutability": "nonpayable",
      "type": "function"
    },
    {
      "inputs": [
        {
          "internalType": "address",
          "name": "user",
          "type": "address"
        },
        {
          "internalType": "uint256",
          "name": "_coverId",
          "type": "uint256"
        },
        {
          "internalType": "uint256",
          "name": "_claimPaid",
          "type": "uint256"
        }
      ],
      "name": "updateUserCoverValue",
      "outputs": [],
      "stateMutability": "payable",
      "type": "function"
    },
    {
      "inputs": [
        {
          "internalType": "address",
          "name": "",
          "type": "address"
        },
        {
          "internalType": "uint256",
          "name": "",
          "type": "uint256"
        }
      ],
      "name": "userCovers",
      "outputs": [
        {
          "internalType": "address",
          "name": "user",
          "type": "address"
        },
        {
          "internalType": "uint256",
          "name": "coverId",
          "type": "uint256"
        },
        {
          "internalType": "enum CoverLib.RiskType",
          "name": "riskType",
          "type": "uint8"
        },
        {
          "internalType": "string",
          "name": "coverName",
          "type": "string"
        },
        {
          "internalType": "uint256",
          "name": "coverValue",
          "type": "uint256"
        },
        {
          "internalType": "uint256",
          "name": "claimPaid",
          "type": "uint256"
        },
        {
          "internalType": "uint256",
          "name": "coverPeriod",
          "type": "uint256"
        },
        {
          "internalType": "uint256",
          "name": "endDay",
          "type": "uint256"
        },
        {
          "internalType": "bool",
          "name": "isActive",
          "type": "bool"
        }
      ],
      "stateMutability": "view",
      "type": "function"
    },
    {
      "stateMutability": "payable",
      "type": "receive"
    }
  ],
  "bytecode": "0x608060405234801561001057600080fd5b5060405161704e38038061704e83398181016040528101906100329190610392565b826001600081905550600073ffffffffffffffffffffffffffffffffffffffff168173ffffffffffffffffffffffffffffffffffffffff16036100ad5760006040517f1e4fbdf70000000000000000000000000000000000000000000000000000000081526004016100a4919061041c565b60405180910390fd5b6100bc8161022d60201b60201c565b5084600460006101000a81548173ffffffffffffffffffffffffffffffffffffffff021916908373ffffffffffffffffffffffffffffffffffffffff16021790555084600560006101000a81548173ffffffffffffffffffffffffffffffffffffffff021916908373ffffffffffffffffffffffffffffffffffffffff16021790555083600360006101000a81548173ffffffffffffffffffffffffffffffffffffffff021916908373ffffffffffffffffffffffffffffffffffffffff16021790555083600660006101000a81548173ffffffffffffffffffffffffffffffffffffffff021916908373ffffffffffffffffffffffffffffffffffffffff16021790555080600760146101000a81548163ffffffff021916908363ffffffff16021790555081600860006101000a81548173ffffffffffffffffffffffffffffffffffffffff021916908373ffffffffffffffffffffffffffffffffffffffff1602179055505050505050610437565b6000600160009054906101000a900473ffffffffffffffffffffffffffffffffffffffff16905081600160006101000a81548173ffffffffffffffffffffffffffffffffffffffff021916908373ffffffffffffffffffffffffffffffffffffffff1602179055508173ffffffffffffffffffffffffffffffffffffffff168173ffffffffffffffffffffffffffffffffffffffff167f8be0079c531659141344cd1fd0a4f28419497f9722a3daafe3b4186f6b6457e060405160405180910390a35050565b600080fd5b600073ffffffffffffffffffffffffffffffffffffffff82169050919050565b6000610323826102f8565b9050919050565b61033381610318565b811461033e57600080fd5b50565b6000815190506103508161032a565b92915050565b600063ffffffff82169050919050565b61036f81610356565b811461037a57600080fd5b50565b60008151905061038c81610366565b92915050565b600080600080600060a086880312156103ae576103ad6102f3565b5b60006103bc88828901610341565b95505060206103cd88828901610341565b94505060406103de88828901610341565b93505060606103ef88828901610341565b92505060806104008882890161037d565b9150509295509295909350565b61041681610318565b82525050565b6000602082019050610431600083018461040d565b92915050565b616c08806104466000396000f3fe6080604052600436106101fd5760003560e01c80638acee3cf1161010d578063ae63df89116100a0578063d5438eae1161006f578063d5438eae1461071f578063d8f62f871461074a578063de523cf314610775578063f2fde38b146107a0578063feb0b8f5146107c957610204565b8063ae63df8914610674578063be45dbb61461069d578063bfc664f3146106c6578063cadcb471146106e257610204565b80639b4dc8cc116100dc5780639b4dc8cc146105d15780639e7b399e146105fc5780639fb16e4c14610641578063ab033ea91461064b57610204565b80638acee3cf146105275780638da5cb5b146105525780638de4d1011461057d57806393b1ad38146105a657610204565b8063609c760411610190578063715018a61161015f578063715018a61461043d57806373cce3ee14610454578063782ea619146104915780637a728e7f146104ce5780637ceb4a691461050b57610204565b8063609c76041461035157806362858bfa1461037c5780636299df6c146103b9578063649718b21461040057610204565b80632d8a340c116101cc5780632d8a340c146102b6578063357917b7146102df57806356d5d4751461030a5780635aa6e6751461032657610204565b8063051b1b86146102095780631052581414610225578063106b5da1146102625780632858c55a1461028b57610204565b3661020457005b600080fd5b610223600480360381019061021e919061428f565b6107f4565b005b34801561023157600080fd5b5061024c60048036038101906102479190614340565b610fe8565b604051610259919061438f565b60405180910390f35b34801561026e57600080fd5b50610289600480360381019061028491906143aa565b611043565b005b34801561029757600080fd5b506102a06112ec565b6040516102ad91906143f6565b60405180910390f35b3480156102c257600080fd5b506102dd60048036038101906102d891906143aa565b611302565b005b3480156102eb57600080fd5b506102f4611702565b604051610301919061438f565b60405180910390f35b610324600480360381019061031f91906145b9565b611708565b005b34801561033257600080fd5b5061033b611878565b6040516103489190614637565b60405180910390f35b34801561035d57600080fd5b5061036661189e565b604051610373919061438f565b60405180910390f35b34801561038857600080fd5b506103a3600480360381019061039e91906143aa565b6118a8565b6040516103b09190614854565b60405180910390f35b3480156103c557600080fd5b506103e060048036038101906103db91906143aa565b611b0d565b6040516103f79b9a999897969594939291906148cf565b60405180910390f35b34801561040c57600080fd5b506104276004803603810190610422919061498f565b611d0c565b6040516104349190614b6d565b60405180910390f35b34801561044957600080fd5b50610452611fef565b005b34801561046057600080fd5b5061047b60048036038101906104769190614340565b612003565b604051610488919061438f565b60405180910390f35b34801561049d57600080fd5b506104b860048036038101906104b391906143aa565b6121a3565b6040516104c59190614b9e565b60405180910390f35b3480156104da57600080fd5b506104f560048036038101906104f09190614340565b6121c3565b604051610502919061438f565b60405180910390f35b61052560048036038101906105209190614bb9565b6121e8565b005b34801561053357600080fd5b5061053c612611565b6040516105499190614c6b565b60405180910390f35b34801561055e57600080fd5b50610567612637565b6040516105749190614637565b60405180910390f35b34801561058957600080fd5b506105a4600480360381019061059f9190614d4c565b612661565b005b3480156105b257600080fd5b506105bb612c52565b6040516105c89190615015565b60405180910390f35b3480156105dd57600080fd5b506105e6612f87565b6040516105f39190614637565b60405180910390f35b34801561060857600080fd5b50610623600480360381019061061e9190614340565b612fad565b60405161063899989796959493929190615037565b60405180910390f35b6106496130ca565b005b34801561065757600080fd5b50610672600480360381019061066d919061498f565b613140565b005b34801561068057600080fd5b5061069b600480360381019061069691906150cb565b61328c565b005b3480156106a957600080fd5b506106c460048036038101906106bf91906150f8565b6132b8565b005b6106e060048036038101906106db919061498f565b613862565b005b3480156106ee57600080fd5b5061070960048036038101906107049190614340565b613c64565b60405161071691906152b3565b60405180910390f35b34801561072b57600080fd5b50610734613e40565b60405161074191906152f6565b60405180910390f35b34801561075657600080fd5b5061075f613e66565b60405161076c9190614637565b60405180910390f35b34801561078157600080fd5b5061078a613e8c565b6040516107979190615332565b60405180910390f35b3480156107ac57600080fd5b506107c760048036038101906107c2919061498f565b613eb2565b005b3480156107d557600080fd5b506107de613f38565b6040516107eb919061438f565b60405180910390f35b6107fc613f3e565b60003411610836576040517f2c5211c600000000000000000000000000000000000000000000000000000000815260040160405180910390fd5b601b81111580610848575061016e8110155b1561087f576040517f3f132b1200000000000000000000000000000000000000000000000000000000815260040160405180910390fd5b6009600084815260200190815260200160002060009054906101000a900460ff166108d6576040517fbccd404300000000000000000000000000000000000000000000000000000000815260040160405180910390fd5b6000600c60008581526020019081526020016000209050806008015483111561092b576040517fbc6072f100000000000000000000000000000000000000000000000000000000815260040160405180910390fd5b600083826007015461093d919061537c565b9050816006015481111561097d576040517fbc6072f100000000000000000000000000000000000000000000000000000000815260040160405180910390fd5b80826007018190555080826006015461099691906153b0565b8260080181905550816007015482600601546109b291906153b0565b82600801819055506000600b60003373ffffffffffffffffffffffffffffffffffffffff1673ffffffffffffffffffffffffffffffffffffffff168152602001908152602001600020600087815260200190815260200160002090506000816004015403610c74576040518061012001604052803373ffffffffffffffffffffffffffffffffffffffff1681526020018781526020018460020160009054906101000a900460ff166003811115610a6c57610a6b6146e0565b5b8152602001846001018054610a8090615413565b80601f0160208091040260200160405190810160405280929190818152602001828054610aac90615413565b8015610af95780601f10610ace57610100808354040283529160200191610af9565b820191906000526020600020905b815481529060010190602001808311610adc57829003601f168201915b50505050508152602001868152602001600081526020018581526020016201518086610b259190615444565b42610b30919061537c565b815260200160011515815250600b60003373ffffffffffffffffffffffffffffffffffffffff1673ffffffffffffffffffffffffffffffffffffffff168152602001908152602001600020600088815260200190815260200160002060008201518160000160006101000a81548173ffffffffffffffffffffffffffffffffffffffff021916908373ffffffffffffffffffffffffffffffffffffffff1602179055506020820151816001015560408201518160020160006101000a81548160ff02191690836003811115610c0857610c076146e0565b5b02179055506060820151816003019081610c229190615628565b506080820151816004015560a0820151816005015560c0820151816006015560e082015181600701556101008201518160080160006101000a81548160ff021916908315150217905550905050610d2b565b61016e848260060154610c87919061537c565b10610cc7576040517f08c379a0000000000000000000000000000000000000000000000000000000008152600401610cbe9061576c565b60405180910390fd5b84816004016000828254610cdb919061537c565b9250508190555083816006016000828254610cf6919061537c565b92505081905550620151808160060154610d109190615444565b816007016000828254610d23919061537c565b925050819055505b60008160000160009054906101000a900473ffffffffffffffffffffffffffffffffffffffff16826001015483604051602001610d6a939291906159e6565b604051602081830303815290604052604051602001610d899190615ac5565b60405160208183030381529060405290506000600460009054906101000a900473ffffffffffffffffffffffffffffffffffffffff1673ffffffffffffffffffffffffffffffffffffffff16639c42bd18600760149054906101000a900463ffffffff16610e18600760009054906101000a900473ffffffffffffffffffffffffffffffffffffffff16613f84565b856040518463ffffffff1660e01b8152600401610e3793929190615b09565b602060405180830381865afa158015610e54573d6000803e3d6000fd5b505050506040513d601f19601f82011682018060405250810190610e789190615b5c565b9050600460009054906101000a900473ffffffffffffffffffffffffffffffffffffffff1673ffffffffffffffffffffffffffffffffffffffff1663fa31de0182600760149054906101000a900463ffffffff16610ef7600760009054906101000a900473ffffffffffffffffffffffffffffffffffffffff16613f84565b866040518563ffffffff1660e01b8152600401610f1693929190615b09565b60206040518083038185885af1158015610f34573d6000803e3d6000fd5b50505050506040513d601f19601f82011682018060405250810190610f599190615b9e565b503460026000828254610f6c919061537c565b925050819055503373ffffffffffffffffffffffffffffffffffffffff167f23b0f39e0762759ffb18632a1a2b79c9eb58571454e5f7c36e0a2f81759e0a3488348860020160009054906101000a900460ff16604051610fce93929190615bcb565b60405180910390a25050505050610fe3613fa7565b505050565b6000600a60008473ffffffffffffffffffffffffffffffffffffffff1673ffffffffffffffffffffffffffffffffffffffff168152602001908152602001600020600083815260200190815260200160002054905092915050565b600660009054906101000a900473ffffffffffffffffffffffffffffffffffffffff1673ffffffffffffffffffffffffffffffffffffffff163373ffffffffffffffffffffffffffffffffffffffff16146110d3576040517f08c379a00000000000000000000000000000000000000000000000000000000081526004016110ca90615c4e565b60405180910390fd5b6110db613f3e565b6000600c600083815260200190815260200160002090506000600360009054906101000a900473ffffffffffffffffffffffffffffffffffffffff1673ffffffffffffffffffffffffffffffffffffffff1663068bcd8d83600901546040518263ffffffff1660e01b8152600401611153919061438f565b600060405180830381865afa158015611170573d6000803e3d6000fd5b505050506040513d6000823e3d601f19601f820116820180604052508101906111999190615d1f565b5050945050505050600081116111e4576040517f08c379a00000000000000000000000000000000000000000000000000000000081526004016111db90615e29565b60405180910390fd5b600082600401541161122b576040517f08c379a000000000000000000000000000000000000000000000000000000000815260040161122290615e95565b60405180910390fd5b6000670de0b6b3a76400006064670de0b6b3a764000085600401546112509190615444565b61125a9190615ee4565b836112659190615444565b61126f9190615ee4565b905080600c600086815260200190815260200160002060060181905550600c600085815260200190815260200160002060070154600c6000868152602001908152602001600020600601546112c491906153b0565b600c6000868152602001908152602001600020600801819055505050506112e9613fa7565b50565b600760149054906101000a900463ffffffff1681565b61130a613f3e565b6000600360009054906101000a900473ffffffffffffffffffffffffffffffffffffffff1673ffffffffffffffffffffffffffffffffffffffff16634e05524483336040518363ffffffff1660e01b8152600401611369929190615f15565b61012060405180830381865afa158015611387573d6000803e3d6000fd5b505050506040513d601f19601f820116820180604052508101906113ab9190616062565b9050600060018111156113c1576113c06146e0565b5b816080015160018111156113d8576113d76146e0565b5b1461140f576040517fe067835f00000000000000000000000000000000000000000000000000000000815260040160405180910390fd5b600080600a60003373ffffffffffffffffffffffffffffffffffffffff1673ffffffffffffffffffffffffffffffffffffffff16815260200190815260200160002060008581526020019081526020016000205403611474578160c0015190506114c8565b600a60003373ffffffffffffffffffffffffffffffffffffffff1673ffffffffffffffffffffffffffffffffffffffff16815260200190815260200160002060008481526020019081526020016000205490505b60004290508260e001518111156114e1578260e0015190505b600061012c83836114f291906153b0565b6114fc9190615ee4565b905060008111611538576040517fed700a6700000000000000000000000000000000000000000000000000000000815260040160405180910390fd5b600081856060015161154a9190615444565b9050600254811115611588576040517fbc6072f100000000000000000000000000000000000000000000000000000000815260040160405180910390fd5b42600a60003373ffffffffffffffffffffffffffffffffffffffff1673ffffffffffffffffffffffffffffffffffffffff16815260200190815260200160002060008881526020019081526020016000208190555060003373ffffffffffffffffffffffffffffffffffffffff1682604051611603906160c1565b60006040518083038185875af1925050503d8060008114611640576040519150601f19603f3d011682016040523d82523d6000602084013e611645565b606091505b5050905080611689576040517f08c379a000000000000000000000000000000000000000000000000000000000815260040161168090616122565b60405180910390fd5b816002600082825461169b91906153b0565b92505081905550863373ffffffffffffffffffffffffffffffffffffffff167f0408e6e0b73daf4c873106e95fd067260fbff8bf9d1b499cad563d4480d45bac846040516116e9919061438f565b60405180910390a35050505050506116ff613fa7565b50565b60025481565b600460009054906101000a900473ffffffffffffffffffffffffffffffffffffffff1673ffffffffffffffffffffffffffffffffffffffff163373ffffffffffffffffffffffffffffffffffffffff1614611798576040517f08c379a000000000000000000000000000000000000000000000000000000000815260040161178f9061618e565b60405180910390fd5b600080828060200190518101906117af919061621e565b915091506040516020016117c2906162ed565b60405160208183030381529060405280519060200120826040516020016117e99190616333565b60405160208183030381529060405280519060200120036118325760008060008380602001905181019061181d9190616388565b92509250925061182e8383836121e8565b5050505b838563ffffffff167fba67744c899113a84f615d51af5d82f5fedcf26c9a474d9363c3ad9b0bd501ac8560405161186991906163db565b60405180910390a35050505050565b600760009054906101000a900473ffffffffffffffffffffffffffffffffffffffff1681565b6000600254905090565b6118b0614106565b600c600083815260200190815260200160002060405180610160016040529081600082015481526020016001820180546118e990615413565b80601f016020809104026020016040519081016040528092919081815260200182805461191590615413565b80156119625780601f1061193757610100808354040283529160200191611962565b820191906000526020600020905b81548152906001019060200180831161194557829003601f168201915b505050505081526020016002820160009054906101000a900460ff1660038111156119905761198f6146e0565b5b60038111156119a2576119a16146e0565b5b81526020016003820180546119b690615413565b80601f01602080910402602001604051908101604052809291908181526020018280546119e290615413565b8015611a2f5780601f10611a0457610100808354040283529160200191611a2f565b820191906000526020600020905b815481529060010190602001808311611a1257829003601f168201915b50505050508152602001600482015481526020016005820154815260200160068201548152602001600782015481526020016008820154815260200160098201548152602001600a82018054611a8490615413565b80601f0160208091040260200160405190810160405280929190818152602001828054611ab090615413565b8015611afd5780601f10611ad257610100808354040283529160200191611afd565b820191906000526020600020905b815481529060010190602001808311611ae057829003601f168201915b5050505050815250509050919050565b600c602052806000526040600020600091509050806000015490806001018054611b3690615413565b80601f0160208091040260200160405190810160405280929190818152602001828054611b6290615413565b8015611baf5780601f10611b8457610100808354040283529160200191611baf565b820191906000526020600020905b815481529060010190602001808311611b9257829003601f168201915b5050505050908060020160009054906101000a900460ff1690806003018054611bd790615413565b80601f0160208091040260200160405190810160405280929190818152602001828054611c0390615413565b8015611c505780601f10611c2557610100808354040283529160200191611c50565b820191906000526020600020905b815481529060010190602001808311611c3357829003601f168201915b50505050509080600401549080600501549080600601549080600701549080600801549080600901549080600a018054611c8990615413565b80601f0160208091040260200160405190810160405280929190818152602001828054611cb590615413565b8015611d025780601f10611cd757610100808354040283529160200191611d02565b820191906000526020600020905b815481529060010190602001808311611ce557829003601f168201915b505050505090508b565b60606000600d5467ffffffffffffffff811115611d2c57611d2b61448e565b5b604051908082528060200260200182016040528015611d6557816020015b611d52614172565b815260200190600190039081611d4a5790505b509050600080600190505b600d548111611fe1576000600b60008773ffffffffffffffffffffffffffffffffffffffff1673ffffffffffffffffffffffffffffffffffffffff1681526020019081526020016000206000838152602001908152602001600020600401541115611fce57600b60008673ffffffffffffffffffffffffffffffffffffffff1673ffffffffffffffffffffffffffffffffffffffff1681526020019081526020016000206000828152602001908152602001600020604051806101200160405290816000820160009054906101000a900473ffffffffffffffffffffffffffffffffffffffff1673ffffffffffffffffffffffffffffffffffffffff1673ffffffffffffffffffffffffffffffffffffffff168152602001600182015481526020016002820160009054906101000a900460ff166003811115611eb657611eb56146e0565b5b6003811115611ec857611ec76146e0565b5b8152602001600382018054611edc90615413565b80601f0160208091040260200160405190810160405280929190818152602001828054611f0890615413565b8015611f555780601f10611f2a57610100808354040283529160200191611f55565b820191906000526020600020905b815481529060010190602001808311611f3857829003601f168201915b50505050508152602001600482015481526020016005820154815260200160068201548152602001600782015481526020016008820160009054906101000a900460ff161515151581525050838381518110611fb457611fb36163fd565b5b60200260200101819052508180611fca9061642c565b9250505b8080611fd99061642c565b915050611d70565b508082528192505050919050565b611ff7613fb1565b6120016000614038565b565b600080600360009054906101000a900473ffffffffffffffffffffffffffffffffffffffff1673ffffffffffffffffffffffffffffffffffffffff16634e05524484866040518363ffffffff1660e01b8152600401612063929190615f15565b61012060405180830381865afa158015612081573d6000803e3d6000fd5b505050506040513d601f19601f820116820180604052508101906120a59190616062565b9050600080600a60008773ffffffffffffffffffffffffffffffffffffffff1673ffffffffffffffffffffffffffffffffffffffff1681526020019081526020016000206000868152602001908152602001600020540361210c578160c001519050612160565b600a60008673ffffffffffffffffffffffffffffffffffffffff1673ffffffffffffffffffffffffffffffffffffffff16815260200190815260200160002060008581526020019081526020016000205490505b60004290508260e00151811115612179578260e0015190505b600061012c838361218a91906153b0565b6121949190615ee4565b90508094505050505092915050565b60096020528060005260406000206000915054906101000a900460ff1681565b600a602052816000526040600020602052806000526040600020600091509150505481565b600560009054906101000a900473ffffffffffffffffffffffffffffffffffffffff1673ffffffffffffffffffffffffffffffffffffffff163373ffffffffffffffffffffffffffffffffffffffff1614806122915750600760009054906101000a900473ffffffffffffffffffffffffffffffffffffffff1673ffffffffffffffffffffffffffffffffffffffff163373ffffffffffffffffffffffffffffffffffffffff16145b6122d0576040517f08c379a00000000000000000000000000000000000000000000000000000000081526004016122c790615c4e565b60405180910390fd5b6122d8613f3e565b80600b60008573ffffffffffffffffffffffffffffffffffffffff1673ffffffffffffffffffffffffffffffffffffffff1681526020019081526020016000206000848152602001908152602001600020600401600082825461233b91906153b0565b9250508190555080600b60008573ffffffffffffffffffffffffffffffffffffffff1673ffffffffffffffffffffffffffffffffffffffff168152602001908152602001600020600084815260200190815260200160002060050160008282546123a5919061537c565b9250508190555060008383600b60008773ffffffffffffffffffffffffffffffffffffffff1673ffffffffffffffffffffffffffffffffffffffff168152602001908152602001600020600086815260200190815260200160002060405160200161241293929190616591565b6040516020818303038152906040526040516020016124319190615ac5565b60405160208183030381529060405290506000600460009054906101000a900473ffffffffffffffffffffffffffffffffffffffff1673ffffffffffffffffffffffffffffffffffffffff16639c42bd18600760149054906101000a900463ffffffff166124c0600760009054906101000a900473ffffffffffffffffffffffffffffffffffffffff16613f84565b856040518463ffffffff1660e01b81526004016124df93929190615b09565b602060405180830381865afa1580156124fc573d6000803e3d6000fd5b505050506040513d601f19601f820116820180604052508101906125209190615b5c565b9050600460009054906101000a900473ffffffffffffffffffffffffffffffffffffffff1673ffffffffffffffffffffffffffffffffffffffff1663fa31de0182600760149054906101000a900463ffffffff1661259f600760009054906101000a900473ffffffffffffffffffffffffffffffffffffffff16613f84565b866040518563ffffffff1660e01b81526004016125be93929190615b09565b60206040518083038185885af11580156125dc573d6000803e3d6000fd5b50505050506040513d601f19601f820116820180604052508101906126019190615b9e565b50505061260c613fa7565b505050565b600360009054906101000a900473ffffffffffffffffffffffffffffffffffffffff1681565b6000600160009054906101000a900473ffffffffffffffffffffffffffffffffffffffff16905090565b612669613fb1565b6000806000600360009054906101000a900473ffffffffffffffffffffffffffffffffffffffff1673ffffffffffffffffffffffffffffffffffffffff1663068bcd8d856040518263ffffffff1660e01b81526004016126c9919061438f565b600060405180830381865afa1580156126e6573d6000803e3d6000fd5b505050506040513d6000823e3d601f19601f8201168201806040525081019061270f9190615d1f565b9650509550505093505088600381111561272c5761272b6146e0565b5b83600381111561273f5761273e6146e0565b5b14158061274b57508086115b15612782576040517fd3c913ea00000000000000000000000000000000000000000000000000000000815260040160405180910390fd5b6000600c60008d815260200190815260200160002090506000670de0b6b3a76400006064670de0b6b3a76400008a6127ba9190615444565b6127c49190615ee4565b856127cf9190615444565b6127d99190615ee4565b90508082600701541115612819576040517fd3c913ea00000000000000000000000000000000000000000000000000000000815260040160405180910390fd5b6000600360009054906101000a900473ffffffffffffffffffffffffffffffffffffffff1673ffffffffffffffffffffffffffffffffffffffff16637eb111f0886040518263ffffffff1660e01b8152600401612876919061438f565b600060405180830381865afa158015612893573d6000803e3d6000fd5b505050506040513d6000823e3d601f19601f820116820180604052508101906128bc9190616815565b905060005b81518110156129a5578d6040516020016128db9190616333565b60405160208183030381529060405280519060200120828281518110612904576129036163fd565b5b6020026020010151602001516040516020016129209190616333565b6040516020818303038152906040528051906020012014801561296157508e828281518110612952576129516163fd565b5b60200260200101516000015114155b15612998576040517fd202940c00000000000000000000000000000000000000000000000000000000815260040160405180910390fd5b80806001019150506128c1565b506000836004015490508d8460010190816129c09190615628565b508a8460030190816129d29190615628565b508984600401819055508884600501819055508b84600a0190816129f69190615628565b50828460060181905550878460090181905550836007015483612a1991906153b0565b846008018190555089811115612ace5760008a82612a3791906153b0565b9050600360009054906101000a900473ffffffffffffffffffffffffffffffffffffffff1673ffffffffffffffffffffffffffffffffffffffff16639fd36b158a836040518363ffffffff1660e01b8152600401612a9692919061685e565b600060405180830381600087803b158015612ab057600080fd5b505af1158015612ac4573d6000803e3d6000fd5b5050505050612b78565b89811015612b77576000818b612ae491906153b0565b9050600360009054906101000a900473ffffffffffffffffffffffffffffffffffffffff1673ffffffffffffffffffffffffffffffffffffffff1663a4948d858a836040518363ffffffff1660e01b8152600401612b4392919061685e565b600060405180830381600087803b158015612b5d57600080fd5b505af1158015612b71573d6000803e3d6000fd5b50505050505b5b600360009054906101000a900473ffffffffffffffffffffffffffffffffffffffff1673ffffffffffffffffffffffffffffffffffffffff1663a14764d089866040518363ffffffff1660e01b8152600401612bd59291906169d8565b600060405180830381600087803b158015612bef57600080fd5b505af1158015612c03573d6000803e3d6000fd5b505050508e7f758a67328ba53c1867c0272bbd2ca10d6fe71d37120188c523fe7ae7bdbbe4698f8f604051612c39929190616a08565b60405180910390a2505050505050505050505050505050565b60606000600d5467ffffffffffffffff811115612c7257612c7161448e565b5b604051908082528060200260200182016040528015612cab57816020015b612c98614106565b815260200190600190039081612c905790505b509050600080600190505b600d548111612f7b576009600082815260200190815260200160002060009054906101000a900460ff1615612f6857600c60008281526020019081526020016000206040518061016001604052908160008201548152602001600182018054612d1e90615413565b80601f0160208091040260200160405190810160405280929190818152602001828054612d4a90615413565b8015612d975780601f10612d6c57610100808354040283529160200191612d97565b820191906000526020600020905b815481529060010190602001808311612d7a57829003601f168201915b505050505081526020016002820160009054906101000a900460ff166003811115612dc557612dc46146e0565b5b6003811115612dd757612dd66146e0565b5b8152602001600382018054612deb90615413565b80601f0160208091040260200160405190810160405280929190818152602001828054612e1790615413565b8015612e645780601f10612e3957610100808354040283529160200191612e64565b820191906000526020600020905b815481529060010190602001808311612e4757829003601f168201915b50505050508152602001600482015481526020016005820154815260200160068201548152602001600782015481526020016008820154815260200160098201548152602001600a82018054612eb990615413565b80601f0160208091040260200160405190810160405280929190818152602001828054612ee590615413565b8015612f325780601f10612f0757610100808354040283529160200191612f32565b820191906000526020600020905b815481529060010190602001808311612f1557829003601f168201915b505050505081525050838381518110612f4e57612f4d6163fd565b5b60200260200101819052508180612f649061642c565b9250505b8080612f739061642c565b915050612cb6565b50808252819250505090565b600660009054906101000a900473ffffffffffffffffffffffffffffffffffffffff1681565b600b602052816000526040600020602052806000526040600020600091509150508060000160009054906101000a900473ffffffffffffffffffffffffffffffffffffffff16908060010154908060020160009054906101000a900460ff169080600301805461301c90615413565b80601f016020809104026020016040519081016040528092919081815260200182805461304890615413565b80156130955780601f1061306a57610100808354040283529160200191613095565b820191906000526020600020905b81548152906001019060200180831161307857829003601f168201915b5050505050908060040154908060050154908060060154908060070154908060080160009054906101000a900460ff16905089565b6130d2613fb1565b6130da613f3e565b6000341161311d576040517f08c379a000000000000000000000000000000000000000000000000000000000815260040161311490616a84565b60405180910390fd5b346002600082825461312f919061537c565b9250508190555061313e613fa7565b565b613148613fb1565b600073ffffffffffffffffffffffffffffffffffffffff16600760009054906101000a900473ffffffffffffffffffffffffffffffffffffffff1673ffffffffffffffffffffffffffffffffffffffff16146131d9576040517f08c379a00000000000000000000000000000000000000000000000000000000081526004016131d090616af0565b60405180910390fd5b600073ffffffffffffffffffffffffffffffffffffffff168173ffffffffffffffffffffffffffffffffffffffff1603613248576040517f08c379a000000000000000000000000000000000000000000000000000000000815260040161323f90616b82565b60405180910390fd5b80600760006101000a81548173ffffffffffffffffffffffffffffffffffffffff021916908373ffffffffffffffffffffffffffffffffffffffff16021790555050565b613294613fb1565b80600760146101000a81548163ffffffff021916908363ffffffff16021790555050565b6132c0613fb1565b6000600360009054906101000a900473ffffffffffffffffffffffffffffffffffffffff1673ffffffffffffffffffffffffffffffffffffffff16637eb111f0836040518263ffffffff1660e01b815260040161331d919061438f565b600060405180830381865afa15801561333a573d6000803e3d6000fd5b505050506040513d6000823e3d601f19601f820116820180604052508101906133639190616815565b905060005b815181101561342157866040516020016133829190616333565b604051602081830303815290604052805190602001208282815181106133ab576133aa6163fd565b5b6020026020010151602001516040516020016133c79190616333565b6040516020818303038152906040528051906020012003613414576040517fd202940c00000000000000000000000000000000000000000000000000000000815260040160405180910390fd5b8080600101915050613368565b506000806000600360009054906101000a900473ffffffffffffffffffffffffffffffffffffffff1673ffffffffffffffffffffffffffffffffffffffff1663068bcd8d866040518263ffffffff1660e01b8152600401613482919061438f565b600060405180830381865afa15801561349f573d6000803e3d6000fd5b505050506040513d6000823e3d601f19601f820116820180604052508101906134c89190615d1f565b965050955050509350508960038111156134e5576134e46146e0565b5b8360038111156134f8576134f76146e0565b5b14158061350457508087115b1561353b576040517fd3c913ea00000000000000000000000000000000000000000000000000000000815260040160405180910390fd5b6000670de0b6b3a76400006064670de0b6b3a76400008a61355c9190615444565b6135669190615ee4565b846135719190615444565b61357b9190615ee4565b9050600360009054906101000a900473ffffffffffffffffffffffffffffffffffffffff1673ffffffffffffffffffffffffffffffffffffffff1663a4948d85878a6040518363ffffffff1660e01b81526004016135da92919061685e565b600060405180830381600087803b1580156135f457600080fd5b505af1158015613608573d6000803e3d6000fd5b50505050600d600081548092919061361f9061642c565b91905055506000604051806101600160405280600d5481526020018c81526020018d6003811115613653576136526146e0565b5b81526020018b81526020018a8152602001898152602001838152602001600081526020018381526020018881526020018e815250905080600c6000600d5481526020019081526020016000206000820151816000015560208201518160010190816136be9190615628565b5060408201518160020160006101000a81548160ff021916908360038111156136ea576136e96146e0565b5b021790555060608201518160030190816137049190615628565b506080820151816004015560a0820151816005015560c0820151816006015560e082015181600701556101008201518160080155610120820151816009015561014082015181600a0190816137599190615628565b50905050600360009054906101000a900473ffffffffffffffffffffffffffffffffffffffff1673ffffffffffffffffffffffffffffffffffffffff1663c7aa987488836040518363ffffffff1660e01b81526004016137ba929190616ba2565b600060405180830381600087803b1580156137d457600080fd5b505af11580156137e8573d6000803e3d6000fd5b50505050600160096000600d54815260200190815260200160002060006101000a81548160ff0219169083151502179055507f036ea185d659d311308d48f377a57d1954df7161b963d5d0c9054f87c438b0298b8d60405161384b929190616a08565b60405180910390a150505050505050505050505050565b61386a613f3e565b6000600190505b600d548111613c58576000600b60008473ffffffffffffffffffffffffffffffffffffffff1673ffffffffffffffffffffffffffffffffffffffff168152602001908152602001600020600083815260200190815260200160002090508060080160009054906101000a900460ff1680156138ef5750806007015442115b156139ec5760008160080160006101000a81548160ff021916908315150217905550600b60008473ffffffffffffffffffffffffffffffffffffffff1673ffffffffffffffffffffffffffffffffffffffff1681526020019081526020016000206000838152602001908152602001600020600080820160006101000a81549073ffffffffffffffffffffffffffffffffffffffff021916905560018201600090556002820160006101000a81549060ff02191690556003820160006139b591906141e8565b60048201600090556005820160009055600682016000905560078201600090556008820160006101000a81549060ff021916905550505b60008383600b60008773ffffffffffffffffffffffffffffffffffffffff1673ffffffffffffffffffffffffffffffffffffffff1681526020019081526020016000206000868152602001908152602001600020604051602001613a5293929190616591565b604051602081830303815290604052604051602001613a719190615ac5565b60405160208183030381529060405290506000600460009054906101000a900473ffffffffffffffffffffffffffffffffffffffff1673ffffffffffffffffffffffffffffffffffffffff16639c42bd18600760149054906101000a900463ffffffff16613b00600760009054906101000a900473ffffffffffffffffffffffffffffffffffffffff16613f84565b856040518463ffffffff1660e01b8152600401613b1f93929190615b09565b602060405180830381865afa158015613b3c573d6000803e3d6000fd5b505050506040513d601f19601f82011682018060405250810190613b609190615b5c565b9050600460009054906101000a900473ffffffffffffffffffffffffffffffffffffffff1673ffffffffffffffffffffffffffffffffffffffff1663fa31de0182600760149054906101000a900463ffffffff16613bdf600760009054906101000a900473ffffffffffffffffffffffffffffffffffffffff16613f84565b866040518563ffffffff1660e01b8152600401613bfe93929190615b09565b60206040518083038185885af1158015613c1c573d6000803e3d6000fd5b50505050506040513d601f19601f82011682018060405250810190613c419190615b9e565b505050508080613c509061642c565b915050613871565b50613c61613fa7565b50565b613c6c614172565b600b60008473ffffffffffffffffffffffffffffffffffffffff1673ffffffffffffffffffffffffffffffffffffffff1681526020019081526020016000206000838152602001908152602001600020604051806101200160405290816000820160009054906101000a900473ffffffffffffffffffffffffffffffffffffffff1673ffffffffffffffffffffffffffffffffffffffff1673ffffffffffffffffffffffffffffffffffffffff168152602001600182015481526020016002820160009054906101000a900460ff166003811115613d4d57613d4c6146e0565b5b6003811115613d5f57613d5e6146e0565b5b8152602001600382018054613d7390615413565b80601f0160208091040260200160405190810160405280929190818152602001828054613d9f90615413565b8015613dec5780601f10613dc157610100808354040283529160200191613dec565b820191906000526020600020905b815481529060010190602001808311613dcf57829003601f168201915b50505050508152602001600482015481526020016005820154815260200160068201548152602001600782015481526020016008820160009054906101000a900460ff161515151581525050905092915050565b600460009054906101000a900473ffffffffffffffffffffffffffffffffffffffff1681565b600560009054906101000a900473ffffffffffffffffffffffffffffffffffffffff1681565b600860009054906101000a900473ffffffffffffffffffffffffffffffffffffffff1681565b613eba613fb1565b600073ffffffffffffffffffffffffffffffffffffffff168173ffffffffffffffffffffffffffffffffffffffff1603613f2c5760006040517f1e4fbdf7000000000000000000000000000000000000000000000000000000008152600401613f239190614637565b60405180910390fd5b613f3581614038565b50565b600d5481565b600260005403613f7a576040517f3ee5aeb500000000000000000000000000000000000000000000000000000000815260040160405180910390fd5b6002600081905550565b60008173ffffffffffffffffffffffffffffffffffffffff1660001b9050919050565b6001600081905550565b613fb96140fe565b73ffffffffffffffffffffffffffffffffffffffff16613fd7612637565b73ffffffffffffffffffffffffffffffffffffffff161461403657613ffa6140fe565b6040517f118cdaa700000000000000000000000000000000000000000000000000000000815260040161402d9190614637565b60405180910390fd5b565b6000600160009054906101000a900473ffffffffffffffffffffffffffffffffffffffff16905081600160006101000a81548173ffffffffffffffffffffffffffffffffffffffff021916908373ffffffffffffffffffffffffffffffffffffffff1602179055508173ffffffffffffffffffffffffffffffffffffffff168173ffffffffffffffffffffffffffffffffffffffff167f8be0079c531659141344cd1fd0a4f28419497f9722a3daafe3b4186f6b6457e060405160405180910390a35050565b600033905090565b604051806101600160405280600081526020016060815260200160006003811115614134576141336146e0565b5b815260200160608152602001600081526020016000815260200160008152602001600081526020016000815260200160008152602001606081525090565b604051806101200160405280600073ffffffffffffffffffffffffffffffffffffffff16815260200160008152602001600060038111156141b6576141b56146e0565b5b815260200160608152602001600081526020016000815260200160008152602001600081526020016000151581525090565b5080546141f490615413565b6000825580601f106142065750614225565b601f0160209004906000526020600020908101906142249190614228565b5b50565b5b80821115614241576000816000905550600101614229565b5090565b6000604051905090565b600080fd5b600080fd5b6000819050919050565b61426c81614259565b811461427757600080fd5b50565b60008135905061428981614263565b92915050565b6000806000606084860312156142a8576142a761424f565b5b60006142b68682870161427a565b93505060206142c78682870161427a565b92505060406142d88682870161427a565b9150509250925092565b600073ffffffffffffffffffffffffffffffffffffffff82169050919050565b600061430d826142e2565b9050919050565b61431d81614302565b811461432857600080fd5b50565b60008135905061433a81614314565b92915050565b600080604083850312156143575761435661424f565b5b60006143658582860161432b565b92505060206143768582860161427a565b9150509250929050565b61438981614259565b82525050565b60006020820190506143a46000830184614380565b92915050565b6000602082840312156143c0576143bf61424f565b5b60006143ce8482850161427a565b91505092915050565b600063ffffffff82169050919050565b6143f0816143d7565b82525050565b600060208201905061440b60008301846143e7565b92915050565b61441a816143d7565b811461442557600080fd5b50565b60008135905061443781614411565b92915050565b6000819050919050565b6144508161443d565b811461445b57600080fd5b50565b60008135905061446d81614447565b92915050565b600080fd5b600080fd5b6000601f19601f8301169050919050565b7f4e487b7100000000000000000000000000000000000000000000000000000000600052604160045260246000fd5b6144c68261447d565b810181811067ffffffffffffffff821117156144e5576144e461448e565b5b80604052505050565b60006144f8614245565b905061450482826144bd565b919050565b600067ffffffffffffffff8211156145245761452361448e565b5b61452d8261447d565b9050602081019050919050565b82818337600083830152505050565b600061455c61455784614509565b6144ee565b90508281526020810184848401111561457857614577614478565b5b61458384828561453a565b509392505050565b600082601f8301126145a05761459f614473565b5b81356145b0848260208601614549565b91505092915050565b6000806000606084860312156145d2576145d161424f565b5b60006145e086828701614428565b93505060206145f18682870161445e565b925050604084013567ffffffffffffffff81111561461257614611614254565b5b61461e8682870161458b565b9150509250925092565b61463181614302565b82525050565b600060208201905061464c6000830184614628565b92915050565b61465b81614259565b82525050565b600081519050919050565b600082825260208201905092915050565b60005b8381101561469b578082015181840152602081019050614680565b60008484015250505050565b60006146b282614661565b6146bc818561466c565b93506146cc81856020860161467d565b6146d58161447d565b840191505092915050565b7f4e487b7100000000000000000000000000000000000000000000000000000000600052602160045260246000fd5b600481106147205761471f6146e0565b5b50565b60008190506147318261470f565b919050565b600061474182614723565b9050919050565b61475181614736565b82525050565b6000610160830160008301516147706000860182614652565b506020830151848203602086015261478882826146a7565b915050604083015161479d6040860182614748565b50606083015184820360608601526147b582826146a7565b91505060808301516147ca6080860182614652565b5060a08301516147dd60a0860182614652565b5060c08301516147f060c0860182614652565b5060e083015161480360e0860182614652565b50610100830151614818610100860182614652565b5061012083015161482d610120860182614652565b5061014083015184820361014086015261484782826146a7565b9150508091505092915050565b6000602082019050818103600083015261486e8184614757565b905092915050565b600082825260208201905092915050565b600061489282614661565b61489c8185614876565b93506148ac81856020860161467d565b6148b58161447d565b840191505092915050565b6148c981614736565b82525050565b6000610160820190506148e5600083018e614380565b81810360208301526148f7818d614887565b9050614906604083018c6148c0565b8181036060830152614918818b614887565b9050614927608083018a614380565b61493460a0830189614380565b61494160c0830188614380565b61494e60e0830187614380565b61495c610100830186614380565b61496a610120830185614380565b81810361014083015261497d8184614887565b90509c9b505050505050505050505050565b6000602082840312156149a5576149a461424f565b5b60006149b38482850161432b565b91505092915050565b600081519050919050565b600082825260208201905092915050565b6000819050602082019050919050565b6149f181614302565b82525050565b60008115159050919050565b614a0c816149f7565b82525050565b600061012083016000830151614a2b60008601826149e8565b506020830151614a3e6020860182614652565b506040830151614a516040860182614748565b5060608301518482036060860152614a6982826146a7565b9150506080830151614a7e6080860182614652565b5060a0830151614a9160a0860182614652565b5060c0830151614aa460c0860182614652565b5060e0830151614ab760e0860182614652565b50610100830151614acc610100860182614a03565b508091505092915050565b6000614ae38383614a12565b905092915050565b6000602082019050919050565b6000614b03826149bc565b614b0d81856149c7565b935083602082028501614b1f856149d8565b8060005b85811015614b5b5784840389528151614b3c8582614ad7565b9450614b4783614aeb565b925060208a01995050600181019050614b23565b50829750879550505050505092915050565b60006020820190508181036000830152614b878184614af8565b905092915050565b614b98816149f7565b82525050565b6000602082019050614bb36000830184614b8f565b92915050565b600080600060608486031215614bd257614bd161424f565b5b6000614be08682870161432b565b9350506020614bf18682870161427a565b9250506040614c028682870161427a565b9150509250925092565b6000819050919050565b6000614c31614c2c614c27846142e2565b614c0c565b6142e2565b9050919050565b6000614c4382614c16565b9050919050565b6000614c5582614c38565b9050919050565b614c6581614c4a565b82525050565b6000602082019050614c806000830184614c5c565b92915050565b600067ffffffffffffffff821115614ca157614ca061448e565b5b614caa8261447d565b9050602081019050919050565b6000614cca614cc584614c86565b6144ee565b905082815260208101848484011115614ce657614ce5614478565b5b614cf184828561453a565b509392505050565b600082601f830112614d0e57614d0d614473565b5b8135614d1e848260208601614cb7565b91505092915050565b60048110614d3457600080fd5b50565b600081359050614d4681614d27565b92915050565b600080600080600080600080610100898b031215614d6d57614d6c61424f565b5b6000614d7b8b828c0161427a565b985050602089013567ffffffffffffffff811115614d9c57614d9b614254565b5b614da88b828c01614cf9565b9750506040614db98b828c01614d37565b965050606089013567ffffffffffffffff811115614dda57614dd9614254565b5b614de68b828c01614cf9565b955050608089013567ffffffffffffffff811115614e0757614e06614254565b5b614e138b828c01614cf9565b94505060a0614e248b828c0161427a565b93505060c0614e358b828c0161427a565b92505060e0614e468b828c0161427a565b9150509295985092959890939650565b600081519050919050565b600082825260208201905092915050565b6000819050602082019050919050565b600061016083016000830151614e9b6000860182614652565b5060208301518482036020860152614eb382826146a7565b9150506040830151614ec86040860182614748565b5060608301518482036060860152614ee082826146a7565b9150506080830151614ef56080860182614652565b5060a0830151614f0860a0860182614652565b5060c0830151614f1b60c0860182614652565b5060e0830151614f2e60e0860182614652565b50610100830151614f43610100860182614652565b50610120830151614f58610120860182614652565b50610140830151848203610140860152614f7282826146a7565b9150508091505092915050565b6000614f8b8383614e82565b905092915050565b6000602082019050919050565b6000614fab82614e56565b614fb58185614e61565b935083602082028501614fc785614e72565b8060005b858110156150035784840389528151614fe48582614f7f565b9450614fef83614f93565b925060208a01995050600181019050614fcb565b50829750879550505050505092915050565b6000602082019050818103600083015261502f8184614fa0565b905092915050565b60006101208201905061504d600083018c614628565b61505a602083018b614380565b615067604083018a6148c0565b81810360608301526150798189614887565b90506150886080830188614380565b61509560a0830187614380565b6150a260c0830186614380565b6150af60e0830185614380565b6150bd610100830184614b8f565b9a9950505050505050505050565b6000602082840312156150e1576150e061424f565b5b60006150ef84828501614428565b91505092915050565b600080600080600080600060e0888a0312156151175761511661424f565b5b600088013567ffffffffffffffff81111561513557615134614254565b5b6151418a828b01614cf9565b97505060206151528a828b01614d37565b965050604088013567ffffffffffffffff81111561517357615172614254565b5b61517f8a828b01614cf9565b955050606088013567ffffffffffffffff8111156151a05761519f614254565b5b6151ac8a828b01614cf9565b94505060806151bd8a828b0161427a565b93505060a06151ce8a828b0161427a565b92505060c06151df8a828b0161427a565b91505092959891949750929550565b60006101208301600083015161520760008601826149e8565b50602083015161521a6020860182614652565b50604083015161522d6040860182614748565b506060830151848203606086015261524582826146a7565b915050608083015161525a6080860182614652565b5060a083015161526d60a0860182614652565b5060c083015161528060c0860182614652565b5060e083015161529360e0860182614652565b506101008301516152a8610100860182614a03565b508091505092915050565b600060208201905081810360008301526152cd81846151ee565b905092915050565b60006152e082614c38565b9050919050565b6152f0816152d5565b82525050565b600060208201905061530b60008301846152e7565b92915050565b600061531c82614c38565b9050919050565b61532c81615311565b82525050565b60006020820190506153476000830184615323565b92915050565b7f4e487b7100000000000000000000000000000000000000000000000000000000600052601160045260246000fd5b600061538782614259565b915061539283614259565b92508282019050808211156153aa576153a961534d565b5b92915050565b60006153bb82614259565b91506153c683614259565b92508282039050818111156153de576153dd61534d565b5b92915050565b7f4e487b7100000000000000000000000000000000000000000000000000000000600052602260045260246000fd5b6000600282049050600182168061542b57607f821691505b60208210810361543e5761543d6153e4565b5b50919050565b600061544f82614259565b915061545a83614259565b925082820261546881614259565b9150828204841483151761547f5761547e61534d565b5b5092915050565b60008190508160005260206000209050919050565b60006020601f8301049050919050565b600082821b905092915050565b6000600883026154e87fffffffffffffffffffffffffffffffffffffffffffffffffffffffffffffffff826154ab565b6154f286836154ab565b95508019841693508086168417925050509392505050565b600061552561552061551b84614259565b614c0c565b614259565b9050919050565b6000819050919050565b61553f8361550a565b61555361554b8261552c565b8484546154b8565b825550505050565b600090565b61556861555b565b615573818484615536565b505050565b5b818110156155975761558c600082615560565b600181019050615579565b5050565b601f8211156155dc576155ad81615486565b6155b68461549b565b810160208510156155c5578190505b6155d96155d18561549b565b830182615578565b50505b505050565b600082821c905092915050565b60006155ff600019846008026155e1565b1980831691505092915050565b600061561883836155ee565b9150826002028217905092915050565b61563182614661565b67ffffffffffffffff81111561564a5761564961448e565b5b6156548254615413565b61565f82828561559b565b600060209050601f8311600181146156925760008415615680578287015190505b61568a858261560c565b8655506156f2565b601f1984166156a086615486565b60005b828110156156c8578489015182556001820191506020850194506020810190506156a3565b868310156156e557848901516156e1601f8916826155ee565b8355505b6001600288020188555050505b505050505050565b7f546f74616c20636f76657220706572696f64206d757374206265206c6573732060008201527f7468616e20333635000000000000000000000000000000000000000000000000602082015250565b6000615756602883614876565b9150615761826156fa565b604082019050919050565b6000602082019050818103600083015261578581615749565b9050919050565b60008160001c9050919050565b600073ffffffffffffffffffffffffffffffffffffffff82169050919050565b60006157cc6157c78361578c565b615799565b9050919050565b6000819050919050565b60006157f06157eb8361578c565b6157d3565b9050919050565b600060ff82169050919050565b60006158176158128361578c565b6157f7565b9050919050565b6000815461582b81615413565b615835818661466c565b94506001821660008114615850576001811461586657615899565b60ff198316865281151560200286019350615899565b61586f85615486565b60005b8381101561589157815481890152600182019150602081019050615872565b808801955050505b50505092915050565b600060ff82169050919050565b60006158c26158bd8361578c565b6158a2565b9050919050565b6000610120830160008084015490506158e1816157b9565b6158ee60008701826149e8565b50600184015490506158ff816157dd565b61590c6020870182614652565b506002840154905061591d81615804565b61592a6040870182614748565b50600384018583036060870152615941838261581e565b92505060048401549050615954816157dd565b6159616080870182614652565b5060058401549050615972816157dd565b61597f60a0870182614652565b5060068401549050615990816157dd565b61599d60c0870182614652565b50600784015490506159ae816157dd565b6159bb60e0870182614652565b50600884015490506159cc816158af565b6159da610100870182614a03565b50819250505092915050565b60006060820190506159fb6000830186614628565b615a086020830185614380565b8181036040830152615a1a81846158c9565b9050949350505050565b7f55736572436f7665720000000000000000000000000000000000000000000000600082015250565b6000615a5a600983614876565b9150615a6582615a24565b602082019050919050565b600081519050919050565b600082825260208201905092915050565b6000615a9782615a70565b615aa18185615a7b565b9350615ab181856020860161467d565b615aba8161447d565b840191505092915050565b60006040820190508181036000830152615ade81615a4d565b90508181036020830152615af28184615a8c565b905092915050565b615b038161443d565b82525050565b6000606082019050615b1e60008301866143e7565b615b2b6020830185615afa565b8181036040830152615b3d8184615a8c565b9050949350505050565b600081519050615b5681614263565b92915050565b600060208284031215615b7257615b7161424f565b5b6000615b8084828501615b47565b91505092915050565b600081519050615b9881614447565b92915050565b600060208284031215615bb457615bb361424f565b5b6000615bc284828501615b89565b91505092915050565b6000606082019050615be06000830186614380565b615bed6020830185614380565b615bfa60408301846148c0565b949350505050565b7f4e6f7420617574686f72697a6564000000000000000000000000000000000000600082015250565b6000615c38600e83614876565b9150615c4382615c02565b602082019050919050565b60006020820190508181036000830152615c6781615c2b565b9050919050565b6000615c81615c7c84614c86565b6144ee565b905082815260208101848484011115615c9d57615c9c614478565b5b615ca884828561467d565b509392505050565b600082601f830112615cc557615cc4614473565b5b8151615cd5848260208601615c6e565b91505092915050565b600081519050615ced81614d27565b92915050565b615cfc816149f7565b8114615d0757600080fd5b50565b600081519050615d1981615cf3565b92915050565b600080600080600080600060e0888a031215615d3e57615d3d61424f565b5b600088015167ffffffffffffffff811115615d5c57615d5b614254565b5b615d688a828b01615cb0565b9750506020615d798a828b01615cde565b9650506040615d8a8a828b01615b47565b9550506060615d9b8a828b01615b47565b9450506080615dac8a828b01615b47565b93505060a0615dbd8a828b01615d0a565b92505060c0615dce8a828b01615b47565b91505092959891949750929550565b7f54564c206973207a65726f000000000000000000000000000000000000000000600082015250565b6000615e13600b83614876565b9150615e1e82615ddd565b602082019050919050565b60006020820190508181036000830152615e4281615e06565b9050919050565b7f496e76616c696420636f76657220636170616369747900000000000000000000600082015250565b6000615e7f601683614876565b9150615e8a82615e49565b602082019050919050565b60006020820190508181036000830152615eae81615e72565b9050919050565b7f4e487b7100000000000000000000000000000000000000000000000000000000600052601260045260246000fd5b6000615eef82614259565b9150615efa83614259565b925082615f0a57615f09615eb5565b5b828204905092915050565b6000604082019050615f2a6000830185614380565b615f376020830184614628565b9392505050565b600080fd5b600080fd5b600081519050615f5781614314565b92915050565b60028110615f6a57600080fd5b50565b600081519050615f7c81615f5d565b92915050565b60006101208284031215615f9957615f98615f3e565b5b615fa46101206144ee565b90506000615fb484828501615f48565b6000830152506020615fc884828501615b47565b6020830152506040615fdc84828501615b47565b6040830152506060615ff084828501615b47565b606083015250608061600484828501615f6d565b60808301525060a061601884828501615b47565b60a08301525060c061602c84828501615b47565b60c08301525060e061604084828501615b47565b60e08301525061010061605584828501615b47565b6101008301525092915050565b600061012082840312156160795761607861424f565b5b600061608784828501615f82565b91505092915050565b600081905092915050565b50565b60006160ab600083616090565b91506160b68261609b565b600082019050919050565b60006160cc8261609e565b9150819050919050565b7f5472616e73666572206661696c65640000000000000000000000000000000000600082015250565b600061610c600f83614876565b9150616117826160d6565b602082019050919050565b6000602082019050818103600083015261613b816160ff565b9050919050565b7f53656e646572206d757374206265206d61696c626f7800000000000000000000600082015250565b6000616178601683614876565b915061618382616142565b602082019050919050565b600060208201905081810360008301526161a78161616b565b9050919050565b60006161c16161bc84614509565b6144ee565b9050828152602081018484840111156161dd576161dc614478565b5b6161e884828561467d565b509392505050565b600082601f83011261620557616204614473565b5b81516162158482602086016161ae565b91505092915050565b600080604083850312156162355761623461424f565b5b600083015167ffffffffffffffff81111561625357616252614254565b5b61625f85828601615cb0565b925050602083015167ffffffffffffffff8111156162805761627f614254565b5b61628c858286016161f0565b9150509250929050565b600081905092915050565b7f75706461746555736572436f76657256616c7565000000000000000000000000600082015250565b60006162d7601483616296565b91506162e2826162a1565b601482019050919050565b60006162f8826162ca565b9150819050919050565b600061630d82614661565b6163178185616296565b935061632781856020860161467d565b80840191505092915050565b600061633f8284616302565b915081905092915050565b6000616355826142e2565b9050919050565b6163658161634a565b811461637057600080fd5b50565b6000815190506163828161635c565b92915050565b6000806000606084860312156163a1576163a061424f565b5b60006163af86828701616373565b93505060206163c086828701615b47565b92505060406163d186828701615b47565b9150509250925092565b600060208201905081810360008301526163f58184614887565b905092915050565b7f4e487b7100000000000000000000000000000000000000000000000000000000600052603260045260246000fd5b600061643782614259565b91507fffffffffffffffffffffffffffffffffffffffffffffffffffffffffffffffff82036164695761646861534d565b5b600182019050919050565b60006101208301600080840154905061648c816157b9565b61649960008701826149e8565b50600184015490506164aa816157dd565b6164b76020870182614652565b50600284015490506164c881615804565b6164d56040870182614748565b506003840185830360608701526164ec838261581e565b925050600484015490506164ff816157dd565b61650c6080870182614652565b506005840154905061651d816157dd565b61652a60a0870182614652565b506006840154905061653b816157dd565b61654860c0870182614652565b5060078401549050616559816157dd565b61656660e0870182614652565b5060088401549050616577816158af565b616585610100870182614a03565b50819250505092915050565b60006060820190506165a66000830186614628565b6165b36020830185614380565b81810360408301526165c58184616474565b9050949350505050565b600067ffffffffffffffff8211156165ea576165e961448e565b5b602082029050602081019050919050565b600080fd5b6000610160828403121561661757616616615f3e565b5b6166226101606144ee565b9050600061663284828501615b47565b600083015250602082015167ffffffffffffffff81111561665657616655615f43565b5b61666284828501615cb0565b602083015250604061667684828501615cde565b604083015250606082015167ffffffffffffffff81111561669a57616699615f43565b5b6166a684828501615cb0565b60608301525060806166ba84828501615b47565b60808301525060a06166ce84828501615b47565b60a08301525060c06166e284828501615b47565b60c08301525060e06166f684828501615b47565b60e08301525061010061670b84828501615b47565b6101008301525061012061672184828501615b47565b6101208301525061014082015167ffffffffffffffff81111561674757616746615f43565b5b61675384828501615cb0565b6101408301525092915050565b600061677361676e846165cf565b6144ee565b90508083825260208201905060208402830185811115616796576167956165fb565b5b835b818110156167dd57805167ffffffffffffffff8111156167bb576167ba614473565b5b8086016167c88982616600565b85526020850194505050602081019050616798565b5050509392505050565b600082601f8301126167fc576167fb614473565b5b815161680c848260208601616760565b91505092915050565b60006020828403121561682b5761682a61424f565b5b600082015167ffffffffffffffff81111561684957616848614254565b5b616855848285016167e7565b91505092915050565b60006040820190506168736000830185614380565b6168806020830184614380565b9392505050565b60006101608301600080840154905061689f816157dd565b6168ac6000870182614652565b506001840185830360208701526168c3838261581e565b925050600284015490506168d681615804565b6168e36040870182614748565b506003840185830360608701526168fa838261581e565b9250506004840154905061690d816157dd565b61691a6080870182614652565b506005840154905061692b816157dd565b61693860a0870182614652565b5060068401549050616949816157dd565b61695660c0870182614652565b5060078401549050616967816157dd565b61697460e0870182614652565b5060088401549050616985816157dd565b616993610100870182614652565b50600984015490506169a4816157dd565b6169b2610120870182614652565b50600a84018583036101408701526169ca838261581e565b925050819250505092915050565b60006040820190506169ed6000830185614380565b81810360208301526169ff8184616887565b90509392505050565b60006040820190508181036000830152616a228185614887565b9050616a3160208301846148c0565b9392505050565b7f56616c7565206d7573742062652067726561746572207468616e203000000000600082015250565b6000616a6e601c83614876565b9150616a7982616a38565b602082019050919050565b60006020820190508181036000830152616a9d81616a61565b9050919050565b7f476f7665726e616e636520616c72656164792073657400000000000000000000600082015250565b6000616ada601683614876565b9150616ae582616aa4565b602082019050919050565b60006020820190508181036000830152616b0981616acd565b9050919050565b7f476f7665726e616e636520616464726573732063616e6e6f74206265207a657260008201527f6f00000000000000000000000000000000000000000000000000000000000000602082015250565b6000616b6c602183614876565b9150616b7782616b10565b604082019050919050565b60006020820190508181036000830152616b9b81616b5f565b9050919050565b6000604082019050616bb76000830185614380565b8181036020830152616bc98184614757565b9050939250505056fea26469706673582212206de52f13e0d71e78be44af80ebd4e4d9ffdc8d1e014859bf41905cb3e09d48e264736f6c634300081b0033",
  "linkReferences": {},
  "deployedLinkReferences": {}
}