{
  "_format": "hh-sol-artifact-1",
  "contractName": "InsurancePool",
  "sourceName": "contracts/InsurancePool.sol",
  "abi": [
    {
      "inputs": [
        {
          "internalType": "address",
          "name": "_mailbox",
          "type": "address"
        },
        {
          "internalType": "address",
          "name": "_initialOwner",
          "type": "address"
        },
        {
          "internalType": "uint256",
          "name": "_destinationDomain",
          "type": "uint256"
        }
      ],
      "stateMutability": "nonpayable",
      "type": "constructor"
    },
    {
      "inputs": [],
      "name": "LpNotActive",
      "type": "error"
    },
    {
      "inputs": [
        {
          "internalType": "address",
          "name": "owner",
          "type": "address"
        }
      ],
      "name": "OwnableInvalidOwner",
      "type": "error"
    },
    {
      "inputs": [
        {
          "internalType": "address",
          "name": "account",
          "type": "address"
        }
      ],
      "name": "OwnableUnauthorizedAccount",
      "type": "error"
    },
    {
      "inputs": [],
      "name": "ReentrancyGuardReentrantCall",
      "type": "error"
    },
    {
      "anonymous": false,
      "inputs": [
        {
          "indexed": false,
          "internalType": "uint256",
          "name": "",
          "type": "uint256"
        },
        {
          "indexed": false,
          "internalType": "uint256",
          "name": "",
          "type": "uint256"
        },
        {
          "indexed": false,
          "internalType": "address",
          "name": "",
          "type": "address"
        }
      ],
      "name": "ClaimAttempt",
      "type": "event"
    },
    {
      "anonymous": false,
      "inputs": [
        {
          "indexed": true,
          "internalType": "address",
          "name": "recipient",
          "type": "address"
        },
        {
          "indexed": false,
          "internalType": "string",
          "name": "pool",
          "type": "string"
        },
        {
          "indexed": false,
          "internalType": "uint256",
          "name": "amount",
          "type": "uint256"
        }
      ],
      "name": "ClaimPaid",
      "type": "event"
    },
    {
      "anonymous": false,
      "inputs": [
        {
          "indexed": true,
          "internalType": "address",
          "name": "user",
          "type": "address"
        },
        {
          "indexed": false,
          "internalType": "uint256",
          "name": "amount",
          "type": "uint256"
        },
        {
          "indexed": false,
          "internalType": "string",
          "name": "pool",
          "type": "string"
        }
      ],
      "name": "Deposited",
      "type": "event"
    },
    {
      "anonymous": false,
      "inputs": [
        {
          "indexed": true,
          "internalType": "address",
          "name": "previousOwner",
          "type": "address"
        },
        {
          "indexed": true,
          "internalType": "address",
          "name": "newOwner",
          "type": "address"
        }
      ],
      "name": "OwnershipTransferred",
      "type": "event"
    },
    {
      "anonymous": false,
      "inputs": [
        {
          "indexed": true,
          "internalType": "uint256",
          "name": "id",
          "type": "uint256"
        },
        {
          "indexed": false,
          "internalType": "string",
          "name": "poolName",
          "type": "string"
        }
      ],
      "name": "PoolCreated",
      "type": "event"
    },
    {
      "anonymous": false,
      "inputs": [
        {
          "indexed": true,
          "internalType": "uint256",
          "name": "poolId",
          "type": "uint256"
        },
        {
          "indexed": false,
          "internalType": "uint256",
          "name": "apy",
          "type": "uint256"
        },
        {
          "indexed": false,
          "internalType": "uint256",
          "name": "_minPeriod",
          "type": "uint256"
        }
      ],
      "name": "PoolUpdated",
      "type": "event"
    },
    {
      "anonymous": false,
      "inputs": [
        {
          "indexed": true,
          "internalType": "uint32",
          "name": "origin",
          "type": "uint32"
        },
        {
          "indexed": true,
          "internalType": "bytes32",
          "name": "sender",
          "type": "bytes32"
        },
        {
          "indexed": false,
          "internalType": "string",
          "name": "message",
          "type": "string"
        }
      ],
      "name": "ReceivedMessage",
      "type": "event"
    },
    {
      "anonymous": false,
      "inputs": [
        {
          "indexed": true,
          "internalType": "address",
          "name": "user",
          "type": "address"
        },
        {
          "indexed": false,
          "internalType": "uint256",
          "name": "amount",
          "type": "uint256"
        },
        {
          "indexed": false,
          "internalType": "string",
          "name": "pool",
          "type": "string"
        }
      ],
      "name": "Withdraw",
      "type": "event"
    },
    {
      "inputs": [],
      "name": "ICoverContract",
      "outputs": [
        {
          "internalType": "contract ICover",
          "name": "",
          "type": "address"
        }
      ],
      "stateMutability": "view",
      "type": "function"
    },
    {
      "inputs": [
        {
          "internalType": "uint256",
          "name": "_poolId",
          "type": "uint256"
        },
        {
          "components": [
            {
              "internalType": "uint256",
              "name": "id",
              "type": "uint256"
            },
            {
              "internalType": "string",
              "name": "coverName",
              "type": "string"
            },
            {
              "internalType": "enum CoverLib.RiskType",
              "name": "riskType",
              "type": "uint8"
            },
            {
              "internalType": "string",
              "name": "chains",
              "type": "string"
            },
            {
              "internalType": "uint256",
              "name": "capacity",
              "type": "uint256"
            },
            {
              "internalType": "uint256",
              "name": "cost",
              "type": "uint256"
            },
            {
              "internalType": "uint256",
              "name": "capacityAmount",
              "type": "uint256"
            },
            {
              "internalType": "uint256",
              "name": "coverValues",
              "type": "uint256"
            },
            {
              "internalType": "uint256",
              "name": "maxAmount",
              "type": "uint256"
            },
            {
              "internalType": "uint256",
              "name": "poolId",
              "type": "uint256"
            },
            {
              "internalType": "string",
              "name": "CID",
              "type": "string"
            }
          ],
          "internalType": "struct CoverLib.Cover",
          "name": "_cover",
          "type": "tuple"
        }
      ],
      "name": "addPoolCover",
      "outputs": [],
      "stateMutability": "nonpayable",
      "type": "function"
    },
    {
      "inputs": [
        {
          "internalType": "uint256",
          "name": "_proposalId",
          "type": "uint256"
        }
      ],
      "name": "claimProposalFunds",
      "outputs": [],
      "stateMutability": "nonpayable",
      "type": "function"
    },
    {
      "inputs": [],
      "name": "coverContract",
      "outputs": [
        {
          "internalType": "address",
          "name": "",
          "type": "address"
        }
      ],
      "stateMutability": "view",
      "type": "function"
    },
    {
      "inputs": [
        {
          "internalType": "enum CoverLib.RiskType",
          "name": "_riskType",
          "type": "uint8"
        },
        {
          "internalType": "string",
          "name": "_poolName",
          "type": "string"
        },
        {
          "internalType": "uint256",
          "name": "_apy",
          "type": "uint256"
        },
        {
          "internalType": "uint256",
          "name": "_minPeriod",
          "type": "uint256"
        }
      ],
      "name": "createPool",
      "outputs": [],
      "stateMutability": "nonpayable",
      "type": "function"
    },
    {
      "inputs": [
        {
          "internalType": "uint256",
          "name": "_poolId",
          "type": "uint256"
        }
      ],
      "name": "deactivatePool",
      "outputs": [],
      "stateMutability": "nonpayable",
      "type": "function"
    },
    {
      "inputs": [
        {
          "internalType": "uint256",
          "name": "_poolId",
          "type": "uint256"
        }
      ],
      "name": "deposit",
      "outputs": [],
      "stateMutability": "payable",
      "type": "function"
    },
    {
      "inputs": [],
      "name": "destinationDomain",
      "outputs": [
        {
          "internalType": "uint256",
          "name": "",
          "type": "uint256"
        }
      ],
      "stateMutability": "view",
      "type": "function"
    },
    {
      "inputs": [],
      "name": "getAllPools",
      "outputs": [
        {
          "components": [
            {
              "internalType": "string",
              "name": "poolName",
              "type": "string"
            },
            {
              "internalType": "enum CoverLib.RiskType",
              "name": "riskType",
              "type": "uint8"
            },
            {
              "internalType": "uint256",
              "name": "apy",
              "type": "uint256"
            },
            {
              "internalType": "uint256",
              "name": "minPeriod",
              "type": "uint256"
            },
            {
              "internalType": "uint256",
              "name": "tvl",
              "type": "uint256"
            },
            {
              "internalType": "uint256",
              "name": "tcp",
              "type": "uint256"
            },
            {
              "internalType": "bool",
              "name": "isActive",
              "type": "bool"
            },
            {
              "internalType": "uint256",
              "name": "percentageSplitBalance",
              "type": "uint256"
            }
          ],
          "internalType": "struct CoverLib.NPool[]",
          "name": "",
          "type": "tuple[]"
        }
      ],
      "stateMutability": "view",
      "type": "function"
    },
    {
      "inputs": [
        {
          "internalType": "uint256",
          "name": "_poolId",
          "type": "uint256"
        }
      ],
      "name": "getPool",
      "outputs": [
        {
          "internalType": "string",
          "name": "name",
          "type": "string"
        },
        {
          "internalType": "enum CoverLib.RiskType",
          "name": "riskType",
          "type": "uint8"
        },
        {
          "internalType": "uint256",
          "name": "apy",
          "type": "uint256"
        },
        {
          "internalType": "uint256",
          "name": "minPeriod",
          "type": "uint256"
        },
        {
          "internalType": "uint256",
          "name": "tvl",
          "type": "uint256"
        },
        {
          "internalType": "bool",
          "name": "isActive",
          "type": "bool"
        },
        {
          "internalType": "uint256",
          "name": "percentageSplitBalance",
          "type": "uint256"
        }
      ],
      "stateMutability": "view",
      "type": "function"
    },
    {
      "inputs": [
        {
          "internalType": "uint256",
          "name": "_poolId",
          "type": "uint256"
        }
      ],
      "name": "getPoolCovers",
      "outputs": [
        {
          "components": [
            {
              "internalType": "uint256",
              "name": "id",
              "type": "uint256"
            },
            {
              "internalType": "string",
              "name": "coverName",
              "type": "string"
            },
            {
              "internalType": "enum CoverLib.RiskType",
              "name": "riskType",
              "type": "uint8"
            },
            {
              "internalType": "string",
              "name": "chains",
              "type": "string"
            },
            {
              "internalType": "uint256",
              "name": "capacity",
              "type": "uint256"
            },
            {
              "internalType": "uint256",
              "name": "cost",
              "type": "uint256"
            },
            {
              "internalType": "uint256",
              "name": "capacityAmount",
              "type": "uint256"
            },
            {
              "internalType": "uint256",
              "name": "coverValues",
              "type": "uint256"
            },
            {
              "internalType": "uint256",
              "name": "maxAmount",
              "type": "uint256"
            },
            {
              "internalType": "uint256",
              "name": "poolId",
              "type": "uint256"
            },
            {
              "internalType": "string",
              "name": "CID",
              "type": "string"
            }
          ],
          "internalType": "struct CoverLib.Cover[]",
          "name": "",
          "type": "tuple[]"
        }
      ],
      "stateMutability": "view",
      "type": "function"
    },
    {
      "inputs": [
        {
          "internalType": "uint256",
          "name": "_poolId",
          "type": "uint256"
        }
      ],
      "name": "getPoolTVL",
      "outputs": [
        {
          "internalType": "uint256",
          "name": "",
          "type": "uint256"
        }
      ],
      "stateMutability": "view",
      "type": "function"
    },
    {
      "inputs": [
        {
          "internalType": "address",
          "name": "_userAddress",
          "type": "address"
        }
      ],
      "name": "getPoolsByAddress",
      "outputs": [
        {
          "components": [
            {
              "internalType": "string",
              "name": "poolName",
              "type": "string"
            },
            {
              "internalType": "uint256",
              "name": "poolId",
              "type": "uint256"
            },
            {
              "internalType": "uint256",
              "name": "dailyPayout",
              "type": "uint256"
            },
            {
              "internalType": "uint256",
              "name": "depositAmount",
              "type": "uint256"
            },
            {
              "internalType": "uint256",
              "name": "apy",
              "type": "uint256"
            },
            {
              "internalType": "uint256",
              "name": "minPeriod",
              "type": "uint256"
            },
            {
              "internalType": "uint256",
              "name": "tvl",
              "type": "uint256"
            },
            {
              "internalType": "uint256",
              "name": "tcp",
              "type": "uint256"
            },
            {
              "internalType": "bool",
              "name": "isActive",
              "type": "bool"
            },
            {
              "internalType": "uint256",
              "name": "accruedPayout",
              "type": "uint256"
            }
          ],
          "internalType": "struct CoverLib.PoolInfo[]",
          "name": "",
          "type": "tuple[]"
        }
      ],
      "stateMutability": "view",
      "type": "function"
    },
    {
      "inputs": [
        {
          "internalType": "uint256",
          "name": "_poolId",
          "type": "uint256"
        },
        {
          "internalType": "address",
          "name": "_user",
          "type": "address"
        }
      ],
      "name": "getUserDeposit",
      "outputs": [
        {
          "components": [
            {
              "internalType": "address",
              "name": "lp",
              "type": "address"
            },
            {
              "internalType": "uint256",
              "name": "amount",
              "type": "uint256"
            },
            {
              "internalType": "uint256",
              "name": "poolId",
              "type": "uint256"
            },
            {
              "internalType": "uint256",
              "name": "dailyPayout",
              "type": "uint256"
            },
            {
              "internalType": "enum CoverLib.Status",
              "name": "status",
              "type": "uint8"
            },
            {
              "internalType": "uint256",
              "name": "daysLeft",
              "type": "uint256"
            },
            {
              "internalType": "uint256",
              "name": "startDate",
              "type": "uint256"
            },
            {
              "internalType": "uint256",
              "name": "expiryDate",
              "type": "uint256"
            },
            {
              "internalType": "uint256",
              "name": "accruedPayout",
              "type": "uint256"
            }
          ],
          "internalType": "struct CoverLib.Deposits",
          "name": "",
          "type": "tuple"
        }
      ],
      "stateMutability": "view",
      "type": "function"
    },
    {
      "inputs": [],
      "name": "governance",
      "outputs": [
        {
          "internalType": "address",
          "name": "",
          "type": "address"
        }
      ],
      "stateMutability": "view",
      "type": "function"
    },
    {
      "inputs": [
        {
          "internalType": "uint32",
          "name": "_origin",
          "type": "uint32"
        },
        {
          "internalType": "bytes32",
          "name": "_sender",
          "type": "bytes32"
        },
        {
          "internalType": "bytes",
          "name": "_message",
          "type": "bytes"
        }
      ],
      "name": "handle",
      "outputs": [],
      "stateMutability": "payable",
      "type": "function"
    },
    {
      "inputs": [
        {
          "internalType": "uint256",
          "name": "_poolId",
          "type": "uint256"
        },
        {
          "internalType": "uint256",
          "name": "__poolPercentageSplit",
          "type": "uint256"
        }
      ],
      "name": "increasePercentageSplit",
      "outputs": [],
      "stateMutability": "nonpayable",
      "type": "function"
    },
    {
      "inputs": [],
      "name": "initialOwner",
      "outputs": [
        {
          "internalType": "address",
          "name": "",
          "type": "address"
        }
      ],
      "stateMutability": "view",
      "type": "function"
    },
    {
      "inputs": [],
      "name": "interchainSecurityModule",
      "outputs": [
        {
          "internalType": "contract IInterchainSecurityModule",
          "name": "",
          "type": "address"
        }
      ],
      "stateMutability": "view",
      "type": "function"
    },
    {
      "inputs": [],
      "name": "mailbox",
      "outputs": [
        {
          "internalType": "contract IMailbox",
          "name": "",
          "type": "address"
        }
      ],
      "stateMutability": "view",
      "type": "function"
    },
    {
      "inputs": [],
      "name": "owner",
      "outputs": [
        {
          "internalType": "address",
          "name": "",
          "type": "address"
        }
      ],
      "stateMutability": "view",
      "type": "function"
    },
    {
      "inputs": [
        {
          "internalType": "uint256",
          "name": "poolId",
          "type": "uint256"
        }
      ],
      "name": "poolActive",
      "outputs": [
        {
          "internalType": "bool",
          "name": "",
          "type": "bool"
        }
      ],
      "stateMutability": "view",
      "type": "function"
    },
    {
      "inputs": [],
      "name": "poolCount",
      "outputs": [
        {
          "internalType": "uint256",
          "name": "",
          "type": "uint256"
        }
      ],
      "stateMutability": "view",
      "type": "function"
    },
    {
      "inputs": [
        {
          "internalType": "uint256",
          "name": "",
          "type": "uint256"
        }
      ],
      "name": "pools",
      "outputs": [
        {
          "internalType": "string",
          "name": "poolName",
          "type": "string"
        },
        {
          "internalType": "enum CoverLib.RiskType",
          "name": "riskType",
          "type": "uint8"
        },
        {
          "internalType": "uint256",
          "name": "apy",
          "type": "uint256"
        },
        {
          "internalType": "uint256",
          "name": "minPeriod",
          "type": "uint256"
        },
        {
          "internalType": "uint256",
          "name": "tvl",
          "type": "uint256"
        },
        {
          "internalType": "uint256",
          "name": "tcp",
          "type": "uint256"
        },
        {
          "internalType": "bool",
          "name": "isActive",
          "type": "bool"
        },
        {
          "internalType": "uint256",
          "name": "percentageSplitBalance",
          "type": "uint256"
        }
      ],
      "stateMutability": "view",
      "type": "function"
    },
    {
      "inputs": [
        {
          "internalType": "uint256",
          "name": "_poolId",
          "type": "uint256"
        },
        {
          "internalType": "uint256",
          "name": "__poolPercentageSplit",
          "type": "uint256"
        }
      ],
      "name": "reducePercentageSplit",
      "outputs": [],
      "stateMutability": "nonpayable",
      "type": "function"
    },
    {
      "inputs": [],
      "name": "renounceOwnership",
      "outputs": [],
      "stateMutability": "nonpayable",
      "type": "function"
    },
    {
      "inputs": [
        {
          "internalType": "address",
          "name": "_coverContract",
          "type": "address"
        }
      ],
      "name": "setCover",
      "outputs": [],
      "stateMutability": "nonpayable",
      "type": "function"
    },
    {
      "inputs": [
        {
          "internalType": "uint32",
          "name": "_destinationDomain",
          "type": "uint32"
        }
      ],
      "name": "setDestinationDomain",
      "outputs": [],
      "stateMutability": "nonpayable",
      "type": "function"
    },
    {
      "inputs": [
        {
          "internalType": "address",
          "name": "_governance",
          "type": "address"
        }
      ],
      "name": "setGovernance",
      "outputs": [],
      "stateMutability": "nonpayable",
      "type": "function"
    },
    {
      "inputs": [
        {
          "internalType": "address",
          "name": "_ism",
          "type": "address"
        }
      ],
      "name": "setInterchainSecurityModule",
      "outputs": [],
      "stateMutability": "nonpayable",
      "type": "function"
    },
    {
      "inputs": [
        {
          "internalType": "address",
          "name": "newOwner",
          "type": "address"
        }
      ],
      "name": "transferOwnership",
      "outputs": [],
      "stateMutability": "nonpayable",
      "type": "function"
    },
    {
      "inputs": [
        {
          "internalType": "uint256",
          "name": "_poolId",
          "type": "uint256"
        },
        {
          "internalType": "uint256",
          "name": "_apy",
          "type": "uint256"
        },
        {
          "internalType": "uint256",
          "name": "_minPeriod",
          "type": "uint256"
        }
      ],
      "name": "updatePool",
      "outputs": [],
      "stateMutability": "nonpayable",
      "type": "function"
    },
    {
      "inputs": [
        {
          "internalType": "uint256",
          "name": "_poolId",
          "type": "uint256"
        },
        {
          "components": [
            {
              "internalType": "uint256",
              "name": "id",
              "type": "uint256"
            },
            {
              "internalType": "string",
              "name": "coverName",
              "type": "string"
            },
            {
              "internalType": "enum CoverLib.RiskType",
              "name": "riskType",
              "type": "uint8"
            },
            {
              "internalType": "string",
              "name": "chains",
              "type": "string"
            },
            {
              "internalType": "uint256",
              "name": "capacity",
              "type": "uint256"
            },
            {
              "internalType": "uint256",
              "name": "cost",
              "type": "uint256"
            },
            {
              "internalType": "uint256",
              "name": "capacityAmount",
              "type": "uint256"
            },
            {
              "internalType": "uint256",
              "name": "coverValues",
              "type": "uint256"
            },
            {
              "internalType": "uint256",
              "name": "maxAmount",
              "type": "uint256"
            },
            {
              "internalType": "uint256",
              "name": "poolId",
              "type": "uint256"
            },
            {
              "internalType": "string",
              "name": "CID",
              "type": "string"
            }
          ],
          "internalType": "struct CoverLib.Cover",
          "name": "_cover",
          "type": "tuple"
        }
      ],
      "name": "updatePoolCovers",
      "outputs": [],
      "stateMutability": "nonpayable",
      "type": "function"
    },
    {
      "inputs": [
        {
          "internalType": "uint256",
          "name": "_poolId",
          "type": "uint256"
        }
      ],
      "name": "withdraw",
      "outputs": [],
      "stateMutability": "nonpayable",
      "type": "function"
    },
    {
      "stateMutability": "payable",
      "type": "receive"
    }
  ],
  "bytecode": "0x608060405234801561001057600080fd5b506040516169f03803806169f0833981810160405281019061003291906102ad565b816001600081905550600073ffffffffffffffffffffffffffffffffffffffff168173ffffffffffffffffffffffffffffffffffffffff16036100ad5760006040517f1e4fbdf70000000000000000000000000000000000000000000000000000000081526004016100a4919061030f565b60405180910390fd5b6100bc8161014e60201b60201c565b5082600860006101000a81548173ffffffffffffffffffffffffffffffffffffffff021916908373ffffffffffffffffffffffffffffffffffffffff16021790555081600a60006101000a81548173ffffffffffffffffffffffffffffffffffffffff021916908373ffffffffffffffffffffffffffffffffffffffff16021790555080600b8190555050505061032a565b6000600160009054906101000a900473ffffffffffffffffffffffffffffffffffffffff16905081600160006101000a81548173ffffffffffffffffffffffffffffffffffffffff021916908373ffffffffffffffffffffffffffffffffffffffff1602179055508173ffffffffffffffffffffffffffffffffffffffff168173ffffffffffffffffffffffffffffffffffffffff167f8be0079c531659141344cd1fd0a4f28419497f9722a3daafe3b4186f6b6457e060405160405180910390a35050565b600080fd5b600073ffffffffffffffffffffffffffffffffffffffff82169050919050565b600061024482610219565b9050919050565b61025481610239565b811461025f57600080fd5b50565b6000815190506102718161024b565b92915050565b6000819050919050565b61028a81610277565b811461029557600080fd5b50565b6000815190506102a781610281565b92915050565b6000806000606084860312156102c6576102c5610214565b5b60006102d486828701610262565b93505060206102e586828701610262565b92505060406102f686828701610298565b9150509250925092565b61030981610239565b82525050565b60006020820190506103246000830184610300565b92915050565b6166b7806103396000396000f3fe6080604052600436106101fd5760003560e01c80639fd36b151161010d578063d5438eae116100a0578063de523cf31161006f578063de523cf314610729578063e35f812914610754578063f2fde38b1461077d578063f525cb68146107a6578063f6e80558146107d157610204565b8063d5438eae14610681578063d86c0444146106ac578063d88ff1f4146106d5578063da533fd31461070057610204565b8063ac4afa38116100dc578063ac4afa38146105cf578063ae63df8914610613578063b6b55f251461063c578063c7aa98741461065857610204565b80639fd36b151461052b578063a14764d014610554578063a4948d851461057d578063ab033ea9146105a657610204565b80634e055244116101905780637c366cc61161015f5780637c366cc6146104345780637eb111f01461045d5780638da5cb5b1461049a5780638f244630146104c55780639abd9b051461050257610204565b80634e0552441461039957806356d5d475146103d65780635aa6e675146103f2578063715018a61461041d57610204565b80632858c55a116101cc5780632858c55a146102dd57806329ba7bb2146103085780632e1a7d4d14610333578063318667631461035c57610204565b8063068bcd8d146102095780630e72cc061461024c578063248a75b71461027557806325f11e8d146102a057610204565b3661020457005b600080fd5b34801561021557600080fd5b50610230600480360381019061022b9190613ed2565b6107fc565b6040516102439796959493929190614030565b60405180910390f35b34801561025857600080fd5b50610273600480360381019061026e9190614104565b610900565b005b34801561028157600080fd5b5061028a61094c565b6040516102979190614140565b60405180910390f35b3480156102ac57600080fd5b506102c760048036038101906102c29190613ed2565b610972565b6040516102d4919061415b565b60405180910390f35b3480156102e957600080fd5b506102f26109a4565b6040516102ff9190614176565b60405180910390f35b34801561031457600080fd5b5061031d6109aa565b60405161032a9190614140565b60405180910390f35b34801561033f57600080fd5b5061035a60048036038101906103559190613ed2565b6109d0565b005b34801561036857600080fd5b50610383600480360381019061037e9190614104565b610d6e565b6040516103909190614395565b60405180910390f35b3480156103a557600080fd5b506103c060048036038101906103bb91906143b7565b611291565b6040516103cd9190614505565b60405180910390f35b6103f060048036038101906103eb91906146c8565b61154f565b005b3480156103fe57600080fd5b50610407611894565b6040516104149190614140565b60405180910390f35b34801561042957600080fd5b506104326118ba565b005b34801561044057600080fd5b5061045b60048036038101906104569190614104565b6118ce565b005b34801561046957600080fd5b50610484600480360381019061047f9190613ed2565b611a5b565b6040516104919190614905565b60405180910390f35b3480156104a657600080fd5b506104af611d05565b6040516104bc9190614140565b60405180910390f35b3480156104d157600080fd5b506104ec60048036038101906104e79190613ed2565b611d2f565b6040516104f99190614176565b60405180910390f35b34801561050e57600080fd5b5061052960048036038101906105249190613ed2565b611d4f565b005b34801561053757600080fd5b50610552600480360381019061054d9190614927565b611ef2565b005b34801561056057600080fd5b5061057b60048036038101906105769190614b97565b61200b565b005b34801561058957600080fd5b506105a4600480360381019061059f9190614927565b61225e565b005b3480156105b257600080fd5b506105cd60048036038101906105c89190614104565b612377565b005b3480156105db57600080fd5b506105f660048036038101906105f19190613ed2565b6124c3565b60405161060a989796959493929190614bf3565b60405180910390f35b34801561061f57600080fd5b5061063a60048036038101906106359190614c78565b6125ad565b005b61065660048036038101906106519190613ed2565b6125c5565b005b34801561066457600080fd5b5061067f600480360381019061067a9190614b97565b612ba1565b005b34801561068d57600080fd5b50610696612d87565b6040516106a39190614d04565b60405180910390f35b3480156106b857600080fd5b506106d360048036038101906106ce9190614d1f565b612dad565b005b3480156106e157600080fd5b506106ea612f13565b6040516106f79190614ee4565b60405180910390f35b34801561070c57600080fd5b5061072760048036038101906107229190614f06565b6130ec565b005b34801561073557600080fd5b5061073e6132f8565b60405161074b9190614faa565b60405180910390f35b34801561076057600080fd5b5061077b60048036038101906107769190613ed2565b61331e565b005b34801561078957600080fd5b506107a4600480360381019061079f9190614104565b613aec565b005b3480156107b257600080fd5b506107bb613b72565b6040516107c89190614176565b60405180910390f35b3480156107dd57600080fd5b506107e6613b78565b6040516107f39190614fe6565b60405180910390f35b60606000806000806000806000600360008a81526020019081526020016000209050806000018160010160009054906101000a900460ff168260020154836003015484600401548560060160009054906101000a900460ff16866007015486805461086690615030565b80601f016020809104026020016040519081016040528092919081815260200182805461089290615030565b80156108df5780601f106108b4576101008083540402835291602001916108df565b820191906000526020600020905b8154815290600101906020018083116108c257829003601f168201915b50505050509650975097509750975097509750975050919395979092949650565b610908613b9e565b80600c60006101000a81548173ffffffffffffffffffffffffffffffffffffffff021916908373ffffffffffffffffffffffffffffffffffffffff16021790555050565b600960009054906101000a900473ffffffffffffffffffffffffffffffffffffffff1681565b6000806003600084815260200190815260200160002090508060060160009054906101000a900460ff16915050919050565b600b5481565b600a60009054906101000a900473ffffffffffffffffffffffffffffffffffffffff1681565b6109d8613c25565b600060036000838152602001908152602001600020905060008160080160003373ffffffffffffffffffffffffffffffffffffffff1673ffffffffffffffffffffffffffffffffffffffff16815260200190815260200160002090506000816001015411610a7b576040517f08c379a0000000000000000000000000000000000000000000000000000000008152600401610a72906150d3565b60405180910390fd5b60006001811115610a8f57610a8e613f8f565b5b8160040160009054906101000a900460ff166001811115610ab357610ab2613f8f565b5b14610af3576040517f08c379a0000000000000000000000000000000000000000000000000000000008152600401610aea9061513f565b60405180910390fd5b8060070154421015610b3a576040517f08c379a0000000000000000000000000000000000000000000000000000000008152600401610b31906151ab565b60405180910390fd5b60018160040160006101000a81548160ff02191690836001811115610b6257610b61613f8f565b5b02179055508060010154826004016000828254610b7f91906151fa565b925050819055506000610b9184611a5b565b905060005b8151811015610c5757600760009054906101000a900473ffffffffffffffffffffffffffffffffffffffff1673ffffffffffffffffffffffffffffffffffffffff1663106b5da1838381518110610bf057610bef61522e565b5b6020026020010151600001516040518263ffffffff1660e01b8152600401610c189190614176565b600060405180830381600087803b158015610c3257600080fd5b505af1158015610c46573d6000803e3d6000fd5b505050508080600101915050610b96565b5060003373ffffffffffffffffffffffffffffffffffffffff168360010154604051610c829061528e565b60006040518083038185875af1925050503d8060008114610cbf576040519150601f19603f3d011682016040523d82523d6000602084013e610cc4565b606091505b5050905080610d08576040517f08c379a0000000000000000000000000000000000000000000000000000000008152600401610cff906152ef565b60405180910390fd5b3373ffffffffffffffffffffffffffffffffffffffff167f485f1bb6524c663555797e00171a10f341656e59b02d6b557a0a38ba7d5d9751846001015486600001604051610d579291906153a8565b60405180910390a250505050610d6b613c6b565b50565b6060600080600190505b6005548111610e0857600060036000838152602001908152602001600020905060008160080160008773ffffffffffffffffffffffffffffffffffffffff1673ffffffffffffffffffffffffffffffffffffffff168152602001908152602001600020600101541115610df4578280610df0906153d8565b9350505b508080610e00906153d8565b915050610d78565b5060008167ffffffffffffffff811115610e2557610e2461459d565b5b604051908082528060200260200182016040528015610e5e57816020015b610e4b613d66565b815260200190600190039081610e435790505b509050600080600190505b600554811161128557600060036000838152602001908152602001600020905060006003600084815260200190815260200160002060080160008973ffffffffffffffffffffffffffffffffffffffff1673ffffffffffffffffffffffffffffffffffffffff168152602001908152602001600020604051806101200160405290816000820160009054906101000a900473ffffffffffffffffffffffffffffffffffffffff1673ffffffffffffffffffffffffffffffffffffffff1673ffffffffffffffffffffffffffffffffffffffff1681526020016001820154815260200160028201548152602001600382015481526020016004820160009054906101000a900460ff166001811115610f8357610f82613f8f565b5b6001811115610f9557610f94613f8f565b5b815260200160058201548152602001600682015481526020016007820154815260200160088201548152505090506000600760009054906101000a900473ffffffffffffffffffffffffffffffffffffffff1673ffffffffffffffffffffffffffffffffffffffff166373cce3ee8a866040518363ffffffff1660e01b8152600401611022929190615420565b602060405180830381865afa15801561103f573d6000803e3d6000fd5b505050506040513d601f19601f82011682018060405250810190611063919061545e565b90506000818360600151611077919061548b565b905060008460080160008c73ffffffffffffffffffffffffffffffffffffffff1673ffffffffffffffffffffffffffffffffffffffff16815260200190815260200160002060010154111561126e576040518061014001604052808560000180546110e190615030565b80601f016020809104026020016040519081016040528092919081815260200182805461110d90615030565b801561115a5780601f1061112f5761010080835404028352916020019161115a565b820191906000526020600020905b81548152906001019060200180831161113d57829003601f168201915b505050505081526020018681526020018560080160008d73ffffffffffffffffffffffffffffffffffffffff1673ffffffffffffffffffffffffffffffffffffffff1681526020019081526020016000206003015481526020018560080160008d73ffffffffffffffffffffffffffffffffffffffff1673ffffffffffffffffffffffffffffffffffffffff168152602001908152602001600020600101548152602001856002015481526020018560030154815260200185600401548152602001856005015481526020018560060160009054906101000a900460ff16151581526020018281525087878061124f906153d8565b9850815181106112625761126161522e565b5b60200260200101819052505b50505050808061127d906153d8565b915050610e69565b50819350505050919050565b611299613dbb565b60006003600085815260200190815260200160002060080160008473ffffffffffffffffffffffffffffffffffffffff1673ffffffffffffffffffffffffffffffffffffffff168152602001908152602001600020604051806101200160405290816000820160009054906101000a900473ffffffffffffffffffffffffffffffffffffffff1673ffffffffffffffffffffffffffffffffffffffff1673ffffffffffffffffffffffffffffffffffffffff1681526020016001820154815260200160028201548152602001600382015481526020016004820160009054906101000a900460ff16600181111561139357611392613f8f565b5b60018111156113a5576113a4613f8f565b5b815260200160058201548152602001600682015481526020016007820154815260200160088201548152505090506000600760009054906101000a900473ffffffffffffffffffffffffffffffffffffffff1673ffffffffffffffffffffffffffffffffffffffff16631052581485876040518363ffffffff1660e01b8152600401611432929190615420565b602060405180830381865afa15801561144f573d6000803e3d6000fd5b505050506040513d601f19601f82011682018060405250810190611473919061545e565b9050600080820361148a578260c00151905061148e565b8190505b60004290508360e001518111156114a7578360e0015190505b600061012c83836114b891906151fa565b6114c291906154fc565b90508085606001516114d4919061548b565b85610100018181525050428560e00151116114f95760008560a0018181525050611541565b6000428660e0015161150b91906151fa565b90506201518060016201518083611522919061552d565b61152c91906151fa565b61153691906154fc565b8660a0018181525050505b849550505050505092915050565b600860009054906101000a900473ffffffffffffffffffffffffffffffffffffffff1673ffffffffffffffffffffffffffffffffffffffff163373ffffffffffffffffffffffffffffffffffffffff16146115df576040517f08c379a00000000000000000000000000000000000000000000000000000000081526004016115d6906155ad565b60405180910390fd5b600080828060200190518101906115f691906156ad565b915091506040516020016116099061577c565b604051602081830303815290604052805190602001208260405160200161163091906157c2565b604051602081830303815290604052805190602001200361166f57600081806020019051810190611661919061545e565b905061166c81610972565b50505b60405160200161167e90615825565b60405160208183030381529060405280519060200120826040516020016116a591906157c2565b604051602081830303815290604052805190602001200361184e576000818060200190518101906116d69190615a9d565b9050806004600083600001518152602001908152602001600020600082015181600001556020820151816001015560408201518160020155606082015181600301556080820151816004015560a0820151816005015560c08201518160060160006101000a81548160ff0219169083600481111561175757611756613f8f565b5b021790555060e08201518160060160016101000a81548160ff0219169083151502179055506101008201518160070160008201518160000160006101000a81548173ffffffffffffffffffffffffffffffffffffffff021916908373ffffffffffffffffffffffffffffffffffffffff16021790555060208201518160000160146101000a81548160ff021916908360038111156117f8576117f7613f8f565b5b021790555060408201518160010155606082015181600201908161181c9190615c73565b5060808201518160030190816118329190615c73565b5060a0820151816004015560c082015181600501555050905050505b838563ffffffff167fba67744c899113a84f615d51af5d82f5fedcf26c9a474d9363c3ad9b0bd501ac856040516118859190615d45565b60405180910390a35050505050565b600660009054906101000a900473ffffffffffffffffffffffffffffffffffffffff1681565b6118c2613b9e565b6118cc6000613c75565b565b6118d6613b9e565b600073ffffffffffffffffffffffffffffffffffffffff16600960009054906101000a900473ffffffffffffffffffffffffffffffffffffffff1673ffffffffffffffffffffffffffffffffffffffff1614611967576040517f08c379a000000000000000000000000000000000000000000000000000000000815260040161195e90615db3565b60405180910390fd5b600073ffffffffffffffffffffffffffffffffffffffff168173ffffffffffffffffffffffffffffffffffffffff16036119d6576040517f08c379a00000000000000000000000000000000000000000000000000000000081526004016119cd90615e45565b60405180910390fd5b80600760006101000a81548173ffffffffffffffffffffffffffffffffffffffff021916908373ffffffffffffffffffffffffffffffffffffffff16021790555080600960006101000a81548173ffffffffffffffffffffffffffffffffffffffff021916908373ffffffffffffffffffffffffffffffffffffffff16021790555050565b606060026000838152602001908152602001600020805480602002602001604051908101604052809291908181526020016000905b82821015611cfa57838290600052602060002090600b02016040518061016001604052908160008201548152602001600182018054611ace90615030565b80601f0160208091040260200160405190810160405280929190818152602001828054611afa90615030565b8015611b475780601f10611b1c57610100808354040283529160200191611b47565b820191906000526020600020905b815481529060010190602001808311611b2a57829003601f168201915b505050505081526020016002820160009054906101000a900460ff166003811115611b7557611b74613f8f565b5b6003811115611b8757611b86613f8f565b5b8152602001600382018054611b9b90615030565b80601f0160208091040260200160405190810160405280929190818152602001828054611bc790615030565b8015611c145780601f10611be957610100808354040283529160200191611c14565b820191906000526020600020905b815481529060010190602001808311611bf757829003601f168201915b50505050508152602001600482015481526020016005820154815260200160068201548152602001600782015481526020016008820154815260200160098201548152602001600a82018054611c6990615030565b80601f0160208091040260200160405190810160405280929190818152602001828054611c9590615030565b8015611ce25780601f10611cb757610100808354040283529160200191611ce2565b820191906000526020600020905b815481529060010190602001808311611cc557829003601f168201915b50505050508152505081526020019060010190611a90565b505050509050919050565b6000600160009054906101000a900473ffffffffffffffffffffffffffffffffffffffff16905090565b600060036000838152602001908152602001600020600401549050919050565b611d57613b9e565b6003600082815260200190815260200160002060060160009054906101000a900460ff16611db1576040517fe067835f00000000000000000000000000000000000000000000000000000000815260040160405180910390fd5b60006003600083815260200190815260200160002060060160006101000a81548160ff021916908315150217905550600860009054906101000a900473ffffffffffffffffffffffffffffffffffffffff1673ffffffffffffffffffffffffffffffffffffffff1663fa31de01600b54611e4c600660009054906101000a900473ffffffffffffffffffffffffffffffffffffffff16613d3b565b600554604051602001611e5f9190614176565b604051602081830303815290604052604051602001611e7e9190615f06565b6040516020818303038152906040526040518463ffffffff1660e01b8152600401611eab93929190615f59565b6020604051808303816000875af1158015611eca573d6000803e3d6000fd5b505050506040513d601f19601f82011682018060405250810190611eee9190615fac565b5050565b600960009054906101000a900473ffffffffffffffffffffffffffffffffffffffff1673ffffffffffffffffffffffffffffffffffffffff163373ffffffffffffffffffffffffffffffffffffffff161480611f9b5750600a60009054906101000a900473ffffffffffffffffffffffffffffffffffffffff1673ffffffffffffffffffffffffffffffffffffffff163373ffffffffffffffffffffffffffffffffffffffff16145b611fda576040517f08c379a0000000000000000000000000000000000000000000000000000000008152600401611fd19061604b565b60405180910390fd5b80600360008481526020019081526020016000206007016000828254612000919061552d565b925050819055505050565b600960009054906101000a900473ffffffffffffffffffffffffffffffffffffffff1673ffffffffffffffffffffffffffffffffffffffff163373ffffffffffffffffffffffffffffffffffffffff1614806120b45750600a60009054906101000a900473ffffffffffffffffffffffffffffffffffffffff1673ffffffffffffffffffffffffffffffffffffffff163373ffffffffffffffffffffffffffffffffffffffff16145b6120f3576040517f08c379a00000000000000000000000000000000000000000000000000000000081526004016120ea9061604b565b60405180910390fd5b60005b600260008481526020019081526020016000208054905081101561225957816000015160026000858152602001908152602001600020828154811061213e5761213d61522e565b5b90600052602060002090600b0201600001540361224c578160026000858152602001908152602001600020828154811061217b5761217a61522e565b5b90600052602060002090600b02016000820151816000015560208201518160010190816121a89190615c73565b5060408201518160020160006101000a81548160ff021916908360038111156121d4576121d3613f8f565b5b021790555060608201518160030190816121ee9190615c73565b506080820151816004015560a0820151816005015560c0820151816006015560e082015181600701556101008201518160080155610120820151816009015561014082015181600a0190816122439190615c73565b50905050612259565b80806001019150506120f6565b505050565b600960009054906101000a900473ffffffffffffffffffffffffffffffffffffffff1673ffffffffffffffffffffffffffffffffffffffff163373ffffffffffffffffffffffffffffffffffffffff1614806123075750600a60009054906101000a900473ffffffffffffffffffffffffffffffffffffffff1673ffffffffffffffffffffffffffffffffffffffff163373ffffffffffffffffffffffffffffffffffffffff16145b612346576040517f08c379a000000000000000000000000000000000000000000000000000000000815260040161233d9061604b565b60405180910390fd5b8060036000848152602001908152602001600020600701600082825461236c91906151fa565b925050819055505050565b61237f613b9e565b600073ffffffffffffffffffffffffffffffffffffffff16600660009054906101000a900473ffffffffffffffffffffffffffffffffffffffff1673ffffffffffffffffffffffffffffffffffffffff1614612410576040517f08c379a000000000000000000000000000000000000000000000000000000000815260040161240790615db3565b60405180910390fd5b600073ffffffffffffffffffffffffffffffffffffffff168173ffffffffffffffffffffffffffffffffffffffff160361247f576040517f08c379a000000000000000000000000000000000000000000000000000000000815260040161247690615e45565b60405180910390fd5b80600660006101000a81548173ffffffffffffffffffffffffffffffffffffffff021916908373ffffffffffffffffffffffffffffffffffffffff16021790555050565b60036020528060005260406000206000915090508060000180546124e690615030565b80601f016020809104026020016040519081016040528092919081815260200182805461251290615030565b801561255f5780601f106125345761010080835404028352916020019161255f565b820191906000526020600020905b81548152906001019060200180831161254257829003601f168201915b5050505050908060010160009054906101000a900460ff16908060020154908060030154908060040154908060050154908060060160009054906101000a900460ff16908060070154905088565b6125b5613b9e565b8063ffffffff16600b8190555050565b6125cd613c25565b600060036000838152602001908152602001600020905060003411612627576040517f08c379a000000000000000000000000000000000000000000000000000000000815260040161261e906160b7565b60405180910390fd5b8060060160009054906101000a900460ff16612678576040517f08c379a000000000000000000000000000000000000000000000000000000000815260040161266f90616149565b60405180910390fd5b60008160080160003373ffffffffffffffffffffffffffffffffffffffff1673ffffffffffffffffffffffffffffffffffffffff16815260200190815260200160002060010154111561289a576000348260080160003373ffffffffffffffffffffffffffffffffffffffff1673ffffffffffffffffffffffffffffffffffffffff16815260200190815260200160002060010154612717919061552d565b9050808260080160003373ffffffffffffffffffffffffffffffffffffffff1673ffffffffffffffffffffffffffffffffffffffff16815260200190815260200160002060010181905550620151808260030154612775919061548b565b42612780919061552d565b8260080160003373ffffffffffffffffffffffffffffffffffffffff1673ffffffffffffffffffffffffffffffffffffffff1681526020019081526020016000206007018190555061016d60648360020154836127dd919061548b565b6127e791906154fc565b6127f191906154fc565b8260080160003373ffffffffffffffffffffffffffffffffffffffff1673ffffffffffffffffffffffffffffffffffffffff1681526020019081526020016000206003018190555062015180826003015461284c919061548b565b8260080160003373ffffffffffffffffffffffffffffffffffffffff1673ffffffffffffffffffffffffffffffffffffffff1681526020019081526020016000206005018190555050612a54565b600061016d60648360020154346128b1919061548b565b6128bb91906154fc565b6128c591906154fc565b90506040518061012001604052803373ffffffffffffffffffffffffffffffffffffffff1681526020013481526020018481526020018281526020016000600181111561291557612914613f8f565b5b815260200183600301548152602001428152602001603c846003015461293b919061548b565b42612946919061552d565b815260200160008152508260080160003373ffffffffffffffffffffffffffffffffffffffff1673ffffffffffffffffffffffffffffffffffffffff16815260200190815260200160002060008201518160000160006101000a81548173ffffffffffffffffffffffffffffffffffffffff021916908373ffffffffffffffffffffffffffffffffffffffff16021790555060208201518160010155604082015181600201556060820151816003015560808201518160040160006101000a81548160ff02191690836001811115612a2157612a20613f8f565b5b021790555060a0820151816005015560c0820151816006015560e082015181600701556101008201518160080155905050505b34816004016000828254612a68919061552d565b925050819055506000612a7a83611a5b565b905060005b8151811015612b4057600760009054906101000a900473ffffffffffffffffffffffffffffffffffffffff1673ffffffffffffffffffffffffffffffffffffffff1663106b5da1838381518110612ad957612ad861522e565b5b6020026020010151600001516040518263ffffffff1660e01b8152600401612b019190614176565b600060405180830381600087803b158015612b1b57600080fd5b505af1158015612b2f573d6000803e3d6000fd5b505050508080600101915050612a7f565b503373ffffffffffffffffffffffffffffffffffffffff167f6f85d9948d6ca3dd6ce6ce7d175da22b4e865827ae6fcd530ec7edac1240f9283484600001604051612b8c9291906153a8565b60405180910390a25050612b9e613c6b565b50565b600960009054906101000a900473ffffffffffffffffffffffffffffffffffffffff1673ffffffffffffffffffffffffffffffffffffffff163373ffffffffffffffffffffffffffffffffffffffff161480612c4a5750600a60009054906101000a900473ffffffffffffffffffffffffffffffffffffffff1673ffffffffffffffffffffffffffffffffffffffff163373ffffffffffffffffffffffffffffffffffffffff16145b612c89576040517f08c379a0000000000000000000000000000000000000000000000000000000008152600401612c809061604b565b60405180910390fd5b600260008381526020019081526020016000208190806001815401808255809150506001900390600052602060002090600b0201600090919091909150600082015181600001556020820151816001019081612ce59190615c73565b5060408201518160020160006101000a81548160ff02191690836003811115612d1157612d10613f8f565b5b02179055506060820151816003019081612d2b9190615c73565b506080820151816004015560a0820151816005015560c0820151816006015560e082015181600701556101008201518160080155610120820151816009015561014082015181600a019081612d809190615c73565b5050505050565b600860009054906101000a900473ffffffffffffffffffffffffffffffffffffffff1681565b612db5613b9e565b6003600084815260200190815260200160002060060160009054906101000a900460ff16612e18576040517f08c379a0000000000000000000000000000000000000000000000000000000008152600401612e0f906161db565b60405180910390fd5b60008211612e5b576040517f08c379a0000000000000000000000000000000000000000000000000000000008152600401612e5290616247565b60405180910390fd5b60008111612e9e576040517f08c379a0000000000000000000000000000000000000000000000000000000008152600401612e95906162b3565b60405180910390fd5b816003600085815260200190815260200160002060020181905550806003600085815260200190815260200160002060030181905550827f17b8644f386d1c7c7138ef98b3c8035622bbe94d7be9b26f71d2654a547c29438383604051612f069291906162d3565b60405180910390a2505050565b6060600060055467ffffffffffffffff811115612f3357612f3261459d565b5b604051908082528060200260200182016040528015612f6c57816020015b612f59613e2f565b815260200190600190039081612f515790505b5090506000600190505b60055481116130e4576000600360008381526020019081526020016000209050604051806101000160405280826000018054612fb190615030565b80601f0160208091040260200160405190810160405280929190818152602001828054612fdd90615030565b801561302a5780601f10612fff5761010080835404028352916020019161302a565b820191906000526020600020905b81548152906001019060200180831161300d57829003601f168201915b505050505081526020018260010160009054906101000a900460ff16600381111561305857613057613f8f565b5b8152602001826002015481526020018260030154815260200182600401548152602001826005015481526020018260060160009054906101000a900460ff16151581526020018260070154815250836001846130b491906151fa565b815181106130c5576130c461522e565b5b60200260200101819052505080806130dc906153d8565b915050612f76565b508091505090565b6130f4613b9e565b600160056000828254613107919061552d565b9250508190555060006003600060055481526020019081526020016000209050838160000190816131389190615c73565b508281600201819055508181600301819055506000816004018190555060018160060160006101000a81548160ff021916908315150217905550848160010160006101000a81548160ff0219169083600381111561319957613198613f8f565b5b021790555060648160070181905550600860009054906101000a900473ffffffffffffffffffffffffffffffffffffffff1673ffffffffffffffffffffffffffffffffffffffff1663fa31de01600b54613214600660009054906101000a900473ffffffffffffffffffffffffffffffffffffffff16613d3b565b6005546040516020016132279190614176565b6040516020818303038152906040526040516020016132469190616348565b6040516020818303038152906040526040518463ffffffff1660e01b815260040161327393929190615f59565b6020604051808303816000875af1158015613292573d6000803e3d6000fd5b505050506040513d601f19601f820116820180604052508101906132b69190615fac565b506005547ff01906dc0ac306fa816e50166a7ed46af1f05721cb90cea30beebdd8dede3a6d856040516132e99190615d45565b60405180910390a25050505050565b600c60009054906101000a900473ffffffffffffffffffffffffffffffffffffffff1681565b613326613c25565b600060046000838152602001908152602001600020604051806101200160405290816000820154815260200160018201548152602001600282015481526020016003820154815260200160048201548152602001600582015481526020016006820160009054906101000a900460ff1660048111156133a8576133a7613f8f565b5b60048111156133ba576133b9613f8f565b5b81526020016006820160019054906101000a900460ff16151515158152602001600782016040518060e00160405290816000820160009054906101000a900473ffffffffffffffffffffffffffffffffffffffff1673ffffffffffffffffffffffffffffffffffffffff1673ffffffffffffffffffffffffffffffffffffffff1681526020016000820160149054906101000a900460ff16600381111561346457613463613f8f565b5b600381111561347657613475613f8f565b5b81526020016001820154815260200160028201805461349490615030565b80601f01602080910402602001604051908101604052809291908181526020018280546134c090615030565b801561350d5780601f106134e25761010080835404028352916020019161350d565b820191906000526020600020905b8154815290600101906020018083116134f057829003601f168201915b5050505050815260200160038201805461352690615030565b80601f016020809104026020016040519081016040528092919081815260200182805461355290615030565b801561359f5780601f106135745761010080835404028352916020019161359f565b820191906000526020600020905b81548152906001019060200180831161358257829003601f168201915b505050505081526020016004820154815260200160058201548152505081525050905060008161010001519050600260048111156135e0576135df613f8f565b5b8260c0015160048111156135f7576135f6613f8f565b5b14801561360557508160e001515b613644576040517f08c379a000000000000000000000000000000000000000000000000000000000815260040161363b906163c9565b60405180910390fd5b6000600360008360a0015181526020019081526020016000209050816000015173ffffffffffffffffffffffffffffffffffffffff163373ffffffffffffffffffffffffffffffffffffffff16146136d1576040517f08c379a00000000000000000000000000000000000000000000000000000000081526004016136c890616435565b60405180910390fd5b8060060160009054906101000a900460ff16613722576040517f08c379a0000000000000000000000000000000000000000000000000000000008152600401613719906164a1565b60405180910390fd5b8160c001518160040154101561376d576040517f08c379a00000000000000000000000000000000000000000000000000000000081526004016137649061650d565b60405180910390fd5b8160c00151816005016000828254613785919061552d565b925050819055508160c001518160040160008282546137a491906151fa565b9250508190555060006137ba8360a00151611a5b565b905060005b815181101561388057600760009054906101000a900473ffffffffffffffffffffffffffffffffffffffff1673ffffffffffffffffffffffffffffffffffffffff1663106b5da18383815181106138195761381861522e565b5b6020026020010151600001516040518263ffffffff1660e01b81526004016138419190614176565b600060405180830381600087803b15801561385b57600080fd5b505af115801561386f573d6000803e3d6000fd5b5050505080806001019150506137bf565b50600860009054906101000a900473ffffffffffffffffffffffffffffffffffffffff1673ffffffffffffffffffffffffffffffffffffffff1663fa31de01600b546138ed600660009054906101000a900473ffffffffffffffffffffffffffffffffffffffff16613d3b565b886040516020016138fe9190614176565b60405160208183030381529060405260405160200161391d9190616579565b6040516020818303038152906040526040518463ffffffff1660e01b815260040161394a93929190615f59565b6020604051808303816000875af1158015613969573d6000803e3d6000fd5b505050506040513d601f19601f8201168201806040525081019061398d9190615fac565b507feef4955e8b18dcb6d1c19905b7b86e5fe56138ad1ce2c5e540ce4e959312f5118360a001518460c0015185600001516040516139cd939291906165ae565b60405180910390a160003373ffffffffffffffffffffffffffffffffffffffff168460c001516040516139ff9061528e565b60006040518083038185875af1925050503d8060008114613a3c576040519150601f19603f3d011682016040523d82523d6000602084013e613a41565b606091505b5050905080613a85576040517f08c379a0000000000000000000000000000000000000000000000000000000008152600401613a7c90616631565b60405180910390fd5b3373ffffffffffffffffffffffffffffffffffffffff167f415071086c9ea63f7f39884c21a8af430af53bfd511a362dff69cabcb1b8bcc1846000018660c00151604051613ad4929190616651565b60405180910390a25050505050613ae9613c6b565b50565b613af4613b9e565b600073ffffffffffffffffffffffffffffffffffffffff168173ffffffffffffffffffffffffffffffffffffffff1603613b665760006040517f1e4fbdf7000000000000000000000000000000000000000000000000000000008152600401613b5d9190614140565b60405180910390fd5b613b6f81613c75565b50565b60055481565b600760009054906101000a900473ffffffffffffffffffffffffffffffffffffffff1681565b613ba6613d5e565b73ffffffffffffffffffffffffffffffffffffffff16613bc4611d05565b73ffffffffffffffffffffffffffffffffffffffff1614613c2357613be7613d5e565b6040517f118cdaa7000000000000000000000000000000000000000000000000000000008152600401613c1a9190614140565b60405180910390fd5b565b600260005403613c61576040517f3ee5aeb500000000000000000000000000000000000000000000000000000000815260040160405180910390fd5b6002600081905550565b6001600081905550565b6000600160009054906101000a900473ffffffffffffffffffffffffffffffffffffffff16905081600160006101000a81548173ffffffffffffffffffffffffffffffffffffffff021916908373ffffffffffffffffffffffffffffffffffffffff1602179055508173ffffffffffffffffffffffffffffffffffffffff168173ffffffffffffffffffffffffffffffffffffffff167f8be0079c531659141344cd1fd0a4f28419497f9722a3daafe3b4186f6b6457e060405160405180910390a35050565b60008173ffffffffffffffffffffffffffffffffffffffff1660001b9050919050565b600033905090565b6040518061014001604052806060815260200160008152602001600081526020016000815260200160008152602001600081526020016000815260200160008152602001600015158152602001600081525090565b604051806101200160405280600073ffffffffffffffffffffffffffffffffffffffff16815260200160008152602001600081526020016000815260200160006001811115613e0d57613e0c613f8f565b5b8152602001600081526020016000815260200160008152602001600081525090565b6040518061010001604052806060815260200160006003811115613e5657613e55613f8f565b5b815260200160008152602001600081526020016000815260200160008152602001600015158152602001600081525090565b6000604051905090565b600080fd5b600080fd5b6000819050919050565b613eaf81613e9c565b8114613eba57600080fd5b50565b600081359050613ecc81613ea6565b92915050565b600060208284031215613ee857613ee7613e92565b5b6000613ef684828501613ebd565b91505092915050565b600081519050919050565b600082825260208201905092915050565b60005b83811015613f39578082015181840152602081019050613f1e565b60008484015250505050565b6000601f19601f8301169050919050565b6000613f6182613eff565b613f6b8185613f0a565b9350613f7b818560208601613f1b565b613f8481613f45565b840191505092915050565b7f4e487b7100000000000000000000000000000000000000000000000000000000600052602160045260246000fd5b60048110613fcf57613fce613f8f565b5b50565b6000819050613fe082613fbe565b919050565b6000613ff082613fd2565b9050919050565b61400081613fe5565b82525050565b61400f81613e9c565b82525050565b60008115159050919050565b61402a81614015565b82525050565b600060e082019050818103600083015261404a818a613f56565b90506140596020830189613ff7565b6140666040830188614006565b6140736060830187614006565b6140806080830186614006565b61408d60a0830185614021565b61409a60c0830184614006565b98975050505050505050565b600073ffffffffffffffffffffffffffffffffffffffff82169050919050565b60006140d1826140a6565b9050919050565b6140e1816140c6565b81146140ec57600080fd5b50565b6000813590506140fe816140d8565b92915050565b60006020828403121561411a57614119613e92565b5b6000614128848285016140ef565b91505092915050565b61413a816140c6565b82525050565b60006020820190506141556000830184614131565b92915050565b60006020820190506141706000830184614021565b92915050565b600060208201905061418b6000830184614006565b92915050565b600081519050919050565b600082825260208201905092915050565b6000819050602082019050919050565b600082825260208201905092915050565b60006141d982613eff565b6141e381856141bd565b93506141f3818560208601613f1b565b6141fc81613f45565b840191505092915050565b61421081613e9c565b82525050565b61421f81614015565b82525050565b600061014083016000830151848203600086015261424382826141ce565b91505060208301516142586020860182614207565b50604083015161426b6040860182614207565b50606083015161427e6060860182614207565b5060808301516142916080860182614207565b5060a08301516142a460a0860182614207565b5060c08301516142b760c0860182614207565b5060e08301516142ca60e0860182614207565b506101008301516142df610100860182614216565b506101208301516142f4610120860182614207565b508091505092915050565b600061430b8383614225565b905092915050565b6000602082019050919050565b600061432b82614191565b614335818561419c565b935083602082028501614347856141ad565b8060005b85811015614383578484038952815161436485826142ff565b945061436f83614313565b925060208a0199505060018101905061434b565b50829750879550505050505092915050565b600060208201905081810360008301526143af8184614320565b905092915050565b600080604083850312156143ce576143cd613e92565b5b60006143dc85828601613ebd565b92505060206143ed858286016140ef565b9150509250929050565b614400816140c6565b82525050565b6002811061441757614416613f8f565b5b50565b600081905061442882614406565b919050565b60006144388261441a565b9050919050565b6144488161442d565b82525050565b6101208201600082015161446560008501826143f7565b5060208201516144786020850182614207565b50604082015161448b6040850182614207565b50606082015161449e6060850182614207565b5060808201516144b1608085018261443f565b5060a08201516144c460a0850182614207565b5060c08201516144d760c0850182614207565b5060e08201516144ea60e0850182614207565b506101008201516144ff610100850182614207565b50505050565b60006101208201905061451b600083018461444e565b92915050565b600063ffffffff82169050919050565b61453a81614521565b811461454557600080fd5b50565b60008135905061455781614531565b92915050565b6000819050919050565b6145708161455d565b811461457b57600080fd5b50565b60008135905061458d81614567565b92915050565b600080fd5b600080fd5b7f4e487b7100000000000000000000000000000000000000000000000000000000600052604160045260246000fd5b6145d582613f45565b810181811067ffffffffffffffff821117156145f4576145f361459d565b5b80604052505050565b6000614607613e88565b905061461382826145cc565b919050565b600067ffffffffffffffff8211156146335761463261459d565b5b61463c82613f45565b9050602081019050919050565b82818337600083830152505050565b600061466b61466684614618565b6145fd565b90508281526020810184848401111561468757614686614598565b5b614692848285614649565b509392505050565b600082601f8301126146af576146ae614593565b5b81356146bf848260208601614658565b91505092915050565b6000806000606084860312156146e1576146e0613e92565b5b60006146ef86828701614548565b93505060206147008682870161457e565b925050604084013567ffffffffffffffff81111561472157614720613e97565b5b61472d8682870161469a565b9150509250925092565b600081519050919050565b600082825260208201905092915050565b6000819050602082019050919050565b61476c81613fe5565b82525050565b60006101608301600083015161478b6000860182614207565b50602083015184820360208601526147a382826141ce565b91505060408301516147b86040860182614763565b50606083015184820360608601526147d082826141ce565b91505060808301516147e56080860182614207565b5060a08301516147f860a0860182614207565b5060c083015161480b60c0860182614207565b5060e083015161481e60e0860182614207565b50610100830151614833610100860182614207565b50610120830151614848610120860182614207565b5061014083015184820361014086015261486282826141ce565b9150508091505092915050565b600061487b8383614772565b905092915050565b6000602082019050919050565b600061489b82614737565b6148a58185614742565b9350836020820285016148b785614753565b8060005b858110156148f357848403895281516148d4858261486f565b94506148df83614883565b925060208a019950506001810190506148bb565b50829750879550505050505092915050565b6000602082019050818103600083015261491f8184614890565b905092915050565b6000806040838503121561493e5761493d613e92565b5b600061494c85828601613ebd565b925050602061495d85828601613ebd565b9150509250929050565b600080fd5b600080fd5b600067ffffffffffffffff82111561498c5761498b61459d565b5b61499582613f45565b9050602081019050919050565b60006149b56149b084614971565b6145fd565b9050828152602081018484840111156149d1576149d0614598565b5b6149dc848285614649565b509392505050565b600082601f8301126149f9576149f8614593565b5b8135614a098482602086016149a2565b91505092915050565b60048110614a1f57600080fd5b50565b600081359050614a3181614a12565b92915050565b60006101608284031215614a4e57614a4d614967565b5b614a596101606145fd565b90506000614a6984828501613ebd565b600083015250602082013567ffffffffffffffff811115614a8d57614a8c61496c565b5b614a99848285016149e4565b6020830152506040614aad84828501614a22565b604083015250606082013567ffffffffffffffff811115614ad157614ad061496c565b5b614add848285016149e4565b6060830152506080614af184828501613ebd565b60808301525060a0614b0584828501613ebd565b60a08301525060c0614b1984828501613ebd565b60c08301525060e0614b2d84828501613ebd565b60e083015250610100614b4284828501613ebd565b61010083015250610120614b5884828501613ebd565b6101208301525061014082013567ffffffffffffffff811115614b7e57614b7d61496c565b5b614b8a848285016149e4565b6101408301525092915050565b60008060408385031215614bae57614bad613e92565b5b6000614bbc85828601613ebd565b925050602083013567ffffffffffffffff811115614bdd57614bdc613e97565b5b614be985828601614a37565b9150509250929050565b6000610100820190508181036000830152614c0e818b613f56565b9050614c1d602083018a613ff7565b614c2a6040830189614006565b614c376060830188614006565b614c446080830187614006565b614c5160a0830186614006565b614c5e60c0830185614021565b614c6b60e0830184614006565b9998505050505050505050565b600060208284031215614c8e57614c8d613e92565b5b6000614c9c84828501614548565b91505092915050565b6000819050919050565b6000614cca614cc5614cc0846140a6565b614ca5565b6140a6565b9050919050565b6000614cdc82614caf565b9050919050565b6000614cee82614cd1565b9050919050565b614cfe81614ce3565b82525050565b6000602082019050614d196000830184614cf5565b92915050565b600080600060608486031215614d3857614d37613e92565b5b6000614d4686828701613ebd565b9350506020614d5786828701613ebd565b9250506040614d6886828701613ebd565b9150509250925092565b600081519050919050565b600082825260208201905092915050565b6000819050602082019050919050565b6000610100830160008301518482036000860152614dbc82826141ce565b9150506020830151614dd16020860182614763565b506040830151614de46040860182614207565b506060830151614df76060860182614207565b506080830151614e0a6080860182614207565b5060a0830151614e1d60a0860182614207565b5060c0830151614e3060c0860182614216565b5060e0830151614e4360e0860182614207565b508091505092915050565b6000614e5a8383614d9e565b905092915050565b6000602082019050919050565b6000614e7a82614d72565b614e848185614d7d565b935083602082028501614e9685614d8e565b8060005b85811015614ed25784840389528151614eb38582614e4e565b9450614ebe83614e62565b925060208a01995050600181019050614e9a565b50829750879550505050505092915050565b60006020820190508181036000830152614efe8184614e6f565b905092915050565b60008060008060808587031215614f2057614f1f613e92565b5b6000614f2e87828801614a22565b945050602085013567ffffffffffffffff811115614f4f57614f4e613e97565b5b614f5b878288016149e4565b9350506040614f6c87828801613ebd565b9250506060614f7d87828801613ebd565b91505092959194509250565b6000614f9482614cd1565b9050919050565b614fa481614f89565b82525050565b6000602082019050614fbf6000830184614f9b565b92915050565b6000614fd082614cd1565b9050919050565b614fe081614fc5565b82525050565b6000602082019050614ffb6000830184614fd7565b92915050565b7f4e487b7100000000000000000000000000000000000000000000000000000000600052602260045260246000fd5b6000600282049050600182168061504857607f821691505b60208210810361505b5761505a615001565b5b50919050565b7f4e6f206465706f73697420666f756e6420666f7220746869732061646472657360008201527f7300000000000000000000000000000000000000000000000000000000000000602082015250565b60006150bd602183613f0a565b91506150c882615061565b604082019050919050565b600060208201905081810360008301526150ec816150b0565b9050919050565b7f4465706f736974206973206e6f74206163746976650000000000000000000000600082015250565b6000615129601583613f0a565b9150615134826150f3565b602082019050919050565b600060208201905081810360008301526151588161511c565b9050919050565b7f4465706f73697420706572696f6420686173206e6f7420656e64656400000000600082015250565b6000615195601c83613f0a565b91506151a08261515f565b602082019050919050565b600060208201905081810360008301526151c481615188565b9050919050565b7f4e487b7100000000000000000000000000000000000000000000000000000000600052601160045260246000fd5b600061520582613e9c565b915061521083613e9c565b9250828203905081811115615228576152276151cb565b5b92915050565b7f4e487b7100000000000000000000000000000000000000000000000000000000600052603260045260246000fd5b600081905092915050565b50565b600061527860008361525d565b915061528382615268565b600082019050919050565b60006152998261526b565b9150819050919050565b7f5769746864726177616c206661696c6564000000000000000000000000000000600082015250565b60006152d9601183613f0a565b91506152e4826152a3565b602082019050919050565b60006020820190508181036000830152615308816152cc565b9050919050565b60008190508160005260206000209050919050565b6000815461533181615030565b61533b8186613f0a565b94506001821660008114615356576001811461536c5761539f565b60ff19831686528115156020028601935061539f565b6153758561530f565b60005b8381101561539757815481890152600182019150602081019050615378565b808801955050505b50505092915050565b60006040820190506153bd6000830185614006565b81810360208301526153cf8184615324565b90509392505050565b60006153e382613e9c565b91507fffffffffffffffffffffffffffffffffffffffffffffffffffffffffffffffff8203615415576154146151cb565b5b600182019050919050565b60006040820190506154356000830185614131565b6154426020830184614006565b9392505050565b60008151905061545881613ea6565b92915050565b60006020828403121561547457615473613e92565b5b600061548284828501615449565b91505092915050565b600061549682613e9c565b91506154a183613e9c565b92508282026154af81613e9c565b915082820484148315176154c6576154c56151cb565b5b5092915050565b7f4e487b7100000000000000000000000000000000000000000000000000000000600052601260045260246000fd5b600061550782613e9c565b915061551283613e9c565b925082615522576155216154cd565b5b828204905092915050565b600061553882613e9c565b915061554383613e9c565b925082820190508082111561555b5761555a6151cb565b5b92915050565b7f53656e646572206d757374206265206d61696c626f7800000000000000000000600082015250565b6000615597601683613f0a565b91506155a282615561565b602082019050919050565b600060208201905081810360008301526155c68161558a565b9050919050565b60006155e06155db84614971565b6145fd565b9050828152602081018484840111156155fc576155fb614598565b5b615607848285613f1b565b509392505050565b600082601f83011261562457615623614593565b5b81516156348482602086016155cd565b91505092915050565b600061565061564b84614618565b6145fd565b90508281526020810184848401111561566c5761566b614598565b5b615677848285613f1b565b509392505050565b600082601f83011261569457615693614593565b5b81516156a484826020860161563d565b91505092915050565b600080604083850312156156c4576156c3613e92565b5b600083015167ffffffffffffffff8111156156e2576156e1613e97565b5b6156ee8582860161560f565b925050602083015167ffffffffffffffff81111561570f5761570e613e97565b5b61571b8582860161567f565b9150509250929050565b600081905092915050565b7f706f6f6c41637469766500000000000000000000000000000000000000000000600082015250565b6000615766600a83615725565b915061577182615730565b600a82019050919050565b600061578782615759565b9150819050919050565b600061579c82613eff565b6157a68185615725565b93506157b6818560208601613f1b565b80840191505092915050565b60006157ce8284615791565b915081905092915050565b7f617070726f76656450726f706f73616c73000000000000000000000000000000600082015250565b600061580f601183615725565b915061581a826157d9565b601182019050919050565b600061583082615802565b9150819050919050565b6005811061584757600080fd5b50565b6000815190506158598161583a565b92915050565b61586881614015565b811461587357600080fd5b50565b6000815190506158858161585f565b92915050565b60008151905061589a816140d8565b92915050565b6000815190506158af81614a12565b92915050565b600060e082840312156158cb576158ca614967565b5b6158d560e06145fd565b905060006158e58482850161588b565b60008301525060206158f9848285016158a0565b602083015250604061590d84828501615449565b604083015250606082015167ffffffffffffffff8111156159315761593061496c565b5b61593d8482850161560f565b606083015250608082015167ffffffffffffffff8111156159615761596061496c565b5b61596d8482850161560f565b60808301525060a061598184828501615449565b60a08301525060c061599584828501615449565b60c08301525092915050565b600061012082840312156159b8576159b7614967565b5b6159c36101206145fd565b905060006159d384828501615449565b60008301525060206159e784828501615449565b60208301525060406159fb84828501615449565b6040830152506060615a0f84828501615449565b6060830152506080615a2384828501615449565b60808301525060a0615a3784828501615449565b60a08301525060c0615a4b8482850161584a565b60c08301525060e0615a5f84828501615876565b60e08301525061010082015167ffffffffffffffff811115615a8457615a8361496c565b5b615a90848285016158b5565b6101008301525092915050565b600060208284031215615ab357615ab2613e92565b5b600082015167ffffffffffffffff811115615ad157615ad0613e97565b5b615add848285016159a1565b91505092915050565b60006020601f8301049050919050565b600082821b905092915050565b600060088302615b337fffffffffffffffffffffffffffffffffffffffffffffffffffffffffffffffff82615af6565b615b3d8683615af6565b95508019841693508086168417925050509392505050565b6000615b70615b6b615b6684613e9c565b614ca5565b613e9c565b9050919050565b6000819050919050565b615b8a83615b55565b615b9e615b9682615b77565b848454615b03565b825550505050565b600090565b615bb3615ba6565b615bbe818484615b81565b505050565b5b81811015615be257615bd7600082615bab565b600181019050615bc4565b5050565b601f821115615c2757615bf88161530f565b615c0184615ae6565b81016020851015615c10578190505b615c24615c1c85615ae6565b830182615bc3565b50505b505050565b600082821c905092915050565b6000615c4a60001984600802615c2c565b1980831691505092915050565b6000615c638383615c39565b9150826002028217905092915050565b615c7c82613eff565b67ffffffffffffffff811115615c9557615c9461459d565b5b615c9f8254615030565b615caa828285615be6565b600060209050601f831160018114615cdd5760008415615ccb578287015190505b615cd58582615c57565b865550615d3d565b601f198416615ceb8661530f565b60005b82811015615d1357848901518255600182019150602085019450602081019050615cee565b86831015615d305784890151615d2c601f891682615c39565b8355505b6001600288020188555050505b505050505050565b60006020820190508181036000830152615d5f8184613f56565b905092915050565b7f476f7665726e616e636520616c72656164792073657400000000000000000000600082015250565b6000615d9d601683613f0a565b9150615da882615d67565b602082019050919050565b60006020820190508181036000830152615dcc81615d90565b9050919050565b7f476f7665726e616e636520616464726573732063616e6e6f74206265207a657260008201527f6f00000000000000000000000000000000000000000000000000000000000000602082015250565b6000615e2f602183613f0a565b9150615e3a82615dd3565b604082019050919050565b60006020820190508181036000830152615e5e81615e22565b9050919050565b7f506f6f6c44656163746976617465640000000000000000000000000000000000600082015250565b6000615e9b600f83613f0a565b9150615ea682615e65565b602082019050919050565b600081519050919050565b600082825260208201905092915050565b6000615ed882615eb1565b615ee28185615ebc565b9350615ef2818560208601613f1b565b615efb81613f45565b840191505092915050565b60006040820190508181036000830152615f1f81615e8e565b90508181036020830152615f338184615ecd565b905092915050565b615f4481614521565b82525050565b615f538161455d565b82525050565b6000606082019050615f6e6000830186615f3b565b615f7b6020830185615f4a565b8181036040830152615f8d8184615ecd565b9050949350505050565b600081519050615fa681614567565b92915050565b600060208284031215615fc257615fc1613e92565b5b6000615fd084828501615f97565b91505092915050565b7f43616c6c6572206973206e6f742074686520676f7665726e616e636520636f6e60008201527f7472616374000000000000000000000000000000000000000000000000000000602082015250565b6000616035602583613f0a565b915061604082615fd9565b604082019050919050565b6000602082019050818103600083015261606481616028565b9050919050565b7f416d6f756e74206d7573742062652067726561746572207468616e2030000000600082015250565b60006160a1601d83613f0a565b91506160ac8261606b565b602082019050919050565b600060208201905081810360008301526160d081616094565b9050919050565b7f506f6f6c20697320696e616374697665206f7220646f6573206e6f742065786960008201527f7374000000000000000000000000000000000000000000000000000000000000602082015250565b6000616133602283613f0a565b915061613e826160d7565b604082019050919050565b6000602082019050818103600083015261616281616126565b9050919050565b7f506f6f6c20646f6573206e6f74206578697374206f7220697320696e6163746960008201527f7665000000000000000000000000000000000000000000000000000000000000602082015250565b60006161c5602283613f0a565b91506161d082616169565b604082019050919050565b600060208201905081810360008301526161f4816161b8565b9050919050565b7f496e76616c696420415059000000000000000000000000000000000000000000600082015250565b6000616231600b83613f0a565b915061623c826161fb565b602082019050919050565b6000602082019050818103600083015261626081616224565b9050919050565b7f496e76616c6964206d696e696d756d20706572696f6400000000000000000000600082015250565b600061629d601683613f0a565b91506162a882616267565b602082019050919050565b600060208201905081810360008301526162cc81616290565b9050919050565b60006040820190506162e86000830185614006565b6162f56020830184614006565b9392505050565b7f506f6f6c41637469766500000000000000000000000000000000000000000000600082015250565b6000616332600a83613f0a565b915061633d826162fc565b602082019050919050565b6000604082019050818103600083015261636181616325565b905081810360208301526163758184615ecd565b905092915050565b7f50726f706f73616c206e6f7420617070726f7665640000000000000000000000600082015250565b60006163b3601583613f0a565b91506163be8261637d565b602082019050919050565b600060208201905081810360008301526163e2816163a6565b9050919050565b7f4e6f7420612076616c69642070726f706f73616c000000000000000000000000600082015250565b600061641f601483613f0a565b915061642a826163e9565b602082019050919050565b6000602082019050818103600083015261644e81616412565b9050919050565b7f506f6f6c206973206e6f74206163746976650000000000000000000000000000600082015250565b600061648b601283613f0a565b915061649682616455565b602082019050919050565b600060208201905081810360008301526164ba8161647e565b9050919050565b7f4e6f7420656e6f7567682066756e647320696e2074686520706f6f6c00000000600082015250565b60006164f7601c83613f0a565b9150616502826164c1565b602082019050919050565b60006020820190508181036000830152616526816164ea565b9050919050565b7f75706461746550726f706f73616c537461747573546f436c61696d6564000000600082015250565b6000616563601d83613f0a565b915061656e8261652d565b602082019050919050565b6000604082019050818103600083015261659281616556565b905081810360208301526165a68184615ecd565b905092915050565b60006060820190506165c36000830186614006565b6165d06020830185614006565b6165dd6040830184614131565b949350505050565b7f5472616e73666572206661696c65640000000000000000000000000000000000600082015250565b600061661b600f83613f0a565b9150616626826165e5565b602082019050919050565b6000602082019050818103600083015261664a8161660e565b9050919050565b6000604082019050818103600083015261666b8185615324565b905061667a6020830184614006565b939250505056fea2646970667358221220ddd343a8ca3b1eff9f66888169583082c7d3c352d3e8cb5fac8de3f1f800876764736f6c634300081b0033",
  "linkReferences": {},
  "deployedLinkReferences": {}
}