{
  "_format": "hh-sol-artifact-1",
  "contractName": "InsurancePool",
  "sourceName": "contracts/InsurancePool.sol",
  "abi": [
    {
      "inputs": [
        {
          "internalType": "address",
          "name": "_mailbox",
          "type": "address"
        },
        {
          "internalType": "address",
          "name": "_initialOwner",
          "type": "address"
        },
        {
          "internalType": "uint32",
          "name": "_destinationDomain",
          "type": "uint32"
        }
      ],
      "stateMutability": "nonpayable",
      "type": "constructor"
    },
    {
      "inputs": [],
      "name": "LpNotActive",
      "type": "error"
    },
    {
      "inputs": [
        {
          "internalType": "address",
          "name": "owner",
          "type": "address"
        }
      ],
      "name": "OwnableInvalidOwner",
      "type": "error"
    },
    {
      "inputs": [
        {
          "internalType": "address",
          "name": "account",
          "type": "address"
        }
      ],
      "name": "OwnableUnauthorizedAccount",
      "type": "error"
    },
    {
      "inputs": [],
      "name": "ReentrancyGuardReentrantCall",
      "type": "error"
    },
    {
      "anonymous": false,
      "inputs": [
        {
          "indexed": false,
          "internalType": "uint256",
          "name": "",
          "type": "uint256"
        },
        {
          "indexed": false,
          "internalType": "uint256",
          "name": "",
          "type": "uint256"
        },
        {
          "indexed": false,
          "internalType": "address",
          "name": "",
          "type": "address"
        }
      ],
      "name": "ClaimAttempt",
      "type": "event"
    },
    {
      "anonymous": false,
      "inputs": [
        {
          "indexed": true,
          "internalType": "address",
          "name": "recipient",
          "type": "address"
        },
        {
          "indexed": false,
          "internalType": "string",
          "name": "pool",
          "type": "string"
        },
        {
          "indexed": false,
          "internalType": "uint256",
          "name": "amount",
          "type": "uint256"
        }
      ],
      "name": "ClaimPaid",
      "type": "event"
    },
    {
      "anonymous": false,
      "inputs": [
        {
          "indexed": true,
          "internalType": "address",
          "name": "user",
          "type": "address"
        },
        {
          "indexed": false,
          "internalType": "uint256",
          "name": "amount",
          "type": "uint256"
        },
        {
          "indexed": false,
          "internalType": "string",
          "name": "pool",
          "type": "string"
        }
      ],
      "name": "Deposited",
      "type": "event"
    },
    {
      "anonymous": false,
      "inputs": [
        {
          "indexed": true,
          "internalType": "address",
          "name": "previousOwner",
          "type": "address"
        },
        {
          "indexed": true,
          "internalType": "address",
          "name": "newOwner",
          "type": "address"
        }
      ],
      "name": "OwnershipTransferred",
      "type": "event"
    },
    {
      "anonymous": false,
      "inputs": [
        {
          "indexed": true,
          "internalType": "uint256",
          "name": "id",
          "type": "uint256"
        },
        {
          "indexed": false,
          "internalType": "string",
          "name": "poolName",
          "type": "string"
        }
      ],
      "name": "PoolCreated",
      "type": "event"
    },
    {
      "anonymous": false,
      "inputs": [
        {
          "indexed": true,
          "internalType": "uint256",
          "name": "poolId",
          "type": "uint256"
        },
        {
          "indexed": false,
          "internalType": "uint256",
          "name": "apy",
          "type": "uint256"
        },
        {
          "indexed": false,
          "internalType": "uint256",
          "name": "_minPeriod",
          "type": "uint256"
        }
      ],
      "name": "PoolUpdated",
      "type": "event"
    },
    {
      "anonymous": false,
      "inputs": [
        {
          "indexed": true,
          "internalType": "uint32",
          "name": "origin",
          "type": "uint32"
        },
        {
          "indexed": true,
          "internalType": "bytes32",
          "name": "sender",
          "type": "bytes32"
        },
        {
          "indexed": false,
          "internalType": "string",
          "name": "message",
          "type": "string"
        }
      ],
      "name": "ReceivedMessage",
      "type": "event"
    },
    {
      "anonymous": false,
      "inputs": [
        {
          "indexed": true,
          "internalType": "address",
          "name": "user",
          "type": "address"
        },
        {
          "indexed": false,
          "internalType": "uint256",
          "name": "amount",
          "type": "uint256"
        },
        {
          "indexed": false,
          "internalType": "string",
          "name": "pool",
          "type": "string"
        }
      ],
      "name": "Withdraw",
      "type": "event"
    },
    {
      "inputs": [],
      "name": "ICoverContract",
      "outputs": [
        {
          "internalType": "contract ICover",
          "name": "",
          "type": "address"
        }
      ],
      "stateMutability": "view",
      "type": "function"
    },
    {
      "inputs": [
        {
          "internalType": "uint256",
          "name": "_poolId",
          "type": "uint256"
        },
        {
          "components": [
            {
              "internalType": "uint256",
              "name": "id",
              "type": "uint256"
            },
            {
              "internalType": "string",
              "name": "coverName",
              "type": "string"
            },
            {
              "internalType": "enum CoverLib.RiskType",
              "name": "riskType",
              "type": "uint8"
            },
            {
              "internalType": "string",
              "name": "chains",
              "type": "string"
            },
            {
              "internalType": "uint256",
              "name": "capacity",
              "type": "uint256"
            },
            {
              "internalType": "uint256",
              "name": "cost",
              "type": "uint256"
            },
            {
              "internalType": "uint256",
              "name": "capacityAmount",
              "type": "uint256"
            },
            {
              "internalType": "uint256",
              "name": "coverValues",
              "type": "uint256"
            },
            {
              "internalType": "uint256",
              "name": "maxAmount",
              "type": "uint256"
            },
            {
              "internalType": "uint256",
              "name": "poolId",
              "type": "uint256"
            },
            {
              "internalType": "string",
              "name": "CID",
              "type": "string"
            }
          ],
          "internalType": "struct CoverLib.Cover",
          "name": "_cover",
          "type": "tuple"
        }
      ],
      "name": "addPoolCover",
      "outputs": [],
      "stateMutability": "nonpayable",
      "type": "function"
    },
    {
      "inputs": [
        {
          "internalType": "address",
          "name": "_addr",
          "type": "address"
        }
      ],
      "name": "addressToBytes32",
      "outputs": [
        {
          "internalType": "bytes32",
          "name": "",
          "type": "bytes32"
        }
      ],
      "stateMutability": "pure",
      "type": "function"
    },
    {
      "inputs": [
        {
          "internalType": "uint256",
          "name": "_proposalId",
          "type": "uint256"
        }
      ],
      "name": "claimProposalFunds",
      "outputs": [],
      "stateMutability": "payable",
      "type": "function"
    },
    {
      "inputs": [],
      "name": "coverContract",
      "outputs": [
        {
          "internalType": "address",
          "name": "",
          "type": "address"
        }
      ],
      "stateMutability": "view",
      "type": "function"
    },
    {
      "inputs": [
        {
          "internalType": "enum CoverLib.RiskType",
          "name": "_riskType",
          "type": "uint8"
        },
        {
          "internalType": "string",
          "name": "_poolName",
          "type": "string"
        },
        {
          "internalType": "uint256",
          "name": "_apy",
          "type": "uint256"
        },
        {
          "internalType": "uint256",
          "name": "_minPeriod",
          "type": "uint256"
        }
      ],
      "name": "createPool",
      "outputs": [],
      "stateMutability": "payable",
      "type": "function"
    },
    {
      "inputs": [
        {
          "internalType": "uint256",
          "name": "_poolId",
          "type": "uint256"
        }
      ],
      "name": "deactivatePool",
      "outputs": [],
      "stateMutability": "payable",
      "type": "function"
    },
    {
      "inputs": [
        {
          "internalType": "uint256",
          "name": "_poolId",
          "type": "uint256"
        }
      ],
      "name": "deposit",
      "outputs": [],
      "stateMutability": "payable",
      "type": "function"
    },
    {
      "inputs": [],
      "name": "destinationDomain",
      "outputs": [
        {
          "internalType": "uint32",
          "name": "",
          "type": "uint32"
        }
      ],
      "stateMutability": "view",
      "type": "function"
    },
    {
      "inputs": [],
      "name": "getAllPools",
      "outputs": [
        {
          "components": [
            {
              "internalType": "string",
              "name": "poolName",
              "type": "string"
            },
            {
              "internalType": "enum CoverLib.RiskType",
              "name": "riskType",
              "type": "uint8"
            },
            {
              "internalType": "uint256",
              "name": "apy",
              "type": "uint256"
            },
            {
              "internalType": "uint256",
              "name": "minPeriod",
              "type": "uint256"
            },
            {
              "internalType": "uint256",
              "name": "tvl",
              "type": "uint256"
            },
            {
              "internalType": "uint256",
              "name": "tcp",
              "type": "uint256"
            },
            {
              "internalType": "bool",
              "name": "isActive",
              "type": "bool"
            },
            {
              "internalType": "uint256",
              "name": "percentageSplitBalance",
              "type": "uint256"
            }
          ],
          "internalType": "struct CoverLib.NPool[]",
          "name": "",
          "type": "tuple[]"
        }
      ],
      "stateMutability": "view",
      "type": "function"
    },
    {
      "inputs": [
        {
          "internalType": "uint256",
          "name": "_poolId",
          "type": "uint256"
        }
      ],
      "name": "getPool",
      "outputs": [
        {
          "internalType": "string",
          "name": "name",
          "type": "string"
        },
        {
          "internalType": "enum CoverLib.RiskType",
          "name": "riskType",
          "type": "uint8"
        },
        {
          "internalType": "uint256",
          "name": "apy",
          "type": "uint256"
        },
        {
          "internalType": "uint256",
          "name": "minPeriod",
          "type": "uint256"
        },
        {
          "internalType": "uint256",
          "name": "tvl",
          "type": "uint256"
        },
        {
          "internalType": "bool",
          "name": "isActive",
          "type": "bool"
        },
        {
          "internalType": "uint256",
          "name": "percentageSplitBalance",
          "type": "uint256"
        }
      ],
      "stateMutability": "view",
      "type": "function"
    },
    {
      "inputs": [
        {
          "internalType": "uint256",
          "name": "_poolId",
          "type": "uint256"
        }
      ],
      "name": "getPoolCovers",
      "outputs": [
        {
          "components": [
            {
              "internalType": "uint256",
              "name": "id",
              "type": "uint256"
            },
            {
              "internalType": "string",
              "name": "coverName",
              "type": "string"
            },
            {
              "internalType": "enum CoverLib.RiskType",
              "name": "riskType",
              "type": "uint8"
            },
            {
              "internalType": "string",
              "name": "chains",
              "type": "string"
            },
            {
              "internalType": "uint256",
              "name": "capacity",
              "type": "uint256"
            },
            {
              "internalType": "uint256",
              "name": "cost",
              "type": "uint256"
            },
            {
              "internalType": "uint256",
              "name": "capacityAmount",
              "type": "uint256"
            },
            {
              "internalType": "uint256",
              "name": "coverValues",
              "type": "uint256"
            },
            {
              "internalType": "uint256",
              "name": "maxAmount",
              "type": "uint256"
            },
            {
              "internalType": "uint256",
              "name": "poolId",
              "type": "uint256"
            },
            {
              "internalType": "string",
              "name": "CID",
              "type": "string"
            }
          ],
          "internalType": "struct CoverLib.Cover[]",
          "name": "",
          "type": "tuple[]"
        }
      ],
      "stateMutability": "view",
      "type": "function"
    },
    {
      "inputs": [
        {
          "internalType": "uint256",
          "name": "_poolId",
          "type": "uint256"
        }
      ],
      "name": "getPoolTVL",
      "outputs": [
        {
          "internalType": "uint256",
          "name": "",
          "type": "uint256"
        }
      ],
      "stateMutability": "view",
      "type": "function"
    },
    {
      "inputs": [
        {
          "internalType": "address",
          "name": "_userAddress",
          "type": "address"
        }
      ],
      "name": "getPoolsByAddress",
      "outputs": [
        {
          "components": [
            {
              "internalType": "string",
              "name": "poolName",
              "type": "string"
            },
            {
              "internalType": "uint256",
              "name": "poolId",
              "type": "uint256"
            },
            {
              "internalType": "uint256",
              "name": "dailyPayout",
              "type": "uint256"
            },
            {
              "internalType": "uint256",
              "name": "depositAmount",
              "type": "uint256"
            },
            {
              "internalType": "uint256",
              "name": "apy",
              "type": "uint256"
            },
            {
              "internalType": "uint256",
              "name": "minPeriod",
              "type": "uint256"
            },
            {
              "internalType": "uint256",
              "name": "tvl",
              "type": "uint256"
            },
            {
              "internalType": "uint256",
              "name": "tcp",
              "type": "uint256"
            },
            {
              "internalType": "bool",
              "name": "isActive",
              "type": "bool"
            },
            {
              "internalType": "uint256",
              "name": "accruedPayout",
              "type": "uint256"
            }
          ],
          "internalType": "struct CoverLib.PoolInfo[]",
          "name": "",
          "type": "tuple[]"
        }
      ],
      "stateMutability": "view",
      "type": "function"
    },
    {
      "inputs": [
        {
          "internalType": "uint256",
          "name": "_poolId",
          "type": "uint256"
        },
        {
          "internalType": "address",
          "name": "_user",
          "type": "address"
        }
      ],
      "name": "getUserDeposit",
      "outputs": [
        {
          "components": [
            {
              "internalType": "address",
              "name": "lp",
              "type": "address"
            },
            {
              "internalType": "uint256",
              "name": "amount",
              "type": "uint256"
            },
            {
              "internalType": "uint256",
              "name": "poolId",
              "type": "uint256"
            },
            {
              "internalType": "uint256",
              "name": "dailyPayout",
              "type": "uint256"
            },
            {
              "internalType": "enum CoverLib.Status",
              "name": "status",
              "type": "uint8"
            },
            {
              "internalType": "uint256",
              "name": "daysLeft",
              "type": "uint256"
            },
            {
              "internalType": "uint256",
              "name": "startDate",
              "type": "uint256"
            },
            {
              "internalType": "uint256",
              "name": "expiryDate",
              "type": "uint256"
            },
            {
              "internalType": "uint256",
              "name": "accruedPayout",
              "type": "uint256"
            }
          ],
          "internalType": "struct CoverLib.Deposits",
          "name": "",
          "type": "tuple"
        }
      ],
      "stateMutability": "view",
      "type": "function"
    },
    {
      "inputs": [],
      "name": "governance",
      "outputs": [
        {
          "internalType": "address",
          "name": "",
          "type": "address"
        }
      ],
      "stateMutability": "view",
      "type": "function"
    },
    {
      "inputs": [
        {
          "internalType": "uint32",
          "name": "_origin",
          "type": "uint32"
        },
        {
          "internalType": "bytes32",
          "name": "_sender",
          "type": "bytes32"
        },
        {
          "internalType": "bytes",
          "name": "_message",
          "type": "bytes"
        }
      ],
      "name": "handle",
      "outputs": [],
      "stateMutability": "payable",
      "type": "function"
    },
    {
      "inputs": [
        {
          "internalType": "uint256",
          "name": "_poolId",
          "type": "uint256"
        },
        {
          "internalType": "uint256",
          "name": "__poolPercentageSplit",
          "type": "uint256"
        }
      ],
      "name": "increasePercentageSplit",
      "outputs": [],
      "stateMutability": "nonpayable",
      "type": "function"
    },
    {
      "inputs": [],
      "name": "initialOwner",
      "outputs": [
        {
          "internalType": "address",
          "name": "",
          "type": "address"
        }
      ],
      "stateMutability": "view",
      "type": "function"
    },
    {
      "inputs": [],
      "name": "interchainSecurityModule",
      "outputs": [
        {
          "internalType": "contract IInterchainSecurityModule",
          "name": "",
          "type": "address"
        }
      ],
      "stateMutability": "view",
      "type": "function"
    },
    {
      "inputs": [],
      "name": "mailbox",
      "outputs": [
        {
          "internalType": "contract IMailbox",
          "name": "",
          "type": "address"
        }
      ],
      "stateMutability": "view",
      "type": "function"
    },
    {
      "inputs": [],
      "name": "owner",
      "outputs": [
        {
          "internalType": "address",
          "name": "",
          "type": "address"
        }
      ],
      "stateMutability": "view",
      "type": "function"
    },
    {
      "inputs": [
        {
          "internalType": "uint256",
          "name": "poolId",
          "type": "uint256"
        }
      ],
      "name": "poolActive",
      "outputs": [
        {
          "internalType": "bool",
          "name": "",
          "type": "bool"
        }
      ],
      "stateMutability": "view",
      "type": "function"
    },
    {
      "inputs": [],
      "name": "poolCount",
      "outputs": [
        {
          "internalType": "uint256",
          "name": "",
          "type": "uint256"
        }
      ],
      "stateMutability": "view",
      "type": "function"
    },
    {
      "inputs": [
        {
          "internalType": "uint256",
          "name": "",
          "type": "uint256"
        }
      ],
      "name": "pools",
      "outputs": [
        {
          "internalType": "string",
          "name": "poolName",
          "type": "string"
        },
        {
          "internalType": "enum CoverLib.RiskType",
          "name": "riskType",
          "type": "uint8"
        },
        {
          "internalType": "uint256",
          "name": "apy",
          "type": "uint256"
        },
        {
          "internalType": "uint256",
          "name": "minPeriod",
          "type": "uint256"
        },
        {
          "internalType": "uint256",
          "name": "tvl",
          "type": "uint256"
        },
        {
          "internalType": "uint256",
          "name": "tcp",
          "type": "uint256"
        },
        {
          "internalType": "bool",
          "name": "isActive",
          "type": "bool"
        },
        {
          "internalType": "uint256",
          "name": "percentageSplitBalance",
          "type": "uint256"
        }
      ],
      "stateMutability": "view",
      "type": "function"
    },
    {
      "inputs": [
        {
          "internalType": "uint256",
          "name": "_poolId",
          "type": "uint256"
        },
        {
          "internalType": "uint256",
          "name": "__poolPercentageSplit",
          "type": "uint256"
        }
      ],
      "name": "reducePercentageSplit",
      "outputs": [],
      "stateMutability": "nonpayable",
      "type": "function"
    },
    {
      "inputs": [],
      "name": "renounceOwnership",
      "outputs": [],
      "stateMutability": "nonpayable",
      "type": "function"
    },
    {
      "inputs": [
        {
          "internalType": "address",
          "name": "_coverContract",
          "type": "address"
        }
      ],
      "name": "setCover",
      "outputs": [],
      "stateMutability": "nonpayable",
      "type": "function"
    },
    {
      "inputs": [
        {
          "internalType": "uint32",
          "name": "_destinationDomain",
          "type": "uint32"
        }
      ],
      "name": "setDestinationDomain",
      "outputs": [],
      "stateMutability": "nonpayable",
      "type": "function"
    },
    {
      "inputs": [
        {
          "internalType": "address",
          "name": "_governance",
          "type": "address"
        }
      ],
      "name": "setGovernance",
      "outputs": [],
      "stateMutability": "nonpayable",
      "type": "function"
    },
    {
      "inputs": [
        {
          "internalType": "address",
          "name": "_ism",
          "type": "address"
        }
      ],
      "name": "setInterchainSecurityModule",
      "outputs": [],
      "stateMutability": "nonpayable",
      "type": "function"
    },
    {
      "inputs": [
        {
          "internalType": "address",
          "name": "newOwner",
          "type": "address"
        }
      ],
      "name": "transferOwnership",
      "outputs": [],
      "stateMutability": "nonpayable",
      "type": "function"
    },
    {
      "inputs": [
        {
          "internalType": "uint256",
          "name": "_poolId",
          "type": "uint256"
        },
        {
          "internalType": "uint256",
          "name": "_apy",
          "type": "uint256"
        },
        {
          "internalType": "uint256",
          "name": "_minPeriod",
          "type": "uint256"
        }
      ],
      "name": "updatePool",
      "outputs": [],
      "stateMutability": "nonpayable",
      "type": "function"
    },
    {
      "inputs": [
        {
          "internalType": "uint256",
          "name": "_poolId",
          "type": "uint256"
        },
        {
          "components": [
            {
              "internalType": "uint256",
              "name": "id",
              "type": "uint256"
            },
            {
              "internalType": "string",
              "name": "coverName",
              "type": "string"
            },
            {
              "internalType": "enum CoverLib.RiskType",
              "name": "riskType",
              "type": "uint8"
            },
            {
              "internalType": "string",
              "name": "chains",
              "type": "string"
            },
            {
              "internalType": "uint256",
              "name": "capacity",
              "type": "uint256"
            },
            {
              "internalType": "uint256",
              "name": "cost",
              "type": "uint256"
            },
            {
              "internalType": "uint256",
              "name": "capacityAmount",
              "type": "uint256"
            },
            {
              "internalType": "uint256",
              "name": "coverValues",
              "type": "uint256"
            },
            {
              "internalType": "uint256",
              "name": "maxAmount",
              "type": "uint256"
            },
            {
              "internalType": "uint256",
              "name": "poolId",
              "type": "uint256"
            },
            {
              "internalType": "string",
              "name": "CID",
              "type": "string"
            }
          ],
          "internalType": "struct CoverLib.Cover",
          "name": "_cover",
          "type": "tuple"
        }
      ],
      "name": "updatePoolCovers",
      "outputs": [],
      "stateMutability": "nonpayable",
      "type": "function"
    },
    {
      "inputs": [
        {
          "internalType": "uint256",
          "name": "_poolId",
          "type": "uint256"
        }
      ],
      "name": "withdraw",
      "outputs": [],
      "stateMutability": "nonpayable",
      "type": "function"
    },
    {
      "stateMutability": "payable",
      "type": "receive"
    }
  ],
  "bytecode": "0x608060405234801561001057600080fd5b50604051616d73380380616d73833981810160405281019061003291906102cd565b816001600081905550600073ffffffffffffffffffffffffffffffffffffffff168173ffffffffffffffffffffffffffffffffffffffff16036100ad5760006040517f1e4fbdf70000000000000000000000000000000000000000000000000000000081526004016100a4919061032f565b60405180910390fd5b6100bc8161016860201b60201c565b5082600860006101000a81548173ffffffffffffffffffffffffffffffffffffffff021916908373ffffffffffffffffffffffffffffffffffffffff16021790555081600a60006101000a81548173ffffffffffffffffffffffffffffffffffffffff021916908373ffffffffffffffffffffffffffffffffffffffff16021790555080600a60146101000a81548163ffffffff021916908363ffffffff16021790555050505061034a565b6000600160009054906101000a900473ffffffffffffffffffffffffffffffffffffffff16905081600160006101000a81548173ffffffffffffffffffffffffffffffffffffffff021916908373ffffffffffffffffffffffffffffffffffffffff1602179055508173ffffffffffffffffffffffffffffffffffffffff168173ffffffffffffffffffffffffffffffffffffffff167f8be0079c531659141344cd1fd0a4f28419497f9722a3daafe3b4186f6b6457e060405160405180910390a35050565b600080fd5b600073ffffffffffffffffffffffffffffffffffffffff82169050919050565b600061025e82610233565b9050919050565b61026e81610253565b811461027957600080fd5b50565b60008151905061028b81610265565b92915050565b600063ffffffff82169050919050565b6102aa81610291565b81146102b557600080fd5b50565b6000815190506102c7816102a1565b92915050565b6000806000606084860312156102e6576102e561022e565b5b60006102f48682870161027c565b93505060206103058682870161027c565b9250506040610316868287016102b8565b9150509250925092565b61032981610253565b82525050565b60006020820190506103446000830184610320565b92915050565b616a1a806103596000396000f3fe6080604052600436106102085760003560e01c80639abd9b0511610118578063d5438eae116100a0578063de523cf31161006f578063de523cf314610757578063e35f812914610782578063f2fde38b1461079e578063f525cb68146107c7578063f6e80558146107f25761020f565b8063d5438eae146106bc578063d86c0444146106e7578063d88ff1f414610710578063da533fd31461073b5761020f565b8063ab033ea9116100e7578063ab033ea9146105e1578063ac4afa381461060a578063ae63df891461064e578063b6b55f2514610677578063c7aa9874146106935761020f565b80639abd9b051461054a5780639fd36b1514610566578063a14764d01461058f578063a4948d85146105b85761020f565b80634e0552441161019b5780637c366cc61161016a5780637c366cc61461043f5780637eb111f01461046857806382c947b7146104a55780638da5cb5b146104e25780638f2446301461050d5761020f565b80634e055244146103a457806356d5d475146103e15780635aa6e675146103fd578063715018a6146104285761020f565b80632858c55a116101d75780632858c55a146102e857806329ba7bb2146103135780632e1a7d4d1461033e57806331866763146103675761020f565b8063068bcd8d146102145780630e72cc0614610257578063248a75b71461028057806325f11e8d146102ab5761020f565b3661020f57005b600080fd5b34801561022057600080fd5b5061023b600480360381019061023691906141ff565b61081d565b60405161024e979695949392919061435d565b60405180910390f35b34801561026357600080fd5b5061027e60048036038101906102799190614431565b610921565b005b34801561028c57600080fd5b5061029561096d565b6040516102a2919061446d565b60405180910390f35b3480156102b757600080fd5b506102d260048036038101906102cd91906141ff565b610993565b6040516102df9190614488565b60405180910390f35b3480156102f457600080fd5b506102fd6109c5565b60405161030a91906144c2565b60405180910390f35b34801561031f57600080fd5b506103286109db565b604051610335919061446d565b60405180910390f35b34801561034a57600080fd5b50610365600480360381019061036091906141ff565b610a01565b005b34801561037357600080fd5b5061038e60048036038101906103899190614431565b610d9f565b60405161039b91906146e1565b60405180910390f35b3480156103b057600080fd5b506103cb60048036038101906103c69190614703565b6112c2565b6040516103d89190614851565b60405180910390f35b6103fb60048036038101906103f69190614a04565b611580565b005b34801561040957600080fd5b506104126118c5565b60405161041f919061446d565b60405180910390f35b34801561043457600080fd5b5061043d6118eb565b005b34801561044b57600080fd5b5061046660048036038101906104619190614431565b6118ff565b005b34801561047457600080fd5b5061048f600480360381019061048a91906141ff565b611a8c565b60405161049c9190614c41565b60405180910390f35b3480156104b157600080fd5b506104cc60048036038101906104c79190614431565b611d36565b6040516104d99190614c72565b60405180910390f35b3480156104ee57600080fd5b506104f7611d59565b604051610504919061446d565b60405180910390f35b34801561051957600080fd5b50610534600480360381019061052f91906141ff565b611d83565b6040516105419190614c8d565b60405180910390f35b610564600480360381019061055f91906141ff565b611da3565b005b34801561057257600080fd5b5061058d60048036038101906105889190614ca8565b61203e565b005b34801561059b57600080fd5b506105b660048036038101906105b19190614f18565b612157565b005b3480156105c457600080fd5b506105df60048036038101906105da9190614ca8565b6123aa565b005b3480156105ed57600080fd5b5061060860048036038101906106039190614431565b6124c3565b005b34801561061657600080fd5b50610631600480360381019061062c91906141ff565b61260f565b604051610645989796959493929190614f74565b60405180910390f35b34801561065a57600080fd5b5061067560048036038101906106709190614ff9565b6126f9565b005b610691600480360381019061068c91906141ff565b612725565b005b34801561069f57600080fd5b506106ba60048036038101906106b59190614f18565b612d01565b005b3480156106c857600080fd5b506106d1612ee7565b6040516106de9190615085565b60405180910390f35b3480156106f357600080fd5b5061070e600480360381019061070991906150a0565b612f0d565b005b34801561071c57600080fd5b50610725613073565b6040516107329190615265565b60405180910390f35b61075560048036038101906107509190615287565b61324c565b005b34801561076357600080fd5b5061076c613550565b604051610779919061532b565b60405180910390f35b61079c600480360381019061079791906141ff565b613576565b005b3480156107aa57600080fd5b506107c560048036038101906107c09190614431565b613e3c565b005b3480156107d357600080fd5b506107dc613ec2565b6040516107e99190614c8d565b60405180910390f35b3480156107fe57600080fd5b50610807613ec8565b6040516108149190615367565b60405180910390f35b60606000806000806000806000600360008a81526020019081526020016000209050806000018160010160009054906101000a900460ff168260020154836003015484600401548560060160009054906101000a900460ff168660070154868054610887906153b1565b80601f01602080910402602001604051908101604052809291908181526020018280546108b3906153b1565b80156109005780601f106108d557610100808354040283529160200191610900565b820191906000526020600020905b8154815290600101906020018083116108e357829003601f168201915b50505050509650975097509750975097509750975050919395979092949650565b610929613eee565b80600b60006101000a81548173ffffffffffffffffffffffffffffffffffffffff021916908373ffffffffffffffffffffffffffffffffffffffff16021790555050565b600960009054906101000a900473ffffffffffffffffffffffffffffffffffffffff1681565b6000806003600084815260200190815260200160002090508060060160009054906101000a900460ff16915050919050565b600a60149054906101000a900463ffffffff1681565b600a60009054906101000a900473ffffffffffffffffffffffffffffffffffffffff1681565b610a09613f75565b600060036000838152602001908152602001600020905060008160080160003373ffffffffffffffffffffffffffffffffffffffff1673ffffffffffffffffffffffffffffffffffffffff16815260200190815260200160002090506000816001015411610aac576040517f08c379a0000000000000000000000000000000000000000000000000000000008152600401610aa390615454565b60405180910390fd5b60006001811115610ac057610abf6142bc565b5b8160040160009054906101000a900460ff166001811115610ae457610ae36142bc565b5b14610b24576040517f08c379a0000000000000000000000000000000000000000000000000000000008152600401610b1b906154c0565b60405180910390fd5b8060070154421015610b6b576040517f08c379a0000000000000000000000000000000000000000000000000000000008152600401610b629061552c565b60405180910390fd5b60018160040160006101000a81548160ff02191690836001811115610b9357610b926142bc565b5b02179055508060010154826004016000828254610bb0919061557b565b925050819055506000610bc284611a8c565b905060005b8151811015610c8857600760009054906101000a900473ffffffffffffffffffffffffffffffffffffffff1673ffffffffffffffffffffffffffffffffffffffff1663106b5da1838381518110610c2157610c206155af565b5b6020026020010151600001516040518263ffffffff1660e01b8152600401610c499190614c8d565b600060405180830381600087803b158015610c6357600080fd5b505af1158015610c77573d6000803e3d6000fd5b505050508080600101915050610bc7565b5060003373ffffffffffffffffffffffffffffffffffffffff168360010154604051610cb39061560f565b60006040518083038185875af1925050503d8060008114610cf0576040519150601f19603f3d011682016040523d82523d6000602084013e610cf5565b606091505b5050905080610d39576040517f08c379a0000000000000000000000000000000000000000000000000000000008152600401610d3090615670565b60405180910390fd5b3373ffffffffffffffffffffffffffffffffffffffff167f485f1bb6524c663555797e00171a10f341656e59b02d6b557a0a38ba7d5d9751846001015486600001604051610d88929190615729565b60405180910390a250505050610d9c613fbb565b50565b6060600080600190505b6005548111610e3957600060036000838152602001908152602001600020905060008160080160008773ffffffffffffffffffffffffffffffffffffffff1673ffffffffffffffffffffffffffffffffffffffff168152602001908152602001600020600101541115610e25578280610e2190615759565b9350505b508080610e3190615759565b915050610da9565b5060008167ffffffffffffffff811115610e5657610e556148d9565b5b604051908082528060200260200182016040528015610e8f57816020015b610e7c614093565b815260200190600190039081610e745790505b509050600080600190505b60055481116112b657600060036000838152602001908152602001600020905060006003600084815260200190815260200160002060080160008973ffffffffffffffffffffffffffffffffffffffff1673ffffffffffffffffffffffffffffffffffffffff168152602001908152602001600020604051806101200160405290816000820160009054906101000a900473ffffffffffffffffffffffffffffffffffffffff1673ffffffffffffffffffffffffffffffffffffffff1673ffffffffffffffffffffffffffffffffffffffff1681526020016001820154815260200160028201548152602001600382015481526020016004820160009054906101000a900460ff166001811115610fb457610fb36142bc565b5b6001811115610fc657610fc56142bc565b5b815260200160058201548152602001600682015481526020016007820154815260200160088201548152505090506000600760009054906101000a900473ffffffffffffffffffffffffffffffffffffffff1673ffffffffffffffffffffffffffffffffffffffff166373cce3ee8a866040518363ffffffff1660e01b81526004016110539291906157a1565b602060405180830381865afa158015611070573d6000803e3d6000fd5b505050506040513d601f19601f8201168201806040525081019061109491906157df565b905060008183606001516110a8919061580c565b905060008460080160008c73ffffffffffffffffffffffffffffffffffffffff1673ffffffffffffffffffffffffffffffffffffffff16815260200190815260200160002060010154111561129f57604051806101400160405280856000018054611112906153b1565b80601f016020809104026020016040519081016040528092919081815260200182805461113e906153b1565b801561118b5780601f106111605761010080835404028352916020019161118b565b820191906000526020600020905b81548152906001019060200180831161116e57829003601f168201915b505050505081526020018681526020018560080160008d73ffffffffffffffffffffffffffffffffffffffff1673ffffffffffffffffffffffffffffffffffffffff1681526020019081526020016000206003015481526020018560080160008d73ffffffffffffffffffffffffffffffffffffffff1673ffffffffffffffffffffffffffffffffffffffff168152602001908152602001600020600101548152602001856002015481526020018560030154815260200185600401548152602001856005015481526020018560060160009054906101000a900460ff16151581526020018281525087878061128090615759565b985081518110611293576112926155af565b5b60200260200101819052505b5050505080806112ae90615759565b915050610e9a565b50819350505050919050565b6112ca6140e8565b60006003600085815260200190815260200160002060080160008473ffffffffffffffffffffffffffffffffffffffff1673ffffffffffffffffffffffffffffffffffffffff168152602001908152602001600020604051806101200160405290816000820160009054906101000a900473ffffffffffffffffffffffffffffffffffffffff1673ffffffffffffffffffffffffffffffffffffffff1673ffffffffffffffffffffffffffffffffffffffff1681526020016001820154815260200160028201548152602001600382015481526020016004820160009054906101000a900460ff1660018111156113c4576113c36142bc565b5b60018111156113d6576113d56142bc565b5b815260200160058201548152602001600682015481526020016007820154815260200160088201548152505090506000600760009054906101000a900473ffffffffffffffffffffffffffffffffffffffff1673ffffffffffffffffffffffffffffffffffffffff16631052581485876040518363ffffffff1660e01b81526004016114639291906157a1565b602060405180830381865afa158015611480573d6000803e3d6000fd5b505050506040513d601f19601f820116820180604052508101906114a491906157df565b905060008082036114bb578260c0015190506114bf565b8190505b60004290508360e001518111156114d8578360e0015190505b600061012c83836114e9919061557b565b6114f3919061587d565b9050808560600151611505919061580c565b85610100018181525050428560e001511161152a5760008560a0018181525050611572565b6000428660e0015161153c919061557b565b9050620151806001620151808361155391906158ae565b61155d919061557b565b611567919061587d565b8660a0018181525050505b849550505050505092915050565b600860009054906101000a900473ffffffffffffffffffffffffffffffffffffffff1673ffffffffffffffffffffffffffffffffffffffff163373ffffffffffffffffffffffffffffffffffffffff1614611610576040517f08c379a00000000000000000000000000000000000000000000000000000000081526004016116079061592e565b60405180910390fd5b600080828060200190518101906116279190615a2e565b9150915060405160200161163a90615afd565b60405160208183030381529060405280519060200120826040516020016116619190615b43565b60405160208183030381529060405280519060200120036116a05760008180602001905181019061169291906157df565b905061169d81610993565b50505b6040516020016116af90615ba6565b60405160208183030381529060405280519060200120826040516020016116d69190615b43565b604051602081830303815290604052805190602001200361187f576000818060200190518101906117079190615e1e565b9050806004600083600001518152602001908152602001600020600082015181600001556020820151816001015560408201518160020155606082015181600301556080820151816004015560a0820151816005015560c08201518160060160006101000a81548160ff02191690836004811115611788576117876142bc565b5b021790555060e08201518160060160016101000a81548160ff0219169083151502179055506101008201518160070160008201518160000160006101000a81548173ffffffffffffffffffffffffffffffffffffffff021916908373ffffffffffffffffffffffffffffffffffffffff16021790555060208201518160000160146101000a81548160ff02191690836003811115611829576118286142bc565b5b021790555060408201518160010155606082015181600201908161184d9190615ff4565b5060808201518160030190816118639190615ff4565b5060a0820151816004015560c082015181600501555050905050505b838563ffffffff167fba67744c899113a84f615d51af5d82f5fedcf26c9a474d9363c3ad9b0bd501ac856040516118b691906160c6565b60405180910390a35050505050565b600660009054906101000a900473ffffffffffffffffffffffffffffffffffffffff1681565b6118f3613eee565b6118fd6000613fc5565b565b611907613eee565b600073ffffffffffffffffffffffffffffffffffffffff16600960009054906101000a900473ffffffffffffffffffffffffffffffffffffffff1673ffffffffffffffffffffffffffffffffffffffff1614611998576040517f08c379a000000000000000000000000000000000000000000000000000000000815260040161198f90616134565b60405180910390fd5b600073ffffffffffffffffffffffffffffffffffffffff168173ffffffffffffffffffffffffffffffffffffffff1603611a07576040517f08c379a00000000000000000000000000000000000000000000000000000000081526004016119fe906161c6565b60405180910390fd5b80600760006101000a81548173ffffffffffffffffffffffffffffffffffffffff021916908373ffffffffffffffffffffffffffffffffffffffff16021790555080600960006101000a81548173ffffffffffffffffffffffffffffffffffffffff021916908373ffffffffffffffffffffffffffffffffffffffff16021790555050565b606060026000838152602001908152602001600020805480602002602001604051908101604052809291908181526020016000905b82821015611d2b57838290600052602060002090600b02016040518061016001604052908160008201548152602001600182018054611aff906153b1565b80601f0160208091040260200160405190810160405280929190818152602001828054611b2b906153b1565b8015611b785780601f10611b4d57610100808354040283529160200191611b78565b820191906000526020600020905b815481529060010190602001808311611b5b57829003601f168201915b505050505081526020016002820160009054906101000a900460ff166003811115611ba657611ba56142bc565b5b6003811115611bb857611bb76142bc565b5b8152602001600382018054611bcc906153b1565b80601f0160208091040260200160405190810160405280929190818152602001828054611bf8906153b1565b8015611c455780601f10611c1a57610100808354040283529160200191611c45565b820191906000526020600020905b815481529060010190602001808311611c2857829003601f168201915b50505050508152602001600482015481526020016005820154815260200160068201548152602001600782015481526020016008820154815260200160098201548152602001600a82018054611c9a906153b1565b80601f0160208091040260200160405190810160405280929190818152602001828054611cc6906153b1565b8015611d135780601f10611ce857610100808354040283529160200191611d13565b820191906000526020600020905b815481529060010190602001808311611cf657829003601f168201915b50505050508152505081526020019060010190611ac1565b505050509050919050565b60008173ffffffffffffffffffffffffffffffffffffffff1660001b9050919050565b6000600160009054906101000a900473ffffffffffffffffffffffffffffffffffffffff16905090565b600060036000838152602001908152602001600020600401549050919050565b611dab613eee565b6003600082815260200190815260200160002060060160009054906101000a900460ff16611e05576040517fe067835f00000000000000000000000000000000000000000000000000000000815260040160405180910390fd5b60006003600083815260200190815260200160002060060160006101000a81548160ff0219169083151502179055506000600554604051602001611e499190614c8d565b604051602081830303815290604052604051602001611e689190616287565b60405160208183030381529060405290506000600860009054906101000a900473ffffffffffffffffffffffffffffffffffffffff1673ffffffffffffffffffffffffffffffffffffffff16639c42bd18600a60149054906101000a900463ffffffff16611ef7600660009054906101000a900473ffffffffffffffffffffffffffffffffffffffff16611d36565b856040518463ffffffff1660e01b8152600401611f16939291906162bc565b602060405180830381865afa158015611f33573d6000803e3d6000fd5b505050506040513d601f19601f82011682018060405250810190611f5791906157df565b9050600860009054906101000a900473ffffffffffffffffffffffffffffffffffffffff1673ffffffffffffffffffffffffffffffffffffffff1663fa31de0182600a60149054906101000a900463ffffffff16611fd6600660009054906101000a900473ffffffffffffffffffffffffffffffffffffffff16611d36565b866040518563ffffffff1660e01b8152600401611ff5939291906162bc565b60206040518083038185885af1158015612013573d6000803e3d6000fd5b50505050506040513d601f19601f82011682018060405250810190612038919061630f565b50505050565b600960009054906101000a900473ffffffffffffffffffffffffffffffffffffffff1673ffffffffffffffffffffffffffffffffffffffff163373ffffffffffffffffffffffffffffffffffffffff1614806120e75750600a60009054906101000a900473ffffffffffffffffffffffffffffffffffffffff1673ffffffffffffffffffffffffffffffffffffffff163373ffffffffffffffffffffffffffffffffffffffff16145b612126576040517f08c379a000000000000000000000000000000000000000000000000000000000815260040161211d906163ae565b60405180910390fd5b8060036000848152602001908152602001600020600701600082825461214c91906158ae565b925050819055505050565b600960009054906101000a900473ffffffffffffffffffffffffffffffffffffffff1673ffffffffffffffffffffffffffffffffffffffff163373ffffffffffffffffffffffffffffffffffffffff1614806122005750600a60009054906101000a900473ffffffffffffffffffffffffffffffffffffffff1673ffffffffffffffffffffffffffffffffffffffff163373ffffffffffffffffffffffffffffffffffffffff16145b61223f576040517f08c379a0000000000000000000000000000000000000000000000000000000008152600401612236906163ae565b60405180910390fd5b60005b60026000848152602001908152602001600020805490508110156123a557816000015160026000858152602001908152602001600020828154811061228a576122896155af565b5b90600052602060002090600b0201600001540361239857816002600085815260200190815260200160002082815481106122c7576122c66155af565b5b90600052602060002090600b02016000820151816000015560208201518160010190816122f49190615ff4565b5060408201518160020160006101000a81548160ff021916908360038111156123205761231f6142bc565b5b0217905550606082015181600301908161233a9190615ff4565b506080820151816004015560a0820151816005015560c0820151816006015560e082015181600701556101008201518160080155610120820151816009015561014082015181600a01908161238f9190615ff4565b509050506123a5565b8080600101915050612242565b505050565b600960009054906101000a900473ffffffffffffffffffffffffffffffffffffffff1673ffffffffffffffffffffffffffffffffffffffff163373ffffffffffffffffffffffffffffffffffffffff1614806124535750600a60009054906101000a900473ffffffffffffffffffffffffffffffffffffffff1673ffffffffffffffffffffffffffffffffffffffff163373ffffffffffffffffffffffffffffffffffffffff16145b612492576040517f08c379a0000000000000000000000000000000000000000000000000000000008152600401612489906163ae565b60405180910390fd5b806003600084815260200190815260200160002060070160008282546124b8919061557b565b925050819055505050565b6124cb613eee565b600073ffffffffffffffffffffffffffffffffffffffff16600660009054906101000a900473ffffffffffffffffffffffffffffffffffffffff1673ffffffffffffffffffffffffffffffffffffffff161461255c576040517f08c379a000000000000000000000000000000000000000000000000000000000815260040161255390616134565b60405180910390fd5b600073ffffffffffffffffffffffffffffffffffffffff168173ffffffffffffffffffffffffffffffffffffffff16036125cb576040517f08c379a00000000000000000000000000000000000000000000000000000000081526004016125c2906161c6565b60405180910390fd5b80600660006101000a81548173ffffffffffffffffffffffffffffffffffffffff021916908373ffffffffffffffffffffffffffffffffffffffff16021790555050565b6003602052806000526040600020600091509050806000018054612632906153b1565b80601f016020809104026020016040519081016040528092919081815260200182805461265e906153b1565b80156126ab5780601f10612680576101008083540402835291602001916126ab565b820191906000526020600020905b81548152906001019060200180831161268e57829003601f168201915b5050505050908060010160009054906101000a900460ff16908060020154908060030154908060040154908060050154908060060160009054906101000a900460ff16908060070154905088565b612701613eee565b80600a60146101000a81548163ffffffff021916908363ffffffff16021790555050565b61272d613f75565b600060036000838152602001908152602001600020905060003411612787576040517f08c379a000000000000000000000000000000000000000000000000000000000815260040161277e9061641a565b60405180910390fd5b8060060160009054906101000a900460ff166127d8576040517f08c379a00000000000000000000000000000000000000000000000000000000081526004016127cf906164ac565b60405180910390fd5b60008160080160003373ffffffffffffffffffffffffffffffffffffffff1673ffffffffffffffffffffffffffffffffffffffff1681526020019081526020016000206001015411156129fa576000348260080160003373ffffffffffffffffffffffffffffffffffffffff1673ffffffffffffffffffffffffffffffffffffffff1681526020019081526020016000206001015461287791906158ae565b9050808260080160003373ffffffffffffffffffffffffffffffffffffffff1673ffffffffffffffffffffffffffffffffffffffff168152602001908152602001600020600101819055506201518082600301546128d5919061580c565b426128e091906158ae565b8260080160003373ffffffffffffffffffffffffffffffffffffffff1673ffffffffffffffffffffffffffffffffffffffff1681526020019081526020016000206007018190555061016d606483600201548361293d919061580c565b612947919061587d565b612951919061587d565b8260080160003373ffffffffffffffffffffffffffffffffffffffff1673ffffffffffffffffffffffffffffffffffffffff168152602001908152602001600020600301819055506201518082600301546129ac919061580c565b8260080160003373ffffffffffffffffffffffffffffffffffffffff1673ffffffffffffffffffffffffffffffffffffffff1681526020019081526020016000206005018190555050612bb4565b600061016d6064836002015434612a11919061580c565b612a1b919061587d565b612a25919061587d565b90506040518061012001604052803373ffffffffffffffffffffffffffffffffffffffff16815260200134815260200184815260200182815260200160006001811115612a7557612a746142bc565b5b815260200183600301548152602001428152602001603c8460030154612a9b919061580c565b42612aa691906158ae565b815260200160008152508260080160003373ffffffffffffffffffffffffffffffffffffffff1673ffffffffffffffffffffffffffffffffffffffff16815260200190815260200160002060008201518160000160006101000a81548173ffffffffffffffffffffffffffffffffffffffff021916908373ffffffffffffffffffffffffffffffffffffffff16021790555060208201518160010155604082015181600201556060820151816003015560808201518160040160006101000a81548160ff02191690836001811115612b8157612b806142bc565b5b021790555060a0820151816005015560c0820151816006015560e082015181600701556101008201518160080155905050505b34816004016000828254612bc891906158ae565b925050819055506000612bda83611a8c565b905060005b8151811015612ca057600760009054906101000a900473ffffffffffffffffffffffffffffffffffffffff1673ffffffffffffffffffffffffffffffffffffffff1663106b5da1838381518110612c3957612c386155af565b5b6020026020010151600001516040518263ffffffff1660e01b8152600401612c619190614c8d565b600060405180830381600087803b158015612c7b57600080fd5b505af1158015612c8f573d6000803e3d6000fd5b505050508080600101915050612bdf565b503373ffffffffffffffffffffffffffffffffffffffff167f6f85d9948d6ca3dd6ce6ce7d175da22b4e865827ae6fcd530ec7edac1240f9283484600001604051612cec929190615729565b60405180910390a25050612cfe613fbb565b50565b600960009054906101000a900473ffffffffffffffffffffffffffffffffffffffff1673ffffffffffffffffffffffffffffffffffffffff163373ffffffffffffffffffffffffffffffffffffffff161480612daa5750600a60009054906101000a900473ffffffffffffffffffffffffffffffffffffffff1673ffffffffffffffffffffffffffffffffffffffff163373ffffffffffffffffffffffffffffffffffffffff16145b612de9576040517f08c379a0000000000000000000000000000000000000000000000000000000008152600401612de0906163ae565b60405180910390fd5b600260008381526020019081526020016000208190806001815401808255809150506001900390600052602060002090600b0201600090919091909150600082015181600001556020820151816001019081612e459190615ff4565b5060408201518160020160006101000a81548160ff02191690836003811115612e7157612e706142bc565b5b02179055506060820151816003019081612e8b9190615ff4565b506080820151816004015560a0820151816005015560c0820151816006015560e082015181600701556101008201518160080155610120820151816009015561014082015181600a019081612ee09190615ff4565b5050505050565b600860009054906101000a900473ffffffffffffffffffffffffffffffffffffffff1681565b612f15613eee565b6003600084815260200190815260200160002060060160009054906101000a900460ff16612f78576040517f08c379a0000000000000000000000000000000000000000000000000000000008152600401612f6f9061653e565b60405180910390fd5b60008211612fbb576040517f08c379a0000000000000000000000000000000000000000000000000000000008152600401612fb2906165aa565b60405180910390fd5b60008111612ffe576040517f08c379a0000000000000000000000000000000000000000000000000000000008152600401612ff590616616565b60405180910390fd5b816003600085815260200190815260200160002060020181905550806003600085815260200190815260200160002060030181905550827f17b8644f386d1c7c7138ef98b3c8035622bbe94d7be9b26f71d2654a547c29438383604051613066929190616636565b60405180910390a2505050565b6060600060055467ffffffffffffffff811115613093576130926148d9565b5b6040519080825280602002602001820160405280156130cc57816020015b6130b961415c565b8152602001906001900390816130b15790505b5090506000600190505b6005548111613244576000600360008381526020019081526020016000209050604051806101000160405280826000018054613111906153b1565b80601f016020809104026020016040519081016040528092919081815260200182805461313d906153b1565b801561318a5780601f1061315f5761010080835404028352916020019161318a565b820191906000526020600020905b81548152906001019060200180831161316d57829003601f168201915b505050505081526020018260010160009054906101000a900460ff1660038111156131b8576131b76142bc565b5b8152602001826002015481526020018260030154815260200182600401548152602001826005015481526020018260060160009054906101000a900460ff1615158152602001826007015481525083600184613214919061557b565b81518110613225576132246155af565b5b602002602001018190525050808061323c90615759565b9150506130d6565b508091505090565b613254613eee565b60016005600082825461326791906158ae565b9250508190555060006003600060055481526020019081526020016000209050838160000190816132989190615ff4565b508281600201819055508181600301819055506000816004018190555060018160060160006101000a81548160ff021916908315150217905550848160010160006101000a81548160ff021916908360038111156132f9576132f86142bc565b5b021790555060648160070181905550600060055460405160200161331d9190614c8d565b60405160208183030381529060405260405160200161333c91906166ab565b60405160208183030381529060405290506000600860009054906101000a900473ffffffffffffffffffffffffffffffffffffffff1673ffffffffffffffffffffffffffffffffffffffff16639c42bd18600a60149054906101000a900463ffffffff166133cb600660009054906101000a900473ffffffffffffffffffffffffffffffffffffffff16611d36565b856040518463ffffffff1660e01b81526004016133ea939291906162bc565b602060405180830381865afa158015613407573d6000803e3d6000fd5b505050506040513d601f19601f8201168201806040525081019061342b91906157df565b9050600860009054906101000a900473ffffffffffffffffffffffffffffffffffffffff1673ffffffffffffffffffffffffffffffffffffffff1663fa31de0182600a60149054906101000a900463ffffffff166134aa600660009054906101000a900473ffffffffffffffffffffffffffffffffffffffff16611d36565b866040518563ffffffff1660e01b81526004016134c9939291906162bc565b60206040518083038185885af11580156134e7573d6000803e3d6000fd5b50505050506040513d601f19601f8201168201806040525081019061350c919061630f565b506005547ff01906dc0ac306fa816e50166a7ed46af1f05721cb90cea30beebdd8dede3a6d8760405161353f91906160c6565b60405180910390a250505050505050565b600b60009054906101000a900473ffffffffffffffffffffffffffffffffffffffff1681565b61357e613f75565b600060046000838152602001908152602001600020604051806101200160405290816000820154815260200160018201548152602001600282015481526020016003820154815260200160048201548152602001600582015481526020016006820160009054906101000a900460ff166004811115613600576135ff6142bc565b5b6004811115613612576136116142bc565b5b81526020016006820160019054906101000a900460ff16151515158152602001600782016040518060e00160405290816000820160009054906101000a900473ffffffffffffffffffffffffffffffffffffffff1673ffffffffffffffffffffffffffffffffffffffff1673ffffffffffffffffffffffffffffffffffffffff1681526020016000820160149054906101000a900460ff1660038111156136bc576136bb6142bc565b5b60038111156136ce576136cd6142bc565b5b8152602001600182015481526020016002820180546136ec906153b1565b80601f0160208091040260200160405190810160405280929190818152602001828054613718906153b1565b80156137655780601f1061373a57610100808354040283529160200191613765565b820191906000526020600020905b81548152906001019060200180831161374857829003601f168201915b5050505050815260200160038201805461377e906153b1565b80601f01602080910402602001604051908101604052809291908181526020018280546137aa906153b1565b80156137f75780601f106137cc576101008083540402835291602001916137f7565b820191906000526020600020905b8154815290600101906020018083116137da57829003601f168201915b50505050508152602001600482015481526020016005820154815250508152505090506000816101000151905060026004811115613838576138376142bc565b5b8260c00151600481111561384f5761384e6142bc565b5b14801561385d57508160e001515b61389c576040517f08c379a00000000000000000000000000000000000000000000000000000000081526004016138939061672c565b60405180910390fd5b6000600360008360a0015181526020019081526020016000209050816000015173ffffffffffffffffffffffffffffffffffffffff163373ffffffffffffffffffffffffffffffffffffffff1614613929576040517f08c379a000000000000000000000000000000000000000000000000000000000815260040161392090616798565b60405180910390fd5b8060060160009054906101000a900460ff1661397a576040517f08c379a000000000000000000000000000000000000000000000000000000000815260040161397190616804565b60405180910390fd5b8160c00151816004015410156139c5576040517f08c379a00000000000000000000000000000000000000000000000000000000081526004016139bc90616870565b60405180910390fd5b8160c001518160050160008282546139dd91906158ae565b925050819055508160c001518160040160008282546139fc919061557b565b925050819055506000613a128360a00151611a8c565b905060005b8151811015613ad857600760009054906101000a900473ffffffffffffffffffffffffffffffffffffffff1673ffffffffffffffffffffffffffffffffffffffff1663106b5da1838381518110613a7157613a706155af565b5b6020026020010151600001516040518263ffffffff1660e01b8152600401613a999190614c8d565b600060405180830381600087803b158015613ab357600080fd5b505af1158015613ac7573d6000803e3d6000fd5b505050508080600101915050613a17565b50600085604051602001613aec9190614c8d565b604051602081830303815290604052604051602001613b0b91906168dc565b60405160208183030381529060405290506000600860009054906101000a900473ffffffffffffffffffffffffffffffffffffffff1673ffffffffffffffffffffffffffffffffffffffff16639c42bd18600a60149054906101000a900463ffffffff16613b9a600660009054906101000a900473ffffffffffffffffffffffffffffffffffffffff16611d36565b856040518463ffffffff1660e01b8152600401613bb9939291906162bc565b602060405180830381865afa158015613bd6573d6000803e3d6000fd5b505050506040513d601f19601f82011682018060405250810190613bfa91906157df565b9050600860009054906101000a900473ffffffffffffffffffffffffffffffffffffffff1673ffffffffffffffffffffffffffffffffffffffff1663fa31de0182600a60149054906101000a900463ffffffff16613c79600660009054906101000a900473ffffffffffffffffffffffffffffffffffffffff16611d36565b866040518563ffffffff1660e01b8152600401613c98939291906162bc565b60206040518083038185885af1158015613cb6573d6000803e3d6000fd5b50505050506040513d601f19601f82011682018060405250810190613cdb919061630f565b507feef4955e8b18dcb6d1c19905b7b86e5fe56138ad1ce2c5e540ce4e959312f5118560a001518660c001518760000151604051613d1b93929190616911565b60405180910390a160003373ffffffffffffffffffffffffffffffffffffffff168660c00151604051613d4d9061560f565b60006040518083038185875af1925050503d8060008114613d8a576040519150601f19603f3d011682016040523d82523d6000602084013e613d8f565b606091505b5050905080613dd3576040517f08c379a0000000000000000000000000000000000000000000000000000000008152600401613dca90616994565b60405180910390fd5b3373ffffffffffffffffffffffffffffffffffffffff167f415071086c9ea63f7f39884c21a8af430af53bfd511a362dff69cabcb1b8bcc1866000018860c00151604051613e229291906169b4565b60405180910390a250505050505050613e39613fbb565b50565b613e44613eee565b600073ffffffffffffffffffffffffffffffffffffffff168173ffffffffffffffffffffffffffffffffffffffff1603613eb65760006040517f1e4fbdf7000000000000000000000000000000000000000000000000000000008152600401613ead919061446d565b60405180910390fd5b613ebf81613fc5565b50565b60055481565b600760009054906101000a900473ffffffffffffffffffffffffffffffffffffffff1681565b613ef661408b565b73ffffffffffffffffffffffffffffffffffffffff16613f14611d59565b73ffffffffffffffffffffffffffffffffffffffff1614613f7357613f3761408b565b6040517f118cdaa7000000000000000000000000000000000000000000000000000000008152600401613f6a919061446d565b60405180910390fd5b565b600260005403613fb1576040517f3ee5aeb500000000000000000000000000000000000000000000000000000000815260040160405180910390fd5b6002600081905550565b6001600081905550565b6000600160009054906101000a900473ffffffffffffffffffffffffffffffffffffffff16905081600160006101000a81548173ffffffffffffffffffffffffffffffffffffffff021916908373ffffffffffffffffffffffffffffffffffffffff1602179055508173ffffffffffffffffffffffffffffffffffffffff168173ffffffffffffffffffffffffffffffffffffffff167f8be0079c531659141344cd1fd0a4f28419497f9722a3daafe3b4186f6b6457e060405160405180910390a35050565b600033905090565b6040518061014001604052806060815260200160008152602001600081526020016000815260200160008152602001600081526020016000815260200160008152602001600015158152602001600081525090565b604051806101200160405280600073ffffffffffffffffffffffffffffffffffffffff1681526020016000815260200160008152602001600081526020016000600181111561413a576141396142bc565b5b8152602001600081526020016000815260200160008152602001600081525090565b6040518061010001604052806060815260200160006003811115614183576141826142bc565b5b815260200160008152602001600081526020016000815260200160008152602001600015158152602001600081525090565b6000604051905090565b600080fd5b600080fd5b6000819050919050565b6141dc816141c9565b81146141e757600080fd5b50565b6000813590506141f9816141d3565b92915050565b600060208284031215614215576142146141bf565b5b6000614223848285016141ea565b91505092915050565b600081519050919050565b600082825260208201905092915050565b60005b8381101561426657808201518184015260208101905061424b565b60008484015250505050565b6000601f19601f8301169050919050565b600061428e8261422c565b6142988185614237565b93506142a8818560208601614248565b6142b181614272565b840191505092915050565b7f4e487b7100000000000000000000000000000000000000000000000000000000600052602160045260246000fd5b600481106142fc576142fb6142bc565b5b50565b600081905061430d826142eb565b919050565b600061431d826142ff565b9050919050565b61432d81614312565b82525050565b61433c816141c9565b82525050565b60008115159050919050565b61435781614342565b82525050565b600060e0820190508181036000830152614377818a614283565b90506143866020830189614324565b6143936040830188614333565b6143a06060830187614333565b6143ad6080830186614333565b6143ba60a083018561434e565b6143c760c0830184614333565b98975050505050505050565b600073ffffffffffffffffffffffffffffffffffffffff82169050919050565b60006143fe826143d3565b9050919050565b61440e816143f3565b811461441957600080fd5b50565b60008135905061442b81614405565b92915050565b600060208284031215614447576144466141bf565b5b60006144558482850161441c565b91505092915050565b614467816143f3565b82525050565b6000602082019050614482600083018461445e565b92915050565b600060208201905061449d600083018461434e565b92915050565b600063ffffffff82169050919050565b6144bc816144a3565b82525050565b60006020820190506144d760008301846144b3565b92915050565b600081519050919050565b600082825260208201905092915050565b6000819050602082019050919050565b600082825260208201905092915050565b60006145258261422c565b61452f8185614509565b935061453f818560208601614248565b61454881614272565b840191505092915050565b61455c816141c9565b82525050565b61456b81614342565b82525050565b600061014083016000830151848203600086015261458f828261451a565b91505060208301516145a46020860182614553565b5060408301516145b76040860182614553565b5060608301516145ca6060860182614553565b5060808301516145dd6080860182614553565b5060a08301516145f060a0860182614553565b5060c083015161460360c0860182614553565b5060e083015161461660e0860182614553565b5061010083015161462b610100860182614562565b50610120830151614640610120860182614553565b508091505092915050565b60006146578383614571565b905092915050565b6000602082019050919050565b6000614677826144dd565b61468181856144e8565b935083602082028501614693856144f9565b8060005b858110156146cf57848403895281516146b0858261464b565b94506146bb8361465f565b925060208a01995050600181019050614697565b50829750879550505050505092915050565b600060208201905081810360008301526146fb818461466c565b905092915050565b6000806040838503121561471a576147196141bf565b5b6000614728858286016141ea565b92505060206147398582860161441c565b9150509250929050565b61474c816143f3565b82525050565b60028110614763576147626142bc565b5b50565b600081905061477482614752565b919050565b600061478482614766565b9050919050565b61479481614779565b82525050565b610120820160008201516147b16000850182614743565b5060208201516147c46020850182614553565b5060408201516147d76040850182614553565b5060608201516147ea6060850182614553565b5060808201516147fd608085018261478b565b5060a082015161481060a0850182614553565b5060c082015161482360c0850182614553565b5060e082015161483660e0850182614553565b5061010082015161484b610100850182614553565b50505050565b600061012082019050614867600083018461479a565b92915050565b614876816144a3565b811461488157600080fd5b50565b6000813590506148938161486d565b92915050565b6000819050919050565b6148ac81614899565b81146148b757600080fd5b50565b6000813590506148c9816148a3565b92915050565b600080fd5b600080fd5b7f4e487b7100000000000000000000000000000000000000000000000000000000600052604160045260246000fd5b61491182614272565b810181811067ffffffffffffffff821117156149305761492f6148d9565b5b80604052505050565b60006149436141b5565b905061494f8282614908565b919050565b600067ffffffffffffffff82111561496f5761496e6148d9565b5b61497882614272565b9050602081019050919050565b82818337600083830152505050565b60006149a76149a284614954565b614939565b9050828152602081018484840111156149c3576149c26148d4565b5b6149ce848285614985565b509392505050565b600082601f8301126149eb576149ea6148cf565b5b81356149fb848260208601614994565b91505092915050565b600080600060608486031215614a1d57614a1c6141bf565b5b6000614a2b86828701614884565b9350506020614a3c868287016148ba565b925050604084013567ffffffffffffffff811115614a5d57614a5c6141c4565b5b614a69868287016149d6565b9150509250925092565b600081519050919050565b600082825260208201905092915050565b6000819050602082019050919050565b614aa881614312565b82525050565b600061016083016000830151614ac76000860182614553565b5060208301518482036020860152614adf828261451a565b9150506040830151614af46040860182614a9f565b5060608301518482036060860152614b0c828261451a565b9150506080830151614b216080860182614553565b5060a0830151614b3460a0860182614553565b5060c0830151614b4760c0860182614553565b5060e0830151614b5a60e0860182614553565b50610100830151614b6f610100860182614553565b50610120830151614b84610120860182614553565b50610140830151848203610140860152614b9e828261451a565b9150508091505092915050565b6000614bb78383614aae565b905092915050565b6000602082019050919050565b6000614bd782614a73565b614be18185614a7e565b935083602082028501614bf385614a8f565b8060005b85811015614c2f5784840389528151614c108582614bab565b9450614c1b83614bbf565b925060208a01995050600181019050614bf7565b50829750879550505050505092915050565b60006020820190508181036000830152614c5b8184614bcc565b905092915050565b614c6c81614899565b82525050565b6000602082019050614c876000830184614c63565b92915050565b6000602082019050614ca26000830184614333565b92915050565b60008060408385031215614cbf57614cbe6141bf565b5b6000614ccd858286016141ea565b9250506020614cde858286016141ea565b9150509250929050565b600080fd5b600080fd5b600067ffffffffffffffff821115614d0d57614d0c6148d9565b5b614d1682614272565b9050602081019050919050565b6000614d36614d3184614cf2565b614939565b905082815260208101848484011115614d5257614d516148d4565b5b614d5d848285614985565b509392505050565b600082601f830112614d7a57614d796148cf565b5b8135614d8a848260208601614d23565b91505092915050565b60048110614da057600080fd5b50565b600081359050614db281614d93565b92915050565b60006101608284031215614dcf57614dce614ce8565b5b614dda610160614939565b90506000614dea848285016141ea565b600083015250602082013567ffffffffffffffff811115614e0e57614e0d614ced565b5b614e1a84828501614d65565b6020830152506040614e2e84828501614da3565b604083015250606082013567ffffffffffffffff811115614e5257614e51614ced565b5b614e5e84828501614d65565b6060830152506080614e72848285016141ea565b60808301525060a0614e86848285016141ea565b60a08301525060c0614e9a848285016141ea565b60c08301525060e0614eae848285016141ea565b60e083015250610100614ec3848285016141ea565b61010083015250610120614ed9848285016141ea565b6101208301525061014082013567ffffffffffffffff811115614eff57614efe614ced565b5b614f0b84828501614d65565b6101408301525092915050565b60008060408385031215614f2f57614f2e6141bf565b5b6000614f3d858286016141ea565b925050602083013567ffffffffffffffff811115614f5e57614f5d6141c4565b5b614f6a85828601614db8565b9150509250929050565b6000610100820190508181036000830152614f8f818b614283565b9050614f9e602083018a614324565b614fab6040830189614333565b614fb86060830188614333565b614fc56080830187614333565b614fd260a0830186614333565b614fdf60c083018561434e565b614fec60e0830184614333565b9998505050505050505050565b60006020828403121561500f5761500e6141bf565b5b600061501d84828501614884565b91505092915050565b6000819050919050565b600061504b615046615041846143d3565b615026565b6143d3565b9050919050565b600061505d82615030565b9050919050565b600061506f82615052565b9050919050565b61507f81615064565b82525050565b600060208201905061509a6000830184615076565b92915050565b6000806000606084860312156150b9576150b86141bf565b5b60006150c7868287016141ea565b93505060206150d8868287016141ea565b92505060406150e9868287016141ea565b9150509250925092565b600081519050919050565b600082825260208201905092915050565b6000819050602082019050919050565b600061010083016000830151848203600086015261513d828261451a565b91505060208301516151526020860182614a9f565b5060408301516151656040860182614553565b5060608301516151786060860182614553565b50608083015161518b6080860182614553565b5060a083015161519e60a0860182614553565b5060c08301516151b160c0860182614562565b5060e08301516151c460e0860182614553565b508091505092915050565b60006151db838361511f565b905092915050565b6000602082019050919050565b60006151fb826150f3565b61520581856150fe565b9350836020820285016152178561510f565b8060005b85811015615253578484038952815161523485826151cf565b945061523f836151e3565b925060208a0199505060018101905061521b565b50829750879550505050505092915050565b6000602082019050818103600083015261527f81846151f0565b905092915050565b600080600080608085870312156152a1576152a06141bf565b5b60006152af87828801614da3565b945050602085013567ffffffffffffffff8111156152d0576152cf6141c4565b5b6152dc87828801614d65565b93505060406152ed878288016141ea565b92505060606152fe878288016141ea565b91505092959194509250565b600061531582615052565b9050919050565b6153258161530a565b82525050565b6000602082019050615340600083018461531c565b92915050565b600061535182615052565b9050919050565b61536181615346565b82525050565b600060208201905061537c6000830184615358565b92915050565b7f4e487b7100000000000000000000000000000000000000000000000000000000600052602260045260246000fd5b600060028204905060018216806153c957607f821691505b6020821081036153dc576153db615382565b5b50919050565b7f4e6f206465706f73697420666f756e6420666f7220746869732061646472657360008201527f7300000000000000000000000000000000000000000000000000000000000000602082015250565b600061543e602183614237565b9150615449826153e2565b604082019050919050565b6000602082019050818103600083015261546d81615431565b9050919050565b7f4465706f736974206973206e6f74206163746976650000000000000000000000600082015250565b60006154aa601583614237565b91506154b582615474565b602082019050919050565b600060208201905081810360008301526154d98161549d565b9050919050565b7f4465706f73697420706572696f6420686173206e6f7420656e64656400000000600082015250565b6000615516601c83614237565b9150615521826154e0565b602082019050919050565b6000602082019050818103600083015261554581615509565b9050919050565b7f4e487b7100000000000000000000000000000000000000000000000000000000600052601160045260246000fd5b6000615586826141c9565b9150615591836141c9565b92508282039050818111156155a9576155a861554c565b5b92915050565b7f4e487b7100000000000000000000000000000000000000000000000000000000600052603260045260246000fd5b600081905092915050565b50565b60006155f96000836155de565b9150615604826155e9565b600082019050919050565b600061561a826155ec565b9150819050919050565b7f5769746864726177616c206661696c6564000000000000000000000000000000600082015250565b600061565a601183614237565b915061566582615624565b602082019050919050565b600060208201905081810360008301526156898161564d565b9050919050565b60008190508160005260206000209050919050565b600081546156b2816153b1565b6156bc8186614237565b945060018216600081146156d757600181146156ed57615720565b60ff198316865281151560200286019350615720565b6156f685615690565b60005b83811015615718578154818901526001820191506020810190506156f9565b808801955050505b50505092915050565b600060408201905061573e6000830185614333565b818103602083015261575081846156a5565b90509392505050565b6000615764826141c9565b91507fffffffffffffffffffffffffffffffffffffffffffffffffffffffffffffffff82036157965761579561554c565b5b600182019050919050565b60006040820190506157b6600083018561445e565b6157c36020830184614333565b9392505050565b6000815190506157d9816141d3565b92915050565b6000602082840312156157f5576157f46141bf565b5b6000615803848285016157ca565b91505092915050565b6000615817826141c9565b9150615822836141c9565b9250828202615830816141c9565b915082820484148315176158475761584661554c565b5b5092915050565b7f4e487b7100000000000000000000000000000000000000000000000000000000600052601260045260246000fd5b6000615888826141c9565b9150615893836141c9565b9250826158a3576158a261584e565b5b828204905092915050565b60006158b9826141c9565b91506158c4836141c9565b92508282019050808211156158dc576158db61554c565b5b92915050565b7f53656e646572206d757374206265206d61696c626f7800000000000000000000600082015250565b6000615918601683614237565b9150615923826158e2565b602082019050919050565b600060208201905081810360008301526159478161590b565b9050919050565b600061596161595c84614cf2565b614939565b90508281526020810184848401111561597d5761597c6148d4565b5b615988848285614248565b509392505050565b600082601f8301126159a5576159a46148cf565b5b81516159b584826020860161594e565b91505092915050565b60006159d16159cc84614954565b614939565b9050828152602081018484840111156159ed576159ec6148d4565b5b6159f8848285614248565b509392505050565b600082601f830112615a1557615a146148cf565b5b8151615a258482602086016159be565b91505092915050565b60008060408385031215615a4557615a446141bf565b5b600083015167ffffffffffffffff811115615a6357615a626141c4565b5b615a6f85828601615990565b925050602083015167ffffffffffffffff811115615a9057615a8f6141c4565b5b615a9c85828601615a00565b9150509250929050565b600081905092915050565b7f706f6f6c41637469766500000000000000000000000000000000000000000000600082015250565b6000615ae7600a83615aa6565b9150615af282615ab1565b600a82019050919050565b6000615b0882615ada565b9150819050919050565b6000615b1d8261422c565b615b278185615aa6565b9350615b37818560208601614248565b80840191505092915050565b6000615b4f8284615b12565b915081905092915050565b7f617070726f76656450726f706f73616c73000000000000000000000000000000600082015250565b6000615b90601183615aa6565b9150615b9b82615b5a565b601182019050919050565b6000615bb182615b83565b9150819050919050565b60058110615bc857600080fd5b50565b600081519050615bda81615bbb565b92915050565b615be981614342565b8114615bf457600080fd5b50565b600081519050615c0681615be0565b92915050565b600081519050615c1b81614405565b92915050565b600081519050615c3081614d93565b92915050565b600060e08284031215615c4c57615c4b614ce8565b5b615c5660e0614939565b90506000615c6684828501615c0c565b6000830152506020615c7a84828501615c21565b6020830152506040615c8e848285016157ca565b604083015250606082015167ffffffffffffffff811115615cb257615cb1614ced565b5b615cbe84828501615990565b606083015250608082015167ffffffffffffffff811115615ce257615ce1614ced565b5b615cee84828501615990565b60808301525060a0615d02848285016157ca565b60a08301525060c0615d16848285016157ca565b60c08301525092915050565b60006101208284031215615d3957615d38614ce8565b5b615d44610120614939565b90506000615d54848285016157ca565b6000830152506020615d68848285016157ca565b6020830152506040615d7c848285016157ca565b6040830152506060615d90848285016157ca565b6060830152506080615da4848285016157ca565b60808301525060a0615db8848285016157ca565b60a08301525060c0615dcc84828501615bcb565b60c08301525060e0615de084828501615bf7565b60e08301525061010082015167ffffffffffffffff811115615e0557615e04614ced565b5b615e1184828501615c36565b6101008301525092915050565b600060208284031215615e3457615e336141bf565b5b600082015167ffffffffffffffff811115615e5257615e516141c4565b5b615e5e84828501615d22565b91505092915050565b60006020601f8301049050919050565b600082821b905092915050565b600060088302615eb47fffffffffffffffffffffffffffffffffffffffffffffffffffffffffffffffff82615e77565b615ebe8683615e77565b95508019841693508086168417925050509392505050565b6000615ef1615eec615ee7846141c9565b615026565b6141c9565b9050919050565b6000819050919050565b615f0b83615ed6565b615f1f615f1782615ef8565b848454615e84565b825550505050565b600090565b615f34615f27565b615f3f818484615f02565b505050565b5b81811015615f6357615f58600082615f2c565b600181019050615f45565b5050565b601f821115615fa857615f7981615690565b615f8284615e67565b81016020851015615f91578190505b615fa5615f9d85615e67565b830182615f44565b50505b505050565b600082821c905092915050565b6000615fcb60001984600802615fad565b1980831691505092915050565b6000615fe48383615fba565b9150826002028217905092915050565b615ffd8261422c565b67ffffffffffffffff811115616016576160156148d9565b5b61602082546153b1565b61602b828285615f67565b600060209050601f83116001811461605e576000841561604c578287015190505b6160568582615fd8565b8655506160be565b601f19841661606c86615690565b60005b828110156160945784890151825560018201915060208501945060208101905061606f565b868310156160b157848901516160ad601f891682615fba565b8355505b6001600288020188555050505b505050505050565b600060208201905081810360008301526160e08184614283565b905092915050565b7f476f7665726e616e636520616c72656164792073657400000000000000000000600082015250565b600061611e601683614237565b9150616129826160e8565b602082019050919050565b6000602082019050818103600083015261614d81616111565b9050919050565b7f476f7665726e616e636520616464726573732063616e6e6f74206265207a657260008201527f6f00000000000000000000000000000000000000000000000000000000000000602082015250565b60006161b0602183614237565b91506161bb82616154565b604082019050919050565b600060208201905081810360008301526161df816161a3565b9050919050565b7f506f6f6c44656163746976617465640000000000000000000000000000000000600082015250565b600061621c600f83614237565b9150616227826161e6565b602082019050919050565b600081519050919050565b600082825260208201905092915050565b600061625982616232565b616263818561623d565b9350616273818560208601614248565b61627c81614272565b840191505092915050565b600060408201905081810360008301526162a08161620f565b905081810360208301526162b4818461624e565b905092915050565b60006060820190506162d160008301866144b3565b6162de6020830185614c63565b81810360408301526162f0818461624e565b9050949350505050565b600081519050616309816148a3565b92915050565b600060208284031215616325576163246141bf565b5b6000616333848285016162fa565b91505092915050565b7f43616c6c6572206973206e6f742074686520676f7665726e616e636520636f6e60008201527f7472616374000000000000000000000000000000000000000000000000000000602082015250565b6000616398602583614237565b91506163a38261633c565b604082019050919050565b600060208201905081810360008301526163c78161638b565b9050919050565b7f416d6f756e74206d7573742062652067726561746572207468616e2030000000600082015250565b6000616404601d83614237565b915061640f826163ce565b602082019050919050565b60006020820190508181036000830152616433816163f7565b9050919050565b7f506f6f6c20697320696e616374697665206f7220646f6573206e6f742065786960008201527f7374000000000000000000000000000000000000000000000000000000000000602082015250565b6000616496602283614237565b91506164a18261643a565b604082019050919050565b600060208201905081810360008301526164c581616489565b9050919050565b7f506f6f6c20646f6573206e6f74206578697374206f7220697320696e6163746960008201527f7665000000000000000000000000000000000000000000000000000000000000602082015250565b6000616528602283614237565b9150616533826164cc565b604082019050919050565b600060208201905081810360008301526165578161651b565b9050919050565b7f496e76616c696420415059000000000000000000000000000000000000000000600082015250565b6000616594600b83614237565b915061659f8261655e565b602082019050919050565b600060208201905081810360008301526165c381616587565b9050919050565b7f496e76616c6964206d696e696d756d20706572696f6400000000000000000000600082015250565b6000616600601683614237565b915061660b826165ca565b602082019050919050565b6000602082019050818103600083015261662f816165f3565b9050919050565b600060408201905061664b6000830185614333565b6166586020830184614333565b9392505050565b7f506f6f6c41637469766500000000000000000000000000000000000000000000600082015250565b6000616695600a83614237565b91506166a08261665f565b602082019050919050565b600060408201905081810360008301526166c481616688565b905081810360208301526166d8818461624e565b905092915050565b7f50726f706f73616c206e6f7420617070726f7665640000000000000000000000600082015250565b6000616716601583614237565b9150616721826166e0565b602082019050919050565b6000602082019050818103600083015261674581616709565b9050919050565b7f4e6f7420612076616c69642070726f706f73616c000000000000000000000000600082015250565b6000616782601483614237565b915061678d8261674c565b602082019050919050565b600060208201905081810360008301526167b181616775565b9050919050565b7f506f6f6c206973206e6f74206163746976650000000000000000000000000000600082015250565b60006167ee601283614237565b91506167f9826167b8565b602082019050919050565b6000602082019050818103600083015261681d816167e1565b9050919050565b7f4e6f7420656e6f7567682066756e647320696e2074686520706f6f6c00000000600082015250565b600061685a601c83614237565b915061686582616824565b602082019050919050565b600060208201905081810360008301526168898161684d565b9050919050565b7f75706461746550726f706f73616c537461747573546f436c61696d6564000000600082015250565b60006168c6601d83614237565b91506168d182616890565b602082019050919050565b600060408201905081810360008301526168f5816168b9565b90508181036020830152616909818461624e565b905092915050565b60006060820190506169266000830186614333565b6169336020830185614333565b616940604083018461445e565b949350505050565b7f5472616e73666572206661696c65640000000000000000000000000000000000600082015250565b600061697e600f83614237565b915061698982616948565b602082019050919050565b600060208201905081810360008301526169ad81616971565b9050919050565b600060408201905081810360008301526169ce81856156a5565b90506169dd6020830184614333565b939250505056fea26469706673582212201b50ff6e6a79c320b40c7182efe64a20c09aa10fe0b8f2f7b3bd03a83414cf9d64736f6c634300081b0033",
  "linkReferences": {},
  "deployedLinkReferences": {}
}